{
  "contractName": "Refund_m1",
  "abi": [
    {
      "constant": true,
      "inputs": [],
      "name": "tb",
      "outputs": [
        {
          "name": "",
          "type": "address"
        }
      ],
      "payable": false,
      "stateMutability": "view",
      "type": "function"
    },
    {
      "constant": true,
      "inputs": [],
      "name": "percent",
      "outputs": [
        {
          "name": "",
          "type": "uint256"
        }
      ],
      "payable": false,
      "stateMutability": "view",
      "type": "function"
    },
    {
      "constant": true,
      "inputs": [
        {
          "name": "",
          "type": "address"
        }
      ],
      "name": "users",
      "outputs": [
        {
          "name": "deposit_amount",
          "type": "uint256"
        },
        {
          "name": "isReceived",
          "type": "bool"
        }
      ],
      "payable": false,
      "stateMutability": "view",
      "type": "function"
    },
    {
      "constant": true,
      "inputs": [],
      "name": "send_status",
      "outputs": [
        {
          "name": "",
          "type": "bool"
        }
      ],
      "payable": false,
      "stateMutability": "view",
      "type": "function"
    },
    {
      "constant": true,
      "inputs": [],
      "name": "admin",
      "outputs": [
        {
          "name": "",
          "type": "address"
        }
      ],
      "payable": false,
      "stateMutability": "view",
      "type": "function"
    },
    {
      "inputs": [
        {
          "name": "_tb",
          "type": "address"
        }
      ],
      "payable": false,
      "stateMutability": "nonpayable",
      "type": "constructor"
    },
    {
      "payable": true,
      "stateMutability": "payable",
      "type": "fallback"
    },
    {
      "constant": false,
      "inputs": [
        {
          "name": "_newPercent",
          "type": "uint256"
        }
      ],
      "name": "changePercent",
      "outputs": [],
      "payable": false,
      "stateMutability": "nonpayable",
      "type": "function"
    },
    {
      "constant": true,
      "inputs": [],
      "name": "checkStatus",
      "outputs": [
        {
          "name": "",
          "type": "bool"
        }
      ],
      "payable": false,
      "stateMutability": "view",
      "type": "function"
    },
    {
      "constant": false,
      "inputs": [
        {
          "name": "_newMode",
          "type": "bool"
        }
      ],
      "name": "changeStatus",
      "outputs": [],
      "payable": false,
      "stateMutability": "nonpayable",
      "type": "function"
    },
    {
      "constant": true,
      "inputs": [
        {
          "name": "_addr",
          "type": "address"
        }
      ],
      "name": "depositInfo",
      "outputs": [
        {
          "name": "referrals",
          "type": "uint256"
        },
        {
          "name": "total_deposits",
          "type": "uint256"
        },
        {
          "name": "total_payouts",
          "type": "uint256"
        },
        {
          "name": "total_structure",
          "type": "uint256"
        }
      ],
      "payable": false,
      "stateMutability": "view",
      "type": "function"
    }
  ],
  "bytecode": "0x6080604052600a6001556001600260146101000a81548160ff02191690831515021790555034801561003057600080fd5b50d3801561003d57600080fd5b50d2801561004a57600080fd5b506040516020806109258339810180604052602081101561006a57600080fd5b8101908080519060200190929190505050806000806101000a81548173ffffffffffffffffffffffffffffffffffffffff021916908373ffffffffffffffffffffffffffffffffffffffff16021790555033600260006101000a81548173ffffffffffffffffffffffffffffffffffffffff021916908373ffffffffffffffffffffffffffffffffffffffff160217905550506108198061010c6000396000f3fe6080604052600436106100a3576000357c010000000000000000000000000000000000000000000000000000000090048063812d6c4011610076578063812d6c40146102385780639b3de49b1461028d578063a87430ba146102e4578063e844aea41461036e578063f851a440146103b7576100a3565b80630ec0786d146100a55780633b7104f214610116578063634459891461015f57806370ba1113146101f3575b005b3480156100b157600080fd5b50d380156100be57600080fd5b50d280156100cb57600080fd5b506100d4610428565b604051808273ffffffffffffffffffffffffffffffffffffffff1673ffffffffffffffffffffffffffffffffffffffff16815260200191505060405180910390f35b34801561012257600080fd5b50d3801561012f57600080fd5b50d2801561013c57600080fd5b5061014561044d565b604051808215151515815260200191505060405180910390f35b34801561016b57600080fd5b50d3801561017857600080fd5b50d2801561018557600080fd5b506101c86004803603602081101561019c57600080fd5b81019080803573ffffffffffffffffffffffffffffffffffffffff1690602001909291905050506104a4565b6040518085815260200184815260200183815260200182815260200194505050505060405180910390f35b3480156101ff57600080fd5b50d3801561020c57600080fd5b50d2801561021957600080fd5b506102226105cc565b6040518082815260200191505060405180910390f35b34801561024457600080fd5b50d3801561025157600080fd5b50d2801561025e57600080fd5b5061028b6004803603602081101561027557600080fd5b81019080803590602001909291905050506105d2565b005b34801561029957600080fd5b50d380156102a657600080fd5b50d280156102b357600080fd5b506102e2600480360360208110156102ca57600080fd5b810190808035151590602001909291905050506106a1565b005b3480156102f057600080fd5b50d380156102fd57600080fd5b50d2801561030a57600080fd5b5061034d6004803603602081101561032157600080fd5b81019080803573ffffffffffffffffffffffffffffffffffffffff169060200190929190505050610783565b60405180838152602001821515151581526020019250505060405180910390f35b34801561037a57600080fd5b50d3801561038757600080fd5b50d2801561039457600080fd5b5061039d6107b4565b604051808215151515815260200191505060405180910390f35b3480156103c357600080fd5b50d380156103d057600080fd5b50d280156103dd57600080fd5b506103e66107c7565b604051808273ffffffffffffffffffffffffffffffffffffffff1673ffffffffffffffffffffffffffffffffffffffff16815260200191505060405180910390f35b6000809054906101000a900473ffffffffffffffffffffffffffffffffffffffff1681565b6000600360003373ffffffffffffffffffffffffffffffffffffffff1673ffffffffffffffffffffffffffffffffffffffff16815260200190815260200160002060010160009054906101000a900460ff16905090565b6000806000806000809054906101000a900473ffffffffffffffffffffffffffffffffffffffff1673ffffffffffffffffffffffffffffffffffffffff166374b95b2d866040518263ffffffff167c0100000000000000000000000000000000000000000000000000000000028152600401808273ffffffffffffffffffffffffffffffffffffffff1673ffffffffffffffffffffffffffffffffffffffff16815260200191505060806040518083038186803b15801561056457600080fd5b505afa158015610578573d6000803e3d6000fd5b505050506040513d608081101561058e57600080fd5b810190808051906020019092919080519060200190929190805190602001909291908051906020019092919050505093509350935093509193509193565b60015481565b600260009054906101000a900473ffffffffffffffffffffffffffffffffffffffff1673ffffffffffffffffffffffffffffffffffffffff163373ffffffffffffffffffffffffffffffffffffffff16141515610697576040517f08c379a000000000000000000000000000000000000000000000000000000000815260040180806020018281038252600b8152602001807f4e6f7420616c6c6f77656400000000000000000000000000000000000000000081525060200191505060405180910390fd5b8060018190555050565b600260009054906101000a900473ffffffffffffffffffffffffffffffffffffffff1673ffffffffffffffffffffffffffffffffffffffff163373ffffffffffffffffffffffffffffffffffffffff16141515610766576040517f08c379a000000000000000000000000000000000000000000000000000000000815260040180806020018281038252600b8152602001807f4e6f7420616c6c6f77656400000000000000000000000000000000000000000081525060200191505060405180910390fd5b80600260146101000a81548160ff02191690831515021790555050565b60036020528060005260406000206000915090508060000154908060010160009054906101000a900460ff16905082565b600260149054906101000a900460ff1681565b600260009054906101000a900473ffffffffffffffffffffffffffffffffffffffff168156fea165627a7a723058203a9db8d39bdf93884eb1c7b5ee4054aeb7135ef9469c303635296bec4b7cea350029",
  "source": "pragma solidity 0.5.4;\r\nimport \"./TronBeast.sol\";  \r\n\r\ncontract Refund_m1 {\r\n\r\n    TronBeast public tb;\r\n\r\n    uint256 public percent = 10;\r\n    address public admin;\r\n    bool public send_status = true;\r\n \r\n    constructor(TronBeast _tb) public {\r\n\r\n         tb = _tb;\r\n        admin = msg.sender; \r\n    }\r\n\r\n    struct User {\r\n        uint256 deposit_amount;\r\n        bool isReceived;\r\n    }\r\n    \r\n    mapping(address => User) public users ;\r\n    \r\n    function() payable external { \r\n      \r\n     }\r\n\r\n    // function withdraw(address payable _addr) external view returns (uint256 _val) {\r\n    //     require(users[_addr].isReceived != send_status,\"Received\");\r\n\r\n    //      _val = this.depositInfo(_addr).total_deposits*percent/100;\r\n    //     // _addr.transfer(_val);\r\n    //     users[_addr].isReceived = true;\r\n    //     return _val;\r\n    // }\r\n\r\n    function changePercent(uint256  _newPercent) public {\r\n\t\trequire(msg.sender == admin, \"Not allowed\");\r\n\t\tpercent  = _newPercent;\r\n\t} \r\n\r\n    function checkStatus() external view returns (bool) {\r\n \t\t return users[msg.sender].isReceived;\r\n\t}\r\n\r\n    function changeStatus(bool _newMode) public {\r\n\t\trequire(msg.sender == admin, \"Not allowed\");\r\n\t\tsend_status  = _newMode;\r\n\t}  \r\n   \r\n    function depositInfo(address payable _addr) external view returns (uint256 referrals, uint256 total_deposits, uint256 total_payouts, uint256 total_structure  ) {\r\n        return tb.userInfoTotals(_addr) ;\r\n    }  \r\n\r\n}",
  "sourcePath": "C:/Users/RAAKESH/Desktop/Coding/TronDapp/AATRON BEAST/Code/contracts/Refund.sol",
  "compiler": {
    "name": "solc",
    "version": "0.5.4+commit.d15a3125.mod.Emscripten.clang"
  },
  "schemaVersion": "2.0.1",
  "updatedAt": "2021-02-23T08:53:31.538Z"
}