{
  "contractName": "RKGcontract",
  "abi": [
    {
      "constant": true,
      "inputs": [],
      "name": "buffer_divider",
      "outputs": [
        {
          "name": "",
          "type": "uint256"
        }
      ],
      "payable": false,
      "stateMutability": "view",
      "type": "function"
    },
    {
      "constant": true,
      "inputs": [],
      "name": "rkg",
      "outputs": [
        {
          "name": "",
          "type": "address"
        }
      ],
      "payable": false,
      "stateMutability": "view",
      "type": "function"
    },
    {
      "constant": true,
      "inputs": [],
      "name": "one_day",
      "outputs": [
        {
          "name": "",
          "type": "uint256"
        }
      ],
      "payable": false,
      "stateMutability": "view",
      "type": "function"
    },
    {
      "constant": true,
      "inputs": [],
      "name": "mill",
      "outputs": [
        {
          "name": "",
          "type": "uint256"
        }
      ],
      "payable": false,
      "stateMutability": "view",
      "type": "function"
    },
    {
      "constant": true,
      "inputs": [],
      "name": "super_time",
      "outputs": [
        {
          "name": "",
          "type": "uint256"
        }
      ],
      "payable": false,
      "stateMutability": "view",
      "type": "function"
    },
    {
      "constant": true,
      "inputs": [],
      "name": "owner",
      "outputs": [
        {
          "name": "",
          "type": "address"
        }
      ],
      "payable": false,
      "stateMutability": "view",
      "type": "function"
    },
    {
      "constant": true,
      "inputs": [],
      "name": "total_withdraw",
      "outputs": [
        {
          "name": "",
          "type": "uint256"
        }
      ],
      "payable": false,
      "stateMutability": "view",
      "type": "function"
    },
    {
      "constant": true,
      "inputs": [
        {
          "name": "",
          "type": "address"
        }
      ],
      "name": "users",
      "outputs": [
        {
          "name": "upline",
          "type": "address"
        },
        {
          "name": "direct_referrals",
          "type": "uint256"
        },
        {
          "name": "payouts",
          "type": "uint256"
        },
        {
          "name": "gen_bonus",
          "type": "uint256"
        },
        {
          "name": "direct_bonus",
          "type": "uint256"
        },
        {
          "name": "deposit_amount",
          "type": "uint256"
        },
        {
          "name": "deposit_payouts",
          "type": "uint256"
        },
        {
          "name": "deposit_time",
          "type": "uint40"
        },
        {
          "name": "total_deposits",
          "type": "uint256"
        },
        {
          "name": "total_payouts",
          "type": "uint256"
        },
        {
          "name": "isActive",
          "type": "uint256"
        },
        {
          "name": "direct_biz",
          "type": "uint256"
        },
        {
          "name": "max_payout",
          "type": "uint256"
        }
      ],
      "payable": false,
      "stateMutability": "view",
      "type": "function"
    },
    {
      "constant": true,
      "inputs": [
        {
          "name": "",
          "type": "uint256"
        }
      ],
      "name": "ref_bonuses",
      "outputs": [
        {
          "name": "",
          "type": "uint8"
        }
      ],
      "payable": false,
      "stateMutability": "view",
      "type": "function"
    },
    {
      "constant": true,
      "inputs": [
        {
          "name": "",
          "type": "address"
        }
      ],
      "name": "users2",
      "outputs": [
        {
          "name": "super_upline",
          "type": "address"
        },
        {
          "name": "isSuper",
          "type": "bool"
        },
        {
          "name": "super_business",
          "type": "uint256"
        },
        {
          "name": "super5_bonus",
          "type": "uint256"
        },
        {
          "name": "super_directs",
          "type": "uint256"
        }
      ],
      "payable": false,
      "stateMutability": "view",
      "type": "function"
    },
    {
      "constant": true,
      "inputs": [],
      "name": "daily_roi",
      "outputs": [
        {
          "name": "",
          "type": "uint256"
        }
      ],
      "payable": false,
      "stateMutability": "view",
      "type": "function"
    },
    {
      "constant": true,
      "inputs": [],
      "name": "MAX_DEPOSIT",
      "outputs": [
        {
          "name": "",
          "type": "uint256"
        }
      ],
      "payable": false,
      "stateMutability": "view",
      "type": "function"
    },
    {
      "constant": true,
      "inputs": [],
      "name": "total_deposited",
      "outputs": [
        {
          "name": "",
          "type": "uint256"
        }
      ],
      "payable": false,
      "stateMutability": "view",
      "type": "function"
    },
    {
      "constant": true,
      "inputs": [],
      "name": "MIN_DEPOSIT",
      "outputs": [
        {
          "name": "",
          "type": "uint256"
        }
      ],
      "payable": false,
      "stateMutability": "view",
      "type": "function"
    },
    {
      "constant": true,
      "inputs": [],
      "name": "total_users",
      "outputs": [
        {
          "name": "",
          "type": "uint256"
        }
      ],
      "payable": false,
      "stateMutability": "view",
      "type": "function"
    },
    {
      "constant": true,
      "inputs": [],
      "name": "MANAGER_DEPOSIT",
      "outputs": [
        {
          "name": "",
          "type": "uint256"
        }
      ],
      "payable": false,
      "stateMutability": "view",
      "type": "function"
    },
    {
      "inputs": [
        {
          "name": "_rkg",
          "type": "address"
        }
      ],
      "payable": false,
      "stateMutability": "nonpayable",
      "type": "constructor"
    },
    {
      "payable": true,
      "stateMutability": "payable",
      "type": "fallback"
    },
    {
      "anonymous": false,
      "inputs": [
        {
          "indexed": true,
          "name": "addr",
          "type": "address"
        },
        {
          "indexed": true,
          "name": "upline",
          "type": "address"
        }
      ],
      "name": "Upline",
      "type": "event"
    },
    {
      "anonymous": false,
      "inputs": [
        {
          "indexed": true,
          "name": "addr",
          "type": "address"
        },
        {
          "indexed": false,
          "name": "amount",
          "type": "uint256"
        }
      ],
      "name": "NewDeposit",
      "type": "event"
    },
    {
      "anonymous": false,
      "inputs": [
        {
          "indexed": true,
          "name": "addr",
          "type": "address"
        },
        {
          "indexed": true,
          "name": "from",
          "type": "address"
        },
        {
          "indexed": false,
          "name": "amount",
          "type": "uint256"
        }
      ],
      "name": "MatchPayout",
      "type": "event"
    },
    {
      "anonymous": false,
      "inputs": [
        {
          "indexed": true,
          "name": "addr",
          "type": "address"
        },
        {
          "indexed": false,
          "name": "amount",
          "type": "uint256"
        }
      ],
      "name": "Withdraw",
      "type": "event"
    },
    {
      "anonymous": false,
      "inputs": [
        {
          "indexed": true,
          "name": "addr",
          "type": "address"
        },
        {
          "indexed": false,
          "name": "amount",
          "type": "uint256"
        }
      ],
      "name": "LimitReached",
      "type": "event"
    },
    {
      "anonymous": false,
      "inputs": [
        {
          "indexed": true,
          "name": "from_",
          "type": "address"
        },
        {
          "indexed": true,
          "name": "to_",
          "type": "address"
        },
        {
          "indexed": false,
          "name": "amount_",
          "type": "uint256"
        }
      ],
      "name": "TransferSuccessful",
      "type": "event"
    },
    {
      "anonymous": false,
      "inputs": [
        {
          "indexed": true,
          "name": "from_",
          "type": "address"
        },
        {
          "indexed": true,
          "name": "to_",
          "type": "address"
        },
        {
          "indexed": false,
          "name": "amount_",
          "type": "uint256"
        }
      ],
      "name": "TransferFailed",
      "type": "event"
    },
    {
      "constant": false,
      "inputs": [
        {
          "name": "_upline",
          "type": "address"
        },
        {
          "name": "_amount",
          "type": "uint256"
        }
      ],
      "name": "deposit",
      "outputs": [],
      "payable": true,
      "stateMutability": "payable",
      "type": "function"
    },
    {
      "constant": false,
      "inputs": [],
      "name": "withdraw",
      "outputs": [],
      "payable": false,
      "stateMutability": "nonpayable",
      "type": "function"
    },
    {
      "constant": true,
      "inputs": [
        {
          "name": "_addr",
          "type": "address"
        }
      ],
      "name": "payoutOf",
      "outputs": [
        {
          "name": "payout",
          "type": "uint256"
        },
        {
          "name": "max_payout",
          "type": "uint256"
        }
      ],
      "payable": false,
      "stateMutability": "view",
      "type": "function"
    },
    {
      "constant": true,
      "inputs": [],
      "name": "getContractBalance",
      "outputs": [
        {
          "name": "",
          "type": "uint256"
        }
      ],
      "payable": false,
      "stateMutability": "view",
      "type": "function"
    },
    {
      "constant": true,
      "inputs": [
        {
          "name": "_addr",
          "type": "address"
        }
      ],
      "name": "getUserBonus",
      "outputs": [
        {
          "name": "",
          "type": "uint256"
        }
      ],
      "payable": false,
      "stateMutability": "view",
      "type": "function"
    },
    {
      "constant": true,
      "inputs": [
        {
          "name": "_addr",
          "type": "address"
        }
      ],
      "name": "MaxPay",
      "outputs": [
        {
          "name": "",
          "type": "uint256"
        }
      ],
      "payable": false,
      "stateMutability": "view",
      "type": "function"
    },
    {
      "constant": true,
      "inputs": [],
      "name": "getAdmin",
      "outputs": [
        {
          "name": "",
          "type": "address"
        }
      ],
      "payable": false,
      "stateMutability": "view",
      "type": "function"
    },
    {
      "constant": false,
      "inputs": [
        {
          "name": "_newValue",
          "type": "uint256"
        }
      ],
      "name": "changeBuffer",
      "outputs": [
        {
          "name": "",
          "type": "bool"
        }
      ],
      "payable": false,
      "stateMutability": "nonpayable",
      "type": "function"
    },
    {
      "constant": true,
      "inputs": [],
      "name": "getNow",
      "outputs": [
        {
          "name": "",
          "type": "uint256"
        }
      ],
      "payable": false,
      "stateMutability": "view",
      "type": "function"
    },
    {
      "constant": true,
      "inputs": [
        {
          "name": "_addr",
          "type": "address"
        }
      ],
      "name": "getDivSupport",
      "outputs": [
        {
          "name": "_Period_days",
          "type": "uint256"
        },
        {
          "name": "_deposit_amount",
          "type": "uint256"
        }
      ],
      "payable": false,
      "stateMutability": "view",
      "type": "function"
    },
    {
      "constant": true,
      "inputs": [
        {
          "name": "_addr",
          "type": "address"
        }
      ],
      "name": "userInfo",
      "outputs": [
        {
          "name": "upline",
          "type": "address"
        },
        {
          "name": "deposit_time",
          "type": "uint40"
        },
        {
          "name": "deposit_amount",
          "type": "uint256"
        },
        {
          "name": "payouts",
          "type": "uint256"
        },
        {
          "name": "direct_bonus",
          "type": "uint256"
        },
        {
          "name": "gen_bonus",
          "type": "uint256"
        },
        {
          "name": "user_status",
          "type": "uint256"
        }
      ],
      "payable": false,
      "stateMutability": "view",
      "type": "function"
    },
    {
      "constant": true,
      "inputs": [
        {
          "name": "_addr",
          "type": "address"
        }
      ],
      "name": "superInfo",
      "outputs": [
        {
          "name": "super_upline",
          "type": "address"
        },
        {
          "name": "super_business",
          "type": "uint256"
        },
        {
          "name": "super_directs",
          "type": "uint256"
        },
        {
          "name": "isSuper",
          "type": "bool"
        },
        {
          "name": "super5_bonus",
          "type": "uint256"
        }
      ],
      "payable": false,
      "stateMutability": "view",
      "type": "function"
    },
    {
      "constant": true,
      "inputs": [
        {
          "name": "_addr",
          "type": "address"
        }
      ],
      "name": "userInfoTotals",
      "outputs": [
        {
          "name": "direct_referrals",
          "type": "uint256"
        },
        {
          "name": "total_deposits",
          "type": "uint256"
        },
        {
          "name": "total_payouts",
          "type": "uint256"
        },
        {
          "name": "direct_biz",
          "type": "uint256"
        },
        {
          "name": "deposit_payouts",
          "type": "uint256"
        }
      ],
      "payable": false,
      "stateMutability": "view",
      "type": "function"
    },
    {
      "constant": true,
      "inputs": [
        {
          "name": "_addr",
          "type": "address"
        }
      ],
      "name": "contractInfo",
      "outputs": [
        {
          "name": "total_deposited1",
          "type": "uint256"
        },
        {
          "name": "total_withdraw1",
          "type": "uint256"
        },
        {
          "name": "rkg_balance",
          "type": "uint256"
        },
        {
          "name": "user_rkg_balance",
          "type": "uint256"
        },
        {
          "name": "user_allowance",
          "type": "uint256"
        }
      ],
      "payable": false,
      "stateMutability": "view",
      "type": "function"
    },
    {
      "constant": true,
      "inputs": [
        {
          "name": "deposit_amount",
          "type": "uint256"
        },
        {
          "name": "Period",
          "type": "uint256"
        },
        {
          "name": "ROI_10",
          "type": "uint256"
        }
      ],
      "name": "comp_interest",
      "outputs": [
        {
          "name": "",
          "type": "uint256"
        }
      ],
      "payable": false,
      "stateMutability": "pure",
      "type": "function"
    },
    {
      "constant": true,
      "inputs": [
        {
          "name": "_addr",
          "type": "address"
        }
      ],
      "name": "dividends_total",
      "outputs": [
        {
          "name": "",
          "type": "uint256"
        }
      ],
      "payable": false,
      "stateMutability": "view",
      "type": "function"
    },
    {
      "constant": true,
      "inputs": [],
      "name": "checkAllowance",
      "outputs": [
        {
          "name": "",
          "type": "uint256"
        }
      ],
      "payable": false,
      "stateMutability": "view",
      "type": "function"
    },
    {
      "constant": false,
      "inputs": [
        {
          "name": "_addr",
          "type": "address"
        }
      ],
      "name": "makeSuper",
      "outputs": [
        {
          "name": "",
          "type": "bool"
        }
      ],
      "payable": false,
      "stateMutability": "nonpayable",
      "type": "function"
    },
    {
      "constant": false,
      "inputs": [
        {
          "name": "_addr",
          "type": "address"
        }
      ],
      "name": "removeSuper",
      "outputs": [
        {
          "name": "",
          "type": "bool"
        }
      ],
      "payable": false,
      "stateMutability": "nonpayable",
      "type": "function"
    }
  ],
  "bytecode": "0x60806040526001805560006005553480156200001a57600080fd5b50d380156200002857600080fd5b50d280156200003657600080fd5b50604051602080620054c5833981018060405260208110156200005857600080fd5b810190808051906020019092919050505033600860006101000a81548173ffffffffffffffffffffffffffffffffffffffff021916908373ffffffffffffffffffffffffffffffffffffffff160217905550806000806101000a81548173ffffffffffffffffffffffffffffffffffffffff021916908373ffffffffffffffffffffffffffffffffffffffff16021790555060046014908060018154018082558091505090600182039060005260206000209060209182820401919006909192909190916101000a81548160ff021916908360ff160217905550506004600a908060018154018082558091505090600182039060005260206000209060209182820401919006909192909190916101000a81548160ff021916908360ff160217905550506004600a908060018154018082558091505090600182039060005260206000209060209182820401919006909192909190916101000a81548160ff021916908360ff160217905550506004600a908060018154018082558091505090600182039060005260206000209060209182820401919006909192909190916101000a81548160ff021916908360ff160217905550506004600a908060018154018082558091505090600182039060005260206000209060209182820401919006909192909190916101000a81548160ff021916908360ff1602179055505060046005908060018154018082558091505090600182039060005260206000209060209182820401919006909192909190916101000a81548160ff021916908360ff1602179055505060046005908060018154018082558091505090600182039060005260206000209060209182820401919006909192909190916101000a81548160ff021916908360ff1602179055505060046005908060018154018082558091505090600182039060005260206000209060209182820401919006909192909190916101000a81548160ff021916908360ff1602179055505060046005908060018154018082558091505090600182039060005260206000209060209182820401919006909192909190916101000a81548160ff021916908360ff1602179055505060046005908060018154018082558091505090600182039060005260206000209060209182820401919006909192909190916101000a81548160ff021916908360ff16021790555050506150f080620003d56000396000f3fe608060405260043610610221576000357c01000000000000000000000000000000000000000000000000000000009004806382667bbc11610135578063bf39a89c116100bd578063e11eb98d1161008c578063e11eb98d14610f80578063e1e158a51461101b578063e7cc62bd14611060578063e8a7a6b5146110a5578063ff3fa15b146110ea57610221565b8063bf39a89c14610de6578063ce4a7b1514610eb1578063dd5967c314610ef6578063de560cca14610f3b57610221565b80639a5d20e9116101045780639a5d20e914610b615780639a8318f414610be0578063a87430ba14610c25578063b7d9f0d214610d32578063bbe4fd5014610da157610221565b806382667bbc146109e35780638b8e122814610a665780638da5cb5b14610aab5780639405de6414610b1c57610221565b806347e7ef24116101b85780636e9960c3116101875780636e9960c3146107415780636f9fb98a146107b25780636fa47789146107f757806374b95b2d146108c25780637eb05cf31461095d57610221565b806347e7ef24146105bb5780634eac8bfe1461060957806355b47b951461064e5780636da61d1e146106bb57610221565b806319cfad19116101f457806319cfad191461040b5780632892d8741461048a578063383b47c3146105075780633ccfd60b1461058a57610221565b8063093a12c41461022d5780630f59968a146102725780631484a26d146102e35780631959a00214610328575b61022b3334611169565b005b34801561023957600080fd5b50d3801561024657600080fd5b50d2801561025357600080fd5b5061025c611e4b565b6040518082815260200191505060405180910390f35b34801561027e57600080fd5b50d3801561028b57600080fd5b50d2801561029857600080fd5b506102a1611e51565b604051808273ffffffffffffffffffffffffffffffffffffffff1673ffffffffffffffffffffffffffffffffffffffff16815260200191505060405180910390f35b3480156102ef57600080fd5b50d380156102fc57600080fd5b50d2801561030957600080fd5b50610312611e76565b6040518082815260200191505060405180910390f35b34801561033457600080fd5b50d3801561034157600080fd5b50d2801561034e57600080fd5b506103916004803603602081101561036557600080fd5b81019080803573ffffffffffffffffffffffffffffffffffffffff169060200190929190505050611e7b565b604051808873ffffffffffffffffffffffffffffffffffffffff1673ffffffffffffffffffffffffffffffffffffffff1681526020018764ffffffffff1664ffffffffff16815260200186815260200185815260200184815260200183815260200182815260200197505050505050505060405180910390f35b34801561041757600080fd5b50d3801561042457600080fd5b50d2801561043157600080fd5b506104746004803603602081101561044857600080fd5b81019080803573ffffffffffffffffffffffffffffffffffffffff1690602001909291905050506120a5565b6040518082815260200191505060405180910390f35b34801561049657600080fd5b50d380156104a357600080fd5b50d280156104b057600080fd5b506104f1600480360360608110156104c757600080fd5b810190808035906020019092919080359060200190929190803590602001909291905050506121a8565b6040518082815260200191505060405180910390f35b34801561051357600080fd5b50d3801561052057600080fd5b50d2801561052d57600080fd5b506105706004803603602081101561054457600080fd5b81019080803573ffffffffffffffffffffffffffffffffffffffff1690602001909291905050506121fc565b604051808215151515815260200191505060405180910390f35b34801561059657600080fd5b50d380156105a357600080fd5b50d280156105b057600080fd5b506105b9612261565b005b610607600480360360408110156105d157600080fd5b81019080803573ffffffffffffffffffffffffffffffffffffffff16906020019092919080359060200190929190505050612efc565b005b34801561061557600080fd5b50d3801561062257600080fd5b50d2801561062f57600080fd5b50610638612f14565b6040518082815260200191505060405180910390f35b34801561065a57600080fd5b50d3801561066757600080fd5b50d2801561067457600080fd5b506106a16004803603602081101561068b57600080fd5b8101908080359060200190929190505050612f1b565b604051808215151515815260200191505060405180910390f35b3480156106c757600080fd5b50d380156106d457600080fd5b50d280156106e157600080fd5b50610724600480360360208110156106f857600080fd5b81019080803573ffffffffffffffffffffffffffffffffffffffff169060200190929190505050612f2d565b604051808381526020018281526020019250505060405180910390f35b34801561074d57600080fd5b50d3801561075a57600080fd5b50d2801561076757600080fd5b506107706131c4565b604051808273ffffffffffffffffffffffffffffffffffffffff1673ffffffffffffffffffffffffffffffffffffffff16815260200191505060405180910390f35b3480156107be57600080fd5b50d380156107cb57600080fd5b50d280156107d857600080fd5b506107e16131ee565b6040518082815260200191505060405180910390f35b34801561080357600080fd5b50d3801561081057600080fd5b50d2801561081d57600080fd5b506108606004803603602081101561083457600080fd5b81019080803573ffffffffffffffffffffffffffffffffffffffff16906020019092919050505061320d565b604051808673ffffffffffffffffffffffffffffffffffffffff1673ffffffffffffffffffffffffffffffffffffffff168152602001858152602001848152602001831515151581526020018281526020019550505050505060405180910390f35b3480156108ce57600080fd5b50d380156108db57600080fd5b50d280156108e857600080fd5b5061092b600480360360208110156108ff57600080fd5b81019080803573ffffffffffffffffffffffffffffffffffffffff1690602001909291905050506133a4565b604051808681526020018581526020018481526020018381526020018281526020019550505050505060405180910390f35b34801561096957600080fd5b50d3801561097657600080fd5b50d2801561098357600080fd5b506109c66004803603602081101561099a57600080fd5b81019080803573ffffffffffffffffffffffffffffffffffffffff16906020019092919050505061350e565b604051808381526020018281526020019250505060405180910390f35b3480156109ef57600080fd5b50d380156109fc57600080fd5b50d28015610a0957600080fd5b50610a4c60048036036020811015610a2057600080fd5b81019080803573ffffffffffffffffffffffffffffffffffffffff1690602001909291905050506135c6565b604051808215151515815260200191505060405180910390f35b348015610a7257600080fd5b50d38015610a7f57600080fd5b50d28015610a8c57600080fd5b50610a9561362c565b6040518082815260200191505060405180910390f35b348015610ab757600080fd5b50d38015610ac457600080fd5b50d28015610ad157600080fd5b50610ada613634565b604051808273ffffffffffffffffffffffffffffffffffffffff1673ffffffffffffffffffffffffffffffffffffffff16815260200191505060405180910390f35b348015610b2857600080fd5b50d38015610b3557600080fd5b50d28015610b4257600080fd5b50610b4b61365a565b6040518082815260200191505060405180910390f35b348015610b6d57600080fd5b50d38015610b7a57600080fd5b50d28015610b8757600080fd5b50610bca60048036036020811015610b9e57600080fd5b81019080803573ffffffffffffffffffffffffffffffffffffffff16906020019092919050505061378a565b6040518082815260200191505060405180910390f35b348015610bec57600080fd5b50d38015610bf957600080fd5b50d28015610c0657600080fd5b50610c0f6137d6565b6040518082815260200191505060405180910390f35b348015610c3157600080fd5b50d38015610c3e57600080fd5b50d28015610c4b57600080fd5b50610c8e60048036036020811015610c6257600080fd5b81019080803573ffffffffffffffffffffffffffffffffffffffff1690602001909291905050506137dc565b604051808e73ffffffffffffffffffffffffffffffffffffffff1673ffffffffffffffffffffffffffffffffffffffff1681526020018d81526020018c81526020018b81526020018a81526020018981526020018881526020018764ffffffffff1664ffffffffff1681526020018681526020018581526020018481526020018381526020018281526020019d505050505050505050505050505060405180910390f35b348015610d3e57600080fd5b50d38015610d4b57600080fd5b50d28015610d5857600080fd5b50610d8560048036036020811015610d6f57600080fd5b8101908080359060200190929190505050613873565b604051808260ff1660ff16815260200191505060405180910390f35b348015610dad57600080fd5b50d38015610dba57600080fd5b50d28015610dc757600080fd5b50610dd06138a6565b6040518082815260200191505060405180910390f35b348015610df257600080fd5b50d38015610dff57600080fd5b50d28015610e0c57600080fd5b50610e4f60048036036020811015610e2357600080fd5b81019080803573ffffffffffffffffffffffffffffffffffffffff1690602001909291905050506138ae565b604051808673ffffffffffffffffffffffffffffffffffffffff1673ffffffffffffffffffffffffffffffffffffffff168152602001851515151581526020018481526020018381526020018281526020019550505050505060405180910390f35b348015610ebd57600080fd5b50d38015610eca57600080fd5b50d28015610ed757600080fd5b50610ee0613911565b6040518082815260200191505060405180910390f35b348015610f0257600080fd5b50d38015610f0f57600080fd5b50d28015610f1c57600080fd5b50610f25613916565b6040518082815260200191505060405180910390f35b348015610f4757600080fd5b50d38015610f5457600080fd5b50d28015610f6157600080fd5b50610f6a61391f565b6040518082815260200191505060405180910390f35b348015610f8c57600080fd5b50d38015610f9957600080fd5b50d28015610fa657600080fd5b50610fe960048036036020811015610fbd57600080fd5b81019080803573ffffffffffffffffffffffffffffffffffffffff169060200190929190505050613925565b604051808681526020018581526020018481526020018381526020018281526020019550505050505060405180910390f35b34801561102757600080fd5b50d3801561103457600080fd5b50d2801561104157600080fd5b5061104a613c59565b6040518082815260200191505060405180910390f35b34801561106c57600080fd5b50d3801561107957600080fd5b50d2801561108657600080fd5b5061108f613c63565b6040518082815260200191505060405180910390f35b3480156110b157600080fd5b50d380156110be57600080fd5b50d280156110cb57600080fd5b506110d4613c69565b6040518082815260200191505060405180910390f35b3480156110f657600080fd5b50d3801561110357600080fd5b50d2801561111057600080fd5b506111536004803603602081101561112757600080fd5b81019080803573ffffffffffffffffffffffffffffffffffffffff169060200190929190505050613c74565b6040518082815260200191505060405180910390f35b600073ffffffffffffffffffffffffffffffffffffffff16600260008473ffffffffffffffffffffffffffffffffffffffff1673ffffffffffffffffffffffffffffffffffffffff16815260200190815260200160002060000160009054906101000a900473ffffffffffffffffffffffffffffffffffffffff1673ffffffffffffffffffffffffffffffffffffffff161415806112545750600860009054906101000a900473ffffffffffffffffffffffffffffffffffffffff1673ffffffffffffffffffffffffffffffffffffffff168273ffffffffffffffffffffffffffffffffffffffff16145b15156112c8576040517f08c379a00000000000000000000000000000000000000000000000000000000081526004018080602001828103825260098152602001807f4e6f2075706c696e65000000000000000000000000000000000000000000000081525060200191505060405180910390fd5b6000600260008473ffffffffffffffffffffffffffffffffffffffff1673ffffffffffffffffffffffffffffffffffffffff16815260200190815260200160002060070160009054906101000a900464ffffffffff1664ffffffffff1611156114e657600260008373ffffffffffffffffffffffffffffffffffffffff1673ffffffffffffffffffffffffffffffffffffffff168152602001908152602001600020600c0154600260008473ffffffffffffffffffffffffffffffffffffffff1673ffffffffffffffffffffffffffffffffffffffff1681526020019081526020016000206002015410151515611427576040517f08c379a00000000000000000000000000000000000000000000000000000000081526004018080602001828103825260168152602001807f4465706f73697420616c7265616479206578697374730000000000000000000081525060200191505060405180910390fd5b600260008373ffffffffffffffffffffffffffffffffffffffff1673ffffffffffffffffffffffffffffffffffffffff1681526020019081526020016000206005015481101515156114e1576040517f08c379a000000000000000000000000000000000000000000000000000000000815260040180806020018281038252600a8152602001807f42616420616d6f756e740000000000000000000000000000000000000000000081525060200191505060405180910390fd5b611576565b620f4240601e0281101580156115015750620f424080028111155b1515611575576040517f08c379a000000000000000000000000000000000000000000000000000000000815260040180806020018281038252600a8152602001807f42616420616d6f756e740000000000000000000000000000000000000000000081525060200191505060405180910390fd5b5b60008111151561158557600080fd5b61158f3082614146565b6000600260008473ffffffffffffffffffffffffffffffffffffffff1673ffffffffffffffffffffffffffffffffffffffff1681526020019081526020016000206002018190555080600260008473ffffffffffffffffffffffffffffffffffffffff1673ffffffffffffffffffffffffffffffffffffffff1681526020019081526020016000206005018190555060028102600260008473ffffffffffffffffffffffffffffffffffffffff1673ffffffffffffffffffffffffffffffffffffffff168152602001908152602001600020600c01819055506000600260008473ffffffffffffffffffffffffffffffffffffffff1673ffffffffffffffffffffffffffffffffffffffff168152602001908152602001600020600601819055506001600260008473ffffffffffffffffffffffffffffffffffffffff1673ffffffffffffffffffffffffffffffffffffffff168152602001908152602001600020600a018190555042600260008473ffffffffffffffffffffffffffffffffffffffff1673ffffffffffffffffffffffffffffffffffffffff16815260200190815260200160002060070160006101000a81548164ffffffffff021916908364ffffffffff16021790555080600260008473ffffffffffffffffffffffffffffffffffffffff1673ffffffffffffffffffffffffffffffffffffffff168152602001908152602001600020600801600082825401925050819055506000600260008473ffffffffffffffffffffffffffffffffffffffff1673ffffffffffffffffffffffffffffffffffffffff16815260200190815260200160002060000160009054906101000a900473ffffffffffffffffffffffffffffffffffffffff1690506000600260008573ffffffffffffffffffffffffffffffffffffffff1673ffffffffffffffffffffffffffffffffffffffff16815260200190815260200160002060000160009054906101000a900473ffffffffffffffffffffffffffffffffffffffff16905061188281614483565b82600260008473ffffffffffffffffffffffffffffffffffffffff1673ffffffffffffffffffffffffffffffffffffffff168152602001908152602001600020600b016000828254019250508190555082600260008473ffffffffffffffffffffffffffffffffffffffff1673ffffffffffffffffffffffffffffffffffffffff16815260200190815260200160002060050154111580156119845750603c600f02600260008473ffffffffffffffffffffffffffffffffffffffff1673ffffffffffffffffffffffffffffffffffffffff16815260200190815260200160002060070160009054906101000a900464ffffffffff1664ffffffffff16014211155b15611b0a57600360008373ffffffffffffffffffffffffffffffffffffffff1673ffffffffffffffffffffffffffffffffffffffff168152602001908152602001600020600301600081548092919060010191905055506005600360008473ffffffffffffffffffffffffffffffffffffffff1673ffffffffffffffffffffffffffffffffffffffff16815260200190815260200160002060030154148015611a6f57506000600360008473ffffffffffffffffffffffffffffffffffffffff1673ffffffffffffffffffffffffffffffffffffffff16815260200190815260200160002060020154145b15611b095760028060008473ffffffffffffffffffffffffffffffffffffffff1673ffffffffffffffffffffffffffffffffffffffff16815260200190815260200160002060050154811515611ac157fe5b04600360008473ffffffffffffffffffffffffffffffffffffffff1673ffffffffffffffffffffffffffffffffffffffff168152602001908152602001600020600201819055505b5b826006600082825401925050819055508373ffffffffffffffffffffffffffffffffffffffff167f2cb77763bc1e8490c1a904905c4d74b4269919aca114464f4bb4d911e60de364846040518082815260200191505060405180910390a260006064600a8502811515611b7957fe5b04905080600260008573ffffffffffffffffffffffffffffffffffffffff1673ffffffffffffffffffffffffffffffffffffffff1681526020019081526020016000206004016000828254019250508190555060011515600360008473ffffffffffffffffffffffffffffffffffffffff1673ffffffffffffffffffffffffffffffffffffffff16815260200190815260200160002060000160149054906101000a900460ff1615151415611cae5781600360008773ffffffffffffffffffffffffffffffffffffffff1673ffffffffffffffffffffffffffffffffffffffff16815260200190815260200160002060000160006101000a81548173ffffffffffffffffffffffffffffffffffffffff021916908373ffffffffffffffffffffffffffffffffffffffff160217905550611d92565b600360008373ffffffffffffffffffffffffffffffffffffffff1673ffffffffffffffffffffffffffffffffffffffff16815260200190815260200160002060000160009054906101000a900473ffffffffffffffffffffffffffffffffffffffff16600360008773ffffffffffffffffffffffffffffffffffffffff1673ffffffffffffffffffffffffffffffffffffffff16815260200190815260200160002060000160006101000a81548173ffffffffffffffffffffffffffffffffffffffff021916908373ffffffffffffffffffffffffffffffffffffffff1602179055505b8360036000600360008973ffffffffffffffffffffffffffffffffffffffff1673ffffffffffffffffffffffffffffffffffffffff16815260200190815260200160002060000160009054906101000a900473ffffffffffffffffffffffffffffffffffffffff1673ffffffffffffffffffffffffffffffffffffffff1673ffffffffffffffffffffffffffffffffffffffff168152602001908152602001600020600101600082825401925050819055505050505050565b60015481565b6000809054906101000a900473ffffffffffffffffffffffffffffffffffffffff1681565b603c81565b6000806000806000806000600260008973ffffffffffffffffffffffffffffffffffffffff1673ffffffffffffffffffffffffffffffffffffffff16815260200190815260200160002060000160009054906101000a900473ffffffffffffffffffffffffffffffffffffffff16600260008a73ffffffffffffffffffffffffffffffffffffffff1673ffffffffffffffffffffffffffffffffffffffff16815260200190815260200160002060070160009054906101000a900464ffffffffff16600260008b73ffffffffffffffffffffffffffffffffffffffff1673ffffffffffffffffffffffffffffffffffffffff16815260200190815260200160002060050154600260008c73ffffffffffffffffffffffffffffffffffffffff1673ffffffffffffffffffffffffffffffffffffffff16815260200190815260200160002060020154600260008d73ffffffffffffffffffffffffffffffffffffffff1673ffffffffffffffffffffffffffffffffffffffff16815260200190815260200160002060040154600260008e73ffffffffffffffffffffffffffffffffffffffff1673ffffffffffffffffffffffffffffffffffffffff16815260200190815260200160002060030154600260008f73ffffffffffffffffffffffffffffffffffffffff1673ffffffffffffffffffffffffffffffffffffffff168152602001908152602001600020600a01549650965096509650965096509650919395979092949650565b600080600260008473ffffffffffffffffffffffffffffffffffffffff1673ffffffffffffffffffffffffffffffffffffffff16815260200190815260200160002060050154905060008190506000603c600260008773ffffffffffffffffffffffffffffffffffffffff1673ffffffffffffffffffffffffffffffffffffffff16815260200190815260200160002060070160009054906101000a900464ffffffffff16420364ffffffffff1681151561215c57fe5b04905060008090505b8181101561219a57600a60646002860281151561217e57fe5b0481151561218857fe5b04840193508080600101915050612165565b508183039350505050919050565b600080849050600085905060008090505b858110156121ed57600a60648685028115156121d157fe5b048115156121db57fe5b048301925080806001019150506121b9565b50808203925050509392505050565b600080600360008473ffffffffffffffffffffffffffffffffffffffff1673ffffffffffffffffffffffffffffffffffffffff16815260200190815260200160002060000160146101000a81548160ff02191690831515021790555060019050919050565b6000803073ffffffffffffffffffffffffffffffffffffffff16636da61d1e336040518263ffffffff167c0100000000000000000000000000000000000000000000000000000000028152600401808273ffffffffffffffffffffffffffffffffffffffff1673ffffffffffffffffffffffffffffffffffffffff168152602001915050604080518083038186803b1580156122fc57600080fd5b505afa158015612310573d6000803e3d6000fd5b505050506040513d604081101561232657600080fd5b8101908080519060200190929190805190602001909291905050509150915080600260003373ffffffffffffffffffffffffffffffffffffffff1673ffffffffffffffffffffffffffffffffffffffff168152602001908152602001600020600201541015156123fe576040517f08c379a000000000000000000000000000000000000000000000000000000000815260040180806020018281038252600c8152602001807f46756c6c207061796f757473000000000000000000000000000000000000000081525060200191505060405180910390fd5b6000821115612546578082600260003373ffffffffffffffffffffffffffffffffffffffff1673ffffffffffffffffffffffffffffffffffffffff1681526020019081526020016000206002015401111561249b57600260003373ffffffffffffffffffffffffffffffffffffffff1673ffffffffffffffffffffffffffffffffffffffff16815260200190815260200160002060020154810391505b81600260003373ffffffffffffffffffffffffffffffffffffffff1673ffffffffffffffffffffffffffffffffffffffff1681526020019081526020016000206006016000828254019250508190555081600260003373ffffffffffffffffffffffffffffffffffffffff1673ffffffffffffffffffffffffffffffffffffffff168152602001908152602001600020600201600082825401925050819055506125453383614968565b5b80600260003373ffffffffffffffffffffffffffffffffffffffff1673ffffffffffffffffffffffffffffffffffffffff168152602001908152602001600020600201541080156125d957506000600260003373ffffffffffffffffffffffffffffffffffffffff1673ffffffffffffffffffffffffffffffffffffffff16815260200190815260200160002060040154115b15612760576000600260003373ffffffffffffffffffffffffffffffffffffffff1673ffffffffffffffffffffffffffffffffffffffff1681526020019081526020016000206004015490508181600260003373ffffffffffffffffffffffffffffffffffffffff1673ffffffffffffffffffffffffffffffffffffffff168152602001908152602001600020600201540111156126b957600260003373ffffffffffffffffffffffffffffffffffffffff1673ffffffffffffffffffffffffffffffffffffffff16815260200190815260200160002060020154820390505b80600260003373ffffffffffffffffffffffffffffffffffffffff1673ffffffffffffffffffffffffffffffffffffffff1681526020019081526020016000206004016000828254039250508190555080600260003373ffffffffffffffffffffffffffffffffffffffff1673ffffffffffffffffffffffffffffffffffffffff168152602001908152602001600020600201600082825401925050819055508083019250505b80600260003373ffffffffffffffffffffffffffffffffffffffff1673ffffffffffffffffffffffffffffffffffffffff168152602001908152602001600020600201541080156127f357506000600360003373ffffffffffffffffffffffffffffffffffffffff1673ffffffffffffffffffffffffffffffffffffffff16815260200190815260200160002060020154115b1561297a576000600360003373ffffffffffffffffffffffffffffffffffffffff1673ffffffffffffffffffffffffffffffffffffffff1681526020019081526020016000206002015490508181600260003373ffffffffffffffffffffffffffffffffffffffff1673ffffffffffffffffffffffffffffffffffffffff168152602001908152602001600020600201540111156128d357600260003373ffffffffffffffffffffffffffffffffffffffff1673ffffffffffffffffffffffffffffffffffffffff16815260200190815260200160002060020154820390505b80600360003373ffffffffffffffffffffffffffffffffffffffff1673ffffffffffffffffffffffffffffffffffffffff1681526020019081526020016000206002016000828254039250508190555080600260003373ffffffffffffffffffffffffffffffffffffffff1673ffffffffffffffffffffffffffffffffffffffff168152602001908152602001600020600201600082825401925050819055508083019250505b80600260003373ffffffffffffffffffffffffffffffffffffffff1673ffffffffffffffffffffffffffffffffffffffff16815260200190815260200160002060020154108015612a0d57506000600260003373ffffffffffffffffffffffffffffffffffffffff1673ffffffffffffffffffffffffffffffffffffffff16815260200190815260200160002060030154115b15612b94576000600260003373ffffffffffffffffffffffffffffffffffffffff1673ffffffffffffffffffffffffffffffffffffffff1681526020019081526020016000206003015490508181600260003373ffffffffffffffffffffffffffffffffffffffff1673ffffffffffffffffffffffffffffffffffffffff16815260200190815260200160002060020154011115612aed57600260003373ffffffffffffffffffffffffffffffffffffffff1673ffffffffffffffffffffffffffffffffffffffff16815260200190815260200160002060020154820390505b80600260003373ffffffffffffffffffffffffffffffffffffffff1673ffffffffffffffffffffffffffffffffffffffff1681526020019081526020016000206003016000828254039250508190555080600260003373ffffffffffffffffffffffffffffffffffffffff1673ffffffffffffffffffffffffffffffffffffffff168152602001908152602001600020600201600082825401925050819055508083019250505b600082111515612c0c576040517f08c379a000000000000000000000000000000000000000000000000000000000815260040180806020018281038252600b8152602001807f5a65726f207061796f757400000000000000000000000000000000000000000081525060200191505060405180910390fd5b60015482811515612c1957fe5b04915081600260003373ffffffffffffffffffffffffffffffffffffffff1673ffffffffffffffffffffffffffffffffffffffff16815260200190815260200160002060090160008282540192505081905550816007600082825401925050819055506000821115612d86576000809054906101000a900473ffffffffffffffffffffffffffffffffffffffff1673ffffffffffffffffffffffffffffffffffffffff1663a9059cbb33846040518363ffffffff167c0100000000000000000000000000000000000000000000000000000000028152600401808373ffffffffffffffffffffffffffffffffffffffff1673ffffffffffffffffffffffffffffffffffffffff16815260200182815260200192505050602060405180830381600087803b158015612d4957600080fd5b505af1158015612d5d573d6000803e3d6000fd5b505050506040513d6020811015612d7357600080fd5b8101908080519060200190929190505050505b3373ffffffffffffffffffffffffffffffffffffffff167f884edad9ce6fa2440d8a54cc123490eb96d2768479d49ff9c7366125a9424364836040518082815260200191505060405180910390a280600260003373ffffffffffffffffffffffffffffffffffffffff1673ffffffffffffffffffffffffffffffffffffffff16815260200190815260200160002060020154101515612ef8573373ffffffffffffffffffffffffffffffffffffffff167f97ddeb77c85e6a1dd99a34fe2bb1a4f9b211d5ffced7a707de9dbeb24363d0e4600260003373ffffffffffffffffffffffffffffffffffffffff1673ffffffffffffffffffffffffffffffffffffffff168152602001908152602001600020600201546040518082815260200191505060405180910390a26000600260003373ffffffffffffffffffffffffffffffffffffffff1673ffffffffffffffffffffffffffffffffffffffff168152602001908152602001600020600a01819055505b5050565b612f063383614d99565b612f103382611169565b5050565b620f424081565b60008160018190555060019050919050565b600080600260008473ffffffffffffffffffffffffffffffffffffffff1673ffffffffffffffffffffffffffffffffffffffff168152602001908152602001600020600c015490506000603c600260008673ffffffffffffffffffffffffffffffffffffffff1673ffffffffffffffffffffffffffffffffffffffff16815260200190815260200160002060070160009054906101000a900464ffffffffff1664ffffffffff164203811515612fdf57fe5b04905081600260008673ffffffffffffffffffffffffffffffffffffffff1673ffffffffffffffffffffffffffffffffffffffff1681526020019081526020016000206006015410156131be573073ffffffffffffffffffffffffffffffffffffffff16632892d874600260008773ffffffffffffffffffffffffffffffffffffffff1673ffffffffffffffffffffffffffffffffffffffff168152602001908152602001600020600501548360026040518463ffffffff167c010000000000000000000000000000000000000000000000000000000002815260040180848152602001838152602001828152602001935050505060206040518083038186803b1580156130ec57600080fd5b505afa158015613100573d6000803e3d6000fd5b505050506040513d602081101561311657600080fd5b810190808051906020019092919050505092508183600260008773ffffffffffffffffffffffffffffffffffffffff1673ffffffffffffffffffffffffffffffffffffffff168152602001908152602001600020600601540111156131bd57600260008573ffffffffffffffffffffffffffffffffffffffff1673ffffffffffffffffffffffffffffffffffffffff16815260200190815260200160002060060154820392505b5b50915091565b6000600860009054906101000a900473ffffffffffffffffffffffffffffffffffffffff16905090565b60003073ffffffffffffffffffffffffffffffffffffffff1631905090565b6000806000806000600360008773ffffffffffffffffffffffffffffffffffffffff1673ffffffffffffffffffffffffffffffffffffffff16815260200190815260200160002060000160009054906101000a900473ffffffffffffffffffffffffffffffffffffffff16600360008873ffffffffffffffffffffffffffffffffffffffff1673ffffffffffffffffffffffffffffffffffffffff16815260200190815260200160002060010154600360008973ffffffffffffffffffffffffffffffffffffffff1673ffffffffffffffffffffffffffffffffffffffff16815260200190815260200160002060030154600360008a73ffffffffffffffffffffffffffffffffffffffff1673ffffffffffffffffffffffffffffffffffffffff16815260200190815260200160002060000160149054906101000a900460ff16600360008b73ffffffffffffffffffffffffffffffffffffffff1673ffffffffffffffffffffffffffffffffffffffff168152602001908152602001600020600201549450945094509450945091939590929450565b6000806000806000600260008773ffffffffffffffffffffffffffffffffffffffff1673ffffffffffffffffffffffffffffffffffffffff16815260200190815260200160002060010154600260008873ffffffffffffffffffffffffffffffffffffffff1673ffffffffffffffffffffffffffffffffffffffff16815260200190815260200160002060080154600260008973ffffffffffffffffffffffffffffffffffffffff1673ffffffffffffffffffffffffffffffffffffffff16815260200190815260200160002060090154600260008a73ffffffffffffffffffffffffffffffffffffffff1673ffffffffffffffffffffffffffffffffffffffff168152602001908152602001600020600b0154600260008b73ffffffffffffffffffffffffffffffffffffffff1673ffffffffffffffffffffffffffffffffffffffff168152602001908152602001600020600601549450945094509450945091939590929450565b600080603c600260008573ffffffffffffffffffffffffffffffffffffffff1673ffffffffffffffffffffffffffffffffffffffff16815260200190815260200160002060070160009054906101000a900464ffffffffff16420364ffffffffff1681151561357957fe5b04600260008573ffffffffffffffffffffffffffffffffffffffff1673ffffffffffffffffffffffffffffffffffffffff1681526020019081526020016000206005015491509150915091565b60006001600360008473ffffffffffffffffffffffffffffffffffffffff1673ffffffffffffffffffffffffffffffffffffffff16815260200190815260200160002060000160146101000a81548160ff02191690831515021790555060019050919050565b603c600f0281565b600860009054906101000a900473ffffffffffffffffffffffffffffffffffffffff1681565b60008060009054906101000a900473ffffffffffffffffffffffffffffffffffffffff1673ffffffffffffffffffffffffffffffffffffffff1663dd62ed3e33306040518363ffffffff167c0100000000000000000000000000000000000000000000000000000000028152600401808373ffffffffffffffffffffffffffffffffffffffff1673ffffffffffffffffffffffffffffffffffffffff1681526020018273ffffffffffffffffffffffffffffffffffffffff1673ffffffffffffffffffffffffffffffffffffffff1681526020019250505060206040518083038186803b15801561374a57600080fd5b505afa15801561375e573d6000803e3d6000fd5b505050506040513d602081101561377457600080fd5b8101908080519060200190929190505050905090565b6000600260008373ffffffffffffffffffffffffffffffffffffffff1673ffffffffffffffffffffffffffffffffffffffff168152602001908152602001600020600c01549050919050565b60075481565b60026020528060005260406000206000915090508060000160009054906101000a900473ffffffffffffffffffffffffffffffffffffffff16908060010154908060020154908060030154908060040154908060050154908060060154908060070160009054906101000a900464ffffffffff169080600801549080600901549080600a01549080600b01549080600c015490508d565b60048181548110151561388257fe5b9060005260206000209060209182820401919006915054906101000a900460ff1681565b600042905090565b60036020528060005260406000206000915090508060000160009054906101000a900473ffffffffffffffffffffffffffffffffffffffff16908060000160149054906101000a900460ff16908060010154908060020154908060030154905085565b600281565b620f4240800281565b60065481565b60008060008060006006546007546000809054906101000a900473ffffffffffffffffffffffffffffffffffffffff1673ffffffffffffffffffffffffffffffffffffffff166370a08231306040518263ffffffff167c0100000000000000000000000000000000000000000000000000000000028152600401808273ffffffffffffffffffffffffffffffffffffffff1673ffffffffffffffffffffffffffffffffffffffff16815260200191505060206040518083038186803b1580156139ed57600080fd5b505afa158015613a01573d6000803e3d6000fd5b505050506040513d6020811015613a1757600080fd5b81019080805190602001909291905050506000809054906101000a900473ffffffffffffffffffffffffffffffffffffffff1673ffffffffffffffffffffffffffffffffffffffff166370a082318a6040518263ffffffff167c0100000000000000000000000000000000000000000000000000000000028152600401808273ffffffffffffffffffffffffffffffffffffffff1673ffffffffffffffffffffffffffffffffffffffff16815260200191505060206040518083038186803b158015613ae257600080fd5b505afa158015613af6573d6000803e3d6000fd5b505050506040513d6020811015613b0c57600080fd5b81019080805190602001909291905050506000809054906101000a900473ffffffffffffffffffffffffffffffffffffffff1673ffffffffffffffffffffffffffffffffffffffff1663dd62ed3e8b306040518363ffffffff167c0100000000000000000000000000000000000000000000000000000000028152600401808373ffffffffffffffffffffffffffffffffffffffff1673ffffffffffffffffffffffffffffffffffffffff1681526020018273ffffffffffffffffffffffffffffffffffffffff1673ffffffffffffffffffffffffffffffffffffffff1681526020019250505060206040518083038186803b158015613c0b57600080fd5b505afa158015613c1f573d6000803e3d6000fd5b505050506040513d6020811015613c3557600080fd5b81019080805190602001909291905050509450945094509450945091939590929450565b620f4240601e0281565b60055481565b620f42406127100281565b600080600260008473ffffffffffffffffffffffffffffffffffffffff1673ffffffffffffffffffffffffffffffffffffffff168152602001908152602001600020600c01549050600080905081600260008673ffffffffffffffffffffffffffffffffffffffff1673ffffffffffffffffffffffffffffffffffffffff16815260200190815260200160002060020154108015613d5457506000600260008673ffffffffffffffffffffffffffffffffffffffff1673ffffffffffffffffffffffffffffffffffffffff16815260200190815260200160002060040154115b15613e3b576000600260008673ffffffffffffffffffffffffffffffffffffffff1673ffffffffffffffffffffffffffffffffffffffff1681526020019081526020016000206004015490508281600260008873ffffffffffffffffffffffffffffffffffffffff1673ffffffffffffffffffffffffffffffffffffffff16815260200190815260200160002060020154011115613e3457600260008673ffffffffffffffffffffffffffffffffffffffff1673ffffffffffffffffffffffffffffffffffffffff16815260200190815260200160002060020154830390505b8082019150505b81600260003373ffffffffffffffffffffffffffffffffffffffff1673ffffffffffffffffffffffffffffffffffffffff16815260200190815260200160002060020154108015613ece57506000600360003373ffffffffffffffffffffffffffffffffffffffff1673ffffffffffffffffffffffffffffffffffffffff16815260200190815260200160002060020154115b15613fb5576000600360003373ffffffffffffffffffffffffffffffffffffffff1673ffffffffffffffffffffffffffffffffffffffff1681526020019081526020016000206002015490508281600260003373ffffffffffffffffffffffffffffffffffffffff1673ffffffffffffffffffffffffffffffffffffffff16815260200190815260200160002060020154011115613fae57600260003373ffffffffffffffffffffffffffffffffffffffff1673ffffffffffffffffffffffffffffffffffffffff16815260200190815260200160002060020154830390505b8082019150505b81600260008673ffffffffffffffffffffffffffffffffffffffff1673ffffffffffffffffffffffffffffffffffffffff1681526020019081526020016000206002015410801561404857506000600260008673ffffffffffffffffffffffffffffffffffffffff1673ffffffffffffffffffffffffffffffffffffffff16815260200190815260200160002060030154115b1561412f576000600260008673ffffffffffffffffffffffffffffffffffffffff1673ffffffffffffffffffffffffffffffffffffffff1681526020019081526020016000206003015490508281600260008873ffffffffffffffffffffffffffffffffffffffff1673ffffffffffffffffffffffffffffffffffffffff1681526020019081526020016000206002015401111561412857600260008673ffffffffffffffffffffffffffffffffffffffff1673ffffffffffffffffffffffffffffffffffffffff16815260200190815260200160002060020154830390505b8082019150505b6001548181151561413c57fe5b0490505050919050565b60003390506000809054906101000a900473ffffffffffffffffffffffffffffffffffffffff1673ffffffffffffffffffffffffffffffffffffffff1663dd62ed3e82306040518363ffffffff167c0100000000000000000000000000000000000000000000000000000000028152600401808373ffffffffffffffffffffffffffffffffffffffff1673ffffffffffffffffffffffffffffffffffffffff1681526020018273ffffffffffffffffffffffffffffffffffffffff1673ffffffffffffffffffffffffffffffffffffffff1681526020019250505060206040518083038186803b15801561423957600080fd5b505afa15801561424d573d6000803e3d6000fd5b505050506040513d602081101561426357600080fd5b81019080805190602001909291905050508211156142e5578273ffffffffffffffffffffffffffffffffffffffff168173ffffffffffffffffffffffffffffffffffffffff167fbf182be802245e8ed88e4b8d3e4344c0863dd2a70334f089fd07265389306fcf846040518082815260200191505060405180910390a3600080fd5b6000809054906101000a900473ffffffffffffffffffffffffffffffffffffffff1673ffffffffffffffffffffffffffffffffffffffff166323b872dd8285856040518463ffffffff167c0100000000000000000000000000000000000000000000000000000000028152600401808473ffffffffffffffffffffffffffffffffffffffff1673ffffffffffffffffffffffffffffffffffffffff1681526020018373ffffffffffffffffffffffffffffffffffffffff1673ffffffffffffffffffffffffffffffffffffffff1681526020018281526020019350505050602060405180830381600087803b1580156143dd57600080fd5b505af11580156143f1573d6000803e3d6000fd5b505050506040513d602081101561440757600080fd5b8101908080519060200190929190505050508273ffffffffffffffffffffffffffffffffffffffff168173ffffffffffffffffffffffffffffffffffffffff167fd6d3eb25a413c05d8107fc49deb2789bef7f612582b2482804c0b0423b6638ee846040518082815260200191505060405180910390a3505050565b600f600260008373ffffffffffffffffffffffffffffffffffffffff1673ffffffffffffffffffffffffffffffffffffffff1681526020019081526020016000206001015410151561456057600260008273ffffffffffffffffffffffffffffffffffffffff1673ffffffffffffffffffffffffffffffffffffffff16815260200190815260200160002060050154603202600260008373ffffffffffffffffffffffffffffffffffffffff1673ffffffffffffffffffffffffffffffffffffffff168152602001908152602001600020600c0181905550614965565b600a600260008373ffffffffffffffffffffffffffffffffffffffff1673ffffffffffffffffffffffffffffffffffffffff1681526020019081526020016000206001015410151561463d57600260008273ffffffffffffffffffffffffffffffffffffffff1673ffffffffffffffffffffffffffffffffffffffff16815260200190815260200160002060050154602002600260008373ffffffffffffffffffffffffffffffffffffffff1673ffffffffffffffffffffffffffffffffffffffff168152602001908152602001600020600c0181905550614964565b6006600260008373ffffffffffffffffffffffffffffffffffffffff1673ffffffffffffffffffffffffffffffffffffffff1681526020019081526020016000206001015410151561471a57600260008273ffffffffffffffffffffffffffffffffffffffff1673ffffffffffffffffffffffffffffffffffffffff16815260200190815260200160002060050154601402600260008373ffffffffffffffffffffffffffffffffffffffff1673ffffffffffffffffffffffffffffffffffffffff168152602001908152602001600020600c0181905550614963565b6003600260008373ffffffffffffffffffffffffffffffffffffffff1673ffffffffffffffffffffffffffffffffffffffff168152602001908152602001600020600101541015156147f757600260008273ffffffffffffffffffffffffffffffffffffffff1673ffffffffffffffffffffffffffffffffffffffff16815260200190815260200160002060050154600c02600260008373ffffffffffffffffffffffffffffffffffffffff1673ffffffffffffffffffffffffffffffffffffffff168152602001908152602001600020600c0181905550614962565b6001600260008373ffffffffffffffffffffffffffffffffffffffff1673ffffffffffffffffffffffffffffffffffffffff168152602001908152602001600020600101541015156148d457600260008273ffffffffffffffffffffffffffffffffffffffff1673ffffffffffffffffffffffffffffffffffffffff16815260200190815260200160002060050154600602600260008373ffffffffffffffffffffffffffffffffffffffff1673ffffffffffffffffffffffffffffffffffffffff168152602001908152602001600020600c0181905550614961565b600260008273ffffffffffffffffffffffffffffffffffffffff1673ffffffffffffffffffffffffffffffffffffffff16815260200190815260200160002060050154600202600260008373ffffffffffffffffffffffffffffffffffffffff1673ffffffffffffffffffffffffffffffffffffffff168152602001908152602001600020600c01819055505b5b5b5b5b50565b6000600260008473ffffffffffffffffffffffffffffffffffffffff1673ffffffffffffffffffffffffffffffffffffffff16815260200190815260200160002060000160009054906101000a900473ffffffffffffffffffffffffffffffffffffffff16905060008090505b6004805490508160ff161015614d9357600073ffffffffffffffffffffffffffffffffffffffff168273ffffffffffffffffffffffffffffffffffffffff161415614a1f57614d93565b6001810160ff16600260008473ffffffffffffffffffffffffffffffffffffffff1673ffffffffffffffffffffffffffffffffffffffff1681526020019081526020016000206001015410158015614a7a575060058160ff16105b15614b81576000606460048360ff16815481101515614a9557fe5b90600052602060002090602091828204019190069054906101000a900460ff1660ff168502811515614ac357fe5b04905080600260008573ffffffffffffffffffffffffffffffffffffffff1673ffffffffffffffffffffffffffffffffffffffff168152602001908152602001600020600301600082825401925050819055508473ffffffffffffffffffffffffffffffffffffffff168373ffffffffffffffffffffffffffffffffffffffff167f16e746f9be6c4b545700b04df27afb9fceabf59b94ef1c816e78a435059fabea836040518082815260200191505060405180910390a350614d21565b6005600260008473ffffffffffffffffffffffffffffffffffffffff1673ffffffffffffffffffffffffffffffffffffffff1681526020019081526020016000206001015410158015614c1d5750620f424061271002600260008473ffffffffffffffffffffffffffffffffffffffff1673ffffffffffffffffffffffffffffffffffffffff168152602001908152602001600020600b015410155b15614d20576000606460048360ff16815481101515614c3857fe5b90600052602060002090602091828204019190069054906101000a900460ff1660ff168502811515614c6657fe5b04905080600260008573ffffffffffffffffffffffffffffffffffffffff1673ffffffffffffffffffffffffffffffffffffffff168152602001908152602001600020600301600082825401925050819055508473ffffffffffffffffffffffffffffffffffffffff168373ffffffffffffffffffffffffffffffffffffffff167f16e746f9be6c4b545700b04df27afb9fceabf59b94ef1c816e78a435059fabea836040518082815260200191505060405180910390a3505b5b600260008373ffffffffffffffffffffffffffffffffffffffff1673ffffffffffffffffffffffffffffffffffffffff16815260200190815260200160002060000160009054906101000a900473ffffffffffffffffffffffffffffffffffffffff16915080806001019150506149d5565b50505050565b600073ffffffffffffffffffffffffffffffffffffffff16600260008473ffffffffffffffffffffffffffffffffffffffff1673ffffffffffffffffffffffffffffffffffffffff16815260200190815260200160002060000160009054906101000a900473ffffffffffffffffffffffffffffffffffffffff1673ffffffffffffffffffffffffffffffffffffffff16148015614e6357508173ffffffffffffffffffffffffffffffffffffffff168173ffffffffffffffffffffffffffffffffffffffff1614155b8015614ebd5750600860009054906101000a900473ffffffffffffffffffffffffffffffffffffffff1673ffffffffffffffffffffffffffffffffffffffff168273ffffffffffffffffffffffffffffffffffffffff1614155b8015614f7b57506000600260008373ffffffffffffffffffffffffffffffffffffffff1673ffffffffffffffffffffffffffffffffffffffff16815260200190815260200160002060070160009054906101000a900464ffffffffff1664ffffffffff161180614f7a5750600860009054906101000a900473ffffffffffffffffffffffffffffffffffffffff1673ffffffffffffffffffffffffffffffffffffffff168173ffffffffffffffffffffffffffffffffffffffff16145b5b156150c05780600260008473ffffffffffffffffffffffffffffffffffffffff1673ffffffffffffffffffffffffffffffffffffffff16815260200190815260200160002060000160006101000a81548173ffffffffffffffffffffffffffffffffffffffff021916908373ffffffffffffffffffffffffffffffffffffffff160217905550600260008273ffffffffffffffffffffffffffffffffffffffff1673ffffffffffffffffffffffffffffffffffffffff168152602001908152602001600020600101600081548092919060010191905055508073ffffffffffffffffffffffffffffffffffffffff168273ffffffffffffffffffffffffffffffffffffffff167f9f4d150e5193cfa9a87226111d3b60b624d97ccc056eeeac1569af1ea27bf64160405160405180910390a36005600081548092919060010191905055505b505056fea165627a7a72305820d36f323db50a1a1d3e8bc9a7e7da8335e795e0121380150ba1deba0b7438a6a90029",
  "source": "pragma solidity 0.5.4;\r\nimport \"./RKG.sol\";  // TA2EDEgytsPYu27kkZtDpFBz85as8vPqsX\r\n \r\ncontract RKGcontract  {\r\n   \r\n    RKG public rkg; \r\n  \r\n    struct User {\r\n        address upline ;\r\n        uint256 direct_referrals ;\r\n        uint256 payouts ;\r\n        uint256 gen_bonus ;\r\n        uint256 direct_bonus ;\r\n        uint256 deposit_amount ;\r\n        uint256 deposit_payouts ;\r\n        uint40 deposit_time ;\r\n        uint256 total_deposits ;\r\n        uint256 total_payouts ;\r\n        uint256 isActive ;\r\n        uint256 direct_biz ;\r\n        uint256 max_payout ;\r\n    } \r\n\r\n    struct User2 {\r\n        address super_upline ; // logic\r\n        bool isSuper ;\r\n        uint256 super_business ;  \r\n        uint256 super5_bonus ;  \r\n        uint256 super_directs ;  \r\n    }\r\n    \r\n    uint256 constant public mill = 1000000 ; // 100 trx\r\n    uint256 constant public MIN_DEPOSIT = 30*mill ; // 300*mill\r\n    uint256 constant public MAX_DEPOSIT = mill*mill ; // 300*mill\r\n    uint256 constant public MANAGER_DEPOSIT = 10000*mill ; // 10000*mill\r\n    uint256 constant public one_day = 60 ; // 1 days \r\n    uint256 constant public super_time = 15*one_day ; // 15 days \r\n    uint256 constant public daily_roi = 2 ; // 0.2% daily\r\n    uint256 public buffer_divider = 1 ;   \r\n       \r\n    mapping(address => User) public users ;\r\n    mapping(address => User2) public users2 ;\r\n     \r\n    uint8[] public ref_bonuses ;  \r\n    uint256 public total_users = 0 ;\r\n    uint256 public total_deposited ;\r\n    uint256 public total_withdraw ;\r\n    \r\n    event Upline(address indexed addr, address indexed upline) ;\r\n    event NewDeposit(address indexed addr, uint256 amount) ;\r\n    event MatchPayout(address indexed addr, address indexed from, uint256 amount) ;\r\n    event Withdraw(address indexed addr, uint256 amount) ;\r\n    event LimitReached(address indexed addr, uint256 amount) ; \r\n    event TransferSuccessful(address indexed from_, address indexed to_, uint256 amount_); \r\n    event TransferFailed(address indexed from_, address indexed to_, uint256 amount_);   \r\n\r\n    address payable public owner ; \r\n    \r\n    constructor(RKG _rkg) public {\r\n\r\n        owner = msg.sender; \r\n        rkg = _rkg;\r\n         \r\n        ref_bonuses.push(20); // Level 1\r\n        ref_bonuses.push(10); // Level 2 \r\n        ref_bonuses.push(10); // Level 3\r\n        ref_bonuses.push(10); // Level 4\r\n        ref_bonuses.push(10); // Level 5\r\n        ref_bonuses.push(5); // Level 6\r\n        ref_bonuses.push(5); // Level 7\r\n        ref_bonuses.push(5); // Level 8\r\n        ref_bonuses.push(5); // Level 9\r\n        ref_bonuses.push(5); // Level 10 \r\n        \r\n    }\r\n\r\n    function() payable external { \r\n         _deposit(msg.sender, msg.value);     \r\n     } \r\n \r\n    function _setUpline(address _addr, address _upline) private {\r\n        if(users[_addr].upline == address(0) && _upline != _addr && _addr != owner && \r\n\t\t(users[_upline].deposit_time > 0 || _upline == owner)) {\r\n           \r\n            users[_addr].upline = _upline;\r\n            users[_upline].direct_referrals++; \r\n            emit Upline(_addr, _upline);\r\n\r\n            total_users++;  \r\n        }\r\n    }\r\n\r\n    function _deposit(address _addr, uint256 _amount) private {\r\n        require(users[_addr].upline != address(0) || _addr == owner, \"No upline\");\r\n \r\n        if(users[_addr].deposit_time > 0) {\r\n             \r\n            require(users[_addr].payouts >= users[_addr].max_payout, \"Deposit already exists\");\r\n            require(_amount >= users[_addr].deposit_amount  , \"Bad amount\");\r\n\r\n        }\r\n        else require(_amount >= MIN_DEPOSIT  && _amount <= MAX_DEPOSIT , \"Bad amount\"); \r\n        \r\n        require(_amount > 0);\r\n        transferTokens(address(this), _amount); \r\n        \r\n        users[_addr].payouts = 0;\r\n        users[_addr].deposit_amount = _amount;\r\n        users[_addr].max_payout = _amount*2;\r\n        users[_addr].deposit_payouts = 0;\r\n        users[_addr].isActive = 1;\r\n        users[_addr].deposit_time = uint40(block.timestamp);\r\n        users[_addr].total_deposits += _amount;\r\n\r\n        address upline = users[_addr].upline;\r\n        address up = users[_addr].upline;\r\n\r\n        update_max_payout(up);\r\n        \r\n        users[upline].direct_biz += _amount; \r\n\r\n        if(users[upline].deposit_amount <= _amount && block.timestamp <= users[upline].deposit_time + super_time){\r\n            users2[upline].super_directs++;\r\n            if(users2[upline].super_directs == 5 && users2[upline].super5_bonus == 0){\r\n                users2[upline].super5_bonus = users[upline].deposit_amount/2;\r\n            }\r\n        }\r\n \r\n        total_deposited += _amount;\r\n        \r\n        emit NewDeposit(_addr, _amount);  \r\n\r\n        uint256 bonus = _amount * 10 / 100; \r\n        users[upline].direct_bonus += bonus; \r\n \r\n        if(users2[up].isSuper == true){ // check if upline is super\r\n            users2[_addr].super_upline = up ; // assign present up as superup\r\n        } else {\r\n            users2[_addr].super_upline = users2[up].super_upline ; // assign up's superup as superup\r\n        }\r\n\r\n        users2[users2[_addr].super_upline].super_business += _amount ; \r\n    }\r\n\r\n    function update_max_payout(address _addr) private {\r\n        if(users[_addr].direct_referrals >= 15){\r\n            users[_addr].max_payout = 50*users[_addr].deposit_amount;\r\n        } else if(users[_addr].direct_referrals >= 10){\r\n            users[_addr].max_payout = 32*users[_addr].deposit_amount;\r\n        } else if(users[_addr].direct_referrals >= 6){\r\n            users[_addr].max_payout = 20*users[_addr].deposit_amount;\r\n        } else if(users[_addr].direct_referrals >= 3){\r\n            users[_addr].max_payout = 12*users[_addr].deposit_amount;\r\n        } else if(users[_addr].direct_referrals >= 1){\r\n            users[_addr].max_payout = 6*users[_addr].deposit_amount;\r\n        } else {\r\n            users[_addr].max_payout = 2*users[_addr].deposit_amount;\r\n        }\r\n     } \r\n    \r\n    function transferTokens(address to_, uint256 amount_) private  {\r\n \r\n         address from_ = msg.sender;\r\n \r\n        if(amount_ > rkg.allowance(from_, address(this))) {\r\n            emit TransferFailed(from_, to_, amount_);\r\n            revert();\r\n        }\r\n\r\n        rkg.transferFrom(from_, to_, amount_); \r\n \r\n        emit TransferSuccessful(from_, to_, amount_);\r\n    }\r\n\r\n     function _refPayout(address _addr, uint256 _amount) private {\r\n        address up = users[_addr].upline;\r\n\r\n        for(uint8 i = 0; i < ref_bonuses.length; i++) {\r\n            if(up == address(0)) break;\r\n            \r\n            if(users[up].direct_referrals >= i + 1 && i < 5) {\r\n                uint256 bonus = _amount * ref_bonuses[i] / 100;\r\n                \r\n                users[up].gen_bonus += bonus;\r\n\r\n                emit MatchPayout(up, _addr, bonus);\r\n            } else if(users[up].direct_referrals >= 5 && users[up].direct_biz >= MANAGER_DEPOSIT) {\r\n                uint256 bonus = _amount * ref_bonuses[i] / 100;\r\n                \r\n                users[up].gen_bonus += bonus;\r\n\r\n                emit MatchPayout(up, _addr, bonus);\r\n            }  \r\n            up = users[up].upline;\r\n        }\r\n    }\r\n \r\n    function deposit(address _upline, uint256 _amount) payable external {\r\n        _setUpline(msg.sender, _upline);\r\n        _deposit(msg.sender, _amount);\r\n    } \r\n \r\n    function withdraw() external {\r\n        (uint256 to_payout, uint256 max_payout) = this.payoutOf(msg.sender);\r\n        \r\n        require(users[msg.sender].payouts < max_payout, \"Full payouts\");\r\n\r\n        // Deposit payout\r\n        if(to_payout > 0) {\r\n            if(users[msg.sender].payouts + to_payout > max_payout) {\r\n                to_payout = max_payout - users[msg.sender].payouts;\r\n            } \r\n            users[msg.sender].deposit_payouts += to_payout;\r\n            users[msg.sender].payouts += to_payout;\r\n\r\n            _refPayout(msg.sender, to_payout);\r\n        }\r\n        \r\n        // Instant Referral payout\r\n        if(users[msg.sender].payouts < max_payout && users[msg.sender].direct_bonus > 0) {\r\n            uint256 direct_bonus = users[msg.sender].direct_bonus;\r\n\r\n            if(users[msg.sender].payouts + direct_bonus > max_payout) {\r\n                direct_bonus = max_payout - users[msg.sender].payouts;\r\n            }\r\n\r\n            users[msg.sender].direct_bonus -= direct_bonus;\r\n            users[msg.sender].payouts += direct_bonus;\r\n            to_payout += direct_bonus;\r\n        } \r\n\r\n        // Super 5 Referral payout\r\n        if(users[msg.sender].payouts < max_payout && users2[msg.sender].super5_bonus > 0) {\r\n            uint256 super5_bonus = users2[msg.sender].super5_bonus;\r\n\r\n            if(users[msg.sender].payouts + super5_bonus > max_payout) {\r\n                super5_bonus = max_payout - users[msg.sender].payouts;\r\n            }\r\n\r\n            users2[msg.sender].super5_bonus -= super5_bonus;\r\n            users[msg.sender].payouts += super5_bonus;\r\n            to_payout += super5_bonus;\r\n        } \r\n  \r\n        // Match payout\r\n        if(users[msg.sender].payouts < max_payout && users[msg.sender].gen_bonus > 0) {\r\n            uint256 gen_bonus = users[msg.sender].gen_bonus;\r\n\r\n            if(users[msg.sender].payouts + gen_bonus > max_payout) {\r\n                gen_bonus = max_payout - users[msg.sender].payouts;\r\n            }\r\n\r\n            users[msg.sender].gen_bonus -= gen_bonus;\r\n            users[msg.sender].payouts += gen_bonus;\r\n            to_payout += gen_bonus;\r\n        }\r\n\r\n        require(to_payout > 0, \"Zero payout\");\r\n\r\n        to_payout = to_payout/buffer_divider; \r\n        \r\n        users[msg.sender].total_payouts += to_payout;\r\n        total_withdraw += to_payout;\r\n        if(to_payout > 0){\r\n             rkg.transfer(msg.sender,to_payout); \r\n        }\r\n\r\n        emit Withdraw(msg.sender, to_payout);\r\n\r\n        if(users[msg.sender].payouts >= max_payout) {\r\n            emit LimitReached(msg.sender, users[msg.sender].payouts);\r\n            users[msg.sender].isActive = 0;\r\n        }\r\n \r\n    }\r\n    \r\n    function payoutOf(address _addr) view external returns(uint256 payout, uint256 max_payout) {\r\n        max_payout = users[_addr].max_payout;\r\n        uint256 Period = (block.timestamp - users[_addr].deposit_time)/one_day;\r\n\r\n        if(users[_addr].deposit_payouts < max_payout) {\r\n            payout = this.comp_interest(users[_addr].deposit_amount, Period, daily_roi);\r\n            if(users[_addr].deposit_payouts + payout > max_payout) {\r\n                payout = max_payout - users[_addr].deposit_payouts;\r\n            }\r\n        }\r\n    } \r\n \r\n    /*\r\n        Only external call\r\n    */ \r\n\r\n\tfunction getContractBalance() public view returns (uint256) {\r\n\t\treturn address(this).balance;\r\n\t}  \r\n \r\n\tfunction getUserBonus(address _addr) external view returns (uint256) {\r\n        uint256 max_payout = users[_addr].max_payout;  \r\n        uint256 to_payout = 0;\r\n        \r\n        // Instant Referral payout\r\n        if(users[_addr].payouts < max_payout && users[_addr].direct_bonus > 0) {\r\n            uint256 direct_bonus = users[_addr].direct_bonus;\r\n\r\n            if(users[_addr].payouts + direct_bonus > max_payout) {\r\n                direct_bonus = max_payout - users[_addr].payouts;\r\n            } \r\n           \r\n            to_payout += direct_bonus;\r\n        } \r\n\r\n        // Super 5 Referral payout\r\n        if(users[msg.sender].payouts < max_payout && users2[msg.sender].super5_bonus > 0) {\r\n            uint256 super5_bonus = users2[msg.sender].super5_bonus;\r\n\r\n            if(users[msg.sender].payouts + super5_bonus > max_payout) {\r\n                super5_bonus = max_payout - users[msg.sender].payouts;\r\n            }\r\n \r\n            to_payout += super5_bonus;\r\n        } \r\n       \r\n        // Match payout\r\n        if(users[_addr].payouts < max_payout && users[_addr].gen_bonus > 0) {\r\n            uint256 gen_bonus = users[_addr].gen_bonus;\r\n\r\n            if(users[_addr].payouts + gen_bonus > max_payout) {\r\n                gen_bonus = max_payout - users[_addr].payouts;\r\n            } \r\n            to_payout += gen_bonus;\r\n        }   \r\n        to_payout = to_payout/buffer_divider;\r\n\r\n    }\r\n   \r\n    function MaxPay(address _addr) external view returns (uint256) { \r\n        return users[_addr].max_payout;\r\n    }\r\n\r\n    function getAdmin() external view returns (address){ \r\n        return owner;\r\n    } \r\n\r\n    function changeBuffer(uint256 _newValue) external returns (bool){ \r\n        buffer_divider = _newValue;\r\n        return true;\r\n    }  \r\n    \r\n    function getNow() external view returns (uint256){ \r\n        return block.timestamp;\r\n    }\r\n\r\n    function getDivSupport(address _addr) external view returns (uint256 _Period_days, uint256 _deposit_amount){ \r\n        return ((uint40(block.timestamp) - users[_addr].deposit_time)/one_day , users[_addr].deposit_amount);\r\n    }\r\n\r\n    function userInfo(address _addr) view external returns(address upline, uint40 deposit_time, uint256 deposit_amount, uint256 payouts, uint256 direct_bonus , uint256 gen_bonus, uint256 user_status ) {\r\n        return (users[_addr].upline, users[_addr].deposit_time, users[_addr].deposit_amount, users[_addr].payouts, users[_addr].direct_bonus, users[_addr].gen_bonus, users[_addr].isActive  );\r\n    }\r\n    \r\n    function superInfo(address _addr) view external returns(address super_upline, uint256 super_business, uint256 super_directs, bool isSuper, uint256 super5_bonus) {\r\n        return (users2[_addr].super_upline, users2[_addr].super_business, users2[_addr].super_directs, users2[_addr].isSuper, users2[_addr].super5_bonus );\r\n    }\r\n \r\n\r\n    function userInfoTotals(address _addr) view external returns(uint256 direct_referrals, uint256 total_deposits, uint256 total_payouts, uint256 direct_biz, uint256 deposit_payouts) {\r\n        return (users[_addr].direct_referrals, users[_addr].total_deposits, users[_addr].total_payouts,  users[_addr].direct_biz, users[_addr].deposit_payouts);\r\n    } \r\n\r\n    function contractInfo(address _addr) view external returns(uint256 total_deposited1, uint256 total_withdraw1, uint256 rkg_balance, uint256 user_rkg_balance, uint256 user_allowance) {\r\n        return (total_deposited, total_withdraw, rkg.balanceOf(address(this)), rkg.balanceOf(_addr), rkg.allowance(_addr, address(this)));\r\n    } \r\n\r\n    function comp_interest(uint256 deposit_amount, uint256 Period, uint256 ROI_10)pure external returns(uint256){\r\n        uint256 Principle = deposit_amount ;\r\n        uint256 Principle1 = deposit_amount ;\r\n        for (uint256 i=0; i<Period; i++) {\r\n          Principle += Principle* ROI_10/100/10; \r\n        }\r\n        return Principle - Principle1;\r\n    }\r\n\r\n    function dividends_total(address _addr) external view returns(uint256){\r\n        uint256 Principle = users[_addr].deposit_amount ;\r\n        uint256 Principle1 = Principle ;\r\n        uint256 Period = (uint40(block.timestamp) - users[_addr].deposit_time)/one_day;\r\n\r\n        for (uint256 i=0; i<Period; i++) {\r\n          Principle += Principle*daily_roi/100/10; \r\n        }\r\n        return Principle - Principle1;\r\n    }\r\n\r\n    function checkAllowance() external view returns(uint256){\r\n        return rkg.allowance(msg.sender, address(this));\r\n    } \r\n\r\n    function makeSuper(address _addr) external returns (bool){\r\n        // require(msg.sender == owner, \"STAKE: Not Allowed\");\r\n        users2[_addr].isSuper = true;\r\n        return true;\r\n    }\r\n    \r\n    function removeSuper(address _addr) external returns (bool){\r\n        // require(msg.sender == owner, \"STAKE: Not Allowed\");\r\n        users2[_addr].isSuper = false;\r\n        return true;\r\n    }\r\n\r\n\r\n}\r\n\r\n\r\n",
  "sourcePath": "C:/Users/RAAKESH/Desktop/Coding/TronDapp/AATRON BEAST/Code/contracts/RKGcontract.sol",
  "compiler": {
    "name": "solc",
    "version": "0.5.4+commit.d15a3125.mod.Emscripten.clang"
  },
  "schemaVersion": "2.0.1",
  "updatedAt": "2021-03-25T13:25:46.776Z"
}