{
  "contractName": "RKGcontract",
  "abi": [
    {
      "constant": true,
      "inputs": [],
      "name": "buffer_divider",
      "outputs": [
        {
          "name": "",
          "type": "uint256"
        }
      ],
      "payable": false,
      "stateMutability": "view",
      "type": "function"
    },
    {
      "constant": true,
      "inputs": [],
      "name": "rkg",
      "outputs": [
        {
          "name": "",
          "type": "address"
        }
      ],
      "payable": false,
      "stateMutability": "view",
      "type": "function"
    },
    {
      "constant": true,
      "inputs": [],
      "name": "one_day",
      "outputs": [
        {
          "name": "",
          "type": "uint256"
        }
      ],
      "payable": false,
      "stateMutability": "view",
      "type": "function"
    },
    {
      "constant": true,
      "inputs": [
        {
          "name": "",
          "type": "uint256"
        }
      ],
      "name": "aff_bonuses",
      "outputs": [
        {
          "name": "",
          "type": "uint8"
        }
      ],
      "payable": false,
      "stateMutability": "view",
      "type": "function"
    },
    {
      "constant": true,
      "inputs": [],
      "name": "mill",
      "outputs": [
        {
          "name": "",
          "type": "uint256"
        }
      ],
      "payable": false,
      "stateMutability": "view",
      "type": "function"
    },
    {
      "constant": true,
      "inputs": [],
      "name": "super_time",
      "outputs": [
        {
          "name": "",
          "type": "uint256"
        }
      ],
      "payable": false,
      "stateMutability": "view",
      "type": "function"
    },
    {
      "constant": true,
      "inputs": [],
      "name": "owner",
      "outputs": [
        {
          "name": "",
          "type": "address"
        }
      ],
      "payable": false,
      "stateMutability": "view",
      "type": "function"
    },
    {
      "constant": true,
      "inputs": [],
      "name": "total_withdraw",
      "outputs": [
        {
          "name": "",
          "type": "uint256"
        }
      ],
      "payable": false,
      "stateMutability": "view",
      "type": "function"
    },
    {
      "constant": true,
      "inputs": [
        {
          "name": "",
          "type": "address"
        }
      ],
      "name": "users",
      "outputs": [
        {
          "name": "upline",
          "type": "address"
        },
        {
          "name": "direct_referrals",
          "type": "uint256"
        },
        {
          "name": "payouts",
          "type": "uint256"
        },
        {
          "name": "gen_bonus",
          "type": "uint256"
        },
        {
          "name": "instant_bonus",
          "type": "uint256"
        },
        {
          "name": "deposit_amount",
          "type": "uint256"
        },
        {
          "name": "deposit_payouts",
          "type": "uint256"
        },
        {
          "name": "deposit_time",
          "type": "uint40"
        },
        {
          "name": "total_deposits",
          "type": "uint256"
        },
        {
          "name": "total_payouts",
          "type": "uint256"
        },
        {
          "name": "isActive",
          "type": "uint256"
        },
        {
          "name": "direct_biz",
          "type": "uint256"
        }
      ],
      "payable": false,
      "stateMutability": "view",
      "type": "function"
    },
    {
      "constant": true,
      "inputs": [
        {
          "name": "",
          "type": "uint256"
        }
      ],
      "name": "ref_bonuses",
      "outputs": [
        {
          "name": "",
          "type": "uint8"
        }
      ],
      "payable": false,
      "stateMutability": "view",
      "type": "function"
    },
    {
      "constant": true,
      "inputs": [
        {
          "name": "",
          "type": "address"
        }
      ],
      "name": "users2",
      "outputs": [
        {
          "name": "super_upline",
          "type": "address"
        },
        {
          "name": "isSuper",
          "type": "bool"
        },
        {
          "name": "super_business",
          "type": "uint256"
        },
        {
          "name": "super5_bonus",
          "type": "uint256"
        },
        {
          "name": "super_directs",
          "type": "uint256"
        }
      ],
      "payable": false,
      "stateMutability": "view",
      "type": "function"
    },
    {
      "constant": true,
      "inputs": [],
      "name": "daily_roi",
      "outputs": [
        {
          "name": "",
          "type": "uint256"
        }
      ],
      "payable": false,
      "stateMutability": "view",
      "type": "function"
    },
    {
      "constant": true,
      "inputs": [],
      "name": "MAX_DEPOSIT",
      "outputs": [
        {
          "name": "",
          "type": "uint256"
        }
      ],
      "payable": false,
      "stateMutability": "view",
      "type": "function"
    },
    {
      "constant": true,
      "inputs": [],
      "name": "total_deposited",
      "outputs": [
        {
          "name": "",
          "type": "uint256"
        }
      ],
      "payable": false,
      "stateMutability": "view",
      "type": "function"
    },
    {
      "constant": true,
      "inputs": [],
      "name": "MIN_DEPOSIT",
      "outputs": [
        {
          "name": "",
          "type": "uint256"
        }
      ],
      "payable": false,
      "stateMutability": "view",
      "type": "function"
    },
    {
      "constant": true,
      "inputs": [],
      "name": "total_users",
      "outputs": [
        {
          "name": "",
          "type": "uint256"
        }
      ],
      "payable": false,
      "stateMutability": "view",
      "type": "function"
    },
    {
      "constant": true,
      "inputs": [],
      "name": "MANAGER_DEPOSIT",
      "outputs": [
        {
          "name": "",
          "type": "uint256"
        }
      ],
      "payable": false,
      "stateMutability": "view",
      "type": "function"
    },
    {
      "inputs": [
        {
          "name": "_rkg",
          "type": "address"
        }
      ],
      "payable": false,
      "stateMutability": "nonpayable",
      "type": "constructor"
    },
    {
      "payable": true,
      "stateMutability": "payable",
      "type": "fallback"
    },
    {
      "anonymous": false,
      "inputs": [
        {
          "indexed": true,
          "name": "addr",
          "type": "address"
        },
        {
          "indexed": true,
          "name": "upline",
          "type": "address"
        }
      ],
      "name": "Upline",
      "type": "event"
    },
    {
      "anonymous": false,
      "inputs": [
        {
          "indexed": true,
          "name": "addr",
          "type": "address"
        },
        {
          "indexed": false,
          "name": "amount",
          "type": "uint256"
        }
      ],
      "name": "NewDeposit",
      "type": "event"
    },
    {
      "anonymous": false,
      "inputs": [
        {
          "indexed": true,
          "name": "addr",
          "type": "address"
        },
        {
          "indexed": true,
          "name": "from",
          "type": "address"
        },
        {
          "indexed": false,
          "name": "amount",
          "type": "uint256"
        }
      ],
      "name": "MatchPayout",
      "type": "event"
    },
    {
      "anonymous": false,
      "inputs": [
        {
          "indexed": true,
          "name": "addr",
          "type": "address"
        },
        {
          "indexed": false,
          "name": "amount",
          "type": "uint256"
        }
      ],
      "name": "Withdraw",
      "type": "event"
    },
    {
      "anonymous": false,
      "inputs": [
        {
          "indexed": true,
          "name": "addr",
          "type": "address"
        },
        {
          "indexed": false,
          "name": "amount",
          "type": "uint256"
        }
      ],
      "name": "LimitReached",
      "type": "event"
    },
    {
      "anonymous": false,
      "inputs": [
        {
          "indexed": true,
          "name": "from_",
          "type": "address"
        },
        {
          "indexed": true,
          "name": "to_",
          "type": "address"
        },
        {
          "indexed": false,
          "name": "amount_",
          "type": "uint256"
        }
      ],
      "name": "TransferSuccessful",
      "type": "event"
    },
    {
      "anonymous": false,
      "inputs": [
        {
          "indexed": true,
          "name": "from_",
          "type": "address"
        },
        {
          "indexed": true,
          "name": "to_",
          "type": "address"
        },
        {
          "indexed": false,
          "name": "amount_",
          "type": "uint256"
        }
      ],
      "name": "TransferFailed",
      "type": "event"
    },
    {
      "constant": false,
      "inputs": [
        {
          "name": "_upline",
          "type": "address"
        },
        {
          "name": "_amount",
          "type": "uint256"
        }
      ],
      "name": "deposit",
      "outputs": [],
      "payable": true,
      "stateMutability": "payable",
      "type": "function"
    },
    {
      "constant": false,
      "inputs": [],
      "name": "withdraw",
      "outputs": [],
      "payable": false,
      "stateMutability": "nonpayable",
      "type": "function"
    },
    {
      "constant": true,
      "inputs": [
        {
          "name": "_addr",
          "type": "address"
        }
      ],
      "name": "payoutOf",
      "outputs": [
        {
          "name": "payout",
          "type": "uint256"
        },
        {
          "name": "max_payout",
          "type": "uint256"
        }
      ],
      "payable": false,
      "stateMutability": "view",
      "type": "function"
    },
    {
      "constant": true,
      "inputs": [],
      "name": "getContractBalance",
      "outputs": [
        {
          "name": "",
          "type": "uint256"
        }
      ],
      "payable": false,
      "stateMutability": "view",
      "type": "function"
    },
    {
      "constant": true,
      "inputs": [
        {
          "name": "_amount",
          "type": "uint256"
        }
      ],
      "name": "maxPayoutOf",
      "outputs": [
        {
          "name": "",
          "type": "uint256"
        }
      ],
      "payable": false,
      "stateMutability": "view",
      "type": "function"
    },
    {
      "constant": true,
      "inputs": [
        {
          "name": "_addr",
          "type": "address"
        }
      ],
      "name": "getUserBalance",
      "outputs": [
        {
          "name": "",
          "type": "uint256"
        }
      ],
      "payable": false,
      "stateMutability": "view",
      "type": "function"
    },
    {
      "constant": true,
      "inputs": [
        {
          "name": "_addr",
          "type": "address"
        }
      ],
      "name": "MaxPay",
      "outputs": [
        {
          "name": "",
          "type": "uint256"
        }
      ],
      "payable": false,
      "stateMutability": "view",
      "type": "function"
    },
    {
      "constant": true,
      "inputs": [],
      "name": "getAdmin",
      "outputs": [
        {
          "name": "",
          "type": "address"
        }
      ],
      "payable": false,
      "stateMutability": "view",
      "type": "function"
    },
    {
      "constant": false,
      "inputs": [
        {
          "name": "_newValue",
          "type": "uint256"
        }
      ],
      "name": "changeBuffer",
      "outputs": [
        {
          "name": "",
          "type": "bool"
        }
      ],
      "payable": false,
      "stateMutability": "nonpayable",
      "type": "function"
    },
    {
      "constant": true,
      "inputs": [],
      "name": "getNow",
      "outputs": [
        {
          "name": "",
          "type": "uint256"
        }
      ],
      "payable": false,
      "stateMutability": "view",
      "type": "function"
    },
    {
      "constant": true,
      "inputs": [
        {
          "name": "_addr",
          "type": "address"
        }
      ],
      "name": "userInfo",
      "outputs": [
        {
          "name": "upline",
          "type": "address"
        },
        {
          "name": "deposit_time",
          "type": "uint40"
        },
        {
          "name": "deposit_amount",
          "type": "uint256"
        },
        {
          "name": "payouts",
          "type": "uint256"
        },
        {
          "name": "instant_bonus",
          "type": "uint256"
        },
        {
          "name": "gen_bonus",
          "type": "uint256"
        },
        {
          "name": "user_status",
          "type": "uint256"
        }
      ],
      "payable": false,
      "stateMutability": "view",
      "type": "function"
    },
    {
      "constant": true,
      "inputs": [
        {
          "name": "_addr",
          "type": "address"
        }
      ],
      "name": "superInfo",
      "outputs": [
        {
          "name": "super_upline",
          "type": "address"
        },
        {
          "name": "super_business",
          "type": "uint256"
        },
        {
          "name": "super_directs",
          "type": "uint256"
        },
        {
          "name": "isSuper",
          "type": "bool"
        },
        {
          "name": "super5_bonus",
          "type": "uint256"
        }
      ],
      "payable": false,
      "stateMutability": "view",
      "type": "function"
    },
    {
      "constant": true,
      "inputs": [
        {
          "name": "_addr",
          "type": "address"
        }
      ],
      "name": "levelInfo",
      "outputs": [
        {
          "name": "level1",
          "type": "uint256"
        },
        {
          "name": "level2",
          "type": "uint256"
        },
        {
          "name": "level3",
          "type": "uint256"
        },
        {
          "name": "level4",
          "type": "uint256"
        },
        {
          "name": "level5",
          "type": "uint256"
        }
      ],
      "payable": false,
      "stateMutability": "view",
      "type": "function"
    },
    {
      "constant": true,
      "inputs": [
        {
          "name": "_addr",
          "type": "address"
        }
      ],
      "name": "userInfoTotals",
      "outputs": [
        {
          "name": "direct_referrals",
          "type": "uint256"
        },
        {
          "name": "total_deposits",
          "type": "uint256"
        },
        {
          "name": "total_payouts",
          "type": "uint256"
        },
        {
          "name": "direct_biz",
          "type": "uint256"
        },
        {
          "name": "deposit_payouts",
          "type": "uint256"
        }
      ],
      "payable": false,
      "stateMutability": "view",
      "type": "function"
    },
    {
      "constant": true,
      "inputs": [
        {
          "name": "_addr",
          "type": "address"
        }
      ],
      "name": "contractInfo",
      "outputs": [
        {
          "name": "total_deposited1",
          "type": "uint256"
        },
        {
          "name": "total_withdraw1",
          "type": "uint256"
        },
        {
          "name": "rkg_balance",
          "type": "uint256"
        },
        {
          "name": "user_rkg_balance",
          "type": "uint256"
        },
        {
          "name": "user_allowance",
          "type": "uint256"
        }
      ],
      "payable": false,
      "stateMutability": "view",
      "type": "function"
    },
    {
      "constant": true,
      "inputs": [
        {
          "name": "deposit_amount",
          "type": "uint256"
        },
        {
          "name": "Period",
          "type": "uint256"
        },
        {
          "name": "ROI_10",
          "type": "uint256"
        }
      ],
      "name": "comp_interest",
      "outputs": [
        {
          "name": "",
          "type": "uint256"
        }
      ],
      "payable": false,
      "stateMutability": "pure",
      "type": "function"
    },
    {
      "constant": true,
      "inputs": [
        {
          "name": "_addr",
          "type": "address"
        }
      ],
      "name": "dividends_total",
      "outputs": [
        {
          "name": "",
          "type": "uint256"
        }
      ],
      "payable": false,
      "stateMutability": "view",
      "type": "function"
    },
    {
      "constant": true,
      "inputs": [],
      "name": "checkAllowance",
      "outputs": [
        {
          "name": "",
          "type": "uint256"
        }
      ],
      "payable": false,
      "stateMutability": "view",
      "type": "function"
    }
  ],
  "bytecode": "0x60806040526001805560006006553480156200001a57600080fd5b50d380156200002857600080fd5b50d280156200003657600080fd5b50604051602080620057cb833981018060405260208110156200005857600080fd5b810190808051906020019092919050505033600960006101000a81548173ffffffffffffffffffffffffffffffffffffffff021916908373ffffffffffffffffffffffffffffffffffffffff160217905550806000806101000a81548173ffffffffffffffffffffffffffffffffffffffff021916908373ffffffffffffffffffffffffffffffffffffffff16021790555060046014908060018154018082558091505090600182039060005260206000209060209182820401919006909192909190916101000a81548160ff021916908360ff160217905550506004600a908060018154018082558091505090600182039060005260206000209060209182820401919006909192909190916101000a81548160ff021916908360ff160217905550506004600a908060018154018082558091505090600182039060005260206000209060209182820401919006909192909190916101000a81548160ff021916908360ff160217905550506004600a908060018154018082558091505090600182039060005260206000209060209182820401919006909192909190916101000a81548160ff021916908360ff160217905550506004600a908060018154018082558091505090600182039060005260206000209060209182820401919006909192909190916101000a81548160ff021916908360ff1602179055505060046005908060018154018082558091505090600182039060005260206000209060209182820401919006909192909190916101000a81548160ff021916908360ff1602179055505060046005908060018154018082558091505090600182039060005260206000209060209182820401919006909192909190916101000a81548160ff021916908360ff1602179055505060046005908060018154018082558091505090600182039060005260206000209060209182820401919006909192909190916101000a81548160ff021916908360ff1602179055505060046005908060018154018082558091505090600182039060005260206000209060209182820401919006909192909190916101000a81548160ff021916908360ff1602179055505060046005908060018154018082558091505090600182039060005260206000209060209182820401919006909192909190916101000a81548160ff021916908360ff160217905550506005600a908060018154018082558091505090600182039060005260206000209060209182820401919006909192909190916101000a81548160ff021916908360ff1602179055505060056002908060018154018082558091505090600182039060005260206000209060209182820401919006909192909190916101000a81548160ff021916908360ff1602179055505060056001908060018154018082558091505090600182039060005260206000209060209182820401919006909192909190916101000a81548160ff021916908360ff1602179055505060056001908060018154018082558091505090600182039060005260206000209060209182820401919006909192909190916101000a81548160ff021916908360ff1602179055505060056001908060018154018082558091505090600182039060005260206000209060209182820401919006909192909190916101000a81548160ff021916908360ff160217905550505061528980620005426000396000f3fe608060405260043610610221576000357c0100000000000000000000000000000000000000000000000000000000900480638959af3c11610135578063bbe4fd50116100bd578063de560cca1161008c578063de560cca14610f9a578063e11eb98d14610fdf578063e1e158a51461107a578063e7cc62bd146110bf578063e8a7a6b51461110457610221565b8063bbe4fd5014610e00578063bf39a89c14610e45578063ce4a7b1514610f10578063dd5967c314610f5557610221565b80639405de64116101045780639405de6414610b825780639a5d20e914610bc75780639a8318f414610c46578063a87430ba14610c8b578063b7d9f0d214610d9157610221565b80638959af3c146109c85780638b8e122814610a315780638da5cb5b14610a7657806390d9f58a14610ae757610221565b806347734892116101b85780636da61d1e116101875780636da61d1e146107265780636e9960c3146107ac5780636f9fb98a1461081d5780636fa477891461086257806374b95b2d1461092d57610221565b806347734892146105a757806347e7ef24146106265780634eac8bfe1461067457806355b47b95146106b957610221565b806319cfad19116101f457806319cfad191461040b5780632892d8741461048a5780633ccfd60b146105075780633fce562f1461053857610221565b8063093a12c41461022d5780630f59968a146102725780631484a26d146102e35780631959a00214610328575b61022b3334611149565b005b34801561023957600080fd5b50d3801561024657600080fd5b50d2801561025357600080fd5b5061025c612017565b6040518082815260200191505060405180910390f35b34801561027e57600080fd5b50d3801561028b57600080fd5b50d2801561029857600080fd5b506102a161201d565b604051808273ffffffffffffffffffffffffffffffffffffffff1673ffffffffffffffffffffffffffffffffffffffff16815260200191505060405180910390f35b3480156102ef57600080fd5b50d380156102fc57600080fd5b50d2801561030957600080fd5b50610312612042565b6040518082815260200191505060405180910390f35b34801561033457600080fd5b50d3801561034157600080fd5b50d2801561034e57600080fd5b506103916004803603602081101561036557600080fd5b81019080803573ffffffffffffffffffffffffffffffffffffffff169060200190929190505050612047565b604051808873ffffffffffffffffffffffffffffffffffffffff1673ffffffffffffffffffffffffffffffffffffffff1681526020018764ffffffffff1664ffffffffff16815260200186815260200185815260200184815260200183815260200182815260200197505050505050505060405180910390f35b34801561041757600080fd5b50d3801561042457600080fd5b50d2801561043157600080fd5b506104746004803603602081101561044857600080fd5b81019080803573ffffffffffffffffffffffffffffffffffffffff169060200190929190505050612271565b6040518082815260200191505060405180910390f35b34801561049657600080fd5b50d380156104a357600080fd5b50d280156104b057600080fd5b506104f1600480360360608110156104c757600080fd5b81019080803590602001909291908035906020019092919080359060200190929190505050612374565b6040518082815260200191505060405180910390f35b34801561051357600080fd5b50d3801561052057600080fd5b50d2801561052d57600080fd5b506105366123c8565b005b34801561054457600080fd5b50d3801561055157600080fd5b50d2801561055e57600080fd5b5061058b6004803603602081101561057557600080fd5b8101908080359060200190929190505050613063565b604051808260ff1660ff16815260200191505060405180910390f35b3480156105b357600080fd5b50d380156105c057600080fd5b50d280156105cd57600080fd5b50610610600480360360208110156105e457600080fd5b81019080803573ffffffffffffffffffffffffffffffffffffffff169060200190929190505050613096565b6040518082815260200191505060405180910390f35b6106726004803603604081101561063c57600080fd5b81019080803573ffffffffffffffffffffffffffffffffffffffff1690602001909291908035906020019092919050505061369f565b005b34801561068057600080fd5b50d3801561068d57600080fd5b50d2801561069a57600080fd5b506106a36136b7565b6040518082815260200191505060405180910390f35b3480156106c557600080fd5b50d380156106d257600080fd5b50d280156106df57600080fd5b5061070c600480360360208110156106f657600080fd5b81019080803590602001909291905050506136be565b604051808215151515815260200191505060405180910390f35b34801561073257600080fd5b50d3801561073f57600080fd5b50d2801561074c57600080fd5b5061078f6004803603602081101561076357600080fd5b81019080803573ffffffffffffffffffffffffffffffffffffffff1690602001909291905050506136d0565b604051808381526020018281526020019250505060405180910390f35b3480156107b857600080fd5b50d380156107c557600080fd5b50d280156107d257600080fd5b506107db613a0e565b604051808273ffffffffffffffffffffffffffffffffffffffff1673ffffffffffffffffffffffffffffffffffffffff16815260200191505060405180910390f35b34801561082957600080fd5b50d3801561083657600080fd5b50d2801561084357600080fd5b5061084c613a38565b6040518082815260200191505060405180910390f35b34801561086e57600080fd5b50d3801561087b57600080fd5b50d2801561088857600080fd5b506108cb6004803603602081101561089f57600080fd5b81019080803573ffffffffffffffffffffffffffffffffffffffff169060200190929190505050613a57565b604051808673ffffffffffffffffffffffffffffffffffffffff1673ffffffffffffffffffffffffffffffffffffffff168152602001858152602001848152602001831515151581526020018281526020019550505050505060405180910390f35b34801561093957600080fd5b50d3801561094657600080fd5b50d2801561095357600080fd5b506109966004803603602081101561096a57600080fd5b81019080803573ffffffffffffffffffffffffffffffffffffffff169060200190929190505050613bee565b604051808681526020018581526020018481526020018381526020018281526020019550505050505060405180910390f35b3480156109d457600080fd5b50d380156109e157600080fd5b50d280156109ee57600080fd5b50610a1b60048036036020811015610a0557600080fd5b8101908080359060200190929190505050613d58565b6040518082815260200191505060405180910390f35b348015610a3d57600080fd5b50d38015610a4a57600080fd5b50d28015610a5757600080fd5b50610a60613f26565b6040518082815260200191505060405180910390f35b348015610a8257600080fd5b50d38015610a8f57600080fd5b50d28015610a9c57600080fd5b50610aa5613f2e565b604051808273ffffffffffffffffffffffffffffffffffffffff1673ffffffffffffffffffffffffffffffffffffffff16815260200191505060405180910390f35b348015610af357600080fd5b50d38015610b0057600080fd5b50d28015610b0d57600080fd5b50610b5060048036036020811015610b2457600080fd5b81019080803573ffffffffffffffffffffffffffffffffffffffff169060200190929190505050613f54565b604051808681526020018581526020018481526020018381526020018281526020019550505050505060405180910390f35b348015610b8e57600080fd5b50d38015610b9b57600080fd5b50d28015610ba857600080fd5b50610bb1614109565b6040518082815260200191505060405180910390f35b348015610bd357600080fd5b50d38015610be057600080fd5b50d28015610bed57600080fd5b50610c3060048036036020811015610c0457600080fd5b81019080803573ffffffffffffffffffffffffffffffffffffffff169060200190929190505050614239565b6040518082815260200191505060405180910390f35b348015610c5257600080fd5b50d38015610c5f57600080fd5b50d28015610c6c57600080fd5b50610c7561432c565b6040518082815260200191505060405180910390f35b348015610c9757600080fd5b50d38015610ca457600080fd5b50d28015610cb157600080fd5b50610cf460048036036020811015610cc857600080fd5b81019080803573ffffffffffffffffffffffffffffffffffffffff169060200190929190505050614332565b604051808d73ffffffffffffffffffffffffffffffffffffffff1673ffffffffffffffffffffffffffffffffffffffff1681526020018c81526020018b81526020018a81526020018981526020018881526020018781526020018664ffffffffff1664ffffffffff1681526020018581526020018481526020018381526020018281526020019c5050505050505050505050505060405180910390f35b348015610d9d57600080fd5b50d38015610daa57600080fd5b50d28015610db757600080fd5b50610de460048036036020811015610dce57600080fd5b81019080803590602001909291905050506143c3565b604051808260ff1660ff16815260200191505060405180910390f35b348015610e0c57600080fd5b50d38015610e1957600080fd5b50d28015610e2657600080fd5b50610e2f6143f6565b6040518082815260200191505060405180910390f35b348015610e5157600080fd5b50d38015610e5e57600080fd5b50d28015610e6b57600080fd5b50610eae60048036036020811015610e8257600080fd5b81019080803573ffffffffffffffffffffffffffffffffffffffff1690602001909291905050506143fe565b604051808673ffffffffffffffffffffffffffffffffffffffff1673ffffffffffffffffffffffffffffffffffffffff168152602001851515151581526020018481526020018381526020018281526020019550505050505060405180910390f35b348015610f1c57600080fd5b50d38015610f2957600080fd5b50d28015610f3657600080fd5b50610f3f614461565b6040518082815260200191505060405180910390f35b348015610f6157600080fd5b50d38015610f6e57600080fd5b50d28015610f7b57600080fd5b50610f84614466565b6040518082815260200191505060405180910390f35b348015610fa657600080fd5b50d38015610fb357600080fd5b50d28015610fc057600080fd5b50610fc961446f565b6040518082815260200191505060405180910390f35b348015610feb57600080fd5b50d38015610ff857600080fd5b50d2801561100557600080fd5b506110486004803603602081101561101c57600080fd5b81019080803573ffffffffffffffffffffffffffffffffffffffff169060200190929190505050614475565b604051808681526020018581526020018481526020018381526020018281526020019550505050505060405180910390f35b34801561108657600080fd5b50d3801561109357600080fd5b50d280156110a057600080fd5b506110a96147a9565b6040518082815260200191505060405180910390f35b3480156110cb57600080fd5b50d380156110d857600080fd5b50d280156110e557600080fd5b506110ee6147b3565b6040518082815260200191505060405180910390f35b34801561111057600080fd5b50d3801561111d57600080fd5b50d2801561112a57600080fd5b506111336147b9565b6040518082815260200191505060405180910390f35b600073ffffffffffffffffffffffffffffffffffffffff16600260008473ffffffffffffffffffffffffffffffffffffffff1673ffffffffffffffffffffffffffffffffffffffff16815260200190815260200160002060000160009054906101000a900473ffffffffffffffffffffffffffffffffffffffff1673ffffffffffffffffffffffffffffffffffffffff161415806112345750600960009054906101000a900473ffffffffffffffffffffffffffffffffffffffff1673ffffffffffffffffffffffffffffffffffffffff168273ffffffffffffffffffffffffffffffffffffffff16145b15156112a8576040517f08c379a00000000000000000000000000000000000000000000000000000000081526004018080602001828103825260098152602001807f4e6f2075706c696e65000000000000000000000000000000000000000000000081525060200191505060405180910390fd5b6000600260008473ffffffffffffffffffffffffffffffffffffffff1673ffffffffffffffffffffffffffffffffffffffff168152602001908152602001600020600c0160009054906101000a900464ffffffffff1664ffffffffff16111561156d573073ffffffffffffffffffffffffffffffffffffffff16638959af3c600260008573ffffffffffffffffffffffffffffffffffffffff1673ffffffffffffffffffffffffffffffffffffffff168152602001908152602001600020600a01546040518263ffffffff167c01000000000000000000000000000000000000000000000000000000000281526004018082815260200191505060206040518083038186803b1580156113ba57600080fd5b505afa1580156113ce573d6000803e3d6000fd5b505050506040513d60208110156113e457600080fd5b8101908080519060200190929190505050600260008473ffffffffffffffffffffffffffffffffffffffff1673ffffffffffffffffffffffffffffffffffffffff16815260200190815260200160002060020154101515156114ae576040517f08c379a00000000000000000000000000000000000000000000000000000000081526004018080602001828103825260168152602001807f4465706f73697420616c7265616479206578697374730000000000000000000081525060200191505060405180910390fd5b600260008373ffffffffffffffffffffffffffffffffffffffff1673ffffffffffffffffffffffffffffffffffffffff168152602001908152602001600020600a01548110151515611568576040517f08c379a000000000000000000000000000000000000000000000000000000000815260040180806020018281038252600a8152602001807f42616420616d6f756e740000000000000000000000000000000000000000000081525060200191505060405180910390fd5b6115fd565b620f4240601e0281101580156115885750620f424080028111155b15156115fc576040517f08c379a000000000000000000000000000000000000000000000000000000000815260040180806020018281038252600a8152602001807f42616420616d6f756e740000000000000000000000000000000000000000000081525060200191505060405180910390fd5b5b60008111151561160c57600080fd5b61161630826147c4565b6000600260008473ffffffffffffffffffffffffffffffffffffffff1673ffffffffffffffffffffffffffffffffffffffff1681526020019081526020016000206002018190555080600260008473ffffffffffffffffffffffffffffffffffffffff1673ffffffffffffffffffffffffffffffffffffffff168152602001908152602001600020600a01819055506000600260008473ffffffffffffffffffffffffffffffffffffffff1673ffffffffffffffffffffffffffffffffffffffff168152602001908152602001600020600b01819055506001600260008473ffffffffffffffffffffffffffffffffffffffff1673ffffffffffffffffffffffffffffffffffffffff168152602001908152602001600020600f018190555042600260008473ffffffffffffffffffffffffffffffffffffffff1673ffffffffffffffffffffffffffffffffffffffff168152602001908152602001600020600c0160006101000a81548164ffffffffff021916908364ffffffffff16021790555080600260008473ffffffffffffffffffffffffffffffffffffffff1673ffffffffffffffffffffffffffffffffffffffff168152602001908152602001600020600d01600082825401925050819055506000600260008473ffffffffffffffffffffffffffffffffffffffff1673ffffffffffffffffffffffffffffffffffffffff16815260200190815260200160002060000160009054906101000a900473ffffffffffffffffffffffffffffffffffffffff16905081600260008373ffffffffffffffffffffffffffffffffffffffff1673ffffffffffffffffffffffffffffffffffffffff1681526020019081526020016000206010016000828254019250508190555081600260008373ffffffffffffffffffffffffffffffffffffffff1673ffffffffffffffffffffffffffffffffffffffff168152602001908152602001600020600a0154101580156119515750603c600f02600260008373ffffffffffffffffffffffffffffffffffffffff1673ffffffffffffffffffffffffffffffffffffffff168152602001908152602001600020600c0160009054906101000a900464ffffffffff1664ffffffffff16014211155b15611ad757600360008273ffffffffffffffffffffffffffffffffffffffff1673ffffffffffffffffffffffffffffffffffffffff168152602001908152602001600020600301600081548092919060010191905055506005600360008373ffffffffffffffffffffffffffffffffffffffff1673ffffffffffffffffffffffffffffffffffffffff16815260200190815260200160002060030154148015611a3c57506000600360008373ffffffffffffffffffffffffffffffffffffffff1673ffffffffffffffffffffffffffffffffffffffff16815260200190815260200160002060020154145b15611ad65760028060008373ffffffffffffffffffffffffffffffffffffffff1673ffffffffffffffffffffffffffffffffffffffff168152602001908152602001600020600a0154811515611a8e57fe5b04600360008373ffffffffffffffffffffffffffffffffffffffff1673ffffffffffffffffffffffffffffffffffffffff168152602001908152602001600020600201819055505b5b816007600082825401925050819055508273ffffffffffffffffffffffffffffffffffffffff167f2cb77763bc1e8490c1a904905c4d74b4269919aca114464f4bb4d911e60de364836040518082815260200191505060405180910390a260008090505b600580549050811015611ce757600073ffffffffffffffffffffffffffffffffffffffff168273ffffffffffffffffffffffffffffffffffffffff161415611b8257611ce7565b60006064600483815481101515611b9557fe5b90600052602060002090602091828204019190069054906101000a900460ff1660ff168502811515611bc357fe5b04905080600260008573ffffffffffffffffffffffffffffffffffffffff1673ffffffffffffffffffffffffffffffffffffffff16815260200190815260200160002060030183600581101515611c1657fe5b016000828254019250508190555080600260008573ffffffffffffffffffffffffffffffffffffffff1673ffffffffffffffffffffffffffffffffffffffff16815260200190815260200160002060090160008282540192505081905550600260008473ffffffffffffffffffffffffffffffffffffffff1673ffffffffffffffffffffffffffffffffffffffff16815260200190815260200160002060000160009054906101000a900473ffffffffffffffffffffffffffffffffffffffff169250508080600101915050611b3b565b50600960009054906101000a900473ffffffffffffffffffffffffffffffffffffffff1673ffffffffffffffffffffffffffffffffffffffff168173ffffffffffffffffffffffffffffffffffffffff161415611d9a576001600360008573ffffffffffffffffffffffffffffffffffffffff1673ffffffffffffffffffffffffffffffffffffffff16815260200190815260200160002060000160146101000a81548160ff0219169083151502179055505b60011515600360008373ffffffffffffffffffffffffffffffffffffffff1673ffffffffffffffffffffffffffffffffffffffff16815260200190815260200160002060000160149054906101000a900460ff1615151415611e7c5780600360008573ffffffffffffffffffffffffffffffffffffffff1673ffffffffffffffffffffffffffffffffffffffff16815260200190815260200160002060000160006101000a81548173ffffffffffffffffffffffffffffffffffffffff021916908373ffffffffffffffffffffffffffffffffffffffff160217905550611f60565b600360008273ffffffffffffffffffffffffffffffffffffffff1673ffffffffffffffffffffffffffffffffffffffff16815260200190815260200160002060000160009054906101000a900473ffffffffffffffffffffffffffffffffffffffff16600360008573ffffffffffffffffffffffffffffffffffffffff1673ffffffffffffffffffffffffffffffffffffffff16815260200190815260200160002060000160006101000a81548173ffffffffffffffffffffffffffffffffffffffff021916908373ffffffffffffffffffffffffffffffffffffffff1602179055505b8160036000600360008773ffffffffffffffffffffffffffffffffffffffff1673ffffffffffffffffffffffffffffffffffffffff16815260200190815260200160002060000160009054906101000a900473ffffffffffffffffffffffffffffffffffffffff1673ffffffffffffffffffffffffffffffffffffffff1673ffffffffffffffffffffffffffffffffffffffff16815260200190815260200160002060010160008282540192505081905550505050565b60015481565b6000809054906101000a900473ffffffffffffffffffffffffffffffffffffffff1681565b603c81565b6000806000806000806000600260008973ffffffffffffffffffffffffffffffffffffffff1673ffffffffffffffffffffffffffffffffffffffff16815260200190815260200160002060000160009054906101000a900473ffffffffffffffffffffffffffffffffffffffff16600260008a73ffffffffffffffffffffffffffffffffffffffff1673ffffffffffffffffffffffffffffffffffffffff168152602001908152602001600020600c0160009054906101000a900464ffffffffff16600260008b73ffffffffffffffffffffffffffffffffffffffff1673ffffffffffffffffffffffffffffffffffffffff168152602001908152602001600020600a0154600260008c73ffffffffffffffffffffffffffffffffffffffff1673ffffffffffffffffffffffffffffffffffffffff16815260200190815260200160002060020154600260008d73ffffffffffffffffffffffffffffffffffffffff1673ffffffffffffffffffffffffffffffffffffffff16815260200190815260200160002060090154600260008e73ffffffffffffffffffffffffffffffffffffffff1673ffffffffffffffffffffffffffffffffffffffff16815260200190815260200160002060080154600260008f73ffffffffffffffffffffffffffffffffffffffff1673ffffffffffffffffffffffffffffffffffffffff168152602001908152602001600020600f01549650965096509650965096509650919395979092949650565b600080600260008473ffffffffffffffffffffffffffffffffffffffff1673ffffffffffffffffffffffffffffffffffffffff168152602001908152602001600020600a0154905060008190506000603c600260008773ffffffffffffffffffffffffffffffffffffffff1673ffffffffffffffffffffffffffffffffffffffff168152602001908152602001600020600c0160009054906101000a900464ffffffffff16420364ffffffffff1681151561232857fe5b04905060008090505b8181101561236657600a60646002860281151561234a57fe5b0481151561235457fe5b04840193508080600101915050612331565b508183039350505050919050565b600080849050600085905060008090505b858110156123b957600a606486850281151561239d57fe5b048115156123a757fe5b04830192508080600101915050612385565b50808203925050509392505050565b6000803073ffffffffffffffffffffffffffffffffffffffff16636da61d1e336040518263ffffffff167c0100000000000000000000000000000000000000000000000000000000028152600401808273ffffffffffffffffffffffffffffffffffffffff1673ffffffffffffffffffffffffffffffffffffffff168152602001915050604080518083038186803b15801561246357600080fd5b505afa158015612477573d6000803e3d6000fd5b505050506040513d604081101561248d57600080fd5b8101908080519060200190929190805190602001909291905050509150915080600260003373ffffffffffffffffffffffffffffffffffffffff1673ffffffffffffffffffffffffffffffffffffffff16815260200190815260200160002060020154101515612565576040517f08c379a000000000000000000000000000000000000000000000000000000000815260040180806020018281038252600c8152602001807f46756c6c207061796f757473000000000000000000000000000000000000000081525060200191505060405180910390fd5b60008211156126ad578082600260003373ffffffffffffffffffffffffffffffffffffffff1673ffffffffffffffffffffffffffffffffffffffff1681526020019081526020016000206002015401111561260257600260003373ffffffffffffffffffffffffffffffffffffffff1673ffffffffffffffffffffffffffffffffffffffff16815260200190815260200160002060020154810391505b81600260003373ffffffffffffffffffffffffffffffffffffffff1673ffffffffffffffffffffffffffffffffffffffff168152602001908152602001600020600b016000828254019250508190555081600260003373ffffffffffffffffffffffffffffffffffffffff1673ffffffffffffffffffffffffffffffffffffffff168152602001908152602001600020600201600082825401925050819055506126ac3383614b01565b5b80600260003373ffffffffffffffffffffffffffffffffffffffff1673ffffffffffffffffffffffffffffffffffffffff1681526020019081526020016000206002015410801561274057506000600260003373ffffffffffffffffffffffffffffffffffffffff1673ffffffffffffffffffffffffffffffffffffffff16815260200190815260200160002060090154115b156128c7576000600260003373ffffffffffffffffffffffffffffffffffffffff1673ffffffffffffffffffffffffffffffffffffffff1681526020019081526020016000206009015490508181600260003373ffffffffffffffffffffffffffffffffffffffff1673ffffffffffffffffffffffffffffffffffffffff1681526020019081526020016000206002015401111561282057600260003373ffffffffffffffffffffffffffffffffffffffff1673ffffffffffffffffffffffffffffffffffffffff16815260200190815260200160002060020154820390505b80600260003373ffffffffffffffffffffffffffffffffffffffff1673ffffffffffffffffffffffffffffffffffffffff1681526020019081526020016000206009016000828254039250508190555080600260003373ffffffffffffffffffffffffffffffffffffffff1673ffffffffffffffffffffffffffffffffffffffff168152602001908152602001600020600201600082825401925050819055508083019250505b80600260003373ffffffffffffffffffffffffffffffffffffffff1673ffffffffffffffffffffffffffffffffffffffff1681526020019081526020016000206002015410801561295a57506000600360003373ffffffffffffffffffffffffffffffffffffffff1673ffffffffffffffffffffffffffffffffffffffff16815260200190815260200160002060020154115b15612ae1576000600360003373ffffffffffffffffffffffffffffffffffffffff1673ffffffffffffffffffffffffffffffffffffffff1681526020019081526020016000206002015490508181600260003373ffffffffffffffffffffffffffffffffffffffff1673ffffffffffffffffffffffffffffffffffffffff16815260200190815260200160002060020154011115612a3a57600260003373ffffffffffffffffffffffffffffffffffffffff1673ffffffffffffffffffffffffffffffffffffffff16815260200190815260200160002060020154820390505b80600360003373ffffffffffffffffffffffffffffffffffffffff1673ffffffffffffffffffffffffffffffffffffffff1681526020019081526020016000206002016000828254039250508190555080600260003373ffffffffffffffffffffffffffffffffffffffff1673ffffffffffffffffffffffffffffffffffffffff168152602001908152602001600020600201600082825401925050819055508083019250505b80600260003373ffffffffffffffffffffffffffffffffffffffff1673ffffffffffffffffffffffffffffffffffffffff16815260200190815260200160002060020154108015612b7457506000600260003373ffffffffffffffffffffffffffffffffffffffff1673ffffffffffffffffffffffffffffffffffffffff16815260200190815260200160002060080154115b15612cfb576000600260003373ffffffffffffffffffffffffffffffffffffffff1673ffffffffffffffffffffffffffffffffffffffff1681526020019081526020016000206008015490508181600260003373ffffffffffffffffffffffffffffffffffffffff1673ffffffffffffffffffffffffffffffffffffffff16815260200190815260200160002060020154011115612c5457600260003373ffffffffffffffffffffffffffffffffffffffff1673ffffffffffffffffffffffffffffffffffffffff16815260200190815260200160002060020154820390505b80600260003373ffffffffffffffffffffffffffffffffffffffff1673ffffffffffffffffffffffffffffffffffffffff1681526020019081526020016000206008016000828254039250508190555080600260003373ffffffffffffffffffffffffffffffffffffffff1673ffffffffffffffffffffffffffffffffffffffff168152602001908152602001600020600201600082825401925050819055508083019250505b600082111515612d73576040517f08c379a000000000000000000000000000000000000000000000000000000000815260040180806020018281038252600b8152602001807f5a65726f207061796f757400000000000000000000000000000000000000000081525060200191505060405180910390fd5b60015482811515612d8057fe5b04915081600260003373ffffffffffffffffffffffffffffffffffffffff1673ffffffffffffffffffffffffffffffffffffffff168152602001908152602001600020600e0160008282540192505081905550816008600082825401925050819055506000821115612eed576000809054906101000a900473ffffffffffffffffffffffffffffffffffffffff1673ffffffffffffffffffffffffffffffffffffffff1663a9059cbb33846040518363ffffffff167c0100000000000000000000000000000000000000000000000000000000028152600401808373ffffffffffffffffffffffffffffffffffffffff1673ffffffffffffffffffffffffffffffffffffffff16815260200182815260200192505050602060405180830381600087803b158015612eb057600080fd5b505af1158015612ec4573d6000803e3d6000fd5b505050506040513d6020811015612eda57600080fd5b8101908080519060200190929190505050505b3373ffffffffffffffffffffffffffffffffffffffff167f884edad9ce6fa2440d8a54cc123490eb96d2768479d49ff9c7366125a9424364836040518082815260200191505060405180910390a280600260003373ffffffffffffffffffffffffffffffffffffffff1673ffffffffffffffffffffffffffffffffffffffff1681526020019081526020016000206002015410151561305f573373ffffffffffffffffffffffffffffffffffffffff167f97ddeb77c85e6a1dd99a34fe2bb1a4f9b211d5ffced7a707de9dbeb24363d0e4600260003373ffffffffffffffffffffffffffffffffffffffff1673ffffffffffffffffffffffffffffffffffffffff168152602001908152602001600020600201546040518082815260200191505060405180910390a26000600260003373ffffffffffffffffffffffffffffffffffffffff1673ffffffffffffffffffffffffffffffffffffffff168152602001908152602001600020600f01819055505b5050565b60058181548110151561307257fe5b9060005260206000209060209182820401919006915054906101000a900460ff1681565b60008060003073ffffffffffffffffffffffffffffffffffffffff16636da61d1e856040518263ffffffff167c0100000000000000000000000000000000000000000000000000000000028152600401808273ffffffffffffffffffffffffffffffffffffffff1673ffffffffffffffffffffffffffffffffffffffff168152602001915050604080518083038186803b15801561313357600080fd5b505afa158015613147573d6000803e3d6000fd5b505050506040513d604081101561315d57600080fd5b81019080805190602001909291908051906020019092919050505091509150600082111561321a578082600260008773ffffffffffffffffffffffffffffffffffffffff1673ffffffffffffffffffffffffffffffffffffffff1681526020019081526020016000206002015401111561321957600260008573ffffffffffffffffffffffffffffffffffffffff1673ffffffffffffffffffffffffffffffffffffffff16815260200190815260200160002060020154810391505b5b80600260008673ffffffffffffffffffffffffffffffffffffffff1673ffffffffffffffffffffffffffffffffffffffff168152602001908152602001600020600201541080156132ad57506000600260008673ffffffffffffffffffffffffffffffffffffffff1673ffffffffffffffffffffffffffffffffffffffff16815260200190815260200160002060090154115b15613394576000600260008673ffffffffffffffffffffffffffffffffffffffff1673ffffffffffffffffffffffffffffffffffffffff1681526020019081526020016000206009015490508181600260008873ffffffffffffffffffffffffffffffffffffffff1673ffffffffffffffffffffffffffffffffffffffff1681526020019081526020016000206002015401111561338d57600260008673ffffffffffffffffffffffffffffffffffffffff1673ffffffffffffffffffffffffffffffffffffffff16815260200190815260200160002060020154820390505b8083019250505b80600260003373ffffffffffffffffffffffffffffffffffffffff1673ffffffffffffffffffffffffffffffffffffffff1681526020019081526020016000206002015410801561342757506000600360003373ffffffffffffffffffffffffffffffffffffffff1673ffffffffffffffffffffffffffffffffffffffff16815260200190815260200160002060020154115b1561350e576000600360003373ffffffffffffffffffffffffffffffffffffffff1673ffffffffffffffffffffffffffffffffffffffff1681526020019081526020016000206002015490508181600260003373ffffffffffffffffffffffffffffffffffffffff1673ffffffffffffffffffffffffffffffffffffffff1681526020019081526020016000206002015401111561350757600260003373ffffffffffffffffffffffffffffffffffffffff1673ffffffffffffffffffffffffffffffffffffffff16815260200190815260200160002060020154820390505b8083019250505b80600260008673ffffffffffffffffffffffffffffffffffffffff1673ffffffffffffffffffffffffffffffffffffffff168152602001908152602001600020600201541080156135a157506000600260008673ffffffffffffffffffffffffffffffffffffffff1673ffffffffffffffffffffffffffffffffffffffff16815260200190815260200160002060080154115b15613688576000600260008673ffffffffffffffffffffffffffffffffffffffff1673ffffffffffffffffffffffffffffffffffffffff1681526020019081526020016000206008015490508181600260008873ffffffffffffffffffffffffffffffffffffffff1673ffffffffffffffffffffffffffffffffffffffff1681526020019081526020016000206002015401111561368157600260008673ffffffffffffffffffffffffffffffffffffffff1673ffffffffffffffffffffffffffffffffffffffff16815260200190815260200160002060020154820390505b8083019250505b6001548281151561369557fe5b0491505050919050565b6136a93383614f32565b6136b33382611149565b5050565b620f424081565b60008160018190555060019050919050565b6000803073ffffffffffffffffffffffffffffffffffffffff16638959af3c600260008673ffffffffffffffffffffffffffffffffffffffff1673ffffffffffffffffffffffffffffffffffffffff168152602001908152602001600020600a01546040518263ffffffff167c01000000000000000000000000000000000000000000000000000000000281526004018082815260200191505060206040518083038186803b15801561378257600080fd5b505afa158015613796573d6000803e3d6000fd5b505050506040513d60208110156137ac57600080fd5b810190808051906020019092919050505090506000603c600260008673ffffffffffffffffffffffffffffffffffffffff1673ffffffffffffffffffffffffffffffffffffffff168152602001908152602001600020600c0160009054906101000a900464ffffffffff1664ffffffffff16420381151561382957fe5b04905081600260008673ffffffffffffffffffffffffffffffffffffffff1673ffffffffffffffffffffffffffffffffffffffff168152602001908152602001600020600b01541015613a08573073ffffffffffffffffffffffffffffffffffffffff16632892d874600260008773ffffffffffffffffffffffffffffffffffffffff1673ffffffffffffffffffffffffffffffffffffffff168152602001908152602001600020600a01548360026040518463ffffffff167c010000000000000000000000000000000000000000000000000000000002815260040180848152602001838152602001828152602001935050505060206040518083038186803b15801561393657600080fd5b505afa15801561394a573d6000803e3d6000fd5b505050506040513d602081101561396057600080fd5b810190808051906020019092919050505092508183600260008773ffffffffffffffffffffffffffffffffffffffff1673ffffffffffffffffffffffffffffffffffffffff168152602001908152602001600020600b0154011115613a0757600260008573ffffffffffffffffffffffffffffffffffffffff1673ffffffffffffffffffffffffffffffffffffffff168152602001908152602001600020600b0154820392505b5b50915091565b6000600960009054906101000a900473ffffffffffffffffffffffffffffffffffffffff16905090565b60003073ffffffffffffffffffffffffffffffffffffffff1631905090565b6000806000806000600360008773ffffffffffffffffffffffffffffffffffffffff1673ffffffffffffffffffffffffffffffffffffffff16815260200190815260200160002060000160009054906101000a900473ffffffffffffffffffffffffffffffffffffffff16600360008873ffffffffffffffffffffffffffffffffffffffff1673ffffffffffffffffffffffffffffffffffffffff16815260200190815260200160002060010154600360008973ffffffffffffffffffffffffffffffffffffffff1673ffffffffffffffffffffffffffffffffffffffff16815260200190815260200160002060030154600360008a73ffffffffffffffffffffffffffffffffffffffff1673ffffffffffffffffffffffffffffffffffffffff16815260200190815260200160002060000160149054906101000a900460ff16600360008b73ffffffffffffffffffffffffffffffffffffffff1673ffffffffffffffffffffffffffffffffffffffff168152602001908152602001600020600201549450945094509450945091939590929450565b6000806000806000600260008773ffffffffffffffffffffffffffffffffffffffff1673ffffffffffffffffffffffffffffffffffffffff16815260200190815260200160002060010154600260008873ffffffffffffffffffffffffffffffffffffffff1673ffffffffffffffffffffffffffffffffffffffff168152602001908152602001600020600d0154600260008973ffffffffffffffffffffffffffffffffffffffff1673ffffffffffffffffffffffffffffffffffffffff168152602001908152602001600020600e0154600260008a73ffffffffffffffffffffffffffffffffffffffff1673ffffffffffffffffffffffffffffffffffffffff16815260200190815260200160002060100154600260008b73ffffffffffffffffffffffffffffffffffffffff1673ffffffffffffffffffffffffffffffffffffffff168152602001908152602001600020600b01549450945094509450945091939590929450565b60008060009050600f600260003373ffffffffffffffffffffffffffffffffffffffff1673ffffffffffffffffffffffffffffffffffffffff16815260200190815260200160002060010154101515613db657826032029050613f1d565b600a600260003373ffffffffffffffffffffffffffffffffffffffff1673ffffffffffffffffffffffffffffffffffffffff16815260200190815260200160002060010154101515613e0d57826020029050613f1c565b6006600260003373ffffffffffffffffffffffffffffffffffffffff1673ffffffffffffffffffffffffffffffffffffffff16815260200190815260200160002060010154101515613e6457826014029050613f1b565b6003600260003373ffffffffffffffffffffffffffffffffffffffff1673ffffffffffffffffffffffffffffffffffffffff16815260200190815260200160002060010154101515613ebb5782600c029050613f1a565b6001600260003373ffffffffffffffffffffffffffffffffffffffff1673ffffffffffffffffffffffffffffffffffffffff16815260200190815260200160002060010154101515613f1257826006029050613f19565b8260020290505b5b5b5b5b80915050919050565b603c600f0281565b600960009054906101000a900473ffffffffffffffffffffffffffffffffffffffff1681565b6000806000806000600260008773ffffffffffffffffffffffffffffffffffffffff1673ffffffffffffffffffffffffffffffffffffffff1681526020019081526020016000206003016000600581101515613fac57fe5b0154600260008873ffffffffffffffffffffffffffffffffffffffff1673ffffffffffffffffffffffffffffffffffffffff1681526020019081526020016000206003016001600581101515613ffe57fe5b0154600260008973ffffffffffffffffffffffffffffffffffffffff1673ffffffffffffffffffffffffffffffffffffffff168152602001908152602001600020600301600260058110151561405057fe5b0154600260008a73ffffffffffffffffffffffffffffffffffffffff1673ffffffffffffffffffffffffffffffffffffffff16815260200190815260200160002060030160036005811015156140a257fe5b0154600260008b73ffffffffffffffffffffffffffffffffffffffff1673ffffffffffffffffffffffffffffffffffffffff16815260200190815260200160002060030160046005811015156140f457fe5b01549450945094509450945091939590929450565b60008060009054906101000a900473ffffffffffffffffffffffffffffffffffffffff1673ffffffffffffffffffffffffffffffffffffffff1663dd62ed3e33306040518363ffffffff167c0100000000000000000000000000000000000000000000000000000000028152600401808373ffffffffffffffffffffffffffffffffffffffff1673ffffffffffffffffffffffffffffffffffffffff1681526020018273ffffffffffffffffffffffffffffffffffffffff1673ffffffffffffffffffffffffffffffffffffffff1681526020019250505060206040518083038186803b1580156141f957600080fd5b505afa15801561420d573d6000803e3d6000fd5b505050506040513d602081101561422357600080fd5b8101908080519060200190929190505050905090565b60003073ffffffffffffffffffffffffffffffffffffffff16638959af3c600260008573ffffffffffffffffffffffffffffffffffffffff1673ffffffffffffffffffffffffffffffffffffffff168152602001908152602001600020600a01546040518263ffffffff167c01000000000000000000000000000000000000000000000000000000000281526004018082815260200191505060206040518083038186803b1580156142ea57600080fd5b505afa1580156142fe573d6000803e3d6000fd5b505050506040513d602081101561431457600080fd5b81019080805190602001909291905050509050919050565b60085481565b60026020528060005260406000206000915090508060000160009054906101000a900473ffffffffffffffffffffffffffffffffffffffff169080600101549080600201549080600801549080600901549080600a01549080600b01549080600c0160009054906101000a900464ffffffffff169080600d01549080600e01549080600f015490806010015490508c565b6004818154811015156143d257fe5b9060005260206000209060209182820401919006915054906101000a900460ff1681565b600042905090565b60036020528060005260406000206000915090508060000160009054906101000a900473ffffffffffffffffffffffffffffffffffffffff16908060000160149054906101000a900460ff16908060010154908060020154908060030154905085565b600281565b620f4240800281565b60075481565b60008060008060006007546008546000809054906101000a900473ffffffffffffffffffffffffffffffffffffffff1673ffffffffffffffffffffffffffffffffffffffff166370a08231306040518263ffffffff167c0100000000000000000000000000000000000000000000000000000000028152600401808273ffffffffffffffffffffffffffffffffffffffff1673ffffffffffffffffffffffffffffffffffffffff16815260200191505060206040518083038186803b15801561453d57600080fd5b505afa158015614551573d6000803e3d6000fd5b505050506040513d602081101561456757600080fd5b81019080805190602001909291905050506000809054906101000a900473ffffffffffffffffffffffffffffffffffffffff1673ffffffffffffffffffffffffffffffffffffffff166370a082318a6040518263ffffffff167c0100000000000000000000000000000000000000000000000000000000028152600401808273ffffffffffffffffffffffffffffffffffffffff1673ffffffffffffffffffffffffffffffffffffffff16815260200191505060206040518083038186803b15801561463257600080fd5b505afa158015614646573d6000803e3d6000fd5b505050506040513d602081101561465c57600080fd5b81019080805190602001909291905050506000809054906101000a900473ffffffffffffffffffffffffffffffffffffffff1673ffffffffffffffffffffffffffffffffffffffff1663dd62ed3e8b306040518363ffffffff167c0100000000000000000000000000000000000000000000000000000000028152600401808373ffffffffffffffffffffffffffffffffffffffff1673ffffffffffffffffffffffffffffffffffffffff1681526020018273ffffffffffffffffffffffffffffffffffffffff1673ffffffffffffffffffffffffffffffffffffffff1681526020019250505060206040518083038186803b15801561475b57600080fd5b505afa15801561476f573d6000803e3d6000fd5b505050506040513d602081101561478557600080fd5b81019080805190602001909291905050509450945094509450945091939590929450565b620f4240601e0281565b60065481565b620f42406127100281565b60003390506000809054906101000a900473ffffffffffffffffffffffffffffffffffffffff1673ffffffffffffffffffffffffffffffffffffffff1663dd62ed3e82306040518363ffffffff167c0100000000000000000000000000000000000000000000000000000000028152600401808373ffffffffffffffffffffffffffffffffffffffff1673ffffffffffffffffffffffffffffffffffffffff1681526020018273ffffffffffffffffffffffffffffffffffffffff1673ffffffffffffffffffffffffffffffffffffffff1681526020019250505060206040518083038186803b1580156148b757600080fd5b505afa1580156148cb573d6000803e3d6000fd5b505050506040513d60208110156148e157600080fd5b8101908080519060200190929190505050821115614963578273ffffffffffffffffffffffffffffffffffffffff168173ffffffffffffffffffffffffffffffffffffffff167fbf182be802245e8ed88e4b8d3e4344c0863dd2a70334f089fd07265389306fcf846040518082815260200191505060405180910390a3600080fd5b6000809054906101000a900473ffffffffffffffffffffffffffffffffffffffff1673ffffffffffffffffffffffffffffffffffffffff166323b872dd8285856040518463ffffffff167c0100000000000000000000000000000000000000000000000000000000028152600401808473ffffffffffffffffffffffffffffffffffffffff1673ffffffffffffffffffffffffffffffffffffffff1681526020018373ffffffffffffffffffffffffffffffffffffffff1673ffffffffffffffffffffffffffffffffffffffff1681526020018281526020019350505050602060405180830381600087803b158015614a5b57600080fd5b505af1158015614a6f573d6000803e3d6000fd5b505050506040513d6020811015614a8557600080fd5b8101908080519060200190929190505050508273ffffffffffffffffffffffffffffffffffffffff168173ffffffffffffffffffffffffffffffffffffffff167fd6d3eb25a413c05d8107fc49deb2789bef7f612582b2482804c0b0423b6638ee846040518082815260200191505060405180910390a3505050565b6000600260008473ffffffffffffffffffffffffffffffffffffffff1673ffffffffffffffffffffffffffffffffffffffff16815260200190815260200160002060000160009054906101000a900473ffffffffffffffffffffffffffffffffffffffff16905060008090505b6004805490508160ff161015614f2c57600073ffffffffffffffffffffffffffffffffffffffff168273ffffffffffffffffffffffffffffffffffffffff161415614bb857614f2c565b6001810160ff16600260008473ffffffffffffffffffffffffffffffffffffffff1673ffffffffffffffffffffffffffffffffffffffff1681526020019081526020016000206001015410158015614c13575060058160ff16105b15614d1a576000606460048360ff16815481101515614c2e57fe5b90600052602060002090602091828204019190069054906101000a900460ff1660ff168502811515614c5c57fe5b04905080600260008573ffffffffffffffffffffffffffffffffffffffff1673ffffffffffffffffffffffffffffffffffffffff168152602001908152602001600020600801600082825401925050819055508473ffffffffffffffffffffffffffffffffffffffff168373ffffffffffffffffffffffffffffffffffffffff167f16e746f9be6c4b545700b04df27afb9fceabf59b94ef1c816e78a435059fabea836040518082815260200191505060405180910390a350614eba565b6005600260008473ffffffffffffffffffffffffffffffffffffffff1673ffffffffffffffffffffffffffffffffffffffff1681526020019081526020016000206001015410158015614db65750620f424061271002600260008473ffffffffffffffffffffffffffffffffffffffff1673ffffffffffffffffffffffffffffffffffffffff1681526020019081526020016000206010015410155b15614eb9576000606460048360ff16815481101515614dd157fe5b90600052602060002090602091828204019190069054906101000a900460ff1660ff168502811515614dff57fe5b04905080600260008573ffffffffffffffffffffffffffffffffffffffff1673ffffffffffffffffffffffffffffffffffffffff168152602001908152602001600020600801600082825401925050819055508473ffffffffffffffffffffffffffffffffffffffff168373ffffffffffffffffffffffffffffffffffffffff167f16e746f9be6c4b545700b04df27afb9fceabf59b94ef1c816e78a435059fabea836040518082815260200191505060405180910390a3505b5b600260008373ffffffffffffffffffffffffffffffffffffffff1673ffffffffffffffffffffffffffffffffffffffff16815260200190815260200160002060000160009054906101000a900473ffffffffffffffffffffffffffffffffffffffff1691508080600101915050614b6e565b50505050565b600073ffffffffffffffffffffffffffffffffffffffff16600260008473ffffffffffffffffffffffffffffffffffffffff1673ffffffffffffffffffffffffffffffffffffffff16815260200190815260200160002060000160009054906101000a900473ffffffffffffffffffffffffffffffffffffffff1673ffffffffffffffffffffffffffffffffffffffff16148015614ffc57508173ffffffffffffffffffffffffffffffffffffffff168173ffffffffffffffffffffffffffffffffffffffff1614155b80156150565750600960009054906101000a900473ffffffffffffffffffffffffffffffffffffffff1673ffffffffffffffffffffffffffffffffffffffff168273ffffffffffffffffffffffffffffffffffffffff1614155b801561511457506000600260008373ffffffffffffffffffffffffffffffffffffffff1673ffffffffffffffffffffffffffffffffffffffff168152602001908152602001600020600c0160009054906101000a900464ffffffffff1664ffffffffff1611806151135750600960009054906101000a900473ffffffffffffffffffffffffffffffffffffffff1673ffffffffffffffffffffffffffffffffffffffff168173ffffffffffffffffffffffffffffffffffffffff16145b5b156152595780600260008473ffffffffffffffffffffffffffffffffffffffff1673ffffffffffffffffffffffffffffffffffffffff16815260200190815260200160002060000160006101000a81548173ffffffffffffffffffffffffffffffffffffffff021916908373ffffffffffffffffffffffffffffffffffffffff160217905550600260008273ffffffffffffffffffffffffffffffffffffffff1673ffffffffffffffffffffffffffffffffffffffff168152602001908152602001600020600101600081548092919060010191905055508073ffffffffffffffffffffffffffffffffffffffff168273ffffffffffffffffffffffffffffffffffffffff167f9f4d150e5193cfa9a87226111d3b60b624d97ccc056eeeac1569af1ea27bf64160405160405180910390a36006600081548092919060010191905055505b505056fea165627a7a72305820f6dbdcd883018b9d77eea342065fa819acbd420920333b0496863cfa14b9767f0029",
  "source": "pragma solidity 0.5.4;\r\nimport \"./RKG.sol\";  // TA2EDEgytsPYu27kkZtDpFBz85as8vPqsX\r\n \r\ncontract RKGcontract  {\r\n   \r\n    RKG public rkg; \r\n  \r\n    struct User {\r\n        address upline ;\r\n        uint256 direct_referrals ;\r\n        uint256 payouts ;\r\n        uint256[5] level_income;\r\n        uint256 gen_bonus ;\r\n        uint256 instant_bonus ;\r\n        uint256 deposit_amount ;\r\n        uint256 deposit_payouts ;\r\n        uint40 deposit_time ;\r\n        uint256 total_deposits ;\r\n        uint256 total_payouts ;\r\n        uint256 isActive ;\r\n        uint256 direct_biz ;\r\n    } \r\n\r\n    struct User2 {\r\n        address super_upline ; // logic\r\n        bool isSuper ;\r\n        uint256 super_business ;  \r\n        uint256 super5_bonus ;  \r\n        uint256 super_directs ;  \r\n    }\r\n    \r\n    uint256 constant public mill = 1000000 ; // 100 trx\r\n    uint256 constant public MIN_DEPOSIT = 30*mill ; // 300*mill\r\n    uint256 constant public MAX_DEPOSIT = mill*mill ; // 300*mill\r\n    uint256 constant public MANAGER_DEPOSIT = 10000*mill ; // 10000*mill\r\n    uint256 constant public one_day = 60 ; // 1 days \r\n    uint256 constant public super_time = 15*one_day ; // 15 days \r\n    uint256 constant public daily_roi = 2 ; // 0.2% daily\r\n    uint256 public buffer_divider = 1 ;   \r\n       \r\n    mapping(address => User) public users ;\r\n    mapping(address => User2) public users2 ;\r\n     \r\n    uint8[] public ref_bonuses ;  \r\n    uint8[] public aff_bonuses ;  \r\n    uint256 public total_users = 0 ;\r\n    uint256 public total_deposited ;\r\n    uint256 public total_withdraw ;\r\n    \r\n    event Upline(address indexed addr, address indexed upline) ;\r\n    event NewDeposit(address indexed addr, uint256 amount) ;\r\n    event MatchPayout(address indexed addr, address indexed from, uint256 amount) ;\r\n    event Withdraw(address indexed addr, uint256 amount) ;\r\n    event LimitReached(address indexed addr, uint256 amount) ; \r\n    event TransferSuccessful(address indexed from_, address indexed to_, uint256 amount_); \r\n    event TransferFailed(address indexed from_, address indexed to_, uint256 amount_);   \r\n\r\n    address payable public owner ; \r\n    \r\n    constructor(  RKG _rkg) public {\r\n\r\n        owner = msg.sender; \r\n        rkg = _rkg;\r\n         \r\n        ref_bonuses.push(20); // Level 1\r\n        ref_bonuses.push(10); // Level 2 \r\n        ref_bonuses.push(10); // Level 3\r\n        ref_bonuses.push(10); // Level 4\r\n        ref_bonuses.push(10); // Level 5\r\n        ref_bonuses.push(5); // Level 6\r\n        ref_bonuses.push(5); // Level 7\r\n        ref_bonuses.push(5); // Level 8\r\n        ref_bonuses.push(5); // Level 9\r\n        ref_bonuses.push(5); // Level 10\r\n\r\n        aff_bonuses.push(10); // Level 1\r\n        aff_bonuses.push(2); // Level 2\r\n        aff_bonuses.push(1); // Level 3\r\n        aff_bonuses.push(1); // Level 4\r\n        aff_bonuses.push(1);  // Level 5\r\n    }\r\n\r\n    function() payable external { \r\n         _deposit(msg.sender, msg.value);     \r\n     }\r\n \r\n \r\n    function _setUpline(address _addr, address _upline) private {\r\n        if(users[_addr].upline == address(0) && _upline != _addr && _addr != owner && \r\n\t\t(users[_upline].deposit_time > 0 || _upline == owner) ) {\r\n           \r\n            users[_addr].upline = _upline;\r\n            users[_upline].direct_referrals++; \r\n            emit Upline(_addr, _upline);\r\n\r\n            total_users++;  \r\n        }\r\n    }\r\n\r\n    function _deposit(address _addr, uint256 _amount) private {\r\n        require(users[_addr].upline != address(0) || _addr == owner, \"No upline\");\r\n \r\n        if(users[_addr].deposit_time > 0) {\r\n             \r\n            require(users[_addr].payouts >= this.maxPayoutOf(users[_addr].deposit_amount), \"Deposit already exists\");\r\n            require(_amount >= users[_addr].deposit_amount  , \"Bad amount\");\r\n\r\n        }\r\n        else require(_amount >= MIN_DEPOSIT  && _amount <= MAX_DEPOSIT , \"Bad amount\"); \r\n        \r\n        require(_amount > 0);\r\n        transferTokens(address(this), _amount); \r\n        \r\n        users[_addr].payouts = 0;\r\n        users[_addr].deposit_amount = _amount;\r\n        users[_addr].deposit_payouts = 0;\r\n        users[_addr].isActive = 1;\r\n        users[_addr].deposit_time = uint40(block.timestamp);\r\n        users[_addr].total_deposits += _amount;\r\n\r\n        address upline = users[_addr].upline;\r\n        users[upline].direct_biz += _amount; \r\n\r\n        if(users[upline].deposit_amount >= _amount && block.timestamp <= (users[upline].deposit_time + super_time)){\r\n            users2[upline].super_directs++;\r\n            if(users2[upline].super_directs == 5 && users2[upline].super5_bonus == 0){\r\n                users2[upline].super5_bonus = users[upline].deposit_amount/2;\r\n            }\r\n        }\r\n \r\n        total_deposited += _amount;\r\n        \r\n        emit NewDeposit(_addr, _amount); \r\n\r\n      for(uint256 i = 0; i < aff_bonuses.length; i++) {\r\n            if(upline == address(0)) break; \r\n                uint256 bonus = _amount * ref_bonuses[i] / 100; \r\n                users[upline].level_income[i] += bonus;\r\n                users[upline].instant_bonus += bonus;\r\n                 upline = users[upline].upline;\r\n        } \r\n\r\n        if(upline == owner){\r\n            users2[_addr].isSuper = true;\r\n        } \r\n\r\n        if(users2[upline].isSuper == true){ // check if upline is super\r\n            users2[_addr].super_upline = upline ; // assign present up as superup\r\n        } else {\r\n            users2[_addr].super_upline = users2[upline].super_upline ;// assign up's superup as superup\r\n        }\r\n            users2[users2[_addr].super_upline].super_business += _amount;\r\n  \r\n    } \r\n    \r\n    function transferTokens(address to_, uint256 amount_) private  {\r\n \r\n         address from_ = msg.sender;\r\n \r\n        if(amount_ > rkg.allowance(from_, address(this))) {\r\n            emit TransferFailed(from_, to_, amount_);\r\n            revert();\r\n        }\r\n\r\n        rkg.transferFrom(from_, to_, amount_); \r\n \r\n        emit TransferSuccessful(from_, to_, amount_);\r\n    }\r\n\r\n     function _refPayout(address _addr, uint256 _amount) private {\r\n        address up = users[_addr].upline;\r\n\r\n        for(uint8 i = 0; i < ref_bonuses.length; i++) {\r\n            if(up == address(0)) break;\r\n            \r\n            if(users[up].direct_referrals >= i + 1 && i < 5) {\r\n                uint256 bonus = _amount * ref_bonuses[i] / 100;\r\n                \r\n                users[up].gen_bonus += bonus;\r\n\r\n                emit MatchPayout(up, _addr, bonus);\r\n            } else if(users[up].direct_referrals >= 5 && users[up].direct_biz >= MANAGER_DEPOSIT) {\r\n                uint256 bonus = _amount * ref_bonuses[i] / 100;\r\n                \r\n                users[up].gen_bonus += bonus;\r\n\r\n                emit MatchPayout(up, _addr, bonus);\r\n            } \r\n\r\n            up = users[up].upline;\r\n        }\r\n    }\r\n \r\n    function deposit(address _upline, uint256 _amount) payable external {\r\n        _setUpline(msg.sender, _upline);\r\n        _deposit(msg.sender, _amount);\r\n    }\r\n\r\n \r\n    function withdraw() external {\r\n        (uint256 to_payout, uint256 max_payout) = this.payoutOf(msg.sender);\r\n        \r\n        require(users[msg.sender].payouts < max_payout, \"Full payouts\");\r\n\r\n        // Deposit payout\r\n        if(to_payout > 0) {\r\n            if(users[msg.sender].payouts + to_payout > max_payout) {\r\n                to_payout = max_payout - users[msg.sender].payouts;\r\n            } \r\n            users[msg.sender].deposit_payouts += to_payout;\r\n            users[msg.sender].payouts += to_payout;\r\n\r\n            _refPayout(msg.sender, to_payout);\r\n        }\r\n        \r\n        // Instant Referral payout\r\n        if(users[msg.sender].payouts < max_payout && users[msg.sender].instant_bonus > 0) {\r\n            uint256 instant_bonus = users[msg.sender].instant_bonus;\r\n\r\n            if(users[msg.sender].payouts + instant_bonus > max_payout) {\r\n                instant_bonus = max_payout - users[msg.sender].payouts;\r\n            }\r\n\r\n            users[msg.sender].instant_bonus -= instant_bonus;\r\n            users[msg.sender].payouts += instant_bonus;\r\n            to_payout += instant_bonus;\r\n        } \r\n\r\n        // Super 5 Referral payout\r\n        if(users[msg.sender].payouts < max_payout && users2[msg.sender].super5_bonus > 0) {\r\n            uint256 super5_bonus = users2[msg.sender].super5_bonus;\r\n\r\n            if(users[msg.sender].payouts + super5_bonus > max_payout) {\r\n                super5_bonus = max_payout - users[msg.sender].payouts;\r\n            }\r\n\r\n            users2[msg.sender].super5_bonus -= super5_bonus;\r\n            users[msg.sender].payouts += super5_bonus;\r\n            to_payout += super5_bonus;\r\n        } \r\n  \r\n        // Match payout\r\n        if(users[msg.sender].payouts < max_payout && users[msg.sender].gen_bonus > 0) {\r\n            uint256 gen_bonus = users[msg.sender].gen_bonus;\r\n\r\n            if(users[msg.sender].payouts + gen_bonus > max_payout) {\r\n                gen_bonus = max_payout - users[msg.sender].payouts;\r\n            }\r\n\r\n            users[msg.sender].gen_bonus -= gen_bonus;\r\n            users[msg.sender].payouts += gen_bonus;\r\n            to_payout += gen_bonus;\r\n        }\r\n\r\n        require(to_payout > 0, \"Zero payout\");\r\n\r\n        to_payout = to_payout/buffer_divider; \r\n        \r\n        users[msg.sender].total_payouts += to_payout;\r\n        total_withdraw += to_payout;\r\n        if(to_payout > 0){\r\n             rkg.transfer(msg.sender,to_payout); \r\n        }\r\n\r\n        emit Withdraw(msg.sender, to_payout);\r\n\r\n        if(users[msg.sender].payouts >= max_payout) {\r\n            emit LimitReached(msg.sender, users[msg.sender].payouts);\r\n            users[msg.sender].isActive = 0;\r\n        }\r\n \r\n    }\r\n    \r\n    function payoutOf(address _addr) view external returns(uint256 payout, uint256 max_payout) {\r\n        max_payout = this.maxPayoutOf(users[_addr].deposit_amount);\r\n        uint256 Period = (block.timestamp - users[_addr].deposit_time)/one_day;\r\n\r\n        if(users[_addr].deposit_payouts < max_payout) {\r\n            payout = this.comp_interest(users[_addr].deposit_amount, Period, daily_roi);\r\n            if(users[_addr].deposit_payouts + payout > max_payout) {\r\n                payout = max_payout - users[_addr].deposit_payouts;\r\n            }\r\n        }\r\n    } \r\n \r\n    /*\r\n        Only external call\r\n    */ \r\n\r\n\tfunction getContractBalance() public view returns (uint256) {\r\n\t\treturn address(this).balance;\r\n\t}  \r\n\r\n     function maxPayoutOf(uint256 _amount) external view returns(uint256) {\r\n        uint256 _val = 0 ;\r\n\t    if(users[msg.sender].direct_referrals >= 15){\r\n            _val = 50*_amount;\r\n        } else if(users[msg.sender].direct_referrals >= 10){\r\n            _val = 32*_amount;\r\n        } else if(users[msg.sender].direct_referrals >= 6){\r\n            _val = 20*_amount;\r\n        } else if(users[msg.sender].direct_referrals >= 3){\r\n            _val = 12*_amount;\r\n        } else if(users[msg.sender].direct_referrals >= 1){\r\n            _val = 6*_amount;\r\n        } else {\r\n            _val = 2*_amount;\r\n        }\r\n        return _val;\r\n    } \r\n\r\n\tfunction getUserBalance(address _addr) external view returns (uint256) {\r\n        (uint256 to_payout, uint256 max_payout) = this.payoutOf(_addr); \r\n \r\n        // Deposit payout\r\n        if(to_payout > 0) {\r\n            if(users[_addr].payouts + to_payout > max_payout) {\r\n                to_payout = max_payout - users[_addr].payouts;\r\n            } \r\n         }\r\n        \r\n        // Instant Referral payout\r\n        if(users[_addr].payouts < max_payout && users[_addr].instant_bonus > 0) {\r\n            uint256 instant_bonus = users[_addr].instant_bonus;\r\n\r\n            if(users[_addr].payouts + instant_bonus > max_payout) {\r\n                instant_bonus = max_payout - users[_addr].payouts;\r\n            } \r\n           \r\n            to_payout += instant_bonus;\r\n        } \r\n\r\n         // Super 5 Referral payout\r\n        if(users[msg.sender].payouts < max_payout && users2[msg.sender].super5_bonus > 0) {\r\n            uint256 super5_bonus = users2[msg.sender].super5_bonus;\r\n\r\n            if(users[msg.sender].payouts + super5_bonus > max_payout) {\r\n                super5_bonus = max_payout - users[msg.sender].payouts;\r\n            }\r\n \r\n            to_payout += super5_bonus;\r\n        } \r\n       \r\n        // Match payout\r\n        if(users[_addr].payouts < max_payout && users[_addr].gen_bonus > 0) {\r\n            uint256 gen_bonus = users[_addr].gen_bonus;\r\n\r\n            if(users[_addr].payouts + gen_bonus > max_payout) {\r\n                gen_bonus = max_payout - users[_addr].payouts;\r\n            } \r\n            to_payout += gen_bonus;\r\n        }   \r\n        to_payout = to_payout/buffer_divider;\r\n\r\n    }\r\n   \r\n    function MaxPay(address _addr) external view returns (uint256) { \r\n        return this.maxPayoutOf(users[_addr].deposit_amount);\r\n    }\r\n\r\n    function getAdmin() external view returns (address){ \r\n        return owner;\r\n    } \r\n\r\n    function changeBuffer(uint256 _newValue) external returns (bool){ \r\n        buffer_divider = _newValue;\r\n        return true;\r\n    } \r\n \r\n    \r\n     function getNow() external view returns (uint256){ \r\n        return block.timestamp;\r\n    }\r\n\r\n    function userInfo(address _addr) view external returns(address upline, uint40 deposit_time, uint256 deposit_amount, uint256 payouts, uint256 instant_bonus , uint256 gen_bonus, uint256 user_status ) {\r\n        return (users[_addr].upline, users[_addr].deposit_time, users[_addr].deposit_amount, users[_addr].payouts, users[_addr].instant_bonus, users[_addr].gen_bonus, users[_addr].isActive  );\r\n    }\r\n    function superInfo(address _addr) view external returns(address super_upline, uint256 super_business, uint256 super_directs, bool isSuper, uint256 super5_bonus) {\r\n        return (users2[_addr].super_upline, users2[_addr].super_business, users2[_addr].super_directs, users2[_addr].isSuper, users2[_addr].super5_bonus );\r\n    }\r\n\r\n    function levelInfo(address _addr) view external returns(uint256 level1, uint256 level2, uint256 level3, uint256 level4, uint256 level5 ) {\r\n        return (users[_addr].level_income[0] , users[_addr].level_income[1] , users[_addr].level_income[2] , users[_addr].level_income[3] , users[_addr].level_income[4]  );\r\n    }  \r\n\r\n    function userInfoTotals(address _addr) view external returns(uint256 direct_referrals, uint256 total_deposits, uint256 total_payouts, uint256 direct_biz, uint256 deposit_payouts) {\r\n        return (users[_addr].direct_referrals, users[_addr].total_deposits, users[_addr].total_payouts,  users[_addr].direct_biz, users[_addr].deposit_payouts);\r\n    } \r\n\r\n    function contractInfo(address _addr) view external returns(uint256 total_deposited1, uint256 total_withdraw1, uint256 rkg_balance, uint256 user_rkg_balance, uint256 user_allowance) {\r\n        return (total_deposited, total_withdraw, rkg.balanceOf(address(this)), rkg.balanceOf(_addr), rkg.allowance(_addr, address(this)));\r\n    } \r\n\r\n    function comp_interest(uint256 deposit_amount, uint256 Period, uint256 ROI_10)pure external returns(uint256){\r\n        uint256 Principle = deposit_amount ;\r\n        uint256 Principle1 = deposit_amount ;\r\n        for (uint256 i=0; i<Period; i++) {\r\n          Principle += Principle* ROI_10/100/10; \r\n        }\r\n        return Principle - Principle1;\r\n    }\r\n\r\n    function dividends_total(address _addr) external view returns(uint256){\r\n        uint256 Principle = users[_addr].deposit_amount ;\r\n        uint256 Principle1 = Principle ;\r\n        uint256 Period = (uint40(block.timestamp) - users[_addr].deposit_time)/one_day;\r\n\r\n        for (uint256 i=0; i<Period; i++) {\r\n          Principle += Principle*daily_roi/100/10; \r\n        }\r\n        return Principle - Principle1;\r\n    }\r\n\r\n    function checkAllowance() external view returns(uint256){\r\n        return rkg.allowance(msg.sender, address(this));\r\n    } \r\n}\r\n\r\n\r\n",
  "sourcePath": "C:/Users/RAAKESH/Desktop/Coding/TronDapp/AATRON BEAST/Code/contracts/RKGcontract.sol",
  "compiler": {
    "name": "solc",
    "version": "0.5.4+commit.d15a3125.mod.Emscripten.clang"
  },
  "schemaVersion": "2.0.1",
  "updatedAt": "2021-03-22T03:38:54.544Z"
}