{
  "contractName": "SweezGlobal",
  "abi": [
    {
      "constant": true,
      "inputs": [],
      "name": "PERCENTS_DIVIDER",
      "outputs": [
        {
          "name": "",
          "type": "uint256"
        }
      ],
      "payable": false,
      "stateMutability": "view",
      "type": "function"
    },
    {
      "constant": true,
      "inputs": [],
      "name": "admin2",
      "outputs": [
        {
          "name": "",
          "type": "address"
        }
      ],
      "payable": false,
      "stateMutability": "view",
      "type": "function"
    },
    {
      "constant": true,
      "inputs": [],
      "name": "shareHolder_value",
      "outputs": [
        {
          "name": "",
          "type": "uint256"
        }
      ],
      "payable": false,
      "stateMutability": "view",
      "type": "function"
    },
    {
      "constant": true,
      "inputs": [],
      "name": "admin1",
      "outputs": [
        {
          "name": "",
          "type": "address"
        }
      ],
      "payable": false,
      "stateMutability": "view",
      "type": "function"
    },
    {
      "constant": true,
      "inputs": [],
      "name": "pool_balance",
      "outputs": [
        {
          "name": "",
          "type": "uint256"
        }
      ],
      "payable": false,
      "stateMutability": "view",
      "type": "function"
    },
    {
      "constant": true,
      "inputs": [],
      "name": "admin3",
      "outputs": [
        {
          "name": "",
          "type": "address"
        }
      ],
      "payable": false,
      "stateMutability": "view",
      "type": "function"
    },
    {
      "constant": true,
      "inputs": [],
      "name": "admin_fee1",
      "outputs": [
        {
          "name": "",
          "type": "uint256"
        }
      ],
      "payable": false,
      "stateMutability": "view",
      "type": "function"
    },
    {
      "constant": true,
      "inputs": [],
      "name": "wonder_period",
      "outputs": [
        {
          "name": "",
          "type": "uint256"
        }
      ],
      "payable": false,
      "stateMutability": "view",
      "type": "function"
    },
    {
      "constant": true,
      "inputs": [],
      "name": "admin4",
      "outputs": [
        {
          "name": "",
          "type": "address"
        }
      ],
      "payable": false,
      "stateMutability": "view",
      "type": "function"
    },
    {
      "constant": true,
      "inputs": [],
      "name": "million",
      "outputs": [
        {
          "name": "",
          "type": "uint256"
        }
      ],
      "payable": false,
      "stateMutability": "view",
      "type": "function"
    },
    {
      "constant": true,
      "inputs": [],
      "name": "aff_bonus",
      "outputs": [
        {
          "name": "",
          "type": "uint256"
        }
      ],
      "payable": false,
      "stateMutability": "view",
      "type": "function"
    },
    {
      "constant": true,
      "inputs": [],
      "name": "coFounder_value",
      "outputs": [
        {
          "name": "",
          "type": "uint256"
        }
      ],
      "payable": false,
      "stateMutability": "view",
      "type": "function"
    },
    {
      "constant": true,
      "inputs": [],
      "name": "shareHolder_count",
      "outputs": [
        {
          "name": "",
          "type": "uint256"
        }
      ],
      "payable": false,
      "stateMutability": "view",
      "type": "function"
    },
    {
      "constant": true,
      "inputs": [],
      "name": "BASE_PERCENT",
      "outputs": [
        {
          "name": "",
          "type": "uint256"
        }
      ],
      "payable": false,
      "stateMutability": "view",
      "type": "function"
    },
    {
      "constant": true,
      "inputs": [],
      "name": "CONTRACT_BALANCE_STEP",
      "outputs": [
        {
          "name": "",
          "type": "uint256"
        }
      ],
      "payable": false,
      "stateMutability": "view",
      "type": "function"
    },
    {
      "constant": true,
      "inputs": [
        {
          "name": "",
          "type": "uint256"
        }
      ],
      "name": "pool_bonuses",
      "outputs": [
        {
          "name": "",
          "type": "uint8"
        }
      ],
      "payable": false,
      "stateMutability": "view",
      "type": "function"
    },
    {
      "constant": true,
      "inputs": [
        {
          "name": "",
          "type": "uint256"
        },
        {
          "name": "",
          "type": "address"
        }
      ],
      "name": "pool_users_refs_deposits_sum",
      "outputs": [
        {
          "name": "",
          "type": "uint256"
        }
      ],
      "payable": false,
      "stateMutability": "view",
      "type": "function"
    },
    {
      "constant": true,
      "inputs": [],
      "name": "owner",
      "outputs": [
        {
          "name": "",
          "type": "address"
        }
      ],
      "payable": false,
      "stateMutability": "view",
      "type": "function"
    },
    {
      "constant": true,
      "inputs": [],
      "name": "admin_fee2",
      "outputs": [
        {
          "name": "",
          "type": "uint256"
        }
      ],
      "payable": false,
      "stateMutability": "view",
      "type": "function"
    },
    {
      "constant": true,
      "inputs": [
        {
          "name": "",
          "type": "address"
        }
      ],
      "name": "usertotals",
      "outputs": [
        {
          "name": "total_deposits",
          "type": "uint256"
        },
        {
          "name": "total_payouts",
          "type": "uint256"
        },
        {
          "name": "total_structure",
          "type": "uint256"
        },
        {
          "name": "wonder_time",
          "type": "uint256"
        },
        {
          "name": "shareHolder",
          "type": "bool"
        },
        {
          "name": "coFounder",
          "type": "bool"
        }
      ],
      "payable": false,
      "stateMutability": "view",
      "type": "function"
    },
    {
      "constant": true,
      "inputs": [],
      "name": "pool_cycle",
      "outputs": [
        {
          "name": "",
          "type": "uint256"
        }
      ],
      "payable": false,
      "stateMutability": "view",
      "type": "function"
    },
    {
      "constant": true,
      "inputs": [],
      "name": "total_withdraw",
      "outputs": [
        {
          "name": "",
          "type": "uint256"
        }
      ],
      "payable": false,
      "stateMutability": "view",
      "type": "function"
    },
    {
      "constant": true,
      "inputs": [],
      "name": "pool_last_draw",
      "outputs": [
        {
          "name": "",
          "type": "uint40"
        }
      ],
      "payable": false,
      "stateMutability": "view",
      "type": "function"
    },
    {
      "constant": true,
      "inputs": [
        {
          "name": "",
          "type": "address"
        }
      ],
      "name": "top_promoters",
      "outputs": [
        {
          "name": "",
          "type": "bool"
        }
      ],
      "payable": false,
      "stateMutability": "view",
      "type": "function"
    },
    {
      "constant": true,
      "inputs": [
        {
          "name": "",
          "type": "address"
        }
      ],
      "name": "users",
      "outputs": [
        {
          "name": "upline",
          "type": "address"
        },
        {
          "name": "referrals",
          "type": "uint256"
        },
        {
          "name": "payouts",
          "type": "uint256"
        },
        {
          "name": "direct_bonus",
          "type": "uint256"
        },
        {
          "name": "gen_bonus",
          "type": "uint256"
        },
        {
          "name": "pool_bonus",
          "type": "uint256"
        },
        {
          "name": "deposit_amount",
          "type": "uint256"
        },
        {
          "name": "checkpoint",
          "type": "uint256"
        },
        {
          "name": "deposit_payouts",
          "type": "uint256"
        },
        {
          "name": "deposit_time",
          "type": "uint40"
        },
        {
          "name": "wonder_directs",
          "type": "uint256"
        },
        {
          "name": "wonder_bonus",
          "type": "uint256"
        },
        {
          "name": "isActive",
          "type": "uint256"
        }
      ],
      "payable": false,
      "stateMutability": "view",
      "type": "function"
    },
    {
      "constant": true,
      "inputs": [],
      "name": "alt_owner",
      "outputs": [
        {
          "name": "",
          "type": "address"
        }
      ],
      "payable": false,
      "stateMutability": "view",
      "type": "function"
    },
    {
      "constant": true,
      "inputs": [
        {
          "name": "",
          "type": "uint256"
        }
      ],
      "name": "ref_bonuses",
      "outputs": [
        {
          "name": "",
          "type": "uint8"
        }
      ],
      "payable": false,
      "stateMutability": "view",
      "type": "function"
    },
    {
      "constant": true,
      "inputs": [],
      "name": "coFounder_count",
      "outputs": [
        {
          "name": "",
          "type": "uint256"
        }
      ],
      "payable": false,
      "stateMutability": "view",
      "type": "function"
    },
    {
      "constant": true,
      "inputs": [
        {
          "name": "",
          "type": "uint8"
        }
      ],
      "name": "pool_top",
      "outputs": [
        {
          "name": "",
          "type": "address"
        }
      ],
      "payable": false,
      "stateMutability": "view",
      "type": "function"
    },
    {
      "constant": true,
      "inputs": [],
      "name": "mainDivider",
      "outputs": [
        {
          "name": "",
          "type": "uint256"
        }
      ],
      "payable": false,
      "stateMutability": "view",
      "type": "function"
    },
    {
      "constant": true,
      "inputs": [],
      "name": "total_deposited",
      "outputs": [
        {
          "name": "",
          "type": "uint256"
        }
      ],
      "payable": false,
      "stateMutability": "view",
      "type": "function"
    },
    {
      "constant": true,
      "inputs": [],
      "name": "MIN_DEPOSIT",
      "outputs": [
        {
          "name": "",
          "type": "uint256"
        }
      ],
      "payable": false,
      "stateMutability": "view",
      "type": "function"
    },
    {
      "constant": true,
      "inputs": [],
      "name": "total_users",
      "outputs": [
        {
          "name": "",
          "type": "uint256"
        }
      ],
      "payable": false,
      "stateMutability": "view",
      "type": "function"
    },
    {
      "constant": true,
      "inputs": [],
      "name": "time_period",
      "outputs": [
        {
          "name": "",
          "type": "uint256"
        }
      ],
      "payable": false,
      "stateMutability": "view",
      "type": "function"
    },
    {
      "inputs": [],
      "payable": false,
      "stateMutability": "nonpayable",
      "type": "constructor"
    },
    {
      "anonymous": false,
      "inputs": [
        {
          "indexed": true,
          "name": "addr",
          "type": "address"
        },
        {
          "indexed": true,
          "name": "upline",
          "type": "address"
        }
      ],
      "name": "Upline",
      "type": "event"
    },
    {
      "anonymous": false,
      "inputs": [
        {
          "indexed": true,
          "name": "addr",
          "type": "address"
        },
        {
          "indexed": false,
          "name": "amount",
          "type": "uint256"
        }
      ],
      "name": "NewDeposit",
      "type": "event"
    },
    {
      "anonymous": false,
      "inputs": [
        {
          "indexed": true,
          "name": "addr",
          "type": "address"
        },
        {
          "indexed": true,
          "name": "from",
          "type": "address"
        },
        {
          "indexed": false,
          "name": "amount",
          "type": "uint256"
        }
      ],
      "name": "DirectPayout",
      "type": "event"
    },
    {
      "anonymous": false,
      "inputs": [
        {
          "indexed": true,
          "name": "addr",
          "type": "address"
        },
        {
          "indexed": true,
          "name": "from",
          "type": "address"
        },
        {
          "indexed": false,
          "name": "amount",
          "type": "uint256"
        }
      ],
      "name": "MatchPayout",
      "type": "event"
    },
    {
      "anonymous": false,
      "inputs": [
        {
          "indexed": true,
          "name": "addr",
          "type": "address"
        },
        {
          "indexed": false,
          "name": "amount",
          "type": "uint256"
        }
      ],
      "name": "PoolPayout",
      "type": "event"
    },
    {
      "anonymous": false,
      "inputs": [
        {
          "indexed": true,
          "name": "addr",
          "type": "address"
        },
        {
          "indexed": false,
          "name": "amount",
          "type": "uint256"
        }
      ],
      "name": "WonderPayout",
      "type": "event"
    },
    {
      "anonymous": false,
      "inputs": [
        {
          "indexed": true,
          "name": "addr",
          "type": "address"
        },
        {
          "indexed": false,
          "name": "amount",
          "type": "uint256"
        }
      ],
      "name": "Withdraw",
      "type": "event"
    },
    {
      "anonymous": false,
      "inputs": [
        {
          "indexed": true,
          "name": "addr",
          "type": "address"
        },
        {
          "indexed": false,
          "name": "amount",
          "type": "uint256"
        }
      ],
      "name": "LimitReached",
      "type": "event"
    },
    {
      "constant": false,
      "inputs": [
        {
          "name": "_upline",
          "type": "address"
        }
      ],
      "name": "deposit",
      "outputs": [],
      "payable": true,
      "stateMutability": "payable",
      "type": "function"
    },
    {
      "constant": false,
      "inputs": [],
      "name": "withdraw",
      "outputs": [],
      "payable": false,
      "stateMutability": "nonpayable",
      "type": "function"
    },
    {
      "constant": true,
      "inputs": [
        {
          "name": "_addr",
          "type": "address"
        }
      ],
      "name": "payoutOf",
      "outputs": [
        {
          "name": "payout",
          "type": "uint256"
        },
        {
          "name": "max_payout",
          "type": "uint256"
        }
      ],
      "payable": false,
      "stateMutability": "view",
      "type": "function"
    },
    {
      "constant": true,
      "inputs": [
        {
          "name": "_addr",
          "type": "address"
        }
      ],
      "name": "getUserDividends",
      "outputs": [
        {
          "name": "",
          "type": "uint256"
        }
      ],
      "payable": false,
      "stateMutability": "view",
      "type": "function"
    },
    {
      "constant": true,
      "inputs": [],
      "name": "getContractBalance",
      "outputs": [
        {
          "name": "",
          "type": "uint256"
        }
      ],
      "payable": false,
      "stateMutability": "view",
      "type": "function"
    },
    {
      "constant": true,
      "inputs": [],
      "name": "getRate",
      "outputs": [
        {
          "name": "",
          "type": "uint256"
        }
      ],
      "payable": false,
      "stateMutability": "view",
      "type": "function"
    },
    {
      "constant": true,
      "inputs": [],
      "name": "getContractBonus",
      "outputs": [
        {
          "name": "",
          "type": "uint256"
        }
      ],
      "payable": false,
      "stateMutability": "view",
      "type": "function"
    },
    {
      "constant": true,
      "inputs": [
        {
          "name": "_amount",
          "type": "uint256"
        }
      ],
      "name": "maxPayoutOf",
      "outputs": [
        {
          "name": "",
          "type": "uint256"
        }
      ],
      "payable": false,
      "stateMutability": "pure",
      "type": "function"
    },
    {
      "constant": true,
      "inputs": [
        {
          "name": "_addr",
          "type": "address"
        }
      ],
      "name": "getUserBalance",
      "outputs": [
        {
          "name": "",
          "type": "uint256"
        }
      ],
      "payable": false,
      "stateMutability": "view",
      "type": "function"
    },
    {
      "constant": false,
      "inputs": [
        {
          "name": "_newAdmin1",
          "type": "address"
        }
      ],
      "name": "changeAdmin1",
      "outputs": [],
      "payable": false,
      "stateMutability": "nonpayable",
      "type": "function"
    },
    {
      "constant": false,
      "inputs": [
        {
          "name": "_newAdmin2",
          "type": "address"
        }
      ],
      "name": "changeAdmin2",
      "outputs": [],
      "payable": false,
      "stateMutability": "nonpayable",
      "type": "function"
    },
    {
      "constant": false,
      "inputs": [
        {
          "name": "_newAdmin3",
          "type": "address"
        }
      ],
      "name": "changeAdmin3",
      "outputs": [],
      "payable": false,
      "stateMutability": "nonpayable",
      "type": "function"
    },
    {
      "constant": false,
      "inputs": [
        {
          "name": "_newAdmin4",
          "type": "address"
        }
      ],
      "name": "changeAdmin4",
      "outputs": [],
      "payable": false,
      "stateMutability": "nonpayable",
      "type": "function"
    },
    {
      "constant": true,
      "inputs": [],
      "name": "getAdmin",
      "outputs": [
        {
          "name": "",
          "type": "address"
        }
      ],
      "payable": false,
      "stateMutability": "view",
      "type": "function"
    },
    {
      "constant": true,
      "inputs": [],
      "name": "getUser",
      "outputs": [
        {
          "name": "",
          "type": "address"
        }
      ],
      "payable": false,
      "stateMutability": "view",
      "type": "function"
    },
    {
      "constant": true,
      "inputs": [],
      "name": "admin1Address",
      "outputs": [
        {
          "name": "",
          "type": "address"
        }
      ],
      "payable": false,
      "stateMutability": "view",
      "type": "function"
    },
    {
      "constant": true,
      "inputs": [],
      "name": "admin2Address",
      "outputs": [
        {
          "name": "",
          "type": "address"
        }
      ],
      "payable": false,
      "stateMutability": "view",
      "type": "function"
    },
    {
      "constant": true,
      "inputs": [],
      "name": "admin3Address",
      "outputs": [
        {
          "name": "",
          "type": "address"
        }
      ],
      "payable": false,
      "stateMutability": "view",
      "type": "function"
    },
    {
      "constant": true,
      "inputs": [],
      "name": "admin4Address",
      "outputs": [
        {
          "name": "",
          "type": "address"
        }
      ],
      "payable": false,
      "stateMutability": "view",
      "type": "function"
    },
    {
      "constant": true,
      "inputs": [],
      "name": "getNow",
      "outputs": [
        {
          "name": "",
          "type": "uint256"
        }
      ],
      "payable": false,
      "stateMutability": "view",
      "type": "function"
    },
    {
      "constant": true,
      "inputs": [
        {
          "name": "_addr",
          "type": "address"
        }
      ],
      "name": "userInfo",
      "outputs": [
        {
          "name": "upline",
          "type": "address"
        },
        {
          "name": "deposit_time",
          "type": "uint40"
        },
        {
          "name": "deposit_amount",
          "type": "uint256"
        },
        {
          "name": "payouts",
          "type": "uint256"
        },
        {
          "name": "direct_bonus",
          "type": "uint256"
        },
        {
          "name": "gen_bonus",
          "type": "uint256"
        },
        {
          "name": "user_status",
          "type": "uint256"
        }
      ],
      "payable": false,
      "stateMutability": "view",
      "type": "function"
    },
    {
      "constant": true,
      "inputs": [
        {
          "name": "_addr",
          "type": "address"
        }
      ],
      "name": "userInfo2",
      "outputs": [
        {
          "name": "wonder_bonus",
          "type": "uint256"
        },
        {
          "name": "wonder_directs",
          "type": "uint256"
        }
      ],
      "payable": false,
      "stateMutability": "view",
      "type": "function"
    },
    {
      "constant": true,
      "inputs": [
        {
          "name": "_addr",
          "type": "address"
        }
      ],
      "name": "poolBonus",
      "outputs": [
        {
          "name": "",
          "type": "uint256"
        }
      ],
      "payable": false,
      "stateMutability": "view",
      "type": "function"
    },
    {
      "constant": true,
      "inputs": [
        {
          "name": "_addr",
          "type": "address"
        }
      ],
      "name": "userInfoTotals",
      "outputs": [
        {
          "name": "referrals",
          "type": "uint256"
        },
        {
          "name": "total_deposits",
          "type": "uint256"
        },
        {
          "name": "total_payouts",
          "type": "uint256"
        },
        {
          "name": "total_structure",
          "type": "uint256"
        },
        {
          "name": "deposit_payouts",
          "type": "uint256"
        }
      ],
      "payable": false,
      "stateMutability": "view",
      "type": "function"
    },
    {
      "constant": true,
      "inputs": [],
      "name": "contractInfo",
      "outputs": [
        {
          "name": "_total_users",
          "type": "uint256"
        },
        {
          "name": "_total_deposited",
          "type": "uint256"
        },
        {
          "name": "_total_withdraw",
          "type": "uint256"
        },
        {
          "name": "_pool_last_draw",
          "type": "uint40"
        },
        {
          "name": "_pool_balance",
          "type": "uint256"
        },
        {
          "name": "_pool_lider",
          "type": "uint256"
        }
      ],
      "payable": false,
      "stateMutability": "view",
      "type": "function"
    },
    {
      "constant": true,
      "inputs": [],
      "name": "poolTopInfo",
      "outputs": [
        {
          "name": "addrs",
          "type": "address[5]"
        },
        {
          "name": "deps",
          "type": "uint256[5]"
        }
      ],
      "payable": false,
      "stateMutability": "view",
      "type": "function"
    },
    {
      "constant": true,
      "inputs": [
        {
          "name": "deposit_amount",
          "type": "uint256"
        },
        {
          "name": "time_difference",
          "type": "uint256"
        }
      ],
      "name": "TestUserDividends",
      "outputs": [
        {
          "name": "payout",
          "type": "uint256"
        },
        {
          "name": "total_rate",
          "type": "uint256"
        },
        {
          "name": "total_rate1",
          "type": "uint256"
        }
      ],
      "payable": false,
      "stateMutability": "view",
      "type": "function"
    }
  ],
  "bytecode": "0x608060405242600160006101000a81548164ffffffffff021916908364ffffffffff1602179055506001600a556000600b556000600c5564012a05f200600d55640ba43b7400600e553480156200005557600080fd5b50d380156200006357600080fd5b50d280156200007157600080fd5b5033601160006101000a81548173ffffffffffffffffffffffffffffffffffffffff021916908373ffffffffffffffffffffffffffffffffffffffff16021790555033601260006101000a81548173ffffffffffffffffffffffffffffffffffffffff021916908373ffffffffffffffffffffffffffffffffffffffff16021790555033601360006101000a81548173ffffffffffffffffffffffffffffffffffffffff021916908373ffffffffffffffffffffffffffffffffffffffff16021790555033601460006101000a81548173ffffffffffffffffffffffffffffffffffffffff021916908373ffffffffffffffffffffffffffffffffffffffff16021790555033601560006101000a81548173ffffffffffffffffffffffffffffffffffffffff021916908373ffffffffffffffffffffffffffffffffffffffff16021790555033601660006101000a81548173ffffffffffffffffffffffffffffffffffffffff021916908373ffffffffffffffffffffffffffffffffffffffff1602179055506009601e908060018154018082558091505090600182039060005260206000209060209182820401919006909192909190916101000a81548160ff021916908360ff160217905550506009600a908060018154018082558091505090600182039060005260206000209060209182820401919006909192909190916101000a81548160ff021916908360ff1602179055505060096005908060018154018082558091505090600182039060005260206000209060209182820401919006909192909190916101000a81548160ff021916908360ff1602179055505060096005908060018154018082558091505090600182039060005260206000209060209182820401919006909192909190916101000a81548160ff021916908360ff1602179055505060096005908060018154018082558091505090600182039060005260206000209060209182820401919006909192909190916101000a81548160ff021916908360ff1602179055505060096005908060018154018082558091505090600182039060005260206000209060209182820401919006909192909190916101000a81548160ff021916908360ff160217905550506009600a908060018154018082558091505090600182039060005260206000209060209182820401919006909192909190916101000a81548160ff021916908360ff160217905550506009600a908060018154018082558091505090600182039060005260206000209060209182820401919006909192909190916101000a81548160ff021916908360ff160217905550506009600a908060018154018082558091505090600182039060005260206000209060209182820401919006909192909190916101000a81548160ff021916908360ff1602179055505060006028908060018154018082558091505090600182039060005260206000209060209182820401919006909192909190916101000a81548160ff021916908360ff1602179055505060006014908060018154018082558091505090600182039060005260206000209060209182820401919006909192909190916101000a81548160ff021916908360ff160217905550506000600f908060018154018082558091505090600182039060005260206000209060209182820401919006909192909190916101000a81548160ff021916908360ff160217905550506000600f908060018154018082558091505090600182039060005260206000209060209182820401919006909192909190916101000a81548160ff021916908360ff160217905550506000600a908060018154018082558091505090600182039060005260206000209060209182820401919006909192909190916101000a81548160ff021916908360ff16021790555050600060066000601160009054906101000a900473ffffffffffffffffffffffffffffffffffffffff1673ffffffffffffffffffffffffffffffffffffffff1673ffffffffffffffffffffffffffffffffffffffff168152602001908152602001600020600201819055506298968060066000601160009054906101000a900473ffffffffffffffffffffffffffffffffffffffff1673ffffffffffffffffffffffffffffffffffffffff1673ffffffffffffffffffffffffffffffffffffffff16815260200190815260200160002060060181905550600060066000601160009054906101000a900473ffffffffffffffffffffffffffffffffffffffff1673ffffffffffffffffffffffffffffffffffffffff1673ffffffffffffffffffffffffffffffffffffffff16815260200190815260200160002060080181905550600160066000601160009054906101000a900473ffffffffffffffffffffffffffffffffffffffff1673ffffffffffffffffffffffffffffffffffffffff1673ffffffffffffffffffffffffffffffffffffffff168152602001908152602001600020600c01819055504260066000601160009054906101000a900473ffffffffffffffffffffffffffffffffffffffff1673ffffffffffffffffffffffffffffffffffffffff1673ffffffffffffffffffffffffffffffffffffffff16815260200190815260200160002060090160006101000a81548164ffffffffff021916908364ffffffffff1602179055504264ffffffffff1660066000601160009054906101000a900473ffffffffffffffffffffffffffffffffffffffff1673ffffffffffffffffffffffffffffffffffffffff1673ffffffffffffffffffffffffffffffffffffffff168152602001908152602001600020600701819055506298968060076000601160009054906101000a900473ffffffffffffffffffffffffffffffffffffffff1673ffffffffffffffffffffffffffffffffffffffff1673ffffffffffffffffffffffffffffffffffffffff16815260200190815260200160002060000160008282540192505081905550616f18806200091a6000396000f3fe6080604052600436106103bf576000357c0100000000000000000000000000000000000000000000000000000000900480636e9960c311610204578063b741c62a1161012a578063cc56ddee116100bd578063e7cc62bd1161008c578063e7cc62bd14611aff578063f0336a4e14611b44578063f0fd116014611b89578063f340fa0114611bf4576103bf565b8063cc56ddee146119c5578063de560cca14611a0a578063e1e158a514611a4f578063e21ef62614611a94576103bf565b8063c3bfeb53116100f9578063c3bfeb531461181d578063c5815df6146118a3578063c864130f146118e8578063ca42feab14611980576103bf565b8063b741c62a1461168d578063b7d9f0d2146116fe578063bbe4fd501461176d578063bfef8811146117b2576103bf565b80638f7b3d5a116101a2578063a198341611610171578063a19834161461140e578063a3936ab514611461578063a87430ba146114e4578063a9c3ac53146115f1576103bf565b80638f7b3d5a1461129557806391db14b6146112da578063970d106f146113845780639a8318f4146113c9576103bf565b806374b95b2d116101de57806374b95b2d146110af578063832880e71461114a5780638959af3c146111bb5780638da5cb5b14611224576103bf565b80636e9960c314610f705780636f9fb98a14610fe157806374a88b8b14611026576103bf565b806339e1125c116102e957806358b5f30c1161028757806367e0e0041161025657806367e0e00414610db55780636aabddee14610e365780636d5f6f1114610e7b5780636da61d1e14610eea576103bf565b806358b5f30c14610ca157806360ca666514610ce657806362f3765e14610d2b578063679aefce14610d70576103bf565b806347734892116102c35780634773489214610b2757806349af9e7c14610ba65780634e9c6b1f14610c175780635175408414610c5c576103bf565b806339e1125c14610a1a5780633ccfd60b14610a8b5780634496ff8f14610abc576103bf565b8063192ef49211610361578063206f629611610330578063206f6296146108a0578063259c30e0146108e5578063277a3d4e1461092a5780632b0c685a146109a9576103bf565b8063192ef492146106965780631959a002146106db57806319e25623146107be5780631de46a781461082f576103bf565b80630f7647611161039d5780630f764761146104f95780630fb599da1461053e578063115976c4146105af57806315c43aaf14610620576103bf565b806301c234a8146103c4578063040a772e1461040957806306a8f8a214610488575b600080fd5b3480156103d057600080fd5b50d380156103dd57600080fd5b50d280156103ea57600080fd5b506103f3611c38565b6040518082815260200191505060405180910390f35b34801561041557600080fd5b50d3801561042257600080fd5b50d2801561042f57600080fd5b506104726004803603602081101561044657600080fd5b81019080803573ffffffffffffffffffffffffffffffffffffffff169060200190929190505050611c3e565b6040518082815260200191505060405180910390f35b34801561049457600080fd5b50d380156104a157600080fd5b50d280156104ae57600080fd5b506104b7611f36565b604051808273ffffffffffffffffffffffffffffffffffffffff1673ffffffffffffffffffffffffffffffffffffffff16815260200191505060405180910390f35b34801561050557600080fd5b50d3801561051257600080fd5b50d2801561051f57600080fd5b50610528611f5c565b6040518082815260200191505060405180910390f35b34801561054a57600080fd5b50d3801561055757600080fd5b50d2801561056457600080fd5b5061056d611f62565b604051808273ffffffffffffffffffffffffffffffffffffffff1673ffffffffffffffffffffffffffffffffffffffff16815260200191505060405180910390f35b3480156105bb57600080fd5b50d380156105c857600080fd5b50d280156105d557600080fd5b506105de611f8c565b604051808273ffffffffffffffffffffffffffffffffffffffff1673ffffffffffffffffffffffffffffffffffffffff16815260200191505060405180910390f35b34801561062c57600080fd5b50d3801561063957600080fd5b50d2801561064657600080fd5b5061064f611fb2565b604051808781526020018681526020018581526020018464ffffffffff1664ffffffffff168152602001838152602001828152602001965050505050505060405180910390f35b3480156106a257600080fd5b50d380156106af57600080fd5b50d280156106bc57600080fd5b506106c5612078565b6040518082815260200191505060405180910390f35b3480156106e757600080fd5b50d380156106f457600080fd5b50d2801561070157600080fd5b506107446004803603602081101561071857600080fd5b81019080803573ffffffffffffffffffffffffffffffffffffffff16906020019092919050505061207e565b604051808873ffffffffffffffffffffffffffffffffffffffff1673ffffffffffffffffffffffffffffffffffffffff1681526020018764ffffffffff1664ffffffffff16815260200186815260200185815260200184815260200183815260200182815260200197505050505050505060405180910390f35b3480156107ca57600080fd5b50d380156107d757600080fd5b50d280156107e457600080fd5b506107ed6122a8565b604051808273ffffffffffffffffffffffffffffffffffffffff1673ffffffffffffffffffffffffffffffffffffffff16815260200191505060405180910390f35b34801561083b57600080fd5b50d3801561084857600080fd5b50d2801561085557600080fd5b5061085e6122d2565b604051808273ffffffffffffffffffffffffffffffffffffffff1673ffffffffffffffffffffffffffffffffffffffff16815260200191505060405180910390f35b3480156108ac57600080fd5b50d380156108b957600080fd5b50d280156108c657600080fd5b506108cf6122f8565b6040518082815260200191505060405180910390f35b3480156108f157600080fd5b50d380156108fe57600080fd5b50d2801561090b57600080fd5b506109146122fd565b6040518082815260200191505060405180910390f35b34801561093657600080fd5b50d3801561094357600080fd5b50d2801561095057600080fd5b506109936004803603602081101561096757600080fd5b81019080803573ffffffffffffffffffffffffffffffffffffffff169060200190929190505050612307565b6040518082815260200191505060405180910390f35b3480156109b557600080fd5b50d380156109c257600080fd5b50d280156109cf57600080fd5b506109d8612353565b604051808273ffffffffffffffffffffffffffffffffffffffff1673ffffffffffffffffffffffffffffffffffffffff16815260200191505060405180910390f35b348015610a2657600080fd5b50d38015610a3357600080fd5b50d28015610a4057600080fd5b50610a49612379565b604051808273ffffffffffffffffffffffffffffffffffffffff1673ffffffffffffffffffffffffffffffffffffffff16815260200191505060405180910390f35b348015610a9757600080fd5b50d38015610aa457600080fd5b50d28015610ab157600080fd5b50610aba6123a3565b005b348015610ac857600080fd5b50d38015610ad557600080fd5b50d28015610ae257600080fd5b50610b2560048036036020811015610af957600080fd5b81019080803573ffffffffffffffffffffffffffffffffffffffff16906020019092919050505061318f565b005b348015610b3357600080fd5b50d38015610b4057600080fd5b50d28015610b4d57600080fd5b50610b9060048036036020811015610b6457600080fd5b81019080803573ffffffffffffffffffffffffffffffffffffffff169060200190929190505050613348565b6040518082815260200191505060405180910390f35b348015610bb257600080fd5b50d38015610bbf57600080fd5b50d28015610bcc57600080fd5b50610bd5613b15565b604051808273ffffffffffffffffffffffffffffffffffffffff1673ffffffffffffffffffffffffffffffffffffffff16815260200191505060405180910390f35b348015610c2357600080fd5b50d38015610c3057600080fd5b50d28015610c3d57600080fd5b50610c46613b3f565b6040518082815260200191505060405180910390f35b348015610c6857600080fd5b50d38015610c7557600080fd5b50d28015610c8257600080fd5b50610c8b613b46565b6040518082815260200191505060405180910390f35b348015610cad57600080fd5b50d38015610cba57600080fd5b50d28015610cc757600080fd5b50610cd0613b4b565b6040518082815260200191505060405180910390f35b348015610cf257600080fd5b50d38015610cff57600080fd5b50d28015610d0c57600080fd5b50610d15613b51565b6040518082815260200191505060405180910390f35b348015610d3757600080fd5b50d38015610d4457600080fd5b50d28015610d5157600080fd5b50610d5a613b57565b6040518082815260200191505060405180910390f35b348015610d7c57600080fd5b50d38015610d8957600080fd5b50d28015610d9657600080fd5b50610d9f613b5c565b6040518082815260200191505060405180910390f35b348015610dc157600080fd5b50d38015610dce57600080fd5b50d28015610ddb57600080fd5b50610e1260048036036040811015610df257600080fd5b810190808035906020019092919080359060200190929190505050613ba6565b60405180848152602001838152602001828152602001935050505060405180910390f35b348015610e4257600080fd5b50d38015610e4f57600080fd5b50d28015610e5c57600080fd5b50610e65613bf0565b6040518082815260200191505060405180910390f35b348015610e8757600080fd5b50d38015610e9457600080fd5b50d28015610ea157600080fd5b50610ece60048036036020811015610eb857600080fd5b8101908080359060200190929190505050613bf8565b604051808260ff1660ff16815260200191505060405180910390f35b348015610ef657600080fd5b50d38015610f0357600080fd5b50d28015610f1057600080fd5b50610f5360048036036020811015610f2757600080fd5b81019080803573ffffffffffffffffffffffffffffffffffffffff169060200190929190505050613c2b565b604051808381526020018281526020019250505060405180910390f35b348015610f7c57600080fd5b50d38015610f8957600080fd5b50d28015610f9657600080fd5b50610f9f613f1c565b604051808273ffffffffffffffffffffffffffffffffffffffff1673ffffffffffffffffffffffffffffffffffffffff16815260200191505060405180910390f35b348015610fed57600080fd5b50d38015610ffa57600080fd5b50d2801561100757600080fd5b50611010613f46565b6040518082815260200191505060405180910390f35b34801561103257600080fd5b50d3801561103f57600080fd5b50d2801561104c57600080fd5b506110996004803603604081101561106357600080fd5b8101908080359060200190929190803573ffffffffffffffffffffffffffffffffffffffff169060200190929190505050613f65565b6040518082815260200191505060405180910390f35b3480156110bb57600080fd5b50d380156110c857600080fd5b50d280156110d557600080fd5b50611118600480360360208110156110ec57600080fd5b81019080803573ffffffffffffffffffffffffffffffffffffffff169060200190929190505050613f8a565b604051808681526020018581526020018481526020018381526020018281526020019550505050505060405180910390f35b34801561115657600080fd5b50d3801561116357600080fd5b50d2801561117057600080fd5b506111796140f4565b604051808273ffffffffffffffffffffffffffffffffffffffff1673ffffffffffffffffffffffffffffffffffffffff16815260200191505060405180910390f35b3480156111c757600080fd5b50d380156111d457600080fd5b50d280156111e157600080fd5b5061120e600480360360208110156111f857600080fd5b810190808035906020019092919050505061411e565b6040518082815260200191505060405180910390f35b34801561123057600080fd5b50d3801561123d57600080fd5b50d2801561124a57600080fd5b50611253614137565b604051808273ffffffffffffffffffffffffffffffffffffffff1673ffffffffffffffffffffffffffffffffffffffff16815260200191505060405180910390f35b3480156112a157600080fd5b50d380156112ae57600080fd5b50d280156112bb57600080fd5b506112c461415d565b6040518082815260200191505060405180910390f35b3480156112e657600080fd5b50d380156112f357600080fd5b50d2801561130057600080fd5b506113436004803603602081101561131757600080fd5b81019080803573ffffffffffffffffffffffffffffffffffffffff169060200190929190505050614162565b604051808781526020018681526020018581526020018481526020018315151515815260200182151515158152602001965050505050505060405180910390f35b34801561139057600080fd5b50d3801561139d57600080fd5b50d280156113aa57600080fd5b506113b36141b8565b6040518082815260200191505060405180910390f35b3480156113d557600080fd5b50d380156113e257600080fd5b50d280156113ef57600080fd5b506113f86141be565b6040518082815260200191505060405180910390f35b34801561141a57600080fd5b50d3801561142757600080fd5b50d2801561143457600080fd5b5061143d6141c4565b604051808264ffffffffff1664ffffffffff16815260200191505060405180910390f35b34801561146d57600080fd5b50d3801561147a57600080fd5b50d2801561148757600080fd5b506114ca6004803603602081101561149e57600080fd5b81019080803573ffffffffffffffffffffffffffffffffffffffff1690602001909291905050506141db565b604051808215151515815260200191505060405180910390f35b3480156114f057600080fd5b50d380156114fd57600080fd5b50d2801561150a57600080fd5b5061154d6004803603602081101561152157600080fd5b81019080803573ffffffffffffffffffffffffffffffffffffffff1690602001909291905050506141fb565b604051808e73ffffffffffffffffffffffffffffffffffffffff1673ffffffffffffffffffffffffffffffffffffffff1681526020018d81526020018c81526020018b81526020018a81526020018981526020018881526020018781526020018681526020018564ffffffffff1664ffffffffff1681526020018481526020018381526020018281526020019d505050505050505050505050505060405180910390f35b3480156115fd57600080fd5b50d3801561160a57600080fd5b50d2801561161757600080fd5b50611620614292565b6040518083600560200280838360005b8381101561164b578082015181840152602081019050611630565b5050505090500182600560200280838360005b8381101561167957808201518184015260208101905061165e565b505050509050019250505060405180910390f35b34801561169957600080fd5b50d380156116a657600080fd5b50d280156116b357600080fd5b506116bc614465565b604051808273ffffffffffffffffffffffffffffffffffffffff1673ffffffffffffffffffffffffffffffffffffffff16815260200191505060405180910390f35b34801561170a57600080fd5b50d3801561171757600080fd5b50d2801561172457600080fd5b506117516004803603602081101561173b57600080fd5b810190808035906020019092919050505061448b565b604051808260ff1660ff16815260200191505060405180910390f35b34801561177957600080fd5b50d3801561178657600080fd5b50d2801561179357600080fd5b5061179c6144be565b6040518082815260200191505060405180910390f35b3480156117be57600080fd5b50d380156117cb57600080fd5b50d280156117d857600080fd5b5061181b600480360360208110156117ef57600080fd5b81019080803573ffffffffffffffffffffffffffffffffffffffff1690602001909291905050506144c6565b005b34801561182957600080fd5b50d3801561183657600080fd5b50d2801561184357600080fd5b506118866004803603602081101561185a57600080fd5b81019080803573ffffffffffffffffffffffffffffffffffffffff16906020019092919050505061467f565b604051808381526020018281526020019250505060405180910390f35b3480156118af57600080fd5b50d380156118bc57600080fd5b50d280156118c957600080fd5b506118d2614711565b6040518082815260200191505060405180910390f35b3480156118f457600080fd5b50d3801561190157600080fd5b50d2801561190e57600080fd5b5061193e6004803603602081101561192557600080fd5b81019080803560ff169060200190929190505050614717565b604051808273ffffffffffffffffffffffffffffffffffffffff1673ffffffffffffffffffffffffffffffffffffffff16815260200191505060405180910390f35b34801561198c57600080fd5b50d3801561199957600080fd5b50d280156119a657600080fd5b506119af61474a565b6040518082815260200191505060405180910390f35b3480156119d157600080fd5b50d380156119de57600080fd5b50d280156119eb57600080fd5b506119f4614781565b6040518082815260200191505060405180910390f35b348015611a1657600080fd5b50d38015611a2357600080fd5b50d28015611a3057600080fd5b50611a3961478a565b6040518082815260200191505060405180910390f35b348015611a5b57600080fd5b50d38015611a6857600080fd5b50d28015611a7557600080fd5b50611a7e614790565b6040518082815260200191505060405180910390f35b348015611aa057600080fd5b50d38015611aad57600080fd5b50d28015611aba57600080fd5b50611afd60048036036020811015611ad157600080fd5b81019080803573ffffffffffffffffffffffffffffffffffffffff169060200190929190505050614797565b005b348015611b0b57600080fd5b50d38015611b1857600080fd5b50d28015611b2557600080fd5b50611b2e614950565b6040518082815260200191505060405180910390f35b348015611b5057600080fd5b50d38015611b5d57600080fd5b50d28015611b6a57600080fd5b50611b73614956565b6040518082815260200191505060405180910390f35b348015611b9557600080fd5b50d38015611ba257600080fd5b50d28015611baf57600080fd5b50611bf260048036036020811015611bc657600080fd5b81019080803573ffffffffffffffffffffffffffffffffffffffff16906020019092919050505061495d565b005b611c3660048036036020811015611c0a57600080fd5b81019080803573ffffffffffffffffffffffffffffffffffffffff169060200190929190505050614b16565b005b61271081565b6000803073ffffffffffffffffffffffffffffffffffffffff16638959af3c600660008673ffffffffffffffffffffffffffffffffffffffff1673ffffffffffffffffffffffffffffffffffffffff168152602001908152602001600020600601546040518263ffffffff167c01000000000000000000000000000000000000000000000000000000000281526004018082815260200191505060206040518083038186803b158015611cf057600080fd5b505afa158015611d04573d6000803e3d6000fd5b505050506040513d6020811015611d1a57600080fd5b810190808051906020019092919050505090506000611d37614b2d565b90506000610360620f42408302811515611d4d57fe5b049050600083600660008873ffffffffffffffffffffffffffffffffffffffff1673ffffffffffffffffffffffffffffffffffffffff168152602001908152602001600020600801541015611f2a57600660008773ffffffffffffffffffffffffffffffffffffffff1673ffffffffffffffffffffffffffffffffffffffff16815260200190815260200160002060080154600660008873ffffffffffffffffffffffffffffffffffffffff1673ffffffffffffffffffffffffffffffffffffffff16815260200190815260200160002060090160009054906101000a900464ffffffffff1664ffffffffff164203620f4240800284600660008b73ffffffffffffffffffffffffffffffffffffffff1673ffffffffffffffffffffffffffffffffffffffff1681526020019081526020016000206006015402811515611e9057fe5b04020390508381600660008973ffffffffffffffffffffffffffffffffffffffff1673ffffffffffffffffffffffffffffffffffffffff16815260200190815260200160002060080154011115611f2957600660008773ffffffffffffffffffffffffffffffffffffffff1673ffffffffffffffffffffffffffffffffffffffff16815260200190815260200160002060080154840390505b5b80945050505050919050565b601360009054906101000a900473ffffffffffffffffffffffffffffffffffffffff1681565b600d5481565b6000601260009054906101000a900473ffffffffffffffffffffffffffffffffffffffff16905090565b601260009054906101000a900473ffffffffffffffffffffffffffffffffffffffff1681565b600080600080600080600a54600f54601054600160009054906101000a900464ffffffffff166003546004600060025481526020019081526020016000206000600560008060ff16815260200190815260200160002060009054906101000a900473ffffffffffffffffffffffffffffffffffffffff1673ffffffffffffffffffffffffffffffffffffffff1673ffffffffffffffffffffffffffffffffffffffff16815260200190815260200160002054955095509550955095509550909192939495565b60035481565b6000806000806000806000600660008973ffffffffffffffffffffffffffffffffffffffff1673ffffffffffffffffffffffffffffffffffffffff16815260200190815260200160002060000160009054906101000a900473ffffffffffffffffffffffffffffffffffffffff16600660008a73ffffffffffffffffffffffffffffffffffffffff1673ffffffffffffffffffffffffffffffffffffffff16815260200190815260200160002060090160009054906101000a900464ffffffffff16600660008b73ffffffffffffffffffffffffffffffffffffffff1673ffffffffffffffffffffffffffffffffffffffff16815260200190815260200160002060060154600660008c73ffffffffffffffffffffffffffffffffffffffff1673ffffffffffffffffffffffffffffffffffffffff16815260200190815260200160002060020154600660008d73ffffffffffffffffffffffffffffffffffffffff1673ffffffffffffffffffffffffffffffffffffffff16815260200190815260200160002060030154600660008e73ffffffffffffffffffffffffffffffffffffffff1673ffffffffffffffffffffffffffffffffffffffff16815260200190815260200160002060040154600660008f73ffffffffffffffffffffffffffffffffffffffff1673ffffffffffffffffffffffffffffffffffffffff168152602001908152602001600020600c01549650965096509650965096509650919395979092949650565b6000601360009054906101000a900473ffffffffffffffffffffffffffffffffffffffff16905090565b601460009054906101000a900473ffffffffffffffffffffffffffffffffffffffff1681565b603281565b6007620151800281565b6000600660008373ffffffffffffffffffffffffffffffffffffffff1673ffffffffffffffffffffffffffffffffffffffff168152602001908152602001600020600501549050919050565b601560009054906101000a900473ffffffffffffffffffffffffffffffffffffffff1681565b6000601560009054906101000a900473ffffffffffffffffffffffffffffffffffffffff16905090565b6000803073ffffffffffffffffffffffffffffffffffffffff16636da61d1e336040518263ffffffff167c0100000000000000000000000000000000000000000000000000000000028152600401808273ffffffffffffffffffffffffffffffffffffffff1673ffffffffffffffffffffffffffffffffffffffff168152602001915050604080518083038186803b15801561243e57600080fd5b505afa158015612452573d6000803e3d6000fd5b505050506040513d604081101561246857600080fd5b8101908080519060200190929190805190602001909291905050509150915080600660003373ffffffffffffffffffffffffffffffffffffffff1673ffffffffffffffffffffffffffffffffffffffff16815260200190815260200160002060020154101515612540576040517f08c379a000000000000000000000000000000000000000000000000000000000815260040180806020018281038252600c8152602001807f46756c6c207061796f757473000000000000000000000000000000000000000081525060200191505060405180910390fd5b6000821115612688578082600660003373ffffffffffffffffffffffffffffffffffffffff1673ffffffffffffffffffffffffffffffffffffffff168152602001908152602001600020600201540111156125dd57600660003373ffffffffffffffffffffffffffffffffffffffff1673ffffffffffffffffffffffffffffffffffffffff16815260200190815260200160002060020154810391505b81600660003373ffffffffffffffffffffffffffffffffffffffff1673ffffffffffffffffffffffffffffffffffffffff1681526020019081526020016000206008016000828254019250508190555081600660003373ffffffffffffffffffffffffffffffffffffffff1673ffffffffffffffffffffffffffffffffffffffff168152602001908152602001600020600201600082825401925050819055506126873383614b77565b5b80600660003373ffffffffffffffffffffffffffffffffffffffff1673ffffffffffffffffffffffffffffffffffffffff1681526020019081526020016000206002015410801561271b57506000600660003373ffffffffffffffffffffffffffffffffffffffff1673ffffffffffffffffffffffffffffffffffffffff16815260200190815260200160002060030154115b156128a2576000600660003373ffffffffffffffffffffffffffffffffffffffff1673ffffffffffffffffffffffffffffffffffffffff1681526020019081526020016000206003015490508181600660003373ffffffffffffffffffffffffffffffffffffffff1673ffffffffffffffffffffffffffffffffffffffff168152602001908152602001600020600201540111156127fb57600660003373ffffffffffffffffffffffffffffffffffffffff1673ffffffffffffffffffffffffffffffffffffffff16815260200190815260200160002060020154820390505b80600660003373ffffffffffffffffffffffffffffffffffffffff1673ffffffffffffffffffffffffffffffffffffffff1681526020019081526020016000206003016000828254039250508190555080600660003373ffffffffffffffffffffffffffffffffffffffff1673ffffffffffffffffffffffffffffffffffffffff168152602001908152602001600020600201600082825401925050819055508083019250505b80600660003373ffffffffffffffffffffffffffffffffffffffff1673ffffffffffffffffffffffffffffffffffffffff1681526020019081526020016000206002015410801561293557506000600660003373ffffffffffffffffffffffffffffffffffffffff1673ffffffffffffffffffffffffffffffffffffffff16815260200190815260200160002060050154115b15612abc576000600660003373ffffffffffffffffffffffffffffffffffffffff1673ffffffffffffffffffffffffffffffffffffffff1681526020019081526020016000206005015490508181600660003373ffffffffffffffffffffffffffffffffffffffff1673ffffffffffffffffffffffffffffffffffffffff16815260200190815260200160002060020154011115612a1557600660003373ffffffffffffffffffffffffffffffffffffffff1673ffffffffffffffffffffffffffffffffffffffff16815260200190815260200160002060020154820390505b80600660003373ffffffffffffffffffffffffffffffffffffffff1673ffffffffffffffffffffffffffffffffffffffff1681526020019081526020016000206005016000828254039250508190555080600660003373ffffffffffffffffffffffffffffffffffffffff1673ffffffffffffffffffffffffffffffffffffffff168152602001908152602001600020600201600082825401925050819055508083019250505b80600660003373ffffffffffffffffffffffffffffffffffffffff1673ffffffffffffffffffffffffffffffffffffffff16815260200190815260200160002060020154108015612b4f57506000600660003373ffffffffffffffffffffffffffffffffffffffff1673ffffffffffffffffffffffffffffffffffffffff16815260200190815260200160002060040154115b15612cd6576000600660003373ffffffffffffffffffffffffffffffffffffffff1673ffffffffffffffffffffffffffffffffffffffff1681526020019081526020016000206004015490508181600660003373ffffffffffffffffffffffffffffffffffffffff1673ffffffffffffffffffffffffffffffffffffffff16815260200190815260200160002060020154011115612c2f57600660003373ffffffffffffffffffffffffffffffffffffffff1673ffffffffffffffffffffffffffffffffffffffff16815260200190815260200160002060020154820390505b80600660003373ffffffffffffffffffffffffffffffffffffffff1673ffffffffffffffffffffffffffffffffffffffff1681526020019081526020016000206004016000828254039250508190555080600660003373ffffffffffffffffffffffffffffffffffffffff1673ffffffffffffffffffffffffffffffffffffffff168152602001908152602001600020600201600082825401925050819055508083019250505b80600660003373ffffffffffffffffffffffffffffffffffffffff1673ffffffffffffffffffffffffffffffffffffffff16815260200190815260200160002060020154108015612d6957506000600660003373ffffffffffffffffffffffffffffffffffffffff1673ffffffffffffffffffffffffffffffffffffffff168152602001908152602001600020600b0154115b15612ef0576000600660003373ffffffffffffffffffffffffffffffffffffffff1673ffffffffffffffffffffffffffffffffffffffff168152602001908152602001600020600b015490508181600660003373ffffffffffffffffffffffffffffffffffffffff1673ffffffffffffffffffffffffffffffffffffffff16815260200190815260200160002060020154011115612e4957600660003373ffffffffffffffffffffffffffffffffffffffff1673ffffffffffffffffffffffffffffffffffffffff16815260200190815260200160002060020154820390505b80600660003373ffffffffffffffffffffffffffffffffffffffff1673ffffffffffffffffffffffffffffffffffffffff168152602001908152602001600020600b016000828254039250508190555080600660003373ffffffffffffffffffffffffffffffffffffffff1673ffffffffffffffffffffffffffffffffffffffff168152602001908152602001600020600201600082825401925050819055508083019250505b600082111515612f68576040517f08c379a000000000000000000000000000000000000000000000000000000000815260040180806020018281038252600b8152602001807f5a65726f207061796f757400000000000000000000000000000000000000000081525060200191505060405180910390fd5b81600760003373ffffffffffffffffffffffffffffffffffffffff1673ffffffffffffffffffffffffffffffffffffffff16815260200190815260200160002060010160008282540192505081905550816010600082825401925050819055506000821115613019573373ffffffffffffffffffffffffffffffffffffffff166108fc839081150290604051600060405180830381858888f19350505050158015613017573d6000803e3d6000fd5b505b3373ffffffffffffffffffffffffffffffffffffffff167f884edad9ce6fa2440d8a54cc123490eb96d2768479d49ff9c7366125a9424364836040518082815260200191505060405180910390a280600660003373ffffffffffffffffffffffffffffffffffffffff1673ffffffffffffffffffffffffffffffffffffffff1681526020019081526020016000206002015410151561318b573373ffffffffffffffffffffffffffffffffffffffff167f97ddeb77c85e6a1dd99a34fe2bb1a4f9b211d5ffced7a707de9dbeb24363d0e4600660003373ffffffffffffffffffffffffffffffffffffffff1673ffffffffffffffffffffffffffffffffffffffff168152602001908152602001600020600201546040518082815260200191505060405180910390a26000600660003373ffffffffffffffffffffffffffffffffffffffff1673ffffffffffffffffffffffffffffffffffffffff168152602001908152602001600020600c01819055505b5050565b601160009054906101000a900473ffffffffffffffffffffffffffffffffffffffff1673ffffffffffffffffffffffffffffffffffffffff163373ffffffffffffffffffffffffffffffffffffffff1614806132385750601660009054906101000a900473ffffffffffffffffffffffffffffffffffffffff1673ffffffffffffffffffffffffffffffffffffffff163373ffffffffffffffffffffffffffffffffffffffff16145b806132905750601460009054906101000a900473ffffffffffffffffffffffffffffffffffffffff1673ffffffffffffffffffffffffffffffffffffffff163373ffffffffffffffffffffffffffffffffffffffff16145b1515613304576040517f08c379a000000000000000000000000000000000000000000000000000000000815260040180806020018281038252600b8152602001807f4e6f7420616c6c6f77656400000000000000000000000000000000000000000081525060200191505060405180910390fd5b80601460006101000a81548173ffffffffffffffffffffffffffffffffffffffff021916908373ffffffffffffffffffffffffffffffffffffffff16021790555050565b60008060003073ffffffffffffffffffffffffffffffffffffffff16636da61d1e856040518263ffffffff167c0100000000000000000000000000000000000000000000000000000000028152600401808273ffffffffffffffffffffffffffffffffffffffff1673ffffffffffffffffffffffffffffffffffffffff168152602001915050604080518083038186803b1580156133e557600080fd5b505afa1580156133f9573d6000803e3d6000fd5b505050506040513d604081101561340f57600080fd5b8101908080519060200190929190805190602001909291905050509150915060008211156134cc578082600660008773ffffffffffffffffffffffffffffffffffffffff1673ffffffffffffffffffffffffffffffffffffffff168152602001908152602001600020600201540111156134cb57600660008573ffffffffffffffffffffffffffffffffffffffff1673ffffffffffffffffffffffffffffffffffffffff16815260200190815260200160002060020154810391505b5b80600660008673ffffffffffffffffffffffffffffffffffffffff1673ffffffffffffffffffffffffffffffffffffffff1681526020019081526020016000206002015410801561355f57506000600660008673ffffffffffffffffffffffffffffffffffffffff1673ffffffffffffffffffffffffffffffffffffffff16815260200190815260200160002060030154115b15613646576000600660008673ffffffffffffffffffffffffffffffffffffffff1673ffffffffffffffffffffffffffffffffffffffff1681526020019081526020016000206003015490508181600660008873ffffffffffffffffffffffffffffffffffffffff1673ffffffffffffffffffffffffffffffffffffffff1681526020019081526020016000206002015401111561363f57600660008673ffffffffffffffffffffffffffffffffffffffff1673ffffffffffffffffffffffffffffffffffffffff16815260200190815260200160002060020154820390505b8083019250505b80600660008673ffffffffffffffffffffffffffffffffffffffff1673ffffffffffffffffffffffffffffffffffffffff168152602001908152602001600020600201541080156136d957506000600660008673ffffffffffffffffffffffffffffffffffffffff1673ffffffffffffffffffffffffffffffffffffffff16815260200190815260200160002060040154115b156137c0576000600660008673ffffffffffffffffffffffffffffffffffffffff1673ffffffffffffffffffffffffffffffffffffffff1681526020019081526020016000206004015490508181600660008873ffffffffffffffffffffffffffffffffffffffff1673ffffffffffffffffffffffffffffffffffffffff168152602001908152602001600020600201540111156137b957600660008673ffffffffffffffffffffffffffffffffffffffff1673ffffffffffffffffffffffffffffffffffffffff16815260200190815260200160002060020154820390505b8083019250505b80600660003373ffffffffffffffffffffffffffffffffffffffff1673ffffffffffffffffffffffffffffffffffffffff1681526020019081526020016000206002015410801561385357506000600660003373ffffffffffffffffffffffffffffffffffffffff1673ffffffffffffffffffffffffffffffffffffffff16815260200190815260200160002060050154115b1561393a576000600660003373ffffffffffffffffffffffffffffffffffffffff1673ffffffffffffffffffffffffffffffffffffffff1681526020019081526020016000206005015490508181600660003373ffffffffffffffffffffffffffffffffffffffff1673ffffffffffffffffffffffffffffffffffffffff1681526020019081526020016000206002015401111561393357600660003373ffffffffffffffffffffffffffffffffffffffff1673ffffffffffffffffffffffffffffffffffffffff16815260200190815260200160002060020154820390505b8083019250505b80600660003373ffffffffffffffffffffffffffffffffffffffff1673ffffffffffffffffffffffffffffffffffffffff168152602001908152602001600020600201541080156139cd57506000600660003373ffffffffffffffffffffffffffffffffffffffff1673ffffffffffffffffffffffffffffffffffffffff168152602001908152602001600020600b0154115b15613ab4576000600660003373ffffffffffffffffffffffffffffffffffffffff1673ffffffffffffffffffffffffffffffffffffffff168152602001908152602001600020600b015490508181600660003373ffffffffffffffffffffffffffffffffffffffff1673ffffffffffffffffffffffffffffffffffffffff16815260200190815260200160002060020154011115613aad57600660003373ffffffffffffffffffffffffffffffffffffffff1673ffffffffffffffffffffffffffffffffffffffff16815260200190815260200160002060020154820390505b8083019250505b80600660008673ffffffffffffffffffffffffffffffffffffffff1673ffffffffffffffffffffffffffffffffffffffff16815260200190815260200160002060020154101515613b0a57600092505050613b10565b81925050505b919050565b6000601460009054906101000a900473ffffffffffffffffffffffffffffffffffffffff16905090565b620f424081565b600a81565b600e5481565b600c5481565b60e681565b6000806305f5e100600f54600a02811515613b7357fe5b049050610172811115613b865761017290505b60008160e6019050610258811115613b9e5761025890505b809250505090565b6000806000613bb3614b2d565b9050610360620f42408202811515613bc757fe5b04600101915083620f4240800283620f4240880202811515613be557fe5b040292509250925092565b6305f5e10081565b600081815481101515613c0757fe5b9060005260206000209060209182820401919006915054906101000a900460ff1681565b6000803073ffffffffffffffffffffffffffffffffffffffff16638959af3c600660008673ffffffffffffffffffffffffffffffffffffffff1673ffffffffffffffffffffffffffffffffffffffff168152602001908152602001600020600601546040518263ffffffff167c01000000000000000000000000000000000000000000000000000000000281526004018082815260200191505060206040518083038186803b158015613cdd57600080fd5b505afa158015613cf1573d6000803e3d6000fd5b505050506040513d6020811015613d0757600080fd5b810190808051906020019092919050505090506000613d24614b2d565b90506000610360620f42408302811515613d3a57fe5b04905082600660008773ffffffffffffffffffffffffffffffffffffffff1673ffffffffffffffffffffffffffffffffffffffff168152602001908152602001600020600801541015613f1557600660008673ffffffffffffffffffffffffffffffffffffffff1673ffffffffffffffffffffffffffffffffffffffff16815260200190815260200160002060080154600660008773ffffffffffffffffffffffffffffffffffffffff1673ffffffffffffffffffffffffffffffffffffffff16815260200190815260200160002060090160009054906101000a900464ffffffffff1664ffffffffff164203620f4240800283600660008a73ffffffffffffffffffffffffffffffffffffffff1673ffffffffffffffffffffffffffffffffffffffff1681526020019081526020016000206006015402811515613e7b57fe5b04020393508284600660008873ffffffffffffffffffffffffffffffffffffffff1673ffffffffffffffffffffffffffffffffffffffff16815260200190815260200160002060080154011115613f1457600660008673ffffffffffffffffffffffffffffffffffffffff1673ffffffffffffffffffffffffffffffffffffffff16815260200190815260200160002060080154830393505b5b5050915091565b6000601160009054906101000a900473ffffffffffffffffffffffffffffffffffffffff16905090565b60003073ffffffffffffffffffffffffffffffffffffffff1631905090565b6004602052816000526040600020602052806000526040600020600091509150505481565b6000806000806000600660008773ffffffffffffffffffffffffffffffffffffffff1673ffffffffffffffffffffffffffffffffffffffff16815260200190815260200160002060010154600760008873ffffffffffffffffffffffffffffffffffffffff1673ffffffffffffffffffffffffffffffffffffffff16815260200190815260200160002060000154600760008973ffffffffffffffffffffffffffffffffffffffff1673ffffffffffffffffffffffffffffffffffffffff16815260200190815260200160002060010154600760008a73ffffffffffffffffffffffffffffffffffffffff1673ffffffffffffffffffffffffffffffffffffffff16815260200190815260200160002060020154600660008b73ffffffffffffffffffffffffffffffffffffffff1673ffffffffffffffffffffffffffffffffffffffff168152602001908152602001600020600801549450945094509450945091939590929450565b6000601660009054906101000a900473ffffffffffffffffffffffffffffffffffffffff16905090565b6000606460fa830281151561412f57fe5b049050919050565b601160009054906101000a900473ffffffffffffffffffffffffffffffffffffffff1681565b601e81565b60076020528060005260406000206000915090508060000154908060010154908060020154908060030154908060040160009054906101000a900460ff16908060040160019054906101000a900460ff16905086565b60025481565b60105481565b600160009054906101000a900464ffffffffff1681565b60086020528060005260406000206000915054906101000a900460ff1681565b60066020528060005260406000206000915090508060000160009054906101000a900473ffffffffffffffffffffffffffffffffffffffff16908060010154908060020154908060030154908060040154908060050154908060060154908060070154908060080154908060090160009054906101000a900464ffffffffff169080600a01549080600b01549080600c015490508d565b61429a616ea6565b6142a2616ec9565b60008090505b6000805490508160ff16101561446057600073ffffffffffffffffffffffffffffffffffffffff16600560008360ff1660ff16815260200190815260200160002060009054906101000a900473ffffffffffffffffffffffffffffffffffffffff1673ffffffffffffffffffffffffffffffffffffffff16141561432b57614460565b600560008260ff1660ff16815260200190815260200160002060009054906101000a900473ffffffffffffffffffffffffffffffffffffffff16838260ff1660058110151561437657fe5b602002019073ffffffffffffffffffffffffffffffffffffffff16908173ffffffffffffffffffffffffffffffffffffffff16815250506004600060025481526020019081526020016000206000600560008460ff1660ff16815260200190815260200160002060009054906101000a900473ffffffffffffffffffffffffffffffffffffffff1673ffffffffffffffffffffffffffffffffffffffff1673ffffffffffffffffffffffffffffffffffffffff16815260200190815260200160002054828260ff1660058110151561444a57fe5b60200201818152505080806001019150506142a8565b509091565b601660009054906101000a900473ffffffffffffffffffffffffffffffffffffffff1681565b60098181548110151561449a57fe5b9060005260206000209060209182820401919006915054906101000a900460ff1681565b600042905090565b601160009054906101000a900473ffffffffffffffffffffffffffffffffffffffff1673ffffffffffffffffffffffffffffffffffffffff163373ffffffffffffffffffffffffffffffffffffffff16148061456f5750601660009054906101000a900473ffffffffffffffffffffffffffffffffffffffff1673ffffffffffffffffffffffffffffffffffffffff163373ffffffffffffffffffffffffffffffffffffffff16145b806145c75750601560009054906101000a900473ffffffffffffffffffffffffffffffffffffffff1673ffffffffffffffffffffffffffffffffffffffff163373ffffffffffffffffffffffffffffffffffffffff16145b151561463b576040517f08c379a000000000000000000000000000000000000000000000000000000000815260040180806020018281038252600b8152602001807f4e6f7420616c6c6f77656400000000000000000000000000000000000000000081525060200191505060405180910390fd5b80601560006101000a81548173ffffffffffffffffffffffffffffffffffffffff021916908373ffffffffffffffffffffffffffffffffffffffff16021790555050565b600080600660008473ffffffffffffffffffffffffffffffffffffffff1673ffffffffffffffffffffffffffffffffffffffff168152602001908152602001600020600b0154600660008573ffffffffffffffffffffffffffffffffffffffff1673ffffffffffffffffffffffffffffffffffffffff168152602001908152602001600020600a015491509150915091565b600b5481565b60056020528060005260406000206000915054906101000a900473ffffffffffffffffffffffffffffffffffffffff1681565b6000806305f5e100600f54600a0281151561476157fe5b0490506101728111156147745761017290505b6000819050809250505090565b620f4240800281565b600f5481565b6298968081565b601160009054906101000a900473ffffffffffffffffffffffffffffffffffffffff1673ffffffffffffffffffffffffffffffffffffffff163373ffffffffffffffffffffffffffffffffffffffff1614806148405750601660009054906101000a900473ffffffffffffffffffffffffffffffffffffffff1673ffffffffffffffffffffffffffffffffffffffff163373ffffffffffffffffffffffffffffffffffffffff16145b806148985750601360009054906101000a900473ffffffffffffffffffffffffffffffffffffffff1673ffffffffffffffffffffffffffffffffffffffff163373ffffffffffffffffffffffffffffffffffffffff16145b151561490c576040517f08c379a000000000000000000000000000000000000000000000000000000000815260040180806020018281038252600b8152602001807f4e6f7420616c6c6f77656400000000000000000000000000000000000000000081525060200191505060405180910390fd5b80601360006101000a81548173ffffffffffffffffffffffffffffffffffffffff021916908373ffffffffffffffffffffffffffffffffffffffff16021790555050565b600a5481565b6201518081565b601160009054906101000a900473ffffffffffffffffffffffffffffffffffffffff1673ffffffffffffffffffffffffffffffffffffffff163373ffffffffffffffffffffffffffffffffffffffff161480614a065750601660009054906101000a900473ffffffffffffffffffffffffffffffffffffffff1673ffffffffffffffffffffffffffffffffffffffff163373ffffffffffffffffffffffffffffffffffffffff16145b80614a5e5750601260009054906101000a900473ffffffffffffffffffffffffffffffffffffffff1673ffffffffffffffffffffffffffffffffffffffff163373ffffffffffffffffffffffffffffffffffffffff16145b1515614ad2576040517f08c379a000000000000000000000000000000000000000000000000000000000815260040180806020018281038252600b8152602001807f4e6f7420616c6c6f77656400000000000000000000000000000000000000000081525060200191505060405180910390fd5b80601260006101000a81548173ffffffffffffffffffffffffffffffffffffffff021916908373ffffffffffffffffffffffffffffffffffffffff16021790555050565b614b203382614df5565b614b2a3334615235565b50565b6000806305f5e100600f54600a02811515614b4457fe5b049050610172811115614b575761017290505b60008160e6019050610258811115614b6f5761025890505b809250505090565b6000600660008473ffffffffffffffffffffffffffffffffffffffff1673ffffffffffffffffffffffffffffffffffffffff16815260200190815260200160002060000160009054906101000a900473ffffffffffffffffffffffffffffffffffffffff16905060008090505b6009805490508160ff161015614def57600073ffffffffffffffffffffffffffffffffffffffff168273ffffffffffffffffffffffffffffffffffffffff161415614c2e57614def565b6001810160ff16600660008473ffffffffffffffffffffffffffffffffffffffff1673ffffffffffffffffffffffffffffffffffffffff16815260200190815260200160002060010154101515614d7d576000606460098360ff16815481101515614c9557fe5b90600052602060002090602091828204019190069054906101000a900460ff1660ff168502811515614cc357fe5b04905080600660008573ffffffffffffffffffffffffffffffffffffffff1673ffffffffffffffffffffffffffffffffffffffff168152602001908152602001600020600401600082825401925050819055508473ffffffffffffffffffffffffffffffffffffffff168373ffffffffffffffffffffffffffffffffffffffff167f16e746f9be6c4b545700b04df27afb9fceabf59b94ef1c816e78a435059fabea836040518082815260200191505060405180910390a3505b600660008373ffffffffffffffffffffffffffffffffffffffff1673ffffffffffffffffffffffffffffffffffffffff16815260200190815260200160002060000160009054906101000a900473ffffffffffffffffffffffffffffffffffffffff1691508080600101915050614be4565b50505050565b600073ffffffffffffffffffffffffffffffffffffffff16600660008473ffffffffffffffffffffffffffffffffffffffff1673ffffffffffffffffffffffffffffffffffffffff16815260200190815260200160002060000160009054906101000a900473ffffffffffffffffffffffffffffffffffffffff1673ffffffffffffffffffffffffffffffffffffffff16148015614ebf57508173ffffffffffffffffffffffffffffffffffffffff168173ffffffffffffffffffffffffffffffffffffffff1614155b8015614f195750601160009054906101000a900473ffffffffffffffffffffffffffffffffffffffff1673ffffffffffffffffffffffffffffffffffffffff168273ffffffffffffffffffffffffffffffffffffffff1614155b8015614fd757506000600660008373ffffffffffffffffffffffffffffffffffffffff1673ffffffffffffffffffffffffffffffffffffffff16815260200190815260200160002060090160009054906101000a900464ffffffffff1664ffffffffff161180614fd65750601160009054906101000a900473ffffffffffffffffffffffffffffffffffffffff1673ffffffffffffffffffffffffffffffffffffffff168173ffffffffffffffffffffffffffffffffffffffff16145b5b156152315780600660008473ffffffffffffffffffffffffffffffffffffffff1673ffffffffffffffffffffffffffffffffffffffff16815260200190815260200160002060000160006101000a81548173ffffffffffffffffffffffffffffffffffffffff021916908373ffffffffffffffffffffffffffffffffffffffff160217905550600660008273ffffffffffffffffffffffffffffffffffffffff1673ffffffffffffffffffffffffffffffffffffffff168152602001908152602001600020600101600081548092919060010191905055508073ffffffffffffffffffffffffffffffffffffffff168273ffffffffffffffffffffffffffffffffffffffff167f9f4d150e5193cfa9a87226111d3b60b624d97ccc056eeeac1569af1ea27bf64160405160405180910390a3600a6000815480929190600101919050555060008090505b6009805490508160ff16101561522f57600073ffffffffffffffffffffffffffffffffffffffff168273ffffffffffffffffffffffffffffffffffffffff16141561516b5761522f565b600760008373ffffffffffffffffffffffffffffffffffffffff1673ffffffffffffffffffffffffffffffffffffffff16815260200190815260200160002060020160008154809291906001019190505550600660008373ffffffffffffffffffffffffffffffffffffffff1673ffffffffffffffffffffffffffffffffffffffff16815260200190815260200160002060000160009054906101000a900473ffffffffffffffffffffffffffffffffffffffff1691508080600101915050615121565b505b5050565b600073ffffffffffffffffffffffffffffffffffffffff16600660008473ffffffffffffffffffffffffffffffffffffffff1673ffffffffffffffffffffffffffffffffffffffff16815260200190815260200160002060000160009054906101000a900473ffffffffffffffffffffffffffffffffffffffff1673ffffffffffffffffffffffffffffffffffffffff161415806153205750601160009054906101000a900473ffffffffffffffffffffffffffffffffffffffff1673ffffffffffffffffffffffffffffffffffffffff168273ffffffffffffffffffffffffffffffffffffffff16145b1515615394576040517f08c379a00000000000000000000000000000000000000000000000000000000081526004018080602001828103825260098152602001807f4e6f2075706c696e65000000000000000000000000000000000000000000000081525060200191505060405180910390fd5b6000600660008473ffffffffffffffffffffffffffffffffffffffff1673ffffffffffffffffffffffffffffffffffffffff16815260200190815260200160002060090160009054906101000a900464ffffffffff1664ffffffffff161115615659573073ffffffffffffffffffffffffffffffffffffffff16638959af3c600660008573ffffffffffffffffffffffffffffffffffffffff1673ffffffffffffffffffffffffffffffffffffffff168152602001908152602001600020600601546040518263ffffffff167c01000000000000000000000000000000000000000000000000000000000281526004018082815260200191505060206040518083038186803b1580156154a657600080fd5b505afa1580156154ba573d6000803e3d6000fd5b505050506040513d60208110156154d057600080fd5b8101908080519060200190929190505050600660008473ffffffffffffffffffffffffffffffffffffffff1673ffffffffffffffffffffffffffffffffffffffff168152602001908152602001600020600201541015151561559a576040517f08c379a00000000000000000000000000000000000000000000000000000000081526004018080602001828103825260168152602001807f4465706f73697420616c7265616479206578697374730000000000000000000081525060200191505060405180910390fd5b600660008373ffffffffffffffffffffffffffffffffffffffff1673ffffffffffffffffffffffffffffffffffffffff168152602001908152602001600020600601548110151515615654576040517f08c379a000000000000000000000000000000000000000000000000000000000815260040180806020018281038252600a8152602001807f42616420616d6f756e740000000000000000000000000000000000000000000081525060200191505060405180910390fd5b6156d5565b6298968081101515156156d4576040517f08c379a000000000000000000000000000000000000000000000000000000000815260040180806020018281038252600a8152602001807f42616420616d6f756e740000000000000000000000000000000000000000000081525060200191505060405180910390fd5b5b629896806103e80281101580156156ef57506064600b5411155b15615834576001600760008473ffffffffffffffffffffffffffffffffffffffff1673ffffffffffffffffffffffffffffffffffffffff16815260200190815260200160002060040160016101000a81548160ff021916908315150217905550600b600081548092919060010191905055506001600760008473ffffffffffffffffffffffffffffffffffffffff1673ffffffffffffffffffffffffffffffffffffffff16815260200190815260200160002060040160006101000a81548160ff02191690831515021790551561582f57600c60008154809291906001900391905055506000600760008473ffffffffffffffffffffffffffffffffffffffff1673ffffffffffffffffffffffffffffffffffffffff16815260200190815260200160002060040160006101000a81548160ff0219169083151502179055505b6158c2565b62989680601402811015801561584e5750612710600c5411155b156158c1576001600760008473ffffffffffffffffffffffffffffffffffffffff1673ffffffffffffffffffffffffffffffffffffffff16815260200190815260200160002060040160006101000a81548160ff021916908315150217905550600c600081548092919060010191905055505b5b6000600660008473ffffffffffffffffffffffffffffffffffffffff1673ffffffffffffffffffffffffffffffffffffffff1681526020019081526020016000206002018190555080600660008473ffffffffffffffffffffffffffffffffffffffff1673ffffffffffffffffffffffffffffffffffffffff168152602001908152602001600020600601819055506000600660008473ffffffffffffffffffffffffffffffffffffffff1673ffffffffffffffffffffffffffffffffffffffff168152602001908152602001600020600801819055506001600660008473ffffffffffffffffffffffffffffffffffffffff1673ffffffffffffffffffffffffffffffffffffffff168152602001908152602001600020600c018190555042600660008473ffffffffffffffffffffffffffffffffffffffff1673ffffffffffffffffffffffffffffffffffffffff16815260200190815260200160002060090160006101000a81548164ffffffffff021916908364ffffffffff1602179055504264ffffffffff16600660008473ffffffffffffffffffffffffffffffffffffffff1673ffffffffffffffffffffffffffffffffffffffff1681526020019081526020016000206007018190555080600760008473ffffffffffffffffffffffffffffffffffffffff1673ffffffffffffffffffffffffffffffffffffffff168152602001908152602001600020600001600082825401925050819055504264ffffffffff16600760008473ffffffffffffffffffffffffffffffffffffffff1673ffffffffffffffffffffffffffffffffffffffff1681526020019081526020016000206003018190555080600f600082825401925050819055508173ffffffffffffffffffffffffffffffffffffffff167f2cb77763bc1e8490c1a904905c4d74b4269919aca114464f4bb4d911e60de364826040518082815260200191505060405180910390a26007620151800260076000600660008673ffffffffffffffffffffffffffffffffffffffff1673ffffffffffffffffffffffffffffffffffffffff16815260200190815260200160002060000160009054906101000a900473ffffffffffffffffffffffffffffffffffffffff1673ffffffffffffffffffffffffffffffffffffffff1673ffffffffffffffffffffffffffffffffffffffff168152602001908152602001600020600301540142108015615ced57508060066000600660008673ffffffffffffffffffffffffffffffffffffffff1673ffffffffffffffffffffffffffffffffffffffff16815260200190815260200160002060000160009054906101000a900473ffffffffffffffffffffffffffffffffffffffff1673ffffffffffffffffffffffffffffffffffffffff1673ffffffffffffffffffffffffffffffffffffffff1681526020019081526020016000206006015410155b156161b25760066000600660008573ffffffffffffffffffffffffffffffffffffffff1673ffffffffffffffffffffffffffffffffffffffff16815260200190815260200160002060000160009054906101000a900473ffffffffffffffffffffffffffffffffffffffff1673ffffffffffffffffffffffffffffffffffffffff1673ffffffffffffffffffffffffffffffffffffffff168152602001908152602001600020600a01600081548092919060010191905055506000600760066000600660008773ffffffffffffffffffffffffffffffffffffffff1673ffffffffffffffffffffffffffffffffffffffff16815260200190815260200160002060000160009054906101000a900473ffffffffffffffffffffffffffffffffffffffff1673ffffffffffffffffffffffffffffffffffffffff1673ffffffffffffffffffffffffffffffffffffffff168152602001908152602001600020600a0154811515615e5857fe5b0614156161b15760066000600660008573ffffffffffffffffffffffffffffffffffffffff1673ffffffffffffffffffffffffffffffffffffffff16815260200190815260200160002060000160009054906101000a900473ffffffffffffffffffffffffffffffffffffffff1673ffffffffffffffffffffffffffffffffffffffff1673ffffffffffffffffffffffffffffffffffffffff1681526020019081526020016000206006015460066000600660008673ffffffffffffffffffffffffffffffffffffffff1673ffffffffffffffffffffffffffffffffffffffff16815260200190815260200160002060000160009054906101000a900473ffffffffffffffffffffffffffffffffffffffff1673ffffffffffffffffffffffffffffffffffffffff1673ffffffffffffffffffffffffffffffffffffffff168152602001908152602001600020600b01819055504264ffffffffff1660076000600660008673ffffffffffffffffffffffffffffffffffffffff1673ffffffffffffffffffffffffffffffffffffffff16815260200190815260200160002060000160009054906101000a900473ffffffffffffffffffffffffffffffffffffffff1673ffffffffffffffffffffffffffffffffffffffff1673ffffffffffffffffffffffffffffffffffffffff16815260200190815260200160002060030181905550600660008373ffffffffffffffffffffffffffffffffffffffff1673ffffffffffffffffffffffffffffffffffffffff16815260200190815260200160002060000160009054906101000a900473ffffffffffffffffffffffffffffffffffffffff1673ffffffffffffffffffffffffffffffffffffffff167f0b7242160fc47c3502afcfad8a194dfdd695ed4562e4068a8aecb1748de0ed4960066000600660008773ffffffffffffffffffffffffffffffffffffffff1673ffffffffffffffffffffffffffffffffffffffff16815260200190815260200160002060000160009054906101000a900473ffffffffffffffffffffffffffffffffffffffff1673ffffffffffffffffffffffffffffffffffffffff1673ffffffffffffffffffffffffffffffffffffffff168152602001908152602001600020600601546040518082815260200191505060405180910390a25b5b600073ffffffffffffffffffffffffffffffffffffffff16600660008473ffffffffffffffffffffffffffffffffffffffff1673ffffffffffffffffffffffffffffffffffffffff16815260200190815260200160002060000160009054906101000a900473ffffffffffffffffffffffffffffffffffffffff1673ffffffffffffffffffffffffffffffffffffffff161415156163e2576064600a820281151561625957fe5b0460066000600660008673ffffffffffffffffffffffffffffffffffffffff1673ffffffffffffffffffffffffffffffffffffffff16815260200190815260200160002060000160009054906101000a900473ffffffffffffffffffffffffffffffffffffffff1673ffffffffffffffffffffffffffffffffffffffff1673ffffffffffffffffffffffffffffffffffffffff168152602001908152602001600020600301600082825401925050819055508173ffffffffffffffffffffffffffffffffffffffff16600660008473ffffffffffffffffffffffffffffffffffffffff1673ffffffffffffffffffffffffffffffffffffffff16815260200190815260200160002060000160009054906101000a900473ffffffffffffffffffffffffffffffffffffffff1673ffffffffffffffffffffffffffffffffffffffff167fba5b08f0cddc64825b52c35c09323af810c1d2e29c97aba01a4ed25cfdc482d16064600a85028115156163cb57fe5b046040518082815260200191505060405180910390a35b6163ec8282616604565b4262015180600160009054906101000a900464ffffffffff1664ffffffffff1601101561641c5761641b616bdf565b5b601260009054906101000a900473ffffffffffffffffffffffffffffffffffffffff1673ffffffffffffffffffffffffffffffffffffffff166108fc6103e86032840281151561646857fe5b049081150290604051600060405180830381858888f19350505050158015616494573d6000803e3d6000fd5b50601360009054906101000a900473ffffffffffffffffffffffffffffffffffffffff1673ffffffffffffffffffffffffffffffffffffffff166108fc6103e8603284028115156164e157fe5b049081150290604051600060405180830381858888f1935050505015801561650d573d6000803e3d6000fd5b50601460009054906101000a900473ffffffffffffffffffffffffffffffffffffffff1673ffffffffffffffffffffffffffffffffffffffff166108fc6103e86032840281151561655a57fe5b049081150290604051600060405180830381858888f19350505050158015616586573d6000803e3d6000fd5b50601560009054906101000a900473ffffffffffffffffffffffffffffffffffffffff1673ffffffffffffffffffffffffffffffffffffffff166108fc6103e8601e84028115156165d357fe5b049081150290604051600060405180830381858888f193505050501580156165ff573d6000803e3d6000fd5b505050565b6064600a820281151561661357fe5b046003600082825401925050819055506000600660008473ffffffffffffffffffffffffffffffffffffffff1673ffffffffffffffffffffffffffffffffffffffff16815260200190815260200160002060000160009054906101000a900473ffffffffffffffffffffffffffffffffffffffff169050600073ffffffffffffffffffffffffffffffffffffffff168173ffffffffffffffffffffffffffffffffffffffff1614156166c55750616bdb565b8160046000600254815260200190815260200160002060008373ffffffffffffffffffffffffffffffffffffffff1673ffffffffffffffffffffffffffffffffffffffff1681526020019081526020016000206000828254019250508190555060008090505b6000805490508160ff161015616bd8578173ffffffffffffffffffffffffffffffffffffffff16600560008360ff1660ff16815260200190815260200160002060009054906101000a900473ffffffffffffffffffffffffffffffffffffffff1673ffffffffffffffffffffffffffffffffffffffff1614156167ad57616bd8565b600073ffffffffffffffffffffffffffffffffffffffff16600560008360ff1660ff16815260200190815260200160002060009054906101000a900473ffffffffffffffffffffffffffffffffffffffff1673ffffffffffffffffffffffffffffffffffffffff1614156168785781600560008360ff1660ff16815260200190815260200160002060006101000a81548173ffffffffffffffffffffffffffffffffffffffff021916908373ffffffffffffffffffffffffffffffffffffffff160217905550616bd8565b6004600060025481526020019081526020016000206000600560008460ff1660ff16815260200190815260200160002060009054906101000a900473ffffffffffffffffffffffffffffffffffffffff1673ffffffffffffffffffffffffffffffffffffffff1673ffffffffffffffffffffffffffffffffffffffff1681526020019081526020016000205460046000600254815260200190815260200160002060008473ffffffffffffffffffffffffffffffffffffffff1673ffffffffffffffffffffffffffffffffffffffff168152602001908152602001600020541115616bcb5760006001820190505b6000805490508160ff161015616aae578273ffffffffffffffffffffffffffffffffffffffff16600560008360ff1660ff16815260200190815260200160002060009054906101000a900473ffffffffffffffffffffffffffffffffffffffff1673ffffffffffffffffffffffffffffffffffffffff161415616aa15760008190505b6000805490508160ff16111515616a9b57600560006001830160ff1660ff16815260200190815260200160002060009054906101000a900473ffffffffffffffffffffffffffffffffffffffff16600560008360ff1660ff16815260200190815260200160002060006101000a81548173ffffffffffffffffffffffffffffffffffffffff021916908373ffffffffffffffffffffffffffffffffffffffff16021790555080806001019150506169e9565b50616aae565b8080600101915050616966565b50600060016000805490500390505b8160ff168160ff161115616b6d57600560006001830360ff1660ff16815260200190815260200160002060009054906101000a900473ffffffffffffffffffffffffffffffffffffffff16600560008360ff1660ff16815260200190815260200160002060006101000a81548173ffffffffffffffffffffffffffffffffffffffff021916908373ffffffffffffffffffffffffffffffffffffffff160217905550808060019003915050616abd565b5081600560008360ff1660ff16815260200190815260200160002060006101000a81548173ffffffffffffffffffffffffffffffffffffffff021916908373ffffffffffffffffffffffffffffffffffffffff160217905550616bd8565b808060010191505061672b565b50505b5050565b42600160006101000a81548164ffffffffff021916908364ffffffffff1602179055506002600081548092919060010191905055506000600a600354811515616c2457fe5b04905060008090505b6000805490508160ff161015616e2557600073ffffffffffffffffffffffffffffffffffffffff16600560008360ff1660ff16815260200190815260200160002060009054906101000a900473ffffffffffffffffffffffffffffffffffffffff1673ffffffffffffffffffffffffffffffffffffffff161415616cb057616e25565b6000606460008360ff16815481101515616cc657fe5b90600052602060002090602091828204019190069054906101000a900460ff1660ff168402811515616cf457fe5b0490508060066000600560008660ff1660ff16815260200190815260200160002060009054906101000a900473ffffffffffffffffffffffffffffffffffffffff1673ffffffffffffffffffffffffffffffffffffffff1673ffffffffffffffffffffffffffffffffffffffff1681526020019081526020016000206005016000828254019250508190555080600360008282540392505081905550600560008360ff1660ff16815260200190815260200160002060009054906101000a900473ffffffffffffffffffffffffffffffffffffffff1673ffffffffffffffffffffffffffffffffffffffff167fdbdfa5cb8586917247fbe7178cf53555d199e091a14b06f7de5a182ece2d453a826040518082815260200191505060405180910390a2508080600101915050616c2d565b5060008090505b6000805490508160ff161015616ea2576000600560008360ff1660ff16815260200190815260200160002060006101000a81548173ffffffffffffffffffffffffffffffffffffffff021916908373ffffffffffffffffffffffffffffffffffffffff1602179055508080600101915050616e2c565b5050565b60a060405190810160405280600590602082028038833980820191505090505090565b60a06040519081016040528060059060208202803883398082019150509050509056fea165627a7a72305820f2a2e9ea27ed8e3b2b64511d3f589e178614ce11b1fe6d21ebcb2192b64a46780029",
  "source": "pragma solidity 0.5.4;\r\n\r\ncontract SweezGlobal {\r\n\r\n    struct User { \r\n        address upline ;\r\n        uint256 referrals ;\r\n        uint256 payouts ;\r\n        uint256 direct_bonus ;\r\n        uint256 gen_bonus ;\r\n        uint256 pool_bonus ;\r\n        uint256 deposit_amount ;\r\n        uint256 checkpoint ;\r\n        uint256 deposit_payouts ;\r\n        uint40 deposit_time ; \r\n        uint256 wonder_directs;\r\n\t\tuint256 wonder_bonus ;\r\n        uint256 isActive ;\r\n    } \r\n\r\n    struct UserTotal {\r\n        uint256 total_deposits ;\r\n        uint256 total_payouts ;\r\n        uint256 total_structure ;\r\n        uint256 wonder_time;\r\n        bool shareHolder;\r\n        bool coFounder;\r\n     } \r\n    \r\n    // uint256 constant public CONTRACT_BALANCE_STEP = 1000000 trx ; // 1000000 trx\r\n    // uint256 constant public MIN_DEPOSIT = 100 trx ; // 100 trx\r\n    // uint256 constant public time_period = 1 days ; // 1 days \r\n    // uint256 constant public wonder_period = 7 days ; // 7 days \r\n    // uint256 constant public aff_bonus = 10 ; // 10 percent\r\n\r\n    uint256 constant public CONTRACT_BALANCE_STEP = 100 trx ; // 1000000 trx\r\n    uint256 constant public MIN_DEPOSIT = 10 trx ; // 100 trx\r\n    uint256 constant public time_period = 1 days ; // 1 days \r\n    uint256 constant public wonder_period = time_period*7 ; // 7 days \r\n    uint256 constant public aff_bonus = 10 ; // 10 percent\r\n\r\n     uint256 constant public admin_fee1  = 50 ;   \r\n    uint256 constant public admin_fee2  = 30 ;   \r\n\r\n    uint256 constant public BASE_PERCENT = 230 ; // 2.3% daily\r\n    // uint256 constant public baseSecRate = 266204 ;  // 2.3% daily\r\n    // uint256 constant public incSecRate = 11575 ;  // 0.1% daily\r\n    uint256 constant public million = 1000000 ;  // 6 zeros\r\n    uint256 constant public mainDivider = million*million ;  //12 zeros\r\n\tuint256 constant public PERCENTS_DIVIDER = 10000 ; \r\n\r\n    //pool bonus\r\n    uint8[] public pool_bonuses ;                            // 1 => 1%\r\n    uint40 public pool_last_draw = uint40(block.timestamp) ;\r\n    uint256 public pool_cycle ;\r\n    uint256 public pool_balance ;\r\n\r\n    mapping(uint256 => mapping(address => uint256)) public pool_users_refs_deposits_sum ;\r\n    mapping(uint8 => address) public pool_top ;\r\n    mapping(address => User) public users ;\r\n    mapping(address => UserTotal) public usertotals ;\r\n    mapping(address => bool) public top_promoters;\r\n\r\n    uint8[] public ref_bonuses ;  \r\n    uint256 public total_users = 1 ;\r\n    uint256 public coFounder_count = 0 ;\r\n    uint256 public shareHolder_count = 0 ;\r\n    uint256 public shareHolder_value = 5000 trx ;\r\n    uint256 public coFounder_value = 50000 trx ;\r\n    uint256 public total_deposited ;\r\n    uint256 public total_withdraw ;\r\n    \r\n    event Upline(address indexed addr, address indexed upline) ;\r\n    event NewDeposit(address indexed addr, uint256 amount) ;\r\n    event DirectPayout(address indexed addr, address indexed from, uint256 amount) ;\r\n    event MatchPayout(address indexed addr, address indexed from, uint256 amount) ;\r\n    event PoolPayout(address indexed addr, uint256 amount) ;\r\n    event WonderPayout(address indexed addr, uint256 amount) ;\r\n    event Withdraw(address indexed addr, uint256 amount) ;\r\n    event LimitReached(address indexed addr, uint256 amount) ; \r\n    \r\n    address payable public owner ; \r\n    address payable public admin1 ;\r\n    address payable public admin2 ;\r\n    address payable public admin3 ;\r\n    address payable public admin4 ;\r\n    address payable public alt_owner ;\r\n\r\n    // constructor(address payable _owner, \r\n    //             address payable _admin1, \r\n    //             address payable _admin2, \r\n    //             address payable _admin3, \r\n    //             address payable _admin4, \r\n    //             address payable _alt_owner) public {\r\n\r\n    //     owner = _owner;\r\n    //     admin1 = _admin1;\r\n    //     admin2 = _admin2;\r\n    //     admin3 = _admin3;\r\n    //     admin4 = _admin4;\r\n\t// \talt_owner = _alt_owner;\r\n\r\n         constructor( ) public {\r\n\r\n        owner = msg.sender;\r\n        admin1 = msg.sender;\r\n        admin2 = msg.sender;\r\n        admin3 = msg.sender;\r\n        admin4 = msg.sender;\r\n\t\talt_owner = msg.sender;\r\n         \r\n        ref_bonuses.push(30);\r\n        ref_bonuses.push(10);\r\n        ref_bonuses.push(5);\r\n        ref_bonuses.push(5);  \r\n        ref_bonuses.push(5);\r\n        ref_bonuses.push(5); // 60\r\n\r\n        ref_bonuses.push(10);\r\n        ref_bonuses.push(10);\r\n        ref_bonuses.push(10); // 90 \r\n\r\n        pool_bonuses.push(40);\r\n        pool_bonuses.push(20);\r\n        pool_bonuses.push(15);\r\n        pool_bonuses.push(15);\r\n        pool_bonuses.push(10);\r\n\r\n         users[owner].payouts = 0;\r\n        users[owner].deposit_amount = MIN_DEPOSIT;\r\n        users[owner].deposit_payouts = 0;\r\n        users[owner].isActive = 1;\r\n        users[owner].deposit_time = uint40(block.timestamp);\r\n        users[owner].checkpoint = uint40(block.timestamp);\r\n        usertotals[owner].total_deposits += MIN_DEPOSIT; \r\n     }\r\n \r\n    function _setUpline(address _addr, address _upline) private {\r\n        if(users[_addr].upline == address(0) && _upline != _addr && _addr != owner && \r\n\t\t(users[_upline].deposit_time > 0 || _upline == owner) ) {\r\n            \r\n            users[_addr].upline = _upline;\r\n            users[_upline].referrals++;\r\n\r\n            emit Upline(_addr, _upline);\r\n\r\n            total_users++; \r\n\r\n            for(uint8 i = 0; i < ref_bonuses.length; i++) {\r\n                if(_upline == address(0)) break; \r\n                usertotals[_upline].total_structure++; \r\n                _upline = users[_upline].upline;\r\n            }\r\n        }\r\n    }\r\n\r\n    function _deposit(address _addr, uint256 _amount ) private {\r\n        require(users[_addr].upline != address(0) || _addr == owner, \"No upline\");\r\n \r\n        if(users[_addr].deposit_time > 0) {\r\n             \r\n            require(users[_addr].payouts >= this.maxPayoutOf(users[_addr].deposit_amount), \"Deposit already exists\");\r\n            require(_amount >= users[_addr].deposit_amount  , \"Bad amount\");\r\n        }\r\n        else require(_amount >= MIN_DEPOSIT  , \"Bad amount\"); \r\n\r\n        if(_amount >= 50*20*MIN_DEPOSIT && coFounder_count <= 100){\r\n            usertotals[_addr].coFounder = true;\r\n            coFounder_count++;\r\n            if( usertotals[_addr].shareHolder = true){\r\n                 shareHolder_count--; \r\n                 usertotals[_addr].shareHolder = false; \r\n            }\r\n        } else if (_amount >= 20*MIN_DEPOSIT && shareHolder_count <= 10000){\r\n           usertotals[_addr].shareHolder = true; \r\n           shareHolder_count++; \r\n        }\r\n\r\n        users[_addr].payouts = 0;\r\n        users[_addr].deposit_amount = _amount;\r\n        users[_addr].deposit_payouts = 0;\r\n        users[_addr].isActive = 1;\r\n        users[_addr].deposit_time = uint40(block.timestamp);\r\n        users[_addr].checkpoint = uint40(block.timestamp);\r\n        usertotals[_addr].total_deposits += _amount;\r\n        usertotals[_addr].wonder_time = uint40(block.timestamp);\r\n \r\n        total_deposited += _amount;\r\n        \r\n        emit NewDeposit(_addr, _amount);\r\n \r\n         // wonder directs check\r\n        if(  block.timestamp < (usertotals[users[_addr].upline].wonder_time + wonder_period) && users[users[_addr].upline].deposit_amount >= _amount){\r\n            users[users[_addr].upline].wonder_directs++;\r\n            \r\n            if(users[users[_addr].upline].wonder_directs % 7 == 0 ){\r\n                users[users[_addr].upline].wonder_bonus = users[users[_addr].upline].deposit_amount;\r\n                 usertotals[users[_addr].upline].wonder_time = uint40(block.timestamp);\r\n                emit WonderPayout(users[_addr].upline, users[users[_addr].upline].deposit_amount);\r\n            }\r\n        }\r\n  \r\n        if(users[_addr].upline != address(0)) {\r\n            users[users[_addr].upline].direct_bonus += _amount*aff_bonus/100;\r\n\r\n            emit DirectPayout(users[_addr].upline, _addr,  _amount*aff_bonus/100);\r\n        } \r\n         _poolDeposits(_addr, _amount);\r\n\r\n        if(pool_last_draw + time_period < block.timestamp) {\r\n            _drawPool();\r\n        }\r\n\r\n         admin1.transfer(_amount * admin_fee1 / 1000); \r\n         admin2.transfer(_amount * admin_fee1 / 1000); \r\n         admin3.transfer(_amount * admin_fee1 / 1000); \r\n         admin4.transfer(_amount * admin_fee2 / 1000);  // Reserve Fund\r\n    }\r\n\r\n     function _poolDeposits(address _addr, uint256 _amount) private {\r\n        pool_balance += _amount * 10 / 100;\r\n\r\n        address upline = users[_addr].upline;\r\n\r\n        if(upline == address(0)) return;\r\n        \r\n        pool_users_refs_deposits_sum[pool_cycle][upline] += _amount;\r\n\r\n        for(uint8 i = 0; i < pool_bonuses.length; i++) {\r\n            if(pool_top[i] == upline) break;\r\n\r\n            if(pool_top[i] == address(0)) {\r\n                pool_top[i] = upline;\r\n                break;\r\n            }\r\n\r\n            if(pool_users_refs_deposits_sum[pool_cycle][upline] > pool_users_refs_deposits_sum[pool_cycle][pool_top[i]]) {\r\n                for(uint8 j = i + 1; j < pool_bonuses.length; j++) {\r\n                    if(pool_top[j] == upline) {\r\n                        for(uint8 k = j; k <= pool_bonuses.length; k++) {\r\n                            pool_top[k] = pool_top[k + 1];\r\n                        }\r\n                        break;\r\n                    }\r\n                }\r\n\r\n                for(uint8 j = uint8(pool_bonuses.length - 1); j > i; j--) {\r\n                    pool_top[j] = pool_top[j - 1];\r\n                }\r\n\r\n                pool_top[i] = upline;\r\n\r\n                break;\r\n            }\r\n        }\r\n    } \r\n\r\n    function _drawPool() private {\r\n        pool_last_draw = uint40(block.timestamp);\r\n        pool_cycle++;\r\n\r\n        uint256 draw_amount = pool_balance / 10;\r\n\r\n        for(uint8 i = 0; i < pool_bonuses.length; i++) {\r\n            if(pool_top[i] == address(0)) break;\r\n\r\n            uint256 win = draw_amount * pool_bonuses[i] / 100;\r\n\r\n            users[pool_top[i]].pool_bonus += win;\r\n            pool_balance -= win;\r\n\r\n            emit PoolPayout(pool_top[i], win);\r\n        }\r\n        \r\n        for(uint8 i = 0; i < pool_bonuses.length; i++) {\r\n            pool_top[i] = address(0);\r\n        }\r\n    } \r\n\r\n     function _refPayout(address _addr, uint256 _amount) private {\r\n        address up = users[_addr].upline;\r\n\r\n        for(uint8 i = 0; i < ref_bonuses.length; i++) {\r\n            if(up == address(0)) break;\r\n            \r\n            if(users[up].referrals >= i + 1) {\r\n                uint256 bonus = _amount * ref_bonuses[i] / 100;\r\n                \r\n                users[up].gen_bonus += bonus;\r\n\r\n                emit MatchPayout(up, _addr, bonus);\r\n            }\r\n\r\n            up = users[up].upline;\r\n        }\r\n    }\r\n \r\n    function deposit(address _upline) payable external {\r\n\r\n         _setUpline(msg.sender, _upline);\r\n        _deposit(msg.sender, msg.value);\r\n\r\n    }\r\n\r\n \r\n    function withdraw() external {\r\n        (uint256 to_payout, uint256 max_payout) = this.payoutOf(msg.sender);\r\n        \r\n        require(users[msg.sender].payouts < max_payout, \"Full payouts\");\r\n\r\n        // Deposit payout\r\n        if(to_payout > 0) {\r\n            if(users[msg.sender].payouts + to_payout > max_payout) {\r\n                to_payout = max_payout - users[msg.sender].payouts;\r\n            } \r\n            users[msg.sender].deposit_payouts += to_payout;\r\n            users[msg.sender].payouts += to_payout;\r\n\r\n            _refPayout(msg.sender, to_payout);\r\n        }\r\n        \r\n        // Direct payout\r\n        if(users[msg.sender].payouts < max_payout && users[msg.sender].direct_bonus > 0) {\r\n            uint256 direct_bonus = users[msg.sender].direct_bonus;\r\n\r\n            if(users[msg.sender].payouts + direct_bonus > max_payout) {\r\n                direct_bonus = max_payout - users[msg.sender].payouts;\r\n            }\r\n\r\n            users[msg.sender].direct_bonus -= direct_bonus;\r\n            users[msg.sender].payouts += direct_bonus;\r\n            to_payout += direct_bonus;\r\n        } \r\n\r\n          // Pool payout\r\n        if(users[msg.sender].payouts < max_payout && users[msg.sender].pool_bonus > 0) {\r\n            uint256 pool_bonus = users[msg.sender].pool_bonus;\r\n\r\n            if(users[msg.sender].payouts + pool_bonus > max_payout) {\r\n                pool_bonus = max_payout - users[msg.sender].payouts;\r\n            }\r\n\r\n            users[msg.sender].pool_bonus -= pool_bonus;\r\n            users[msg.sender].payouts += pool_bonus;\r\n            to_payout += pool_bonus;\r\n        } \r\n       \r\n        // Generation payout\r\n        if(users[msg.sender].payouts < max_payout && users[msg.sender].gen_bonus > 0) {\r\n            uint256 gen_bonus = users[msg.sender].gen_bonus;\r\n\r\n            if(users[msg.sender].payouts + gen_bonus > max_payout) {\r\n                gen_bonus = max_payout - users[msg.sender].payouts;\r\n            }\r\n\r\n            users[msg.sender].gen_bonus -= gen_bonus;\r\n            users[msg.sender].payouts += gen_bonus;\r\n            to_payout += gen_bonus;\r\n        }\r\n\r\n        // Wonder payout\r\n        if(users[msg.sender].payouts < max_payout && users[msg.sender].wonder_bonus > 0) {\r\n            uint256 wonder_bonus = users[msg.sender].wonder_bonus;\r\n\r\n            if(users[msg.sender].payouts + wonder_bonus > max_payout) {\r\n                wonder_bonus = max_payout - users[msg.sender].payouts;\r\n            }\r\n\r\n            users[msg.sender].wonder_bonus -= wonder_bonus;\r\n            users[msg.sender].payouts += wonder_bonus;\r\n            to_payout += wonder_bonus;\r\n        }\r\n\r\n        require(to_payout > 0, \"Zero payout\");\r\n        \r\n        usertotals[msg.sender].total_payouts += to_payout;\r\n        total_withdraw += to_payout;\r\n        if(to_payout > 0){\r\n             msg.sender.transfer(to_payout); \r\n        }\r\n\r\n        emit Withdraw(msg.sender, to_payout);\r\n\r\n        if(users[msg.sender].payouts >= max_payout) {\r\n            emit LimitReached(msg.sender, users[msg.sender].payouts);\r\n            users[msg.sender].isActive = 0;\r\n        }\r\n    }\r\n    \r\n    function payoutOf(address _addr) view external returns(uint256 payout, uint256 max_payout) {\r\n        max_payout = this.maxPayoutOf(users[_addr].deposit_amount);\r\n\t  \r\n      uint256 total_rate1 = getTotalRate();\r\n      uint256 total_rate = total_rate1*million/864;\r\n         if(users[_addr].deposit_payouts < max_payout) {\r\n             payout = (users[_addr].deposit_amount * total_rate  / mainDivider) * (block.timestamp - users[_addr].deposit_time) - users[_addr].deposit_payouts; \r\n            if(users[_addr].deposit_payouts + payout > max_payout) {\r\n                payout = max_payout - users[_addr].deposit_payouts;\r\n            } \r\n        } \r\n    }\r\n\r\n    function getUserDividends(address _addr) view external returns(uint256) {\r\n      uint256  max_payout = this.maxPayoutOf(users[_addr].deposit_amount);\r\n \r\n      uint256 total_rate1 = getTotalRate();\r\n      uint256 total_rate = total_rate1*million/864;\r\n      uint256 payout;\r\n        if(users[_addr].deposit_payouts < max_payout) {\r\n             payout = (users[_addr].deposit_amount * total_rate  / mainDivider) * (block.timestamp - users[_addr].deposit_time) - users[_addr].deposit_payouts; \r\n            if(users[_addr].deposit_payouts + payout > max_payout) {\r\n                payout = max_payout - users[_addr].deposit_payouts;\r\n            }\r\n        }\r\n        return payout;\r\n    }    \r\n \r\n\tfunction getTotalRate() internal view returns(uint256) {\r\n\t \r\n \t\t uint256 steps =  10*total_deposited/CONTRACT_BALANCE_STEP ;\r\n\r\n         if(steps > 370){\r\n             steps = 370; \r\n         }  \r\n \r\n         uint256 total1 = BASE_PERCENT + steps;\r\n         if(total1 > 600){\r\n             total1 = 600;\r\n         }\r\n         \r\n        return total1 ;\r\n\t}\r\n\r\n    /*\r\n        Only external call\r\n    */ \r\n\r\n\tfunction getContractBalance() public view returns (uint256) {\r\n\t\treturn address(this).balance;\r\n\t}  \r\n\r\n\tfunction getRate() external view returns(uint256) { \r\n        uint256 steps =  10*total_deposited/CONTRACT_BALANCE_STEP ;\r\n\r\n         if(steps > 370){\r\n             steps = 370; \r\n         }  \r\n         uint256 total1 = BASE_PERCENT + steps;\r\n         if(total1 > 600){\r\n             total1 = 600;\r\n         } \r\n        return total1 ;\r\n\t}\r\n\r\n    function getContractBonus() external view returns(uint256) {\r\n      \r\n        uint256 steps = 10*total_deposited/CONTRACT_BALANCE_STEP ;\r\n\r\n         if(steps > 370){\r\n             steps = 370;\r\n         }  \r\n         uint256 total_step = steps;  \r\n        return total_step ;\r\n    } \r\n\r\n    function maxPayoutOf(uint256 _amount) external pure returns(uint256) { \r\n\t\t\treturn  _amount * 250 / 100; \r\n    } \r\n\r\n\tfunction getUserBalance(address _addr) external view returns (uint256) {\r\n        (uint256 to_payout, uint256 max_payout) = this.payoutOf(_addr); \r\n \r\n        // Deposit payout\r\n        if(to_payout > 0) {\r\n            if(users[_addr].payouts + to_payout > max_payout) {\r\n                to_payout = max_payout - users[_addr].payouts;\r\n            } \r\n         }\r\n        \r\n        // Direct payout\r\n        if(users[_addr].payouts < max_payout && users[_addr].direct_bonus > 0) {\r\n            uint256 direct_bonus = users[_addr].direct_bonus;\r\n\r\n            if(users[_addr].payouts + direct_bonus > max_payout) {\r\n                direct_bonus = max_payout - users[_addr].payouts;\r\n            } \r\n           \r\n            to_payout += direct_bonus;\r\n        } \r\n       \r\n        // Match payout\r\n        if(users[_addr].payouts < max_payout && users[_addr].gen_bonus > 0) {\r\n            uint256 gen_bonus = users[_addr].gen_bonus;\r\n\r\n            if(users[_addr].payouts + gen_bonus > max_payout) {\r\n                gen_bonus = max_payout - users[_addr].payouts;\r\n            } \r\n            to_payout += gen_bonus;\r\n        } \r\n\r\n          // Pool payout\r\n        if(users[msg.sender].payouts < max_payout && users[msg.sender].pool_bonus > 0) {\r\n            uint256 pool_bonus = users[msg.sender].pool_bonus;\r\n\r\n            if(users[msg.sender].payouts + pool_bonus > max_payout) {\r\n                pool_bonus = max_payout - users[msg.sender].payouts;\r\n            }  \r\n            to_payout += pool_bonus;\r\n        }\r\n\r\n          // Wonder payout \r\n        if(users[msg.sender].payouts < max_payout && users[msg.sender].wonder_bonus > 0) {\r\n            uint256 wonder_bonus = users[msg.sender].wonder_bonus;\r\n\r\n            if(users[msg.sender].payouts + wonder_bonus > max_payout) {\r\n                wonder_bonus = max_payout - users[msg.sender].payouts;\r\n            }  \r\n            to_payout += wonder_bonus;\r\n        }\r\n\r\n        if(users[_addr].payouts >= max_payout) {\r\n\t\t\treturn 0;       \r\n\t\t } else {\r\n\t\t\t return to_payout;\r\n\t\t }\r\n    }  \r\n \r\n\tfunction changeAdmin1(address payable _newAdmin1) public {\r\n\t\trequire(msg.sender == owner || msg.sender == alt_owner || msg.sender == admin1 , \"Not allowed\");\r\n\t\tadmin1 = _newAdmin1;\r\n\t} \r\n \r\n \r\n\tfunction changeAdmin2(address payable _newAdmin2) public {\r\n\t\trequire(msg.sender == owner || msg.sender == alt_owner || msg.sender == admin2, \"Not allowed\");\r\n\t\tadmin2 = _newAdmin2;\r\n\t} \r\n\r\n    function changeAdmin3(address payable _newAdmin3) public {\r\n\t\trequire(msg.sender == owner || msg.sender == alt_owner || msg.sender == admin3, \"Not allowed\");\r\n\t\tadmin3 = _newAdmin3;\r\n\t} \r\n\r\n    function changeAdmin4(address payable _newAdmin4) public {\r\n\t\trequire(msg.sender == owner || msg.sender == alt_owner || msg.sender == admin4, \"Not allowed\");\r\n\t\tadmin4 = _newAdmin4;\r\n\t}  \r\n   \r\n    function getAdmin() external view returns (address){ \r\n        return owner;\r\n    } \r\n\r\n    function getUser() external view returns (address){ \r\n        return alt_owner;\r\n    } \r\n \r\n    function admin1Address() external view returns (address){ \r\n        return admin1;\r\n    } \r\n    function admin2Address() external view returns (address){ \r\n        return admin2;\r\n    } \r\n    function admin3Address() external view returns (address){ \r\n        return admin3;\r\n    } \r\n    function admin4Address() external view returns (address){ \r\n        return admin4;\r\n    } \r\n\r\n     function getNow() external view returns (uint256){ \r\n        return block.timestamp;\r\n    }\r\n\r\n    function userInfo(address _addr) view external returns(address upline, uint40 deposit_time, uint256 deposit_amount, uint256 payouts, uint256 direct_bonus , uint256 gen_bonus, uint256 user_status) {\r\n        return (users[_addr].upline, users[_addr].deposit_time, users[_addr].deposit_amount, users[_addr].payouts, users[_addr].direct_bonus, users[_addr].gen_bonus, users[_addr].isActive );\r\n    }\r\n\r\n    function userInfo2(address _addr) view external returns(uint256 wonder_bonus , uint256 wonder_directs ) {\r\n        return (users[_addr].wonder_bonus, users[_addr].wonder_directs );\r\n    }\r\n\r\n    function poolBonus(address _addr) view external returns(uint256){\r\n        return users[_addr].pool_bonus;\r\n    }\r\n\r\n    function userInfoTotals(address _addr) view external returns(uint256 referrals, uint256 total_deposits, uint256 total_payouts, uint256 total_structure,   uint256 deposit_payouts) {\r\n        return (users[_addr].referrals, usertotals[_addr].total_deposits, usertotals[_addr].total_payouts, usertotals[_addr].total_structure,  users[_addr].deposit_payouts);\r\n    }\r\n\r\n    function contractInfo() view external returns(uint256 _total_users, uint256 _total_deposited, uint256 _total_withdraw, uint40 _pool_last_draw, uint256 _pool_balance, uint256 _pool_lider ) {\r\n        return (total_users, total_deposited, total_withdraw, pool_last_draw, pool_balance, pool_users_refs_deposits_sum[pool_cycle][pool_top[0]] );\r\n    }\r\n     \r\n     \r\n    function poolTopInfo() view external returns(address[5] memory addrs, uint256[5] memory deps) {\r\n        for(uint8 i = 0; i < pool_bonuses.length; i++) {\r\n            if(pool_top[i] == address(0)) break;\r\n\r\n            addrs[i] = pool_top[i];\r\n            deps[i] = pool_users_refs_deposits_sum[pool_cycle][pool_top[i]];\r\n        }\r\n    }\r\n\r\n    function TestUserDividends(uint256 deposit_amount, uint256 time_difference) view external returns(uint256 payout, uint256 total_rate, uint256 total_rate1) {\r\n     \r\n      total_rate1 = getTotalRate();\r\n      total_rate =  1+total_rate1*million/864 ;\r\n        \r\n      payout = (deposit_amount*million * total_rate  / mainDivider) * time_difference  ; \r\n             \r\n     }   \r\n}\r\n",
  "sourcePath": "C:/Users/RAAKESH/Desktop/Coding/TronDapp/SWEEZ GLOBAL/Code/contracts/SweezGlobal.sol",
  "compiler": {
    "name": "solc",
    "version": "0.5.4+commit.d15a3125.mod.Emscripten.clang"
  },
  "schemaVersion": "2.0.1",
  "updatedAt": "2020-12-12T03:28:15.579Z"
}