{
  "contractName": "T_20",
  "abi": [
    {
      "constant": true,
      "inputs": [
        {
          "name": "deposit_amount",
          "type": "uint256"
        },
        {
          "name": "Period",
          "type": "uint256"
        },
        {
          "name": "ROI_10",
          "type": "uint256"
        }
      ],
      "name": "comp_interest",
      "outputs": [
        {
          "name": "",
          "type": "uint256"
        }
      ],
      "payable": false,
      "stateMutability": "pure",
      "type": "function"
    }
  ],
  "bytecode": "0x608060405234801561001057600080fd5b50d3801561001d57600080fd5b50d2801561002a57600080fd5b506101478061003a6000396000f3fe608060405234801561001057600080fd5b50d3801561001d57600080fd5b50d2801561002a57600080fd5b5060043610610062576000357c0100000000000000000000000000000000000000000000000000000000900480632892d87414610067575b600080fd5b6100a76004803603606081101561007d57600080fd5b810190808035906020019092919080359060200190929190803590602001909291905050506100bd565b6040518082815260200191505060405180910390f35b600080620f4240850290506000620f42408602905060008090505b8581101561010c57600a60648685028115156100f057fe5b048115156100fa57fe5b048301925080806001019150506100d8565b5080820392505050939250505056fea165627a7a72305820d6141ec99e5493133f3640fea269dbe29996cbce01a90b935489bd65d2e6b6830029",
  "source": "pragma solidity 0.5.4;\r\n\r\ncontract T_20 {\r\n\r\n    function comp_interest(uint256 deposit_amount, uint256 Period, uint256 ROI_10)pure external returns(uint256){\r\n        uint256 Principle = deposit_amount*1000000 ;\r\n        uint256 Principle1 = deposit_amount*1000000 ;\r\n        for (uint256 i=0; i<Period; i++) {\r\n          Principle += Principle* ROI_10/100/10;\r\n\r\n        }\r\n        return Principle - Principle1;\r\n    }\r\n}",
  "sourcePath": "C:/Users/RAAKESH/Desktop/Coding/TronDapp/AATRON BEAST/Code/contracts/T-20.sol",
  "compiler": {
    "name": "solc",
    "version": "0.5.4+commit.d15a3125.mod.Emscripten.clang"
  },
  "schemaVersion": "2.0.1",
  "updatedAt": "2021-02-23T05:46:48.820Z"
}