{
  "contractName": "TokenTransfer",
  "abi": [
    {
      "constant": true,
      "inputs": [],
      "name": "rkg",
      "outputs": [
        {
          "name": "",
          "type": "address"
        }
      ],
      "payable": false,
      "stateMutability": "view",
      "type": "function"
    },
    {
      "constant": true,
      "inputs": [
        {
          "name": "",
          "type": "address"
        }
      ],
      "name": "users",
      "outputs": [
        {
          "name": "upline",
          "type": "address"
        },
        {
          "name": "direct_referrals",
          "type": "uint256"
        },
        {
          "name": "payouts",
          "type": "uint256"
        },
        {
          "name": "gen_bonus",
          "type": "uint256"
        },
        {
          "name": "instant_bonus",
          "type": "uint256"
        },
        {
          "name": "deposit_amount",
          "type": "uint256"
        },
        {
          "name": "deposit_payouts",
          "type": "uint256"
        },
        {
          "name": "deposit_time",
          "type": "uint40"
        },
        {
          "name": "total_deposits",
          "type": "uint256"
        },
        {
          "name": "total_payouts",
          "type": "uint256"
        },
        {
          "name": "isActive",
          "type": "uint256"
        },
        {
          "name": "direct_biz",
          "type": "uint256"
        }
      ],
      "payable": false,
      "stateMutability": "view",
      "type": "function"
    },
    {
      "inputs": [
        {
          "name": "_rkg",
          "type": "address"
        }
      ],
      "payable": false,
      "stateMutability": "nonpayable",
      "type": "constructor"
    },
    {
      "anonymous": false,
      "inputs": [
        {
          "indexed": true,
          "name": "from_",
          "type": "address"
        },
        {
          "indexed": true,
          "name": "to_",
          "type": "address"
        },
        {
          "indexed": false,
          "name": "amount_",
          "type": "uint256"
        }
      ],
      "name": "TransferSuccessful",
      "type": "event"
    },
    {
      "anonymous": false,
      "inputs": [
        {
          "indexed": true,
          "name": "from_",
          "type": "address"
        },
        {
          "indexed": true,
          "name": "to_",
          "type": "address"
        },
        {
          "indexed": false,
          "name": "amount_",
          "type": "uint256"
        }
      ],
      "name": "TransferFailed",
      "type": "event"
    },
    {
      "constant": false,
      "inputs": [
        {
          "name": "_amount",
          "type": "uint256"
        }
      ],
      "name": "deposit",
      "outputs": [],
      "payable": false,
      "stateMutability": "nonpayable",
      "type": "function"
    }
  ],
  "bytecode": "0x608060405234801561001057600080fd5b50d3801561001d57600080fd5b50d2801561002a57600080fd5b506040516020806107728339810180604052602081101561004a57600080fd5b8101908080519060200190929190505050806000806101000a81548173ffffffffffffffffffffffffffffffffffffffff021916908373ffffffffffffffffffffffffffffffffffffffff160217905550506106c7806100ab6000396000f3fe608060405234801561001057600080fd5b50d3801561001d57600080fd5b50d2801561002a57600080fd5b5060043610610078576000357c0100000000000000000000000000000000000000000000000000000000900480630f59968a1461007d578063a87430ba146100c7578063b6b55f25146101a6575b600080fd5b6100856101d4565b604051808273ffffffffffffffffffffffffffffffffffffffff1673ffffffffffffffffffffffffffffffffffffffff16815260200191505060405180910390f35b610109600480360360208110156100dd57600080fd5b81019080803573ffffffffffffffffffffffffffffffffffffffff1690602001909291905050506101f9565b604051808d73ffffffffffffffffffffffffffffffffffffffff1673ffffffffffffffffffffffffffffffffffffffff1681526020018c81526020018b81526020018a81526020018981526020018881526020018781526020018664ffffffffff1664ffffffffff1681526020018581526020018481526020018381526020018281526020019c5050505050505050505050505060405180910390f35b6101d2600480360360208110156101bc57600080fd5b810190808035906020019092919050505061028a565b005b6000809054906101000a900473ffffffffffffffffffffffffffffffffffffffff1681565b60016020528060005260406000206000915090508060000160009054906101000a900473ffffffffffffffffffffffffffffffffffffffff169080600101549080600201549080600801549080600901549080600a01549080600b01549080600c0160009054906101000a900464ffffffffff169080600d01549080600e01549080600f015490806010015490508c565b6102943382610297565b50565b6000811115156102a657600080fd5b6102b0308261035e565b80600160008473ffffffffffffffffffffffffffffffffffffffff1673ffffffffffffffffffffffffffffffffffffffff168152602001908152602001600020600a018190555042600160008473ffffffffffffffffffffffffffffffffffffffff1673ffffffffffffffffffffffffffffffffffffffff168152602001908152602001600020600c0160006101000a81548164ffffffffff021916908364ffffffffff1602179055505050565b60003390506000809054906101000a900473ffffffffffffffffffffffffffffffffffffffff1673ffffffffffffffffffffffffffffffffffffffff1663dd62ed3e82306040518363ffffffff167c0100000000000000000000000000000000000000000000000000000000028152600401808373ffffffffffffffffffffffffffffffffffffffff1673ffffffffffffffffffffffffffffffffffffffff1681526020018273ffffffffffffffffffffffffffffffffffffffff1673ffffffffffffffffffffffffffffffffffffffff1681526020019250505060206040518083038186803b15801561045157600080fd5b505afa158015610465573d6000803e3d6000fd5b505050506040513d602081101561047b57600080fd5b81019080805190602001909291905050508211156104fd578273ffffffffffffffffffffffffffffffffffffffff168173ffffffffffffffffffffffffffffffffffffffff167fbf182be802245e8ed88e4b8d3e4344c0863dd2a70334f089fd07265389306fcf846040518082815260200191505060405180910390a3600080fd5b6000809054906101000a900473ffffffffffffffffffffffffffffffffffffffff1673ffffffffffffffffffffffffffffffffffffffff166323b872dd8285856040518463ffffffff167c0100000000000000000000000000000000000000000000000000000000028152600401808473ffffffffffffffffffffffffffffffffffffffff1673ffffffffffffffffffffffffffffffffffffffff1681526020018373ffffffffffffffffffffffffffffffffffffffff1673ffffffffffffffffffffffffffffffffffffffff1681526020018281526020019350505050602060405180830381600087803b1580156105f557600080fd5b505af1158015610609573d6000803e3d6000fd5b505050506040513d602081101561061f57600080fd5b8101908080519060200190929190505050508273ffffffffffffffffffffffffffffffffffffffff168173ffffffffffffffffffffffffffffffffffffffff167fd6d3eb25a413c05d8107fc49deb2789bef7f612582b2482804c0b0423b6638ee846040518082815260200191505060405180910390a350505056fea165627a7a7230582088c4fd127a38e8033b39c6d6f963859ffd5fb42fdbd3f9afe65c7c26910a5f230029",
  "source": "pragma solidity 0.5.4; \r\nimport \"./RKG.sol\";  // TA2EDEgytsPYu27kkZtDpFBz85as8vPqsX\r\n\r\n\r\ncontract TokenTransfer{\r\n    RKG public rkg; \r\n\r\n    struct User{\r\n        address upline ;\r\n        uint256 direct_referrals ;\r\n        uint256 payouts ;\r\n        uint256[5] level_income;\r\n        uint256 gen_bonus ;\r\n        uint256 instant_bonus ;\r\n        uint256 deposit_amount ;\r\n        uint256 deposit_payouts ;\r\n        uint40 deposit_time ;\r\n        uint256 total_deposits ;\r\n        uint256 total_payouts ;\r\n        uint256 isActive ;\r\n        uint256 direct_biz ;\r\n    }\r\n   \r\n    mapping(address => User) public users ;\r\n \r\n    constructor(RKG _rkg) public {\r\n        rkg = _rkg;\r\n    }\r\n\r\n    event TransferSuccessful(address indexed from_, address indexed to_, uint256 amount_);\r\n\r\n    event TransferFailed(address indexed from_, address indexed to_, uint256 amount_);\r\n\r\n    function deposit(uint256 _amount) public {\r\n        _deposit(msg.sender, _amount);\r\n    }\r\n\r\n    function _deposit(address _addr, uint256 _amount) private { \r\n\r\n         require(_amount > 0);\r\n         transferTokens(address(this), _amount); \r\n         users[_addr].deposit_amount = _amount;\r\n         users[_addr].deposit_time = uint40(block.timestamp);\r\n\r\n    }\r\n\r\n   function transferTokens(address to_, uint256 amount_) private  {\r\n \r\n         address from_ = msg.sender;\r\n \r\n        if(amount_ > rkg.allowance(from_, address(this))) {\r\n            emit TransferFailed(from_, to_, amount_);\r\n            revert();\r\n        }\r\n\r\n        rkg.transferFrom(from_, to_, amount_); \r\n \r\n        emit TransferSuccessful(from_, to_, amount_);\r\n    }\r\n\r\n\r\n    // function deposit(uint256 _amount) payable external   { \r\n    //     _deposit(msg.sender, _amount); \r\n    // }\r\n}",
  "sourcePath": "C:/Users/RAAKESH/Desktop/Coding/TronDapp/AATRON BEAST/Code/contracts/TokenTransfer.sol",
  "compiler": {
    "name": "solc",
    "version": "0.5.4+commit.d15a3125.mod.Emscripten.clang"
  },
  "schemaVersion": "2.0.1",
  "updatedAt": "2021-03-22T03:38:54.440Z"
}