{
  "contractName": "TradeRKG",
  "abi": [
    {
      "constant": true,
      "inputs": [],
      "name": "rkg",
      "outputs": [
        {
          "name": "",
          "type": "address"
        }
      ],
      "payable": false,
      "stateMutability": "view",
      "type": "function"
    },
    {
      "constant": true,
      "inputs": [],
      "name": "buyMode",
      "outputs": [
        {
          "name": "",
          "type": "bool"
        }
      ],
      "payable": false,
      "stateMutability": "view",
      "type": "function"
    },
    {
      "constant": true,
      "inputs": [],
      "name": "sellMode",
      "outputs": [
        {
          "name": "",
          "type": "bool"
        }
      ],
      "payable": false,
      "stateMutability": "view",
      "type": "function"
    },
    {
      "constant": true,
      "inputs": [],
      "name": "sellPrice",
      "outputs": [
        {
          "name": "",
          "type": "uint256"
        }
      ],
      "payable": false,
      "stateMutability": "view",
      "type": "function"
    },
    {
      "constant": true,
      "inputs": [],
      "name": "buyPrice",
      "outputs": [
        {
          "name": "",
          "type": "uint256"
        }
      ],
      "payable": false,
      "stateMutability": "view",
      "type": "function"
    },
    {
      "constant": true,
      "inputs": [],
      "name": "owner",
      "outputs": [
        {
          "name": "",
          "type": "address"
        }
      ],
      "payable": false,
      "stateMutability": "view",
      "type": "function"
    },
    {
      "constant": true,
      "inputs": [
        {
          "name": "",
          "type": "address"
        }
      ],
      "name": "users",
      "outputs": [
        {
          "name": "upline",
          "type": "address"
        },
        {
          "name": "super_upline",
          "type": "address"
        },
        {
          "name": "super_business",
          "type": "uint256"
        },
        {
          "name": "total_buy",
          "type": "uint256"
        },
        {
          "name": "isSuper",
          "type": "bool"
        }
      ],
      "payable": false,
      "stateMutability": "view",
      "type": "function"
    },
    {
      "inputs": [
        {
          "name": "_rkg",
          "type": "address"
        },
        {
          "name": "_owner",
          "type": "address"
        }
      ],
      "payable": false,
      "stateMutability": "nonpayable",
      "type": "constructor"
    },
    {
      "payable": true,
      "stateMutability": "payable",
      "type": "fallback"
    },
    {
      "anonymous": false,
      "inputs": [
        {
          "indexed": true,
          "name": "from_",
          "type": "address"
        },
        {
          "indexed": true,
          "name": "to_",
          "type": "address"
        },
        {
          "indexed": false,
          "name": "amount_",
          "type": "uint256"
        }
      ],
      "name": "BuySuccessful",
      "type": "event"
    },
    {
      "anonymous": false,
      "inputs": [
        {
          "indexed": true,
          "name": "from_",
          "type": "address"
        },
        {
          "indexed": true,
          "name": "to_",
          "type": "address"
        },
        {
          "indexed": false,
          "name": "amount_",
          "type": "uint256"
        }
      ],
      "name": "SellSuccessful",
      "type": "event"
    },
    {
      "anonymous": false,
      "inputs": [
        {
          "indexed": true,
          "name": "from_",
          "type": "address"
        },
        {
          "indexed": true,
          "name": "to_",
          "type": "address"
        },
        {
          "indexed": false,
          "name": "amount_",
          "type": "uint256"
        }
      ],
      "name": "SellFailed",
      "type": "event"
    },
    {
      "constant": false,
      "inputs": [
        {
          "name": "_upline",
          "type": "address"
        },
        {
          "name": "_rkg_amount",
          "type": "uint256"
        }
      ],
      "name": "buy",
      "outputs": [],
      "payable": true,
      "stateMutability": "payable",
      "type": "function"
    },
    {
      "constant": false,
      "inputs": [
        {
          "name": "to_",
          "type": "address"
        },
        {
          "name": "_rkg_amount",
          "type": "uint256"
        }
      ],
      "name": "sell",
      "outputs": [],
      "payable": false,
      "stateMutability": "nonpayable",
      "type": "function"
    },
    {
      "constant": false,
      "inputs": [
        {
          "name": "_buyPrice",
          "type": "uint256"
        },
        {
          "name": "_sellPrice",
          "type": "uint256"
        }
      ],
      "name": "setBuySellPrice",
      "outputs": [
        {
          "name": "",
          "type": "bool"
        }
      ],
      "payable": false,
      "stateMutability": "nonpayable",
      "type": "function"
    },
    {
      "constant": false,
      "inputs": [
        {
          "name": "_buyMode",
          "type": "bool"
        },
        {
          "name": "_sellMode",
          "type": "bool"
        }
      ],
      "name": "setBuySellMode",
      "outputs": [
        {
          "name": "",
          "type": "bool"
        }
      ],
      "payable": false,
      "stateMutability": "nonpayable",
      "type": "function"
    },
    {
      "constant": false,
      "inputs": [
        {
          "name": "_newOwner",
          "type": "address"
        }
      ],
      "name": "transferOwnership",
      "outputs": [
        {
          "name": "",
          "type": "bool"
        }
      ],
      "payable": false,
      "stateMutability": "nonpayable",
      "type": "function"
    },
    {
      "constant": false,
      "inputs": [],
      "name": "withdraw",
      "outputs": [],
      "payable": false,
      "stateMutability": "nonpayable",
      "type": "function"
    },
    {
      "constant": true,
      "inputs": [
        {
          "name": "_addr",
          "type": "address"
        }
      ],
      "name": "superInfo",
      "outputs": [
        {
          "name": "upline",
          "type": "address"
        },
        {
          "name": "super_upline",
          "type": "address"
        },
        {
          "name": "super_business",
          "type": "uint256"
        },
        {
          "name": "isSuper",
          "type": "bool"
        },
        {
          "name": "user_rkg_balance",
          "type": "uint256"
        },
        {
          "name": "allowed",
          "type": "uint256"
        },
        {
          "name": "total_buy",
          "type": "uint256"
        }
      ],
      "payable": false,
      "stateMutability": "view",
      "type": "function"
    },
    {
      "constant": true,
      "inputs": [],
      "name": "contract_rkg_balance",
      "outputs": [
        {
          "name": "",
          "type": "uint256"
        }
      ],
      "payable": false,
      "stateMutability": "view",
      "type": "function"
    },
    {
      "constant": false,
      "inputs": [
        {
          "name": "_addr",
          "type": "address"
        }
      ],
      "name": "makeSuper",
      "outputs": [
        {
          "name": "",
          "type": "bool"
        }
      ],
      "payable": false,
      "stateMutability": "nonpayable",
      "type": "function"
    },
    {
      "constant": false,
      "inputs": [
        {
          "name": "_addr",
          "type": "address"
        }
      ],
      "name": "removeSuper",
      "outputs": [
        {
          "name": "",
          "type": "bool"
        }
      ],
      "payable": false,
      "stateMutability": "nonpayable",
      "type": "function"
    }
  ],
  "bytecode": "0x60806040526207a1206003556207a1206004556001600560006101000a81548160ff0219169083151502179055506000600560016101000a81548160ff02191690831515021790555034801561005457600080fd5b50d3801561006157600080fd5b50d2801561006e57600080fd5b506040516040806121bc8339810180604052604081101561008e57600080fd5b810190808051906020019092919080519060200190929190505050816000806101000a81548173ffffffffffffffffffffffffffffffffffffffff021916908373ffffffffffffffffffffffffffffffffffffffff16021790555080600160006101000a81548173ffffffffffffffffffffffffffffffffffffffff021916908373ffffffffffffffffffffffffffffffffffffffff16021790555050506120818061013b6000396000f3fe60806040526004361061011b576000357c0100000000000000000000000000000000000000000000000000000000900480636c197ff5116100b25780638da5cb5b116100815780638da5cb5b1461064d578063a87430ba146106be578063cce7ec13146107b5578063e9031db414610803578063f2fde38b146108485761011b565b80636c197ff51461040b5780636fa477891461048057806382667bbc146105855780638620410b146106085761011b565b80633ccfd60b116100ee5780633ccfd60b146102d15780634b69cb4e146103025780634b7503341461034b57806368922697146103905761011b565b80630f59968a1461011d5780630f6753a11461018e5780632d816f93146101d7578063383b47c31461024e575b005b34801561012957600080fd5b50d3801561013657600080fd5b50d2801561014357600080fd5b5061014c6108cb565b604051808273ffffffffffffffffffffffffffffffffffffffff1673ffffffffffffffffffffffffffffffffffffffff16815260200191505060405180910390f35b34801561019a57600080fd5b50d380156101a757600080fd5b50d280156101b457600080fd5b506101bd6108f0565b604051808215151515815260200191505060405180910390f35b3480156101e357600080fd5b50d380156101f057600080fd5b50d280156101fd57600080fd5b506102346004803603604081101561021457600080fd5b810190808035906020019092919080359060200190929190505050610903565b604051808215151515815260200191505060405180910390f35b34801561025a57600080fd5b50d3801561026757600080fd5b50d2801561027457600080fd5b506102b76004803603602081101561028b57600080fd5b81019080803573ffffffffffffffffffffffffffffffffffffffff16906020019092919050505061091d565b604051808215151515815260200191505060405180910390f35b3480156102dd57600080fd5b50d380156102ea57600080fd5b50d280156102f757600080fd5b50610300610a48565b005b34801561030e57600080fd5b50d3801561031b57600080fd5b50d2801561032857600080fd5b50610331610b6d565b604051808215151515815260200191505060405180910390f35b34801561035757600080fd5b50d3801561036457600080fd5b50d2801561037157600080fd5b5061037a610b80565b6040518082815260200191505060405180910390f35b34801561039c57600080fd5b50d380156103a957600080fd5b50d280156103b657600080fd5b506103f1600480360360408110156103cd57600080fd5b81019080803515159060200190929190803515159060200190929190505050610b86565b604051808215151515815260200191505060405180910390f35b34801561041757600080fd5b50d3801561042457600080fd5b50d2801561043157600080fd5b5061047e6004803603604081101561044857600080fd5b81019080803573ffffffffffffffffffffffffffffffffffffffff16906020019092919080359060200190929190505050610bc6565b005b34801561048c57600080fd5b50d3801561049957600080fd5b50d280156104a657600080fd5b506104e9600480360360208110156104bd57600080fd5b81019080803573ffffffffffffffffffffffffffffffffffffffff1690602001909291905050506110fa565b604051808873ffffffffffffffffffffffffffffffffffffffff1673ffffffffffffffffffffffffffffffffffffffff1681526020018773ffffffffffffffffffffffffffffffffffffffff1673ffffffffffffffffffffffffffffffffffffffff1681526020018681526020018515151515815260200184815260200183815260200182815260200197505050505050505060405180910390f35b34801561059157600080fd5b50d3801561059e57600080fd5b50d280156105ab57600080fd5b506105ee600480360360208110156105c257600080fd5b81019080803573ffffffffffffffffffffffffffffffffffffffff1690602001909291905050506114db565b604051808215151515815260200191505060405180910390f35b34801561061457600080fd5b50d3801561062157600080fd5b50d2801561062e57600080fd5b50610637611606565b6040518082815260200191505060405180910390f35b34801561065957600080fd5b50d3801561066657600080fd5b50d2801561067357600080fd5b5061067c61160c565b604051808273ffffffffffffffffffffffffffffffffffffffff1673ffffffffffffffffffffffffffffffffffffffff16815260200191505060405180910390f35b3480156106ca57600080fd5b50d380156106d757600080fd5b50d280156106e457600080fd5b50610727600480360360208110156106fb57600080fd5b81019080803573ffffffffffffffffffffffffffffffffffffffff169060200190929190505050611632565b604051808673ffffffffffffffffffffffffffffffffffffffff1673ffffffffffffffffffffffffffffffffffffffff1681526020018573ffffffffffffffffffffffffffffffffffffffff1673ffffffffffffffffffffffffffffffffffffffff168152602001848152602001838152602001821515151581526020019550505050505060405180910390f35b610801600480360360408110156107cb57600080fd5b81019080803573ffffffffffffffffffffffffffffffffffffffff169060200190929190803590602001909291905050506116b5565b005b34801561080f57600080fd5b50d3801561081c57600080fd5b50d2801561082957600080fd5b50610832611f0d565b6040518082815260200191505060405180910390f35b34801561085457600080fd5b50d3801561086157600080fd5b50d2801561086e57600080fd5b506108b16004803603602081101561088557600080fd5b81019080803573ffffffffffffffffffffffffffffffffffffffff169060200190929190505050612009565b604051808215151515815260200191505060405180910390f35b6000809054906101000a900473ffffffffffffffffffffffffffffffffffffffff1681565b600560009054906101000a900460ff1681565b600082600381905550816004819055506001905092915050565b6000600160009054906101000a900473ffffffffffffffffffffffffffffffffffffffff1673ffffffffffffffffffffffffffffffffffffffff163373ffffffffffffffffffffffffffffffffffffffff161415156109e4576040517f08c379a00000000000000000000000000000000000000000000000000000000081526004018080602001828103825260128152602001807f5354414b453a204e6f7420416c6c6f776564000000000000000000000000000081525060200191505060405180910390fd5b6000600260008473ffffffffffffffffffffffffffffffffffffffff1673ffffffffffffffffffffffffffffffffffffffff16815260200190815260200160002060040160006101000a81548160ff02191690831515021790555060019050919050565b600160009054906101000a900473ffffffffffffffffffffffffffffffffffffffff1673ffffffffffffffffffffffffffffffffffffffff163373ffffffffffffffffffffffffffffffffffffffff16141515610b0d576040517f08c379a00000000000000000000000000000000000000000000000000000000081526004018080602001828103825260168152602001807f547261646520524b473a204e6f7420616c6c6f7765640000000000000000000081525060200191505060405180910390fd5b3373ffffffffffffffffffffffffffffffffffffffff166108fc3073ffffffffffffffffffffffffffffffffffffffff16319081150290604051600060405180830381858888f19350505050158015610b6a573d6000803e3d6000fd5b50565b600560019054906101000a900460ff1681565b60045481565b600082600560006101000a81548160ff02191690831515021790555081600560016101000a81548160ff0219169083151502179055506001905092915050565b6000809054906101000a900473ffffffffffffffffffffffffffffffffffffffff1673ffffffffffffffffffffffffffffffffffffffff166370a08231306040518263ffffffff167c0100000000000000000000000000000000000000000000000000000000028152600401808273ffffffffffffffffffffffffffffffffffffffff1673ffffffffffffffffffffffffffffffffffffffff16815260200191505060206040518083038186803b158015610c8057600080fd5b505afa158015610c94573d6000803e3d6000fd5b505050506040513d6020811015610caa57600080fd5b81019080805190602001909291905050508110151515610d32576040517f08c379a00000000000000000000000000000000000000000000000000000000081526004018080602001828103825260178152602001807f547261646520524b473a2053656c6c204f7574666c6f7700000000000000000081525060200191505060405180910390fd5b60011515600560019054906101000a900460ff161515141515610dbd576040517f08c379a000000000000000000000000000000000000000000000000000000000815260040180806020018281038252601b8152602001807f547261646520524b473a2053656c6c204d6f6465206973204f4646000000000081525060200191505060405180910390fd5b60003390506000809054906101000a900473ffffffffffffffffffffffffffffffffffffffff1673ffffffffffffffffffffffffffffffffffffffff1663dd62ed3e82306040518363ffffffff167c0100000000000000000000000000000000000000000000000000000000028152600401808373ffffffffffffffffffffffffffffffffffffffff1673ffffffffffffffffffffffffffffffffffffffff1681526020018273ffffffffffffffffffffffffffffffffffffffff1673ffffffffffffffffffffffffffffffffffffffff1681526020019250505060206040518083038186803b158015610eb057600080fd5b505afa158015610ec4573d6000803e3d6000fd5b505050506040513d6020811015610eda57600080fd5b8101908080519060200190929190505050821115610f5c578273ffffffffffffffffffffffffffffffffffffffff168173ffffffffffffffffffffffffffffffffffffffff167f20d5caa571ec59005e04720db17a0a36f61b63a5275958f0348d5dc144e97b7d846040518082815260200191505060405180910390a3600080fd5b6000809054906101000a900473ffffffffffffffffffffffffffffffffffffffff1673ffffffffffffffffffffffffffffffffffffffff166323b872dd8285856040518463ffffffff167c0100000000000000000000000000000000000000000000000000000000028152600401808473ffffffffffffffffffffffffffffffffffffffff1673ffffffffffffffffffffffffffffffffffffffff1681526020018373ffffffffffffffffffffffffffffffffffffffff1673ffffffffffffffffffffffffffffffffffffffff1681526020018281526020019350505050602060405180830381600087803b15801561105457600080fd5b505af1158015611068573d6000803e3d6000fd5b505050506040513d602081101561107e57600080fd5b8101908080519060200190929190505050508273ffffffffffffffffffffffffffffffffffffffff168173ffffffffffffffffffffffffffffffffffffffff167f07fcae2a4f2b736ed217db43b2c009a87ae9cba237a1ec910735ce85c39ec068846040518082815260200191505060405180910390a3505050565b6000806000806000806000600260008973ffffffffffffffffffffffffffffffffffffffff1673ffffffffffffffffffffffffffffffffffffffff16815260200190815260200160002060000160009054906101000a900473ffffffffffffffffffffffffffffffffffffffff16600260008a73ffffffffffffffffffffffffffffffffffffffff1673ffffffffffffffffffffffffffffffffffffffff16815260200190815260200160002060010160009054906101000a900473ffffffffffffffffffffffffffffffffffffffff16600260008b73ffffffffffffffffffffffffffffffffffffffff1673ffffffffffffffffffffffffffffffffffffffff16815260200190815260200160002060020154600260008c73ffffffffffffffffffffffffffffffffffffffff1673ffffffffffffffffffffffffffffffffffffffff16815260200190815260200160002060040160009054906101000a900460ff166000809054906101000a900473ffffffffffffffffffffffffffffffffffffffff1673ffffffffffffffffffffffffffffffffffffffff166370a082318d6040518263ffffffff167c0100000000000000000000000000000000000000000000000000000000028152600401808273ffffffffffffffffffffffffffffffffffffffff1673ffffffffffffffffffffffffffffffffffffffff16815260200191505060206040518083038186803b15801561131857600080fd5b505afa15801561132c573d6000803e3d6000fd5b505050506040513d602081101561134257600080fd5b81019080805190602001909291905050506000809054906101000a900473ffffffffffffffffffffffffffffffffffffffff1673ffffffffffffffffffffffffffffffffffffffff1663dd62ed3e8e306040518363ffffffff167c0100000000000000000000000000000000000000000000000000000000028152600401808373ffffffffffffffffffffffffffffffffffffffff1673ffffffffffffffffffffffffffffffffffffffff1681526020018273ffffffffffffffffffffffffffffffffffffffff1673ffffffffffffffffffffffffffffffffffffffff1681526020019250505060206040518083038186803b15801561144157600080fd5b505afa158015611455573d6000803e3d6000fd5b505050506040513d602081101561146b57600080fd5b8101908080519060200190929190505050600260008f73ffffffffffffffffffffffffffffffffffffffff1673ffffffffffffffffffffffffffffffffffffffff168152602001908152602001600020600301548696509650965096509650965096509650919395979092949650565b6000600160009054906101000a900473ffffffffffffffffffffffffffffffffffffffff1673ffffffffffffffffffffffffffffffffffffffff163373ffffffffffffffffffffffffffffffffffffffff161415156115a2576040517f08c379a00000000000000000000000000000000000000000000000000000000081526004018080602001828103825260128152602001807f5354414b453a204e6f7420416c6c6f776564000000000000000000000000000081525060200191505060405180910390fd5b6001600260008473ffffffffffffffffffffffffffffffffffffffff1673ffffffffffffffffffffffffffffffffffffffff16815260200190815260200160002060040160006101000a81548160ff02191690831515021790555060019050919050565b60035481565b600160009054906101000a900473ffffffffffffffffffffffffffffffffffffffff1681565b60026020528060005260406000206000915090508060000160009054906101000a900473ffffffffffffffffffffffffffffffffffffffff16908060010160009054906101000a900473ffffffffffffffffffffffffffffffffffffffff16908060020154908060030154908060040160009054906101000a900460ff16905085565b806000809054906101000a900473ffffffffffffffffffffffffffffffffffffffff1673ffffffffffffffffffffffffffffffffffffffff166370a08231306040518263ffffffff167c0100000000000000000000000000000000000000000000000000000000028152600401808273ffffffffffffffffffffffffffffffffffffffff1673ffffffffffffffffffffffffffffffffffffffff16815260200191505060206040518083038186803b15801561177057600080fd5b505afa158015611784573d6000803e3d6000fd5b505050506040513d602081101561179a57600080fd5b810190808051906020019092919050505010151515611821576040517f08c379a00000000000000000000000000000000000000000000000000000000081526004018080602001828103825260168152602001807f547261646520524b473a20427579204f7574666c6f770000000000000000000081525060200191505060405180910390fd5b60011515600560009054906101000a900460ff1615151415156118ac576040517f08c379a000000000000000000000000000000000000000000000000000000000815260040180806020018281038252601a8152602001807f547261646520524b473a20427579204d6f6465206973204f464600000000000081525060200191505060405180910390fd5b600060035482029050803414151561192c576040517f08c379a00000000000000000000000000000000000000000000000000000000081526004018080602001828103825260148152602001807f547261646520524b473a20496d62616c616e636500000000000000000000000081525060200191505060405180910390fd5b600073ffffffffffffffffffffffffffffffffffffffff168373ffffffffffffffffffffffffffffffffffffffff16141561198757600160009054906101000a900473ffffffffffffffffffffffffffffffffffffffff1692505b82600260003373ffffffffffffffffffffffffffffffffffffffff1673ffffffffffffffffffffffffffffffffffffffff16815260200190815260200160002060000160006101000a81548173ffffffffffffffffffffffffffffffffffffffff021916908373ffffffffffffffffffffffffffffffffffffffff16021790555060011515600260008573ffffffffffffffffffffffffffffffffffffffff1673ffffffffffffffffffffffffffffffffffffffff16815260200190815260200160002060040160009054906101000a900460ff1615151415611aea5782600260003373ffffffffffffffffffffffffffffffffffffffff1673ffffffffffffffffffffffffffffffffffffffff16815260200190815260200160002060010160006101000a81548173ffffffffffffffffffffffffffffffffffffffff021916908373ffffffffffffffffffffffffffffffffffffffff160217905550611bce565b600260008473ffffffffffffffffffffffffffffffffffffffff1673ffffffffffffffffffffffffffffffffffffffff16815260200190815260200160002060010160009054906101000a900473ffffffffffffffffffffffffffffffffffffffff16600260003373ffffffffffffffffffffffffffffffffffffffff1673ffffffffffffffffffffffffffffffffffffffff16815260200190815260200160002060010160006101000a81548173ffffffffffffffffffffffffffffffffffffffff021916908373ffffffffffffffffffffffffffffffffffffffff1602179055505b8160026000600260003373ffffffffffffffffffffffffffffffffffffffff1673ffffffffffffffffffffffffffffffffffffffff16815260200190815260200160002060010160009054906101000a900473ffffffffffffffffffffffffffffffffffffffff1673ffffffffffffffffffffffffffffffffffffffff1673ffffffffffffffffffffffffffffffffffffffff1681526020019081526020016000206002016000828254019250508190555081600260003373ffffffffffffffffffffffffffffffffffffffff1673ffffffffffffffffffffffffffffffffffffffff168152602001908152602001600020600301600082825401925050819055506000809054906101000a900473ffffffffffffffffffffffffffffffffffffffff1673ffffffffffffffffffffffffffffffffffffffff1663a9059cbb33620f424085026040518363ffffffff167c0100000000000000000000000000000000000000000000000000000000028152600401808373ffffffffffffffffffffffffffffffffffffffff1673ffffffffffffffffffffffffffffffffffffffff16815260200182815260200192505050602060405180830381600087803b158015611d9957600080fd5b505af1158015611dad573d6000803e3d6000fd5b505050506040513d6020811015611dc357600080fd5b8101908080519060200190929190505050508273ffffffffffffffffffffffffffffffffffffffff166108fc606460038402811515611dfe57fe5b049081150290604051600060405180830381858888f19350505050158015611e2a573d6000803e3d6000fd5b50600160009054906101000a900473ffffffffffffffffffffffffffffffffffffffff1673ffffffffffffffffffffffffffffffffffffffff166108fc606460618402811515611e7657fe5b049081150290604051600060405180830381858888f19350505050158015611ea2573d6000803e3d6000fd5b503373ffffffffffffffffffffffffffffffffffffffff163073ffffffffffffffffffffffffffffffffffffffff167f6367263c64f5f5ace01c20104a71ad482add026829ef394a1f69efc62fe4ddaf846040518082815260200191505060405180910390a3505050565b60008060009054906101000a900473ffffffffffffffffffffffffffffffffffffffff1673ffffffffffffffffffffffffffffffffffffffff166370a08231306040518263ffffffff167c0100000000000000000000000000000000000000000000000000000000028152600401808273ffffffffffffffffffffffffffffffffffffffff1673ffffffffffffffffffffffffffffffffffffffff16815260200191505060206040518083038186803b158015611fc957600080fd5b505afa158015611fdd573d6000803e3d6000fd5b505050506040513d6020811015611ff357600080fd5b8101908080519060200190929190505050905090565b600081600160006101000a81548173ffffffffffffffffffffffffffffffffffffffff021916908373ffffffffffffffffffffffffffffffffffffffff1602179055506001905091905056fea165627a7a723058204f7ef8bb59128844fd041ff0d469c6e9310de694fb63a8c59bd92201449768040029",
  "source": "pragma solidity 0.5.4; \r\nimport \"./RKG.sol\";  // TP8pbrEDLFgetKrGwWtSzYMFvWGa5jmico \r\n\r\ncontract TradeRKG{\r\n    \r\n    RKG public rkg;  \r\n    address payable public owner ;\r\n     \r\n    constructor(RKG _rkg, address payable _owner) public {\r\n        rkg = _rkg;\r\n        owner = _owner;\r\n    }\r\n\r\n    struct User{\r\n        address payable upline;\r\n        address super_upline;\r\n        uint256 super_business;\r\n        uint256 total_buy;\r\n        bool isSuper;\r\n    }\r\n\r\n    mapping(address => User) public users ;\r\n  \r\n    function() payable external { \r\n     \r\n    } \r\n\r\n    uint256 public buyPrice = 500000;\r\n    uint256 public sellPrice = 500000; \r\n\r\n    bool public buyMode = true;\r\n    bool public sellMode = false;\r\n    \r\n    event BuySuccessful(address indexed from_, address indexed to_, uint256 amount_); \r\n    event SellSuccessful(address indexed from_, address indexed to_, uint256 amount_); \r\n    event SellFailed(address indexed from_, address indexed to_, uint256 amount_);   \r\n \r\n    function buy(address payable _upline, uint256 _rkg_amount) public payable {\r\n        \r\n        require(rkg.balanceOf(address(this)) >= _rkg_amount, \"Trade RKG: Buy Outflow\");\r\n        require(buyMode == true, \"Trade RKG: Buy Mode is OFF\");\r\n\r\n        uint256 trxValue = _rkg_amount*buyPrice;\r\n        require(msg.value == trxValue, \"Trade RKG: Imbalance\");\r\n        \r\n        if(_upline == address(0)){\r\n            _upline = owner;\r\n        }  \r\n\r\n             users[msg.sender].upline = _upline;\r\n        \r\n        \r\n         if(users[_upline].isSuper == true){                     // check if upline is super\r\n            users[msg.sender].super_upline = _upline ;           // assign present up as superup\r\n        } else {\r\n            users[msg.sender].super_upline = users[_upline].super_upline ; // assign up's superup as superup\r\n        }\r\n\r\n        users[users[msg.sender].super_upline].super_business += _rkg_amount ; \r\n        users[msg.sender].total_buy += _rkg_amount;\r\n        rkg.transfer(msg.sender, _rkg_amount*1000000);\r\n        _upline.transfer(trxValue*3/100);\r\n        owner.transfer(trxValue*97/100);\r\n\r\n        emit BuySuccessful(address(this), msg.sender, _rkg_amount);\r\n    }\r\n\r\n    function sell(address to_, uint256 _rkg_amount) public {\r\n        \r\n        require(_rkg_amount >=  rkg.balanceOf(address(this)), \"Trade RKG: Sell Outflow\");\r\n        require(sellMode == true, \"Trade RKG: Sell Mode is OFF\");\r\n\r\n        address from_ = msg.sender;\r\n \r\n        if(_rkg_amount > rkg.allowance(from_, address(this))) {\r\n            emit SellFailed(from_, to_, _rkg_amount);\r\n            revert();\r\n        }\r\n\r\n        rkg.transferFrom(from_, to_, _rkg_amount); \r\n \r\n        emit SellSuccessful(from_, to_, _rkg_amount);\r\n    }\r\n\r\n    function setBuySellPrice(uint256 _buyPrice, uint256 _sellPrice) external returns(bool){\r\n        buyPrice = _buyPrice;\r\n        sellPrice = _sellPrice;\r\n        return true;\r\n    }\r\n\r\n    function setBuySellMode(bool _buyMode, bool _sellMode) external returns(bool){\r\n        buyMode = _buyMode;\r\n        sellMode = _sellMode;\r\n        return true;\r\n    }\r\n\r\n    function transferOwnership(address payable _newOwner) external returns(bool){\r\n        owner = _newOwner;\r\n        return true;\r\n   }\r\n\r\n    function withdraw() public {\r\n        require(msg.sender == owner, \"Trade RKG: Not allowed\");\r\n        msg.sender.transfer(address(this).balance) ;   \r\n    }\r\n\r\n    function superInfo(address _addr) view external returns(address upline, address super_upline, uint256 super_business, bool isSuper , uint256 user_rkg_balance, uint256 allowed, uint256 total_buy) {\r\n        return (users[_addr].upline, users[_addr].super_upline, users[_addr].super_business, users[_addr].isSuper , rkg.balanceOf(_addr), rkg.allowance(_addr, address(this)), users[_addr].total_buy);\r\n    }\r\n\r\n    function contract_rkg_balance() view external returns (uint256) {\r\n        return rkg.balanceOf(address(this));\r\n    }\r\n\r\n        function makeSuper(address _addr) external returns (bool){\r\n        require(msg.sender == owner, \"STAKE: Not Allowed\");\r\n        users[_addr].isSuper = true;\r\n        return true;\r\n    }\r\n    \r\n    function removeSuper(address _addr) external returns (bool){\r\n        require(msg.sender == owner, \"STAKE: Not Allowed\");\r\n        users[_addr].isSuper = false;\r\n        return true;\r\n    }\r\n}",
  "sourcePath": "C:/Users/RAAKESH/Desktop/Coding/TronDapp/AATRON BEAST/Code/contracts/TradeRKG.sol",
  "compiler": {
    "name": "solc",
    "version": "0.5.4+commit.d15a3125.mod.Emscripten.clang"
  },
  "schemaVersion": "2.0.1",
  "updatedAt": "2021-03-26T06:24:22.803Z"
}