{
  "contractName": "TronBeast",
  "abi": [
    {
      "constant": true,
      "inputs": [],
      "name": "admin2",
      "outputs": [
        {
          "name": "",
          "type": "address"
        }
      ],
      "payable": false,
      "stateMutability": "view",
      "type": "function"
    },
    {
      "constant": true,
      "inputs": [],
      "name": "tbt",
      "outputs": [
        {
          "name": "",
          "type": "address"
        }
      ],
      "payable": false,
      "stateMutability": "view",
      "type": "function"
    },
    {
      "constant": true,
      "inputs": [],
      "name": "admin1",
      "outputs": [
        {
          "name": "",
          "type": "address"
        }
      ],
      "payable": false,
      "stateMutability": "view",
      "type": "function"
    },
    {
      "constant": true,
      "inputs": [],
      "name": "one_day",
      "outputs": [
        {
          "name": "",
          "type": "uint256"
        }
      ],
      "payable": false,
      "stateMutability": "view",
      "type": "function"
    },
    {
      "constant": true,
      "inputs": [],
      "name": "admin3",
      "outputs": [
        {
          "name": "",
          "type": "address"
        }
      ],
      "payable": false,
      "stateMutability": "view",
      "type": "function"
    },
    {
      "constant": true,
      "inputs": [
        {
          "name": "",
          "type": "uint256"
        }
      ],
      "name": "roi_values",
      "outputs": [
        {
          "name": "",
          "type": "uint256"
        }
      ],
      "payable": false,
      "stateMutability": "view",
      "type": "function"
    },
    {
      "constant": true,
      "inputs": [
        {
          "name": "",
          "type": "uint256"
        }
      ],
      "name": "pack_values",
      "outputs": [
        {
          "name": "",
          "type": "uint256"
        }
      ],
      "payable": false,
      "stateMutability": "view",
      "type": "function"
    },
    {
      "constant": true,
      "inputs": [],
      "name": "three_day",
      "outputs": [
        {
          "name": "",
          "type": "uint256"
        }
      ],
      "payable": false,
      "stateMutability": "view",
      "type": "function"
    },
    {
      "constant": true,
      "inputs": [],
      "name": "tbt_price",
      "outputs": [
        {
          "name": "",
          "type": "uint256"
        }
      ],
      "payable": false,
      "stateMutability": "view",
      "type": "function"
    },
    {
      "constant": true,
      "inputs": [],
      "name": "user",
      "outputs": [
        {
          "name": "",
          "type": "address"
        }
      ],
      "payable": false,
      "stateMutability": "view",
      "type": "function"
    },
    {
      "constant": true,
      "inputs": [],
      "name": "total_tbt_sent",
      "outputs": [
        {
          "name": "",
          "type": "uint256"
        }
      ],
      "payable": false,
      "stateMutability": "view",
      "type": "function"
    },
    {
      "constant": true,
      "inputs": [],
      "name": "tbt_min_deposit",
      "outputs": [
        {
          "name": "",
          "type": "uint256"
        }
      ],
      "payable": false,
      "stateMutability": "view",
      "type": "function"
    },
    {
      "constant": true,
      "inputs": [],
      "name": "owner",
      "outputs": [
        {
          "name": "",
          "type": "address"
        }
      ],
      "payable": false,
      "stateMutability": "view",
      "type": "function"
    },
    {
      "constant": true,
      "inputs": [],
      "name": "total_withdraw",
      "outputs": [
        {
          "name": "",
          "type": "uint256"
        }
      ],
      "payable": false,
      "stateMutability": "view",
      "type": "function"
    },
    {
      "constant": true,
      "inputs": [
        {
          "name": "",
          "type": "address"
        }
      ],
      "name": "users",
      "outputs": [
        {
          "name": "upline",
          "type": "address"
        },
        {
          "name": "referrals",
          "type": "uint256"
        },
        {
          "name": "payouts",
          "type": "uint256"
        },
        {
          "name": "direct_bonus",
          "type": "uint256"
        },
        {
          "name": "deposit_amount",
          "type": "uint256"
        },
        {
          "name": "deposit_time",
          "type": "uint256"
        },
        {
          "name": "temp_directs_count",
          "type": "uint256"
        },
        {
          "name": "isActive",
          "type": "uint256"
        },
        {
          "name": "max_payout",
          "type": "uint256"
        },
        {
          "name": "payout_time",
          "type": "uint256"
        },
        {
          "name": "my_num",
          "type": "uint256"
        },
        {
          "name": "isReentry",
          "type": "bool"
        }
      ],
      "payable": false,
      "stateMutability": "view",
      "type": "function"
    },
    {
      "constant": true,
      "inputs": [],
      "name": "sunny",
      "outputs": [
        {
          "name": "",
          "type": "uint256"
        }
      ],
      "payable": false,
      "stateMutability": "view",
      "type": "function"
    },
    {
      "constant": true,
      "inputs": [
        {
          "name": "",
          "type": "uint256"
        }
      ],
      "name": "tbt_offer",
      "outputs": [
        {
          "name": "",
          "type": "uint256"
        }
      ],
      "payable": false,
      "stateMutability": "view",
      "type": "function"
    },
    {
      "constant": true,
      "inputs": [
        {
          "name": "",
          "type": "uint256"
        }
      ],
      "name": "ref_bonuses",
      "outputs": [
        {
          "name": "",
          "type": "uint256"
        }
      ],
      "payable": false,
      "stateMutability": "view",
      "type": "function"
    },
    {
      "constant": true,
      "inputs": [],
      "name": "deposit_value",
      "outputs": [
        {
          "name": "",
          "type": "uint256"
        }
      ],
      "payable": false,
      "stateMutability": "view",
      "type": "function"
    },
    {
      "constant": true,
      "inputs": [],
      "name": "tenk_users",
      "outputs": [
        {
          "name": "",
          "type": "uint256"
        }
      ],
      "payable": false,
      "stateMutability": "view",
      "type": "function"
    },
    {
      "constant": true,
      "inputs": [
        {
          "name": "",
          "type": "address"
        }
      ],
      "name": "users2",
      "outputs": [
        {
          "name": "total_deposits",
          "type": "uint256"
        },
        {
          "name": "total_payouts",
          "type": "uint256"
        },
        {
          "name": "total_structure",
          "type": "uint256"
        },
        {
          "name": "deposit_count",
          "type": "uint256"
        },
        {
          "name": "locked_balance",
          "type": "uint256"
        },
        {
          "name": "next_min_deposit",
          "type": "uint256"
        },
        {
          "name": "tbt_from_withdrawal",
          "type": "uint256"
        },
        {
          "name": "tbt_from_deposit",
          "type": "uint256"
        },
        {
          "name": "total_tbt",
          "type": "uint256"
        }
      ],
      "payable": false,
      "stateMutability": "view",
      "type": "function"
    },
    {
      "constant": true,
      "inputs": [],
      "name": "total_deposited",
      "outputs": [
        {
          "name": "",
          "type": "uint256"
        }
      ],
      "payable": false,
      "stateMutability": "view",
      "type": "function"
    },
    {
      "constant": true,
      "inputs": [],
      "name": "two_day",
      "outputs": [
        {
          "name": "",
          "type": "uint256"
        }
      ],
      "payable": false,
      "stateMutability": "view",
      "type": "function"
    },
    {
      "constant": true,
      "inputs": [
        {
          "name": "",
          "type": "uint256"
        }
      ],
      "name": "next_deposit",
      "outputs": [
        {
          "name": "",
          "type": "uint256"
        }
      ],
      "payable": false,
      "stateMutability": "view",
      "type": "function"
    },
    {
      "constant": true,
      "inputs": [],
      "name": "total_users",
      "outputs": [
        {
          "name": "",
          "type": "uint256"
        }
      ],
      "payable": false,
      "stateMutability": "view",
      "type": "function"
    },
    {
      "inputs": [
        {
          "name": "_owner",
          "type": "address"
        },
        {
          "name": "_tbt",
          "type": "address"
        }
      ],
      "payable": false,
      "stateMutability": "nonpayable",
      "type": "constructor"
    },
    {
      "anonymous": false,
      "inputs": [
        {
          "indexed": true,
          "name": "addr",
          "type": "address"
        },
        {
          "indexed": true,
          "name": "upline",
          "type": "address"
        }
      ],
      "name": "Upline",
      "type": "event"
    },
    {
      "anonymous": false,
      "inputs": [
        {
          "indexed": true,
          "name": "addr",
          "type": "address"
        },
        {
          "indexed": false,
          "name": "amount",
          "type": "uint256"
        }
      ],
      "name": "NewDeposit",
      "type": "event"
    },
    {
      "anonymous": false,
      "inputs": [
        {
          "indexed": true,
          "name": "addr",
          "type": "address"
        },
        {
          "indexed": true,
          "name": "from",
          "type": "address"
        },
        {
          "indexed": false,
          "name": "amount",
          "type": "uint256"
        }
      ],
      "name": "DirectPayout",
      "type": "event"
    },
    {
      "anonymous": false,
      "inputs": [
        {
          "indexed": true,
          "name": "addr",
          "type": "address"
        },
        {
          "indexed": false,
          "name": "amount",
          "type": "uint256"
        }
      ],
      "name": "Withdraw",
      "type": "event"
    },
    {
      "anonymous": false,
      "inputs": [
        {
          "indexed": true,
          "name": "addr",
          "type": "address"
        },
        {
          "indexed": false,
          "name": "amount",
          "type": "uint256"
        }
      ],
      "name": "LimitReached",
      "type": "event"
    },
    {
      "constant": false,
      "inputs": [
        {
          "name": "_upline",
          "type": "address"
        }
      ],
      "name": "deposit",
      "outputs": [],
      "payable": true,
      "stateMutability": "payable",
      "type": "function"
    },
    {
      "constant": false,
      "inputs": [
        {
          "name": "_addr",
          "type": "address"
        }
      ],
      "name": "withdraw",
      "outputs": [],
      "payable": false,
      "stateMutability": "nonpayable",
      "type": "function"
    },
    {
      "constant": true,
      "inputs": [],
      "name": "getContractBalance",
      "outputs": [
        {
          "name": "",
          "type": "uint256"
        }
      ],
      "payable": false,
      "stateMutability": "view",
      "type": "function"
    },
    {
      "constant": false,
      "inputs": [
        {
          "name": "_newAdmin1",
          "type": "address"
        }
      ],
      "name": "changeAdmin1",
      "outputs": [],
      "payable": false,
      "stateMutability": "nonpayable",
      "type": "function"
    },
    {
      "constant": false,
      "inputs": [
        {
          "name": "_newAdmin2",
          "type": "address"
        }
      ],
      "name": "changeAdmin2",
      "outputs": [],
      "payable": false,
      "stateMutability": "nonpayable",
      "type": "function"
    },
    {
      "constant": false,
      "inputs": [
        {
          "name": "_newAdmin3",
          "type": "address"
        }
      ],
      "name": "changeAdmin3",
      "outputs": [],
      "payable": false,
      "stateMutability": "nonpayable",
      "type": "function"
    },
    {
      "constant": false,
      "inputs": [
        {
          "name": "_newOwner",
          "type": "address"
        }
      ],
      "name": "changeOwner",
      "outputs": [],
      "payable": false,
      "stateMutability": "nonpayable",
      "type": "function"
    },
    {
      "constant": true,
      "inputs": [],
      "name": "getAdmin",
      "outputs": [
        {
          "name": "",
          "type": "address"
        }
      ],
      "payable": false,
      "stateMutability": "view",
      "type": "function"
    },
    {
      "constant": true,
      "inputs": [],
      "name": "getAdmins",
      "outputs": [
        {
          "name": "_admin1",
          "type": "address"
        },
        {
          "name": "_admin2",
          "type": "address"
        },
        {
          "name": "_admin3",
          "type": "address"
        }
      ],
      "payable": false,
      "stateMutability": "view",
      "type": "function"
    },
    {
      "constant": true,
      "inputs": [],
      "name": "getUser",
      "outputs": [
        {
          "name": "",
          "type": "address"
        }
      ],
      "payable": false,
      "stateMutability": "view",
      "type": "function"
    },
    {
      "constant": true,
      "inputs": [],
      "name": "getNow",
      "outputs": [
        {
          "name": "",
          "type": "uint256"
        }
      ],
      "payable": false,
      "stateMutability": "view",
      "type": "function"
    },
    {
      "constant": true,
      "inputs": [
        {
          "name": "_addr",
          "type": "address"
        }
      ],
      "name": "userInfo",
      "outputs": [
        {
          "name": "upline",
          "type": "address"
        },
        {
          "name": "deposit_time",
          "type": "uint256"
        },
        {
          "name": "payout_time",
          "type": "uint256"
        },
        {
          "name": "deposit_amount",
          "type": "uint256"
        },
        {
          "name": "direct_bonus",
          "type": "uint256"
        },
        {
          "name": "user_status",
          "type": "uint256"
        },
        {
          "name": "my_num",
          "type": "uint256"
        }
      ],
      "payable": false,
      "stateMutability": "view",
      "type": "function"
    },
    {
      "constant": true,
      "inputs": [
        {
          "name": "_addr",
          "type": "address"
        }
      ],
      "name": "tbtInfo",
      "outputs": [
        {
          "name": "from_deposit",
          "type": "uint256"
        },
        {
          "name": "from_withdrawal",
          "type": "uint256"
        },
        {
          "name": "total_tbt1",
          "type": "uint256"
        },
        {
          "name": "tbt_bal",
          "type": "uint256"
        },
        {
          "name": "contract_tbt_bal",
          "type": "uint256"
        }
      ],
      "payable": false,
      "stateMutability": "view",
      "type": "function"
    },
    {
      "constant": true,
      "inputs": [
        {
          "name": "_addr",
          "type": "address"
        }
      ],
      "name": "userInfo2",
      "outputs": [
        {
          "name": "temp_directs_count",
          "type": "uint256"
        },
        {
          "name": "next_deposit1",
          "type": "uint256"
        },
        {
          "name": "tbt_offer1",
          "type": "uint256"
        },
        {
          "name": "max_payout1",
          "type": "uint256"
        },
        {
          "name": "locked_balance1",
          "type": "uint256"
        },
        {
          "name": "isReentry",
          "type": "bool"
        }
      ],
      "payable": false,
      "stateMutability": "view",
      "type": "function"
    },
    {
      "constant": true,
      "inputs": [
        {
          "name": "_addr",
          "type": "address"
        }
      ],
      "name": "packInfo",
      "outputs": [
        {
          "name": "pack1",
          "type": "uint256"
        },
        {
          "name": "pack2",
          "type": "uint256"
        },
        {
          "name": "pack3",
          "type": "uint256"
        },
        {
          "name": "pack4",
          "type": "uint256"
        },
        {
          "name": "pack5",
          "type": "uint256"
        },
        {
          "name": "userpack",
          "type": "uint256"
        }
      ],
      "payable": false,
      "stateMutability": "view",
      "type": "function"
    },
    {
      "constant": true,
      "inputs": [
        {
          "name": "_addr",
          "type": "address"
        }
      ],
      "name": "levelInfo",
      "outputs": [
        {
          "name": "level1",
          "type": "uint256"
        },
        {
          "name": "level2",
          "type": "uint256"
        },
        {
          "name": "level3",
          "type": "uint256"
        }
      ],
      "payable": false,
      "stateMutability": "view",
      "type": "function"
    },
    {
      "constant": true,
      "inputs": [
        {
          "name": "_addr",
          "type": "address"
        }
      ],
      "name": "roiInfo",
      "outputs": [
        {
          "name": "roi1",
          "type": "uint256"
        },
        {
          "name": "roi2",
          "type": "uint256"
        },
        {
          "name": "roi3",
          "type": "uint256"
        },
        {
          "name": "roi4",
          "type": "uint256"
        },
        {
          "name": "roi5",
          "type": "uint256"
        },
        {
          "name": "userroi",
          "type": "uint256"
        }
      ],
      "payable": false,
      "stateMutability": "view",
      "type": "function"
    },
    {
      "constant": true,
      "inputs": [
        {
          "name": "_addr",
          "type": "address"
        }
      ],
      "name": "tbtOfferInfo",
      "outputs": [
        {
          "name": "tbtoffer1",
          "type": "uint256"
        },
        {
          "name": "tbtoffer2",
          "type": "uint256"
        },
        {
          "name": "tbtoffer3",
          "type": "uint256"
        },
        {
          "name": "tbtoffer4",
          "type": "uint256"
        },
        {
          "name": "tbtoffer5",
          "type": "uint256"
        },
        {
          "name": "usertbtoffer",
          "type": "uint256"
        }
      ],
      "payable": false,
      "stateMutability": "view",
      "type": "function"
    },
    {
      "constant": true,
      "inputs": [
        {
          "name": "_addr",
          "type": "address"
        }
      ],
      "name": "nextDepositInfo",
      "outputs": [
        {
          "name": "nextdeposit1",
          "type": "uint256"
        },
        {
          "name": "nextdeposit2",
          "type": "uint256"
        },
        {
          "name": "nextdeposit3",
          "type": "uint256"
        },
        {
          "name": "nextdeposit4",
          "type": "uint256"
        },
        {
          "name": "nextdeposit5",
          "type": "uint256"
        },
        {
          "name": "usernextdeposit",
          "type": "uint256"
        }
      ],
      "payable": false,
      "stateMutability": "view",
      "type": "function"
    },
    {
      "constant": true,
      "inputs": [
        {
          "name": "_addr",
          "type": "address"
        }
      ],
      "name": "userInfoTotals",
      "outputs": [
        {
          "name": "referrals",
          "type": "uint256"
        },
        {
          "name": "total_deposits",
          "type": "uint256"
        },
        {
          "name": "total_payouts",
          "type": "uint256"
        },
        {
          "name": "total_structure",
          "type": "uint256"
        }
      ],
      "payable": false,
      "stateMutability": "view",
      "type": "function"
    },
    {
      "constant": true,
      "inputs": [],
      "name": "contractInfo",
      "outputs": [
        {
          "name": "_total_users",
          "type": "uint256"
        },
        {
          "name": "_total_deposited",
          "type": "uint256"
        },
        {
          "name": "_total_withdraw",
          "type": "uint256"
        }
      ],
      "payable": false,
      "stateMutability": "view",
      "type": "function"
    }
  ],
  "bytecode": "0x60806040526301312d0060065560016009553480156200001e57600080fd5b50d380156200002c57600080fd5b50d280156200003a57600080fd5b506040516040806200569a833981018060405260408110156200005c57600080fd5b810190808051906020019092919080519060200190929190505050806000806101000a81548173ffffffffffffffffffffffffffffffffffffffff021916908373ffffffffffffffffffffffffffffffffffffffff16021790555081600d60006101000a81548173ffffffffffffffffffffffffffffffffffffffff021916908373ffffffffffffffffffffffffffffffffffffffff16021790555033600e60006101000a81548173ffffffffffffffffffffffffffffffffffffffff021916908373ffffffffffffffffffffffffffffffffffffffff16021790555033600f60006101000a81548173ffffffffffffffffffffffffffffffffffffffff021916908373ffffffffffffffffffffffffffffffffffffffff16021790555033601060006101000a81548173ffffffffffffffffffffffffffffffffffffffff021916908373ffffffffffffffffffffffffffffffffffffffff16021790555033601160006101000a81548173ffffffffffffffffffffffffffffffffffffffff021916908373ffffffffffffffffffffffffffffffffffffffff1602179055506003600590806001815401808255809150509060018203906000526020600020016000909192909190915055506003809080600181540180825580915050906001820390600052602060002001600090919290919091505550600360029080600181540180825580915050906001820390600052602060002001600090919290919091505550600162989680908060018154018082558091505090600182039060005260206000200160009091929091909150555060016302faf080908060018154018082558091505090600182039060005260206000200160009091929091909150555060016305f5e100908060018154018082558091505090600182039060005260206000200160009091929091909150555060016308f0d18090806001815401808255809150509060018203906000526020600020016000909192909190915055506001630bebc2009080600181540180825580915050906001820390600052602060002001600090919290919091505550600260c89080600181540180825580915050906001820390600052602060002001600090919290919091505550600260fa9080600181540180825580915050906001820390600052602060002001600090919290919091505550600261012c9080600181540180825580915050906001820390600052602060002001600090919290919091505550600261015e9080600181540180825580915050906001820390600052602060002001600090919290919091505550600261019090806001815401808255809150509060018203906000526020600020016000909192909190915055506004600090806001815401808255809150509060018203906000526020600020016000909192909190915055506004600e90806001815401808255809150509060018203906000526020600020016000909192909190915055506004601b90806001815401808255809150509060018203906000526020600020016000909192909190915055506004602690806001815401808255809150509060018203906000526020600020016000909192909190915055506004602e90806001815401808255809150509060018203906000526020600020016000909192909190915055506005601e90806001815401808255809150509060018203906000526020600020016000909192909190915055506005600f90806001815401808255809150509060018203906000526020600020016000909192909190915055506005601490806001815401808255809150509060018203906000526020600020016000909192909190915055506005601990806001815401808255809150509060018203906000526020600020016000909192909190915055506005601e90806001815401808255809150509060018203906000526020600020016000909192909190915055506298968060140260076000600d60009054906101000a900473ffffffffffffffffffffffffffffffffffffffff1673ffffffffffffffffffffffffffffffffffffffff1673ffffffffffffffffffffffffffffffffffffffff16815260200190815260200160002060040181905550600160086000600d60009054906101000a900473ffffffffffffffffffffffffffffffffffffffff1673ffffffffffffffffffffffffffffffffffffffff1673ffffffffffffffffffffffffffffffffffffffff168152602001908152602001600020600301819055506000600490505b6000811015156200083f576001818154811015156200071257fe5b90600052602060002001546298968080021115620008305760646298968080026002838154811015156200074257fe5b9060005260206000200154028115156200075857fe5b0460076000600d60009054906101000a900473ffffffffffffffffffffffffffffffffffffffff1673ffffffffffffffffffffffffffffffffffffffff1673ffffffffffffffffffffffffffffffffffffffff168152602001908152602001600020600801819055508060076000600d60009054906101000a900473ffffffffffffffffffffffffffffffffffffffff1673ffffffffffffffffffffffffffffffffffffffff1673ffffffffffffffffffffffffffffffffffffffff168152602001908152602001600020600a01819055506200083f565b808060019003915050620006f7565b50600160076000600d60009054906101000a900473ffffffffffffffffffffffffffffffffffffffff1673ffffffffffffffffffffffffffffffffffffffff1673ffffffffffffffffffffffffffffffffffffffff168152602001908152602001600020600701819055504260076000600d60009054906101000a900473ffffffffffffffffffffffffffffffffffffffff1673ffffffffffffffffffffffffffffffffffffffff1673ffffffffffffffffffffffffffffffffffffffff1681526020019081526020016000206005018190555062989680800260086000600d60009054906101000a900473ffffffffffffffffffffffffffffffffffffffff1673ffffffffffffffffffffffffffffffffffffffff1673ffffffffffffffffffffffffffffffffffffffff168152602001908152602001600020600001600082825401925050819055505050614cfe806200099c6000396000f3fe60806040526004361061029a576000357c0100000000000000000000000000000000000000000000000000000000900480638d38d01f1161016c578063bcce8475116100de578063e17ceb1911610097578063e17ceb19146114e4578063e21ef62614611529578063e696b6cf14611594578063e7cc62bd146115fd578063f0fd116014611642578063f340fa01146116ad5761029a565b8063bcce84751461121d578063bd1c918f14611262578063bf39a89c146112a7578063c3bfeb531461135e578063ca7c400314611404578063de560cca1461149f5761029a565b8063a6f9dae111610130578063a6f9dae114610f5a578063a87430ba14610fc5578063ab02dd7b146110c1578063b3a7727014611106578063b7d9f0d21461116f578063bbe4fd50146111d85761029a565b80638d38d01f14610d305780638da5cb5b14610d7557806390d9f58a14610de65780639a8318f414610e735780639e2ff5e514610eb85761029a565b806331ae450b1161021057806367b60374116101c957806367b6037414610a315780636e9960c314610ad35780636f9fb98a14610b4457806374b95b2d14610b8957806375e895ff14610c1d578063832880e714610cbf5761029a565b806331ae450b1461078957806340fc9f6d146108605780634496ff8f146108a55780634f8632ba1461091057806351cff8d9146109815780636582547a146109ec5761029a565b80631959a002116102625780631959a0021461048a5780631de46a781461055f5780631e4a21bb146105d057806324033fc21461067257806327211fde146106db5780632bc8a541146107445761029a565b806306a8f8a21461029f57806308a2626c14610310578063115976c4146103815780631484a26d146103f257806315c43aaf14610437575b600080fd5b3480156102ab57600080fd5b50d380156102b857600080fd5b50d280156102c557600080fd5b506102ce6116f1565b604051808273ffffffffffffffffffffffffffffffffffffffff1673ffffffffffffffffffffffffffffffffffffffff16815260200191505060405180910390f35b34801561031c57600080fd5b50d3801561032957600080fd5b50d2801561033657600080fd5b5061033f611717565b604051808273ffffffffffffffffffffffffffffffffffffffff1673ffffffffffffffffffffffffffffffffffffffff16815260200191505060405180910390f35b34801561038d57600080fd5b50d3801561039a57600080fd5b50d280156103a757600080fd5b506103b061173c565b604051808273ffffffffffffffffffffffffffffffffffffffff1673ffffffffffffffffffffffffffffffffffffffff16815260200191505060405180910390f35b3480156103fe57600080fd5b50d3801561040b57600080fd5b50d2801561041857600080fd5b50610421611762565b6040518082815260200191505060405180910390f35b34801561044357600080fd5b50d3801561045057600080fd5b50d2801561045d57600080fd5b50610466611767565b60405180848152602001838152602001828152602001935050505060405180910390f35b34801561049657600080fd5b50d380156104a357600080fd5b50d280156104b057600080fd5b506104f3600480360360208110156104c757600080fd5b81019080803573ffffffffffffffffffffffffffffffffffffffff169060200190929190505050611780565b604051808873ffffffffffffffffffffffffffffffffffffffff1673ffffffffffffffffffffffffffffffffffffffff16815260200187815260200186815260200185815260200184815260200183815260200182815260200197505050505050505060405180910390f35b34801561056b57600080fd5b50d3801561057857600080fd5b50d2801561058557600080fd5b5061058e61199c565b604051808273ffffffffffffffffffffffffffffffffffffffff1673ffffffffffffffffffffffffffffffffffffffff16815260200191505060405180910390f35b3480156105dc57600080fd5b50d380156105e957600080fd5b50d280156105f657600080fd5b506106396004803603602081101561060d57600080fd5b81019080803573ffffffffffffffffffffffffffffffffffffffff1690602001909291905050506119c2565b60405180878152602001868152602001858152602001848152602001838152602001828152602001965050505050505060405180910390f35b34801561067e57600080fd5b50d3801561068b57600080fd5b50d2801561069857600080fd5b506106c5600480360360208110156106af57600080fd5b8101908080359060200190929190505050611ac2565b6040518082815260200191505060405180910390f35b3480156106e757600080fd5b50d380156106f457600080fd5b50d2801561070157600080fd5b5061072e6004803603602081101561071857600080fd5b8101908080359060200190929190505050611ae5565b6040518082815260200191505060405180910390f35b34801561075057600080fd5b50d3801561075d57600080fd5b50d2801561076a57600080fd5b50610773611b08565b6040518082815260200191505060405180910390f35b34801561079557600080fd5b50d380156107a257600080fd5b50d280156107af57600080fd5b506107b8611b10565b604051808473ffffffffffffffffffffffffffffffffffffffff1673ffffffffffffffffffffffffffffffffffffffff1681526020018373ffffffffffffffffffffffffffffffffffffffff1673ffffffffffffffffffffffffffffffffffffffff1681526020018273ffffffffffffffffffffffffffffffffffffffff1673ffffffffffffffffffffffffffffffffffffffff168152602001935050505060405180910390f35b34801561086c57600080fd5b50d3801561087957600080fd5b50d2801561088657600080fd5b5061088f611b89565b6040518082815260200191505060405180910390f35b3480156108b157600080fd5b50d380156108be57600080fd5b50d280156108cb57600080fd5b5061090e600480360360208110156108e257600080fd5b81019080803573ffffffffffffffffffffffffffffffffffffffff169060200190929190505050611b8f565b005b34801561091c57600080fd5b50d3801561092957600080fd5b50d2801561093657600080fd5b5061093f611cf0565b604051808273ffffffffffffffffffffffffffffffffffffffff1673ffffffffffffffffffffffffffffffffffffffff16815260200191505060405180910390f35b34801561098d57600080fd5b50d3801561099a57600080fd5b50d280156109a757600080fd5b506109ea600480360360208110156109be57600080fd5b81019080803573ffffffffffffffffffffffffffffffffffffffff169060200190929190505050611d16565b005b3480156109f857600080fd5b50d38015610a0557600080fd5b50d28015610a1257600080fd5b50610a1b6126c5565b6040518082815260200191505060405180910390f35b348015610a3d57600080fd5b50d38015610a4a57600080fd5b50d28015610a5757600080fd5b50610a9a60048036036020811015610a6e57600080fd5b81019080803573ffffffffffffffffffffffffffffffffffffffff1690602001909291905050506126cb565b60405180878152602001868152602001858152602001848152602001838152602001828152602001965050505050505060405180910390f35b348015610adf57600080fd5b50d38015610aec57600080fd5b50d28015610af957600080fd5b50610b026127b3565b604051808273ffffffffffffffffffffffffffffffffffffffff1673ffffffffffffffffffffffffffffffffffffffff16815260200191505060405180910390f35b348015610b5057600080fd5b50d38015610b5d57600080fd5b50d28015610b6a57600080fd5b50610b736127dd565b6040518082815260200191505060405180910390f35b348015610b9557600080fd5b50d38015610ba257600080fd5b50d28015610baf57600080fd5b50610bf260048036036020811015610bc657600080fd5b81019080803573ffffffffffffffffffffffffffffffffffffffff1690602001909291905050506127fc565b6040518085815260200184815260200183815260200182815260200194505050505060405180910390f35b348015610c2957600080fd5b50d38015610c3657600080fd5b50d28015610c4357600080fd5b50610c8660048036036020811015610c5a57600080fd5b81019080803573ffffffffffffffffffffffffffffffffffffffff16906020019092919050505061291d565b60405180878152602001868152602001858152602001848152602001838152602001828152602001965050505050505060405180910390f35b348015610ccb57600080fd5b50d38015610cd857600080fd5b50d28015610ce557600080fd5b50610cee612a1d565b604051808273ffffffffffffffffffffffffffffffffffffffff1673ffffffffffffffffffffffffffffffffffffffff16815260200191505060405180910390f35b348015610d3c57600080fd5b50d38015610d4957600080fd5b50d28015610d5657600080fd5b50610d5f612a47565b6040518082815260200191505060405180910390f35b348015610d8157600080fd5b50d38015610d8e57600080fd5b50d28015610d9b57600080fd5b50610da4612a4f565b604051808273ffffffffffffffffffffffffffffffffffffffff1673ffffffffffffffffffffffffffffffffffffffff16815260200191505060405180910390f35b348015610df257600080fd5b50d38015610dff57600080fd5b50d28015610e0c57600080fd5b50610e4f60048036036020811015610e2357600080fd5b81019080803573ffffffffffffffffffffffffffffffffffffffff169060200190929190505050612a75565b60405180848152602001838152602001828152602001935050505060405180910390f35b348015610e7f57600080fd5b50d38015610e8c57600080fd5b50d28015610e9957600080fd5b50610ea2612b7d565b6040518082815260200191505060405180910390f35b348015610ec457600080fd5b50d38015610ed157600080fd5b50d28015610ede57600080fd5b50610f2160048036036020811015610ef557600080fd5b81019080803573ffffffffffffffffffffffffffffffffffffffff169060200190929190505050612b83565b60405180878152602001868152602001858152602001848152602001838152602001828152602001965050505050505060405180910390f35b348015610f6657600080fd5b50d38015610f7357600080fd5b50d28015610f8057600080fd5b50610fc360048036036020811015610f9757600080fd5b81019080803573ffffffffffffffffffffffffffffffffffffffff169060200190929190505050612c83565b005b348015610fd157600080fd5b50d38015610fde57600080fd5b50d28015610feb57600080fd5b5061102e6004803603602081101561100257600080fd5b81019080803573ffffffffffffffffffffffffffffffffffffffff169060200190929190505050612de4565b604051808d73ffffffffffffffffffffffffffffffffffffffff1673ffffffffffffffffffffffffffffffffffffffff1681526020018c81526020018b81526020018a8152602001898152602001888152602001878152602001868152602001858152602001848152602001838152602001821515151581526020019c5050505050505050505050505060405180910390f35b3480156110cd57600080fd5b50d380156110da57600080fd5b50d280156110e757600080fd5b506110f0612e71565b6040518082815260200191505060405180910390f35b34801561111257600080fd5b50d3801561111f57600080fd5b50d2801561112c57600080fd5b506111596004803603602081101561114357600080fd5b8101908080359060200190929190505050612e78565b6040518082815260200191505060405180910390f35b34801561117b57600080fd5b50d3801561118857600080fd5b50d2801561119557600080fd5b506111c2600480360360208110156111ac57600080fd5b8101908080359060200190929190505050612e9b565b6040518082815260200191505060405180910390f35b3480156111e457600080fd5b50d380156111f157600080fd5b50d280156111fe57600080fd5b50611207612ebe565b6040518082815260200191505060405180910390f35b34801561122957600080fd5b50d3801561123657600080fd5b50d2801561124357600080fd5b5061124c612ec6565b6040518082815260200191505060405180910390f35b34801561126e57600080fd5b50d3801561127b57600080fd5b50d2801561128857600080fd5b50611291612ecf565b6040518082815260200191505060405180910390f35b3480156112b357600080fd5b50d380156112c057600080fd5b50d280156112cd57600080fd5b50611310600480360360208110156112e457600080fd5b81019080803573ffffffffffffffffffffffffffffffffffffffff169060200190929190505050612ed4565b604051808a8152602001898152602001888152602001878152602001868152602001858152602001848152602001838152602001828152602001995050505050505050505060405180910390f35b34801561136a57600080fd5b50d3801561137757600080fd5b50d2801561138457600080fd5b506113c76004803603602081101561139b57600080fd5b81019080803573ffffffffffffffffffffffffffffffffffffffff169060200190929190505050612f22565b6040518087815260200186815260200185815260200184815260200183815260200182151515158152602001965050505050505060405180910390f35b34801561141057600080fd5b50d3801561141d57600080fd5b50d2801561142a57600080fd5b5061146d6004803603602081101561144157600080fd5b81019080803573ffffffffffffffffffffffffffffffffffffffff16906020019092919050505061314c565b604051808681526020018581526020018481526020018381526020018281526020019550505050505060405180910390f35b3480156114ab57600080fd5b50d380156114b857600080fd5b50d280156114c557600080fd5b506114ce61341a565b6040518082815260200191505060405180910390f35b3480156114f057600080fd5b50d380156114fd57600080fd5b50d2801561150a57600080fd5b50611513613420565b6040518082815260200191505060405180910390f35b34801561153557600080fd5b50d3801561154257600080fd5b50d2801561154f57600080fd5b506115926004803603602081101561156657600080fd5b81019080803573ffffffffffffffffffffffffffffffffffffffff169060200190929190505050613428565b005b3480156115a057600080fd5b50d380156115ad57600080fd5b50d280156115ba57600080fd5b506115e7600480360360208110156115d157600080fd5b8101908080359060200190929190505050613589565b6040518082815260200191505060405180910390f35b34801561160957600080fd5b50d3801561161657600080fd5b50d2801561162357600080fd5b5061162c6135ac565b6040518082815260200191505060405180910390f35b34801561164e57600080fd5b50d3801561165b57600080fd5b50d2801561166857600080fd5b506116ab6004803603602081101561167f57600080fd5b81019080803573ffffffffffffffffffffffffffffffffffffffff1690602001909291905050506135b2565b005b6116ef600480360360208110156116c357600080fd5b81019080803573ffffffffffffffffffffffffffffffffffffffff169060200190929190505050613713565b005b600f60009054906101000a900473ffffffffffffffffffffffffffffffffffffffff1681565b6000809054906101000a900473ffffffffffffffffffffffffffffffffffffffff1681565b600e60009054906101000a900473ffffffffffffffffffffffffffffffffffffffff1681565b60b481565b6000806000600954600a54600b54925092509250909192565b6000806000806000806000600760008973ffffffffffffffffffffffffffffffffffffffff1673ffffffffffffffffffffffffffffffffffffffff16815260200190815260200160002060000160009054906101000a900473ffffffffffffffffffffffffffffffffffffffff16600760008a73ffffffffffffffffffffffffffffffffffffffff1673ffffffffffffffffffffffffffffffffffffffff16815260200190815260200160002060050154600760008b73ffffffffffffffffffffffffffffffffffffffff1673ffffffffffffffffffffffffffffffffffffffff16815260200190815260200160002060090154600760008c73ffffffffffffffffffffffffffffffffffffffff1673ffffffffffffffffffffffffffffffffffffffff16815260200190815260200160002060040154600760008d73ffffffffffffffffffffffffffffffffffffffff1673ffffffffffffffffffffffffffffffffffffffff16815260200190815260200160002060030154600760008e73ffffffffffffffffffffffffffffffffffffffff1673ffffffffffffffffffffffffffffffffffffffff16815260200190815260200160002060070154600760008f73ffffffffffffffffffffffffffffffffffffffff1673ffffffffffffffffffffffffffffffffffffffff168152602001908152602001600020600a01548696509650965096509650965096509650919395979092949650565b601060009054906101000a900473ffffffffffffffffffffffffffffffffffffffff1681565b600080600080600080600260008154811015156119db57fe5b9060005260206000200154600260018154811015156119f657fe5b9060005260206000200154600280815481101515611a1057fe5b906000526020600020015460026003815481101515611a2b57fe5b906000526020600020015460026004815481101515611a4657fe5b90600052602060002001546002600760008e73ffffffffffffffffffffffffffffffffffffffff1673ffffffffffffffffffffffffffffffffffffffff168152602001908152602001600020600a0154815481101515611aa257fe5b906000526020600020015495509550955095509550955091939550919395565b600281815481101515611ad157fe5b906000526020600020016000915090505481565b600181815481101515611af457fe5b906000526020600020016000915090505481565b60b460030281565b6000806000600e60009054906101000a900473ffffffffffffffffffffffffffffffffffffffff169250600f60009054906101000a900473ffffffffffffffffffffffffffffffffffffffff169150601060009054906101000a900473ffffffffffffffffffffffffffffffffffffffff169050909192565b60065481565b600d60009054906101000a900473ffffffffffffffffffffffffffffffffffffffff1673ffffffffffffffffffffffffffffffffffffffff163373ffffffffffffffffffffffffffffffffffffffff161480611c385750601160009054906101000a900473ffffffffffffffffffffffffffffffffffffffff1673ffffffffffffffffffffffffffffffffffffffff163373ffffffffffffffffffffffffffffffffffffffff16145b1515611cac576040517f08c379a000000000000000000000000000000000000000000000000000000000815260040180806020018281038252600b8152602001807f4e6f7420616c6c6f77656400000000000000000000000000000000000000000081525060200191505060405180910390fd5b80601060006101000a81548173ffffffffffffffffffffffffffffffffffffffff021916908373ffffffffffffffffffffffffffffffffffffffff16021790555050565b601160009054906101000a900473ffffffffffffffffffffffffffffffffffffffff1681565b3373ffffffffffffffffffffffffffffffffffffffff168173ffffffffffffffffffffffffffffffffffffffff161480611d9d57503373ffffffffffffffffffffffffffffffffffffffff16601160009054906101000a900473ffffffffffffffffffffffffffffffffffffffff1673ffffffffffffffffffffffffffffffffffffffff16145b1515611e11576040517f08c379a00000000000000000000000000000000000000000000000000000000081526004018080602001828103825260028152602001807f4e4100000000000000000000000000000000000000000000000000000000000081525060200191505060405180910390fd5b600760008273ffffffffffffffffffffffffffffffffffffffff1673ffffffffffffffffffffffffffffffffffffffff16815260200190815260200160002060090154600760008373ffffffffffffffffffffffffffffffffffffffff1673ffffffffffffffffffffffffffffffffffffffff168152602001908152602001600020600501540142111515611f0e576040517f08c379a00000000000000000000000000000000000000000000000000000000081526004018080602001828103825260138152602001807f43616e6e6f74207769746864726177206e6f770000000000000000000000000081525060200191505060405180910390fd5b6001600760008373ffffffffffffffffffffffffffffffffffffffff1673ffffffffffffffffffffffffffffffffffffffff16815260200190815260200160002060070154141515611fc8576040517f08c379a00000000000000000000000000000000000000000000000000000000081526004018080602001828103825260128152602001807f55736572206973206e6f7420616374697665000000000000000000000000000081525060200191505060405180910390fd5b6000600a600760008473ffffffffffffffffffffffffffffffffffffffff1673ffffffffffffffffffffffffffffffffffffffff1681526020019081526020016000206008015460070281151561201b57fe5b049050600080600a600760008673ffffffffffffffffffffffffffffffffffffffff1673ffffffffffffffffffffffffffffffffffffffff1681526020019081526020016000206008015460030281151561207257fe5b04600860008673ffffffffffffffffffffffffffffffffffffffff1673ffffffffffffffffffffffffffffffffffffffff1681526020019081526020016000206004018190555060646004600760008773ffffffffffffffffffffffffffffffffffffffff1673ffffffffffffffffffffffffffffffffffffffff168152602001908152602001600020600a015481548110151561210c57fe5b9060005260206000200154840281151561212257fe5b04915060008211156123f7573073ffffffffffffffffffffffffffffffffffffffff16318210151561217a576127103073ffffffffffffffffffffffffffffffffffffffff163161270f0281151561217657fe5b0491505b60036009541115156121a757600a60065481151561219457fe5b048281151561219f57fe5b0490506121c4565b60056006548115156121b557fe5b04828115156121c057fe5b0490505b6000809054906101000a900473ffffffffffffffffffffffffffffffffffffffff1673ffffffffffffffffffffffffffffffffffffffff1663a9059cbb85620186a084026040518363ffffffff167c0100000000000000000000000000000000000000000000000000000000028152600401808373ffffffffffffffffffffffffffffffffffffffff1673ffffffffffffffffffffffffffffffffffffffff16815260200182815260200192505050602060405180830381600087803b15801561228d57600080fd5b505af11580156122a1573d6000803e3d6000fd5b505050506040513d60208110156122b757600080fd5b810190808051906020019092919050505050600e60009054906101000a900473ffffffffffffffffffffffffffffffffffffffff1673ffffffffffffffffffffffffffffffffffffffff166108fc839081150290604051600060405180830381858888f19350505050158015612331573d6000803e3d6000fd5b50620186a08102600c60008282540192505081905550620186a08102600860008673ffffffffffffffffffffffffffffffffffffffff1673ffffffffffffffffffffffffffffffffffffffff16815260200190815260200160002060060160008282540192505081905550620186a08102600860008673ffffffffffffffffffffffffffffffffffffffff1673ffffffffffffffffffffffffffffffffffffffff1681526020019081526020016000206008016000828254019250508190555081830392505b60646005600760008773ffffffffffffffffffffffffffffffffffffffff1673ffffffffffffffffffffffffffffffffffffffff168152602001908152602001600020600a015481548110151561244a57fe5b9060005260206000200154840281151561246057fe5b04600860008673ffffffffffffffffffffffffffffffffffffffff1673ffffffffffffffffffffffffffffffffffffffff168152602001908152602001600020600501819055503073ffffffffffffffffffffffffffffffffffffffff1631831015156124f3576127103073ffffffffffffffffffffffffffffffffffffffff163161270f028115156124ef57fe5b0492505b60008311151561256b576040517f08c379a000000000000000000000000000000000000000000000000000000000815260040180806020018281038252600b8152602001807f5a65726f207061796f757400000000000000000000000000000000000000000081525060200191505060405180910390fd5b82600860008673ffffffffffffffffffffffffffffffffffffffff1673ffffffffffffffffffffffffffffffffffffffff1681526020019081526020016000206001016000828254019250508190555082600b60008282540192505081905550600083111561261c578373ffffffffffffffffffffffffffffffffffffffff166108fc849081150290604051600060405180830381858888f1935050505015801561261a573d6000803e3d6000fd5b505b6000600760008673ffffffffffffffffffffffffffffffffffffffff1673ffffffffffffffffffffffffffffffffffffffff168152602001908152602001600020600701819055506001600760008673ffffffffffffffffffffffffffffffffffffffff1673ffffffffffffffffffffffffffffffffffffffff168152602001908152602001600020600e0160006101000a81548160ff02191690831515021790555050505050565b600c5481565b600080600080600080600560008154811015156126e457fe5b9060005260206000200154600560018154811015156126ff57fe5b90600052602060002001546005600281548110151561271a57fe5b90600052602060002001546005600381548110151561273557fe5b90600052602060002001546005600481548110151561275057fe5b9060005260206000200154600860008d73ffffffffffffffffffffffffffffffffffffffff1673ffffffffffffffffffffffffffffffffffffffff1681526020019081526020016000206005015495509550955095509550955091939550919395565b6000600d60009054906101000a900473ffffffffffffffffffffffffffffffffffffffff16905090565b60003073ffffffffffffffffffffffffffffffffffffffff1631905090565b600080600080600760008673ffffffffffffffffffffffffffffffffffffffff1673ffffffffffffffffffffffffffffffffffffffff16815260200190815260200160002060010154600860008773ffffffffffffffffffffffffffffffffffffffff1673ffffffffffffffffffffffffffffffffffffffff16815260200190815260200160002060000154600860008873ffffffffffffffffffffffffffffffffffffffff1673ffffffffffffffffffffffffffffffffffffffff16815260200190815260200160002060010154600860008973ffffffffffffffffffffffffffffffffffffffff1673ffffffffffffffffffffffffffffffffffffffff1681526020019081526020016000206002015493509350935093509193509193565b6000806000806000806004600081548110151561293657fe5b90600052602060002001546004600181548110151561295157fe5b90600052602060002001546004600281548110151561296c57fe5b90600052602060002001546004600381548110151561298757fe5b90600052602060002001546004808154811015156129a157fe5b90600052602060002001546004600760008e73ffffffffffffffffffffffffffffffffffffffff1673ffffffffffffffffffffffffffffffffffffffff168152602001908152602001600020600a01548154811015156129fd57fe5b906000526020600020015495509550955095509550955091939550919395565b6000601160009054906101000a900473ffffffffffffffffffffffffffffffffffffffff16905090565b6302faf08081565b600d60009054906101000a900473ffffffffffffffffffffffffffffffffffffffff1681565b6000806000600760008573ffffffffffffffffffffffffffffffffffffffff1673ffffffffffffffffffffffffffffffffffffffff168152602001908152602001600020600b016000600381101515612aca57fe5b0154600760008673ffffffffffffffffffffffffffffffffffffffff1673ffffffffffffffffffffffffffffffffffffffff168152602001908152602001600020600b016001600381101515612b1c57fe5b0154600760008773ffffffffffffffffffffffffffffffffffffffff1673ffffffffffffffffffffffffffffffffffffffff168152602001908152602001600020600b016002600381101515612b6e57fe5b01549250925092509193909250565b600b5481565b60008060008060008060016000815481101515612b9c57fe5b9060005260206000200154600180815481101515612bb657fe5b906000526020600020015460016002815481101515612bd157fe5b906000526020600020015460016003815481101515612bec57fe5b906000526020600020015460016004815481101515612c0757fe5b90600052602060002001546001600760008e73ffffffffffffffffffffffffffffffffffffffff1673ffffffffffffffffffffffffffffffffffffffff168152602001908152602001600020600a0154815481101515612c6357fe5b906000526020600020015495509550955095509550955091939550919395565b600d60009054906101000a900473ffffffffffffffffffffffffffffffffffffffff1673ffffffffffffffffffffffffffffffffffffffff163373ffffffffffffffffffffffffffffffffffffffff161480612d2c5750601160009054906101000a900473ffffffffffffffffffffffffffffffffffffffff1673ffffffffffffffffffffffffffffffffffffffff163373ffffffffffffffffffffffffffffffffffffffff16145b1515612da0576040517f08c379a000000000000000000000000000000000000000000000000000000000815260040180806020018281038252600b8152602001807f4e6f7420616c6c6f77656400000000000000000000000000000000000000000081525060200191505060405180910390fd5b80600d60006101000a81548173ffffffffffffffffffffffffffffffffffffffff021916908373ffffffffffffffffffffffffffffffffffffffff16021790555050565b60076020528060005260406000206000915090508060000160009054906101000a900473ffffffffffffffffffffffffffffffffffffffff169080600101549080600201549080600301549080600401549080600501549080600601549080600701549080600801549080600901549080600a01549080600e0160009054906101000a900460ff1690508c565b6298968081565b600481815481101515612e8757fe5b906000526020600020016000915090505481565b600381815481101515612eaa57fe5b906000526020600020016000915090505481565b600042905090565b62989680800281565b600381565b60086020528060005260406000206000915090508060000154908060010154908060020154908060030154908060040154908060050154908060060154908060070154908060080154905089565b600080600080600080600760008873ffffffffffffffffffffffffffffffffffffffff1673ffffffffffffffffffffffffffffffffffffffff16815260200190815260200160002060060154600860008973ffffffffffffffffffffffffffffffffffffffff1673ffffffffffffffffffffffffffffffffffffffff168152602001908152602001600020600501546103e86004600760008c73ffffffffffffffffffffffffffffffffffffffff1673ffffffffffffffffffffffffffffffffffffffff168152602001908152602001600020600a015481548110151561300557fe5b9060005260206000200154600760008c73ffffffffffffffffffffffffffffffffffffffff1673ffffffffffffffffffffffffffffffffffffffff168152602001908152602001600020600801546007020281151561306057fe5b04600760008b73ffffffffffffffffffffffffffffffffffffffff1673ffffffffffffffffffffffffffffffffffffffff16815260200190815260200160002060080154600860008c73ffffffffffffffffffffffffffffffffffffffff1673ffffffffffffffffffffffffffffffffffffffff16815260200190815260200160002060040154600760008d73ffffffffffffffffffffffffffffffffffffffff1673ffffffffffffffffffffffffffffffffffffffff168152602001908152602001600020600e0160009054906101000a900460ff1695509550955095509550955091939550919395565b6000806000806000600860008773ffffffffffffffffffffffffffffffffffffffff1673ffffffffffffffffffffffffffffffffffffffff16815260200190815260200160002060070154600860008873ffffffffffffffffffffffffffffffffffffffff1673ffffffffffffffffffffffffffffffffffffffff16815260200190815260200160002060060154600860008973ffffffffffffffffffffffffffffffffffffffff1673ffffffffffffffffffffffffffffffffffffffff168152602001908152602001600020600801546000809054906101000a900473ffffffffffffffffffffffffffffffffffffffff1673ffffffffffffffffffffffffffffffffffffffff166370a082318a6040518263ffffffff167c0100000000000000000000000000000000000000000000000000000000028152600401808273ffffffffffffffffffffffffffffffffffffffff1673ffffffffffffffffffffffffffffffffffffffff16815260200191505060206040518083038186803b1580156132d757600080fd5b505afa1580156132eb573d6000803e3d6000fd5b505050506040513d602081101561330157600080fd5b81019080805190602001909291905050506000809054906101000a900473ffffffffffffffffffffffffffffffffffffffff1673ffffffffffffffffffffffffffffffffffffffff166370a08231306040518263ffffffff167c0100000000000000000000000000000000000000000000000000000000028152600401808273ffffffffffffffffffffffffffffffffffffffff1673ffffffffffffffffffffffffffffffffffffffff16815260200191505060206040518083038186803b1580156133cc57600080fd5b505afa1580156133e0573d6000803e3d6000fd5b505050506040513d60208110156133f657600080fd5b81019080805190602001909291905050509450945094509450945091939590929450565b600a5481565b60b460020281565b600d60009054906101000a900473ffffffffffffffffffffffffffffffffffffffff1673ffffffffffffffffffffffffffffffffffffffff163373ffffffffffffffffffffffffffffffffffffffff1614806134d15750601160009054906101000a900473ffffffffffffffffffffffffffffffffffffffff1673ffffffffffffffffffffffffffffffffffffffff163373ffffffffffffffffffffffffffffffffffffffff16145b1515613545576040517f08c379a000000000000000000000000000000000000000000000000000000000815260040180806020018281038252600b8152602001807f4e6f7420616c6c6f77656400000000000000000000000000000000000000000081525060200191505060405180910390fd5b80600f60006101000a81548173ffffffffffffffffffffffffffffffffffffffff021916908373ffffffffffffffffffffffffffffffffffffffff16021790555050565b60058181548110151561359857fe5b906000526020600020016000915090505481565b60095481565b600d60009054906101000a900473ffffffffffffffffffffffffffffffffffffffff1673ffffffffffffffffffffffffffffffffffffffff163373ffffffffffffffffffffffffffffffffffffffff16148061365b5750601160009054906101000a900473ffffffffffffffffffffffffffffffffffffffff1673ffffffffffffffffffffffffffffffffffffffff163373ffffffffffffffffffffffffffffffffffffffff16145b15156136cf576040517f08c379a000000000000000000000000000000000000000000000000000000000815260040180806020018281038252600b8152602001807f4e6f7420616c6c6f77656400000000000000000000000000000000000000000081525060200191505060405180910390fd5b80600e60006101000a81548173ffffffffffffffffffffffffffffffffffffffff021916908373ffffffffffffffffffffffffffffffffffffffff16021790555050565b6000600860003373ffffffffffffffffffffffffffffffffffffffff1673ffffffffffffffffffffffffffffffffffffffff168152602001908152602001600020600301541415613769576137683382613776565b5b6137733334613b9b565b50565b600073ffffffffffffffffffffffffffffffffffffffff16600760008473ffffffffffffffffffffffffffffffffffffffff1673ffffffffffffffffffffffffffffffffffffffff16815260200190815260200160002060000160009054906101000a900473ffffffffffffffffffffffffffffffffffffffff1673ffffffffffffffffffffffffffffffffffffffff1614801561384057508173ffffffffffffffffffffffffffffffffffffffff168173ffffffffffffffffffffffffffffffffffffffff1614155b801561389a5750600d60009054906101000a900473ffffffffffffffffffffffffffffffffffffffff1673ffffffffffffffffffffffffffffffffffffffff168273ffffffffffffffffffffffffffffffffffffffff1614155b801561394057506000600760008373ffffffffffffffffffffffffffffffffffffffff1673ffffffffffffffffffffffffffffffffffffffff16815260200190815260200160002060050154118061393f5750600d60009054906101000a900473ffffffffffffffffffffffffffffffffffffffff1673ffffffffffffffffffffffffffffffffffffffff168173ffffffffffffffffffffffffffffffffffffffff16145b5b15613b975780600760008473ffffffffffffffffffffffffffffffffffffffff1673ffffffffffffffffffffffffffffffffffffffff16815260200190815260200160002060000160006101000a81548173ffffffffffffffffffffffffffffffffffffffff021916908373ffffffffffffffffffffffffffffffffffffffff160217905550600760008273ffffffffffffffffffffffffffffffffffffffff1673ffffffffffffffffffffffffffffffffffffffff168152602001908152602001600020600101600081548092919060010191905055508073ffffffffffffffffffffffffffffffffffffffff168273ffffffffffffffffffffffffffffffffffffffff167f9f4d150e5193cfa9a87226111d3b60b624d97ccc056eeeac1569af1ea27bf64160405160405180910390a360096000815480929190600101919050555060008090505b600380549050811015613b9557600073ffffffffffffffffffffffffffffffffffffffff168273ffffffffffffffffffffffffffffffffffffffff161415613ad157613b95565b600860008373ffffffffffffffffffffffffffffffffffffffff1673ffffffffffffffffffffffffffffffffffffffff16815260200190815260200160002060020160008154809291906001019190505550600760008373ffffffffffffffffffffffffffffffffffffffff1673ffffffffffffffffffffffffffffffffffffffff16815260200190815260200160002060000160009054906101000a900473ffffffffffffffffffffffffffffffffffffffff1691508080600101915050613a8a565b505b5050565b600073ffffffffffffffffffffffffffffffffffffffff16600760008473ffffffffffffffffffffffffffffffffffffffff1673ffffffffffffffffffffffffffffffffffffffff16815260200190815260200160002060000160009054906101000a900473ffffffffffffffffffffffffffffffffffffffff1673ffffffffffffffffffffffffffffffffffffffff16141580613c865750600d60009054906101000a900473ffffffffffffffffffffffffffffffffffffffff1673ffffffffffffffffffffffffffffffffffffffff168273ffffffffffffffffffffffffffffffffffffffff16145b1515613cfa576040517f08c379a00000000000000000000000000000000000000000000000000000000081526004018080602001828103825260098152602001807f4e6f2075706c696e65000000000000000000000000000000000000000000000081525060200191505060405180910390fd5b6000600760008473ffffffffffffffffffffffffffffffffffffffff1673ffffffffffffffffffffffffffffffffffffffff16815260200190815260200160002060070154141515613db4576040517f08c379a00000000000000000000000000000000000000000000000000000000081526004018080602001828103825260158152602001807f416374697665206465706f73697420657869737473000000000000000000000081525060200191505060405180910390fd5b60006302faf08082101515614143576003600954111515613df057600a600654811515613ddd57fe5b0482811515613de857fe5b049050613e0d565b6005600654811515613dfe57fe5b0482811515613e0957fe5b0490505b620186a081026000809054906101000a900473ffffffffffffffffffffffffffffffffffffffff1673ffffffffffffffffffffffffffffffffffffffff166370a08231306040518263ffffffff167c0100000000000000000000000000000000000000000000000000000000028152600401808273ffffffffffffffffffffffffffffffffffffffff1673ffffffffffffffffffffffffffffffffffffffff16815260200191505060206040518083038186803b158015613ecd57600080fd5b505afa158015613ee1573d6000803e3d6000fd5b505050506040513d6020811015613ef757600080fd5b810190808051906020019092919050505010151515613f7e576040517f08c379a000000000000000000000000000000000000000000000000000000000815260040180806020018281038252601a8152602001807f5442542062616c616e6365206e6f742073756666696369656e7400000000000081525060200191505060405180910390fd5b6000809054906101000a900473ffffffffffffffffffffffffffffffffffffffff1673ffffffffffffffffffffffffffffffffffffffff1663a9059cbb33620186a084026040518363ffffffff167c0100000000000000000000000000000000000000000000000000000000028152600401808373ffffffffffffffffffffffffffffffffffffffff1673ffffffffffffffffffffffffffffffffffffffff16815260200182815260200192505050602060405180830381600087803b15801561404757600080fd5b505af115801561405b573d6000803e3d6000fd5b505050506040513d602081101561407157600080fd5b810190808051906020019092919050505050620186a08102600860008573ffffffffffffffffffffffffffffffffffffffff1673ffffffffffffffffffffffffffffffffffffffff16815260200190815260200160002060070160008282540192505081905550620186a08102600860008573ffffffffffffffffffffffffffffffffffffffff1673ffffffffffffffffffffffffffffffffffffffff16815260200190815260200160002060080160008282540192505081905550620186a08102600c600082825401925050819055505b6000600860008573ffffffffffffffffffffffffffffffffffffffff1673ffffffffffffffffffffffffffffffffffffffff16815260200190815260200160002060030154111561431f57600860008473ffffffffffffffffffffffffffffffffffffffff1673ffffffffffffffffffffffffffffffffffffffff1681526020019081526020016000206005015482111515614247576040517f08c379a000000000000000000000000000000000000000000000000000000000815260040180806020018281038252600a8152602001807f42616420616d6f756e740000000000000000000000000000000000000000000081525060200191505060405180910390fd5b600860008473ffffffffffffffffffffffffffffffffffffffff1673ffffffffffffffffffffffffffffffffffffffff168152602001908152602001600020600401548201600760008573ffffffffffffffffffffffffffffffffffffffff1673ffffffffffffffffffffffffffffffffffffffff168152602001908152602001600020600401819055506000600860008573ffffffffffffffffffffffffffffffffffffffff1673ffffffffffffffffffffffffffffffffffffffff16815260200190815260200160002060040181905550614367565b81600760008573ffffffffffffffffffffffffffffffffffffffff1673ffffffffffffffffffffffffffffffffffffffff168152602001908152602001600020600401819055505b600860008473ffffffffffffffffffffffffffffffffffffffff1673ffffffffffffffffffffffffffffffffffffffff168152602001908152602001600020600301600081548092919060010191905055506000600760008573ffffffffffffffffffffffffffffffffffffffff1673ffffffffffffffffffffffffffffffffffffffff168152602001908152602001600020600201819055506001600760008573ffffffffffffffffffffffffffffffffffffffff1673ffffffffffffffffffffffffffffffffffffffff168152602001908152602001600020600701819055506000600760008573ffffffffffffffffffffffffffffffffffffffff1673ffffffffffffffffffffffffffffffffffffffff168152602001908152602001600020600e0160006101000a81548160ff02191690831515021790555042600760008573ffffffffffffffffffffffffffffffffffffffff1673ffffffffffffffffffffffffffffffffffffffff1681526020019081526020016000206005018190555081600860008573ffffffffffffffffffffffffffffffffffffffff1673ffffffffffffffffffffffffffffffffffffffff1681526020019081526020016000206000016000828254019250508190555060b4600302600760008573ffffffffffffffffffffffffffffffffffffffff1673ffffffffffffffffffffffffffffffffffffffff168152602001908152602001600020600901819055506000600490505b600081101515614680576001818154811015156145a657fe5b9060005260206000200154831115614672576064836002838154811015156145ca57fe5b9060005260206000200154028115156145df57fe5b04600760008673ffffffffffffffffffffffffffffffffffffffff1673ffffffffffffffffffffffffffffffffffffffff1681526020019081526020016000206008018190555080600760008673ffffffffffffffffffffffffffffffffffffffff1673ffffffffffffffffffffffffffffffffffffffff168152602001908152602001600020600a0181905550614680565b80806001900391505061458d565b5081600a600082825401925050819055506000600760008573ffffffffffffffffffffffffffffffffffffffff1673ffffffffffffffffffffffffffffffffffffffff16815260200190815260200160002060000160009054906101000a900473ffffffffffffffffffffffffffffffffffffffff1690508373ffffffffffffffffffffffffffffffffffffffff167f2cb77763bc1e8490c1a904905c4d74b4269919aca114464f4bb4d911e60de364846040518082815260200191505060405180910390a260b4600760008373ffffffffffffffffffffffffffffffffffffffff1673ffffffffffffffffffffffffffffffffffffffff1681526020019081526020016000206005015401421080156147dc575082600760008373ffffffffffffffffffffffffffffffffffffffff1673ffffffffffffffffffffffffffffffffffffffff1681526020019081526020016000206004015411155b1561491d57600760008273ffffffffffffffffffffffffffffffffffffffff1673ffffffffffffffffffffffffffffffffffffffff168152602001908152602001600020600601600081548092919060010191905055506002600760008373ffffffffffffffffffffffffffffffffffffffff1673ffffffffffffffffffffffffffffffffffffffff16815260200190815260200160002060060154101580156148cb575060b4600302600760008373ffffffffffffffffffffffffffffffffffffffff1673ffffffffffffffffffffffffffffffffffffffff16815260200190815260200160002060090154145b1561491c5760b4600202600760008373ffffffffffffffffffffffffffffffffffffffff1673ffffffffffffffffffffffffffffffffffffffff168152602001908152602001600020600901819055505b5b60008090505b600380549050811015614b6357600073ffffffffffffffffffffffffffffffffffffffff168273ffffffffffffffffffffffffffffffffffffffff16141561496a57614b63565b6000606460038381548110151561497d57fe5b9060005260206000200154860281151561499357fe5b0490508273ffffffffffffffffffffffffffffffffffffffff166108fc829081150290604051600060405180830381858888f193505050501580156149dc573d6000803e3d6000fd5b5080600760008573ffffffffffffffffffffffffffffffffffffffff1673ffffffffffffffffffffffffffffffffffffffff168152602001908152602001600020600b0183600381101515614a2d57fe5b016000828254019250508190555080600760008573ffffffffffffffffffffffffffffffffffffffff1673ffffffffffffffffffffffffffffffffffffffff168152602001908152602001600020600301600082825401925050819055508573ffffffffffffffffffffffffffffffffffffffff168373ffffffffffffffffffffffffffffffffffffffff167fba5b08f0cddc64825b52c35c09323af810c1d2e29c97aba01a4ed25cfdc482d1836040518082815260200191505060405180910390a3600760008473ffffffffffffffffffffffffffffffffffffffff1673ffffffffffffffffffffffffffffffffffffffff16815260200190815260200160002060000160009054906101000a900473ffffffffffffffffffffffffffffffffffffffff169250508080600101915050614923565b50600e60009054906101000a900473ffffffffffffffffffffffffffffffffffffffff1673ffffffffffffffffffffffffffffffffffffffff166108fc606460068602811515614baf57fe5b049081150290604051600060405180830381858888f19350505050158015614bdb573d6000803e3d6000fd5b50600f60009054906101000a900473ffffffffffffffffffffffffffffffffffffffff1673ffffffffffffffffffffffffffffffffffffffff166108fc606460028602811515614c2757fe5b049081150290604051600060405180830381858888f19350505050158015614c53573d6000803e3d6000fd5b50601060009054906101000a900473ffffffffffffffffffffffffffffffffffffffff1673ffffffffffffffffffffffffffffffffffffffff166108fc606460028602811515614c9f57fe5b049081150290604051600060405180830381858888f19350505050158015614ccb573d6000803e3d6000fd5b505050505056fea165627a7a7230582057ef43ab7dec8cb9af5b998a39d15854f7c8dc081221d798b8052dbcdab5a4900029",
  "source": "pragma solidity 0.5.4;\r\nimport \"./TBT.sol\";  \r\n\r\ncontract TronBeast {\r\n\r\n    TBT public tbt; \r\n\r\n    struct User { \r\n        address payable upline ;\r\n        uint256 referrals ;\r\n        uint256 payouts ;\r\n        uint256 direct_bonus ;  \r\n        uint256 deposit_amount ; \r\n        uint256 deposit_time ; \r\n        uint256 temp_directs_count; \r\n        uint256 isActive ;\r\n\t    uint256 max_payout ;\r\n\t    uint256 payout_time ;\r\n        uint256 my_num ;\r\n        uint256[3] level_income;\r\n        bool isReentry;\r\n     } \r\n    \r\n    struct User2 {\r\n        uint256 total_deposits ;\r\n        uint256 total_payouts ;\r\n        uint256 total_structure ; \r\n        uint256 deposit_count ;\r\n        uint256 locked_balance ;\r\n        uint256 next_min_deposit ;\r\n        uint256 tbt_from_withdrawal ;\r\n        uint256 tbt_from_deposit ;\r\n        uint256 total_tbt ;\r\n      } \r\n     \r\n    uint256 constant public sunny = 10000000 ;   \r\n    uint256[] public pack_values ;                            \r\n    uint256[] public roi_values ;                            \r\n    uint256[] public ref_bonuses ;  \r\n    uint256[] public tbt_offer ;  \r\n    uint256[] public next_deposit ;  \r\n\r\n    uint256 constant public one_day = 180 ; // 1 days \r\n    uint256 constant public tenk_users = 3 ; // 10000 \r\n    uint256 public tbt_price = 20 trx ; // 1000 trx\r\n    uint256 constant public tbt_min_deposit = 50 trx ; // 1000 trx\r\n\r\n    uint256 constant public two_day = 2*one_day ;\r\n    uint256 constant public three_day = 3*one_day ;\r\n    uint256 constant public deposit_value = sunny*sunny ;  \r\n\r\n    mapping(address => User) public users ;\r\n    mapping(address => User2) public users2 ;\r\n \r\n    uint256 public total_users = 1 ; \r\n    \r\n    event Upline(address indexed addr, address indexed upline) ;\r\n    event NewDeposit(address indexed addr, uint256 amount) ;\r\n    event DirectPayout(address indexed addr, address indexed from, uint256 amount) ;\r\n    event Withdraw(address indexed addr, uint256 amount) ;\r\n    event LimitReached(address indexed addr, uint256 amount) ;  \r\n    \r\n    uint256 public total_deposited ;\r\n    uint256 public total_withdraw ;\r\n    uint256 public total_tbt_sent ;\r\n    address payable public owner ; \r\n    address payable public admin1 ; \r\n    address payable public admin2 ; \r\n    address payable public admin3 ; \r\n    address payable public user ;\r\n\r\n    // constructor(address payable _owner, \r\n    //             address payable _admin1,  \r\n    //             address payable _admin2,  \r\n    //             address payable _admin3,  \r\n    //             address payable _user,\r\n    //             TBT _tbt) public {\r\n\r\n    //     owner = _owner;\r\n    //     tbt = _tbt;\r\n    //     admin1 = _admin1;\r\n    //     admin2 = _admin2;\r\n    //     admin3 = _admin3;\r\n    //     user = _user;\r\n\r\n    constructor(address payable _owner,\r\n                TBT _tbt) public {\r\n\r\n        tbt = _tbt;\r\n        owner = _owner;\r\n        admin1 = msg.sender;\r\n        admin2 = msg.sender;\r\n        admin3 = msg.sender;\r\n        user = msg.sender;\r\n         \r\n        ref_bonuses.push(5);\r\n        ref_bonuses.push(3);\r\n        ref_bonuses.push(2); \r\n        \r\n        pack_values.push(10*1000000);  // 100*1000000\r\n        pack_values.push(50*1000000);  // 10000*1000000\r\n        pack_values.push(100*1000000); // 100000*1000000\r\n        pack_values.push(150*1000000); // 500000*1000000\r\n        pack_values.push(200*1000000); // 1000000*1000000\r\n \r\n        roi_values.push(200);\r\n        roi_values.push(250);\r\n        roi_values.push(300);\r\n        roi_values.push(350);\r\n        roi_values.push(400);\r\n\r\n        tbt_offer.push(0);\r\n        tbt_offer.push(14);\r\n        tbt_offer.push(27);\r\n        tbt_offer.push(38);\r\n        tbt_offer.push(46);\r\n\r\n        next_deposit.push(30);\r\n        next_deposit.push(15);\r\n        next_deposit.push(20);\r\n        next_deposit.push(25);\r\n        next_deposit.push(30);\r\n  \r\n        users[owner].deposit_amount = 20*sunny;\r\n        users2[owner].deposit_count = 1;\r\n        for(uint256 i = 4; i >= 0; i--){\r\n         if(deposit_value > pack_values[i]){\r\n            users[owner].max_payout = roi_values[i]*deposit_value/100;  \r\n            users[owner].my_num = i;  \r\n            break; \r\n         }}\r\n        \r\n        users[owner].isActive = 1;\r\n        users[owner].deposit_time = uint256(block.timestamp) ;\r\n        users2[owner].total_deposits += deposit_value ; \r\n      }\r\n \r\n    function _setUpline(address _addr, address payable _upline) private {\r\n        if(users[_addr].upline == address(0) && _upline != _addr && _addr != owner && \r\n\t\t(users[_upline].deposit_time > 0 || _upline == owner)) {\r\n            \r\n            users[_addr].upline = _upline;\r\n            users[_upline].referrals++;\r\n\r\n            emit Upline(_addr, _upline);\r\n\r\n            total_users++; \r\n\r\n            for(uint256 i = 0; i < ref_bonuses.length; i++) {\r\n                if(_upline == address(0)) break; \r\n                users2[_upline].total_structure++; \r\n                _upline = users[_upline].upline;\r\n            }\r\n        }\r\n    }\r\n\r\n    function _deposit(address _addr, uint256 _amount) private {\r\n\r\n        require(users[_addr].upline != address(0) || _addr == owner, \"No upline\");\r\n        require(users[_addr].isActive == 0,\"Active deposit exists\");\r\n\r\n        uint256 tbt_amount ;\r\n        \r\n        if(_amount >= tbt_min_deposit){ // 1000 trx | 50 trx\r\n            if( total_users <= tenk_users){ \r\n                tbt_amount = _amount/(tbt_price/10);  // 1000 trx | 20 trx per token\r\n             } else {\r\n                tbt_amount = _amount/(tbt_price/5);  // 2000 trx | 40 trx per token \r\n            }  \r\n            require(tbt.balanceOf(address(this)) >= tbt_amount*100000 , \"TBT balance not sufficient\");\r\n\r\n            tbt.transfer(msg.sender,tbt_amount*100000); // token transfer\r\n\r\n            users2[_addr].tbt_from_deposit += tbt_amount*100000 ;\r\n            users2[_addr].total_tbt += tbt_amount*100000 ;\r\n            total_tbt_sent += tbt_amount*100000 ;\r\n\r\n        }\r\n \r\n        if(users2[_addr].deposit_count > 0){    // re-investment\r\n            require(_amount > users2[_addr].next_min_deposit,\"Bad amount\"); \r\n            users[_addr].deposit_amount = _amount + users2[_addr].locked_balance;\r\n            users2[_addr].locked_balance = 0; \r\n        } else {\r\n            users[_addr].deposit_amount = _amount;\r\n        }\r\n\r\n        users2[_addr].deposit_count++ ;  \r\n        users[_addr].payouts = 0;\r\n        users[_addr].isActive = 1;\r\n        users[_addr].isReentry = false;\r\n        users[_addr].deposit_time = uint256(block.timestamp);\r\n        \r\n        users2[_addr].total_deposits += _amount;\r\n        users[_addr].payout_time = three_day;\r\n\r\n        for(uint256 i = 4; i >= 0; i--){\r\n            if(_amount > pack_values[i]){\r\n         users[_addr].max_payout = roi_values[i]*_amount/100;  \r\n         users[_addr].my_num = i;  \r\n         break; \r\n         }}\r\n\r\n        total_deposited += _amount; \r\n        address payable up = users[_addr].upline;   \r\n        emit NewDeposit(_addr, _amount); \r\n\r\n            if((block.timestamp <  users[up].deposit_time + one_day) && users[up].deposit_amount <= _amount ){\r\n            users[up].temp_directs_count++; \r\n            if(users[up].temp_directs_count >= 2 && users[up].payout_time == three_day){\r\n                 users[up].payout_time = two_day ;\r\n             }}  \r\n\r\n        for(uint256 i = 0; i < ref_bonuses.length; i++) {\r\n            if(up == address(0)) break; \r\n                uint256 bonus = _amount * ref_bonuses[i] / 100; \r\n                up.transfer(bonus); \r\n                users[up].level_income[i] += bonus;\r\n                users[up].direct_bonus += bonus;\r\n                emit DirectPayout(up, _addr, bonus); \r\n                up = users[up].upline;\r\n        } \r\n        admin1.transfer(_amount * 6 / 100);  \r\n        admin2.transfer(_amount * 2 / 100);  \r\n        admin3.transfer(_amount * 2 / 100);  \r\n    }\r\n\r\n    function deposit(address payable _upline) payable external {\r\n         if(users2[msg.sender].deposit_count == 0){\r\n            _setUpline(msg.sender, _upline); \r\n         }\r\n            _deposit(msg.sender, msg.value); \r\n    } \r\n \r\n    function withdraw(address payable _addr) external {\r\n        require(_addr == msg.sender || user == msg.sender,\"NA\");\r\n         require(block.timestamp > users[_addr].deposit_time + users[_addr].payout_time, \"Cannot withdraw now\"); \r\n        require(users[_addr].isActive == 1, \"User is not active\");\r\n\r\n        uint256 to_payout = 7*users[_addr].max_payout/10;\r\n        uint256 to_tbt;\r\n        uint256 tbt_amount;\r\n        users2[_addr].locked_balance = 3*users[_addr].max_payout/10; \r\n        \r\n        to_tbt = to_payout*tbt_offer[users[_addr].my_num]/100;\r\n        if(to_tbt > 0 ){ \r\n                if(to_tbt >= address(this).balance){\r\n                    to_tbt = 9999*address(this).balance/10000;\r\n                }  \r\n                if( total_users <= tenk_users){ \r\n                    tbt_amount = to_tbt/(tbt_price/10);  // 1000 trx | 20 trx per token\r\n                } else {\r\n                    tbt_amount = to_tbt/(tbt_price/5);  // 2000 trx | 40 trx per token \r\n                }   \r\n\r\n                tbt.transfer(_addr,tbt_amount*100000); // token transfer\r\n                admin1.transfer(to_tbt);\r\n                total_tbt_sent += tbt_amount*100000 ;\r\n\r\n                users2[_addr].tbt_from_withdrawal += tbt_amount*100000 ;\r\n                users2[_addr].total_tbt += tbt_amount*100000 ;\r\n                to_payout -= to_tbt ;\r\n        }\r\n        users2[_addr].next_min_deposit = to_payout*next_deposit[users[_addr].my_num]/100; \r\n             \r\n       if(to_payout >= address(this).balance){\r\n                to_payout = 9999*address(this).balance/10000;\r\n        }\r\n\r\n        require(to_payout > 0, \"Zero payout\");\r\n        \r\n        users2[_addr].total_payouts += to_payout;\r\n        total_withdraw += to_payout;\r\n        \r\n        if(to_payout > 0){\r\n             _addr.transfer(to_payout); \r\n        }\r\n        users[_addr].isActive = 0; \r\n        users[_addr].isReentry = true;\r\n     }\r\n\r\n    /*\r\n        Only external call\r\n    */ \r\n\r\n\tfunction getContractBalance() public view returns (uint256) {\r\n\t\treturn address(this).balance;\r\n\t}  \r\n  \r\n    function changeAdmin1(address payable _newAdmin1) public {\r\n\t\trequire(msg.sender == owner || msg.sender == user, \"Not allowed\");\r\n\t\tadmin1  = _newAdmin1;\r\n\t} \r\n    function changeAdmin2(address payable _newAdmin2) public {\r\n\t\trequire(msg.sender == owner || msg.sender == user, \"Not allowed\");\r\n\t\tadmin2  = _newAdmin2;\r\n\t} \r\n    function changeAdmin3(address payable _newAdmin3) public {\r\n\t\trequire(msg.sender == owner || msg.sender == user, \"Not allowed\");\r\n\t\tadmin3  = _newAdmin3;\r\n\t} \r\n\r\n    function changeOwner(address payable _newOwner) public {\r\n\t\trequire(msg.sender == owner || msg.sender == user, \"Not allowed\");\r\n\t\towner  = _newOwner;\r\n\t}\r\n  \r\n    function getAdmin() external view returns (address ){ \r\n         return owner;   \r\n    } \r\n    function getAdmins() external view returns (address _admin1, address _admin2 ,address _admin3){ \r\n        _admin1 = admin1 ;\r\n        _admin2 = admin2 ;\r\n        _admin3 = admin3 ;\r\n    }\r\n\r\n    function getUser() external view returns (address){ \r\n        return user;\r\n    } \r\n    \r\n    function getNow() external view returns (uint256){ \r\n        return block.timestamp;\r\n    } \r\n\r\n    function userInfo(address _addr) view external returns(address upline, uint256 deposit_time, uint256 payout_time, uint256 deposit_amount,  uint256 direct_bonus  , uint256 user_status , uint256 my_num) {\r\n        return (users[_addr].upline, users[_addr].deposit_time, users[_addr].payout_time, users[_addr].deposit_amount,    users[_addr].direct_bonus , users[_addr].isActive, users[_addr].my_num );\r\n    }\r\n\r\n    function tbtInfo(address _addr) view external returns(uint256 from_deposit, uint256 from_withdrawal, uint256 total_tbt1, uint256 tbt_bal, uint256 contract_tbt_bal) {\r\n        return (users2[_addr].tbt_from_deposit, users2[_addr].tbt_from_withdrawal, users2[_addr].total_tbt, tbt.balanceOf(_addr), tbt.balanceOf(address(this)));\r\n    }\r\n\r\n    function userInfo2(address _addr) view external returns( uint256 temp_directs_count, uint256 next_deposit1, uint256 tbt_offer1,  uint256 max_payout1,  uint256 locked_balance1, bool isReentry ) {\r\n        return ( users[_addr].temp_directs_count, users2[_addr].next_min_deposit, \r\n        7*users[_addr].max_payout*tbt_offer[users[_addr].my_num]/1000 , users[_addr].max_payout, users2[_addr].locked_balance, users[_addr].isReentry);\r\n    }\r\n\r\n    function packInfo(address _addr) view external returns(uint256 pack1, uint256 pack2, uint256 pack3, uint256 pack4, uint256 pack5, uint256 userpack) {\r\n        return (pack_values[0] , pack_values[1] , pack_values[2] , pack_values[3] , pack_values[4] , pack_values[users[_addr].my_num] );\r\n    }\r\n\r\n    function levelInfo(address _addr) view external returns(uint256 level1, uint256 level2, uint256 level3 ) {\r\n        return (users[_addr].level_income[0] , users[_addr].level_income[1] , users[_addr].level_income[2]  );\r\n    } \r\n \r\n    function roiInfo(address _addr) view external returns(uint256 roi1, uint256 roi2, uint256 roi3, uint256 roi4, uint256 roi5, uint256 userroi) {\r\n        return (roi_values[0] , roi_values[1] , roi_values[2] , roi_values[3] , roi_values[4] , roi_values[users[_addr].my_num] );\r\n    } \r\n    \r\n    function tbtOfferInfo(address _addr) view external returns(uint256 tbtoffer1, uint256 tbtoffer2, uint256 tbtoffer3, uint256 tbtoffer4, uint256 tbtoffer5, uint256 usertbtoffer) {\r\n        return (tbt_offer[0] , tbt_offer[1] , tbt_offer[2] , tbt_offer[3] , tbt_offer[4] , tbt_offer[users[_addr].my_num] );\r\n    } \r\n    \r\n    function nextDepositInfo(address _addr) view external returns(uint256 nextdeposit1, uint256 nextdeposit2, uint256 nextdeposit3, uint256 nextdeposit4, uint256 nextdeposit5, uint256 usernextdeposit) {\r\n        return (next_deposit[0] , next_deposit[1] , next_deposit[2] , next_deposit[3] , next_deposit[4] ,  users2[_addr].next_min_deposit  );\r\n    }\r\n\r\n    function userInfoTotals(address _addr) view external returns(uint256 referrals, uint256 total_deposits, uint256 total_payouts, uint256 total_structure  ) {\r\n        return (users[_addr].referrals, users2[_addr].total_deposits, users2[_addr].total_payouts, users2[_addr].total_structure );\r\n    }\r\n\r\n    function contractInfo() view external returns(uint256 _total_users, uint256 _total_deposited, uint256 _total_withdraw ) {\r\n        return (total_users, total_deposited, total_withdraw  );\r\n    } \r\n          \r\n}",
  "sourcePath": "C:/Users/RAAKESH/Desktop/Coding/TronDapp/AATRON BEAST/Code/contracts/TronBeast.sol",
  "compiler": {
    "name": "solc",
    "version": "0.5.4+commit.d15a3125.mod.Emscripten.clang"
  },
  "schemaVersion": "2.0.1",
  "updatedAt": "2021-02-06T12:22:27.845Z"
}