{
  "contractName": "TronBeast",
  "abi": [
    {
      "constant": true,
      "inputs": [],
      "name": "tbt",
      "outputs": [
        {
          "name": "",
          "type": "address"
        }
      ],
      "payable": false,
      "stateMutability": "view",
      "type": "function"
    },
    {
      "constant": true,
      "inputs": [],
      "name": "one_day",
      "outputs": [
        {
          "name": "",
          "type": "uint256"
        }
      ],
      "payable": false,
      "stateMutability": "view",
      "type": "function"
    },
    {
      "constant": true,
      "inputs": [
        {
          "name": "",
          "type": "uint256"
        }
      ],
      "name": "roi_values",
      "outputs": [
        {
          "name": "",
          "type": "uint256"
        }
      ],
      "payable": false,
      "stateMutability": "view",
      "type": "function"
    },
    {
      "constant": true,
      "inputs": [
        {
          "name": "",
          "type": "uint256"
        }
      ],
      "name": "pack_values",
      "outputs": [
        {
          "name": "",
          "type": "uint256"
        }
      ],
      "payable": false,
      "stateMutability": "view",
      "type": "function"
    },
    {
      "constant": true,
      "inputs": [],
      "name": "three_day",
      "outputs": [
        {
          "name": "",
          "type": "uint256"
        }
      ],
      "payable": false,
      "stateMutability": "view",
      "type": "function"
    },
    {
      "constant": true,
      "inputs": [],
      "name": "tbt_price",
      "outputs": [
        {
          "name": "",
          "type": "uint256"
        }
      ],
      "payable": false,
      "stateMutability": "view",
      "type": "function"
    },
    {
      "constant": true,
      "inputs": [],
      "name": "user",
      "outputs": [
        {
          "name": "",
          "type": "address"
        }
      ],
      "payable": false,
      "stateMutability": "view",
      "type": "function"
    },
    {
      "constant": true,
      "inputs": [],
      "name": "tbt_min_deposit",
      "outputs": [
        {
          "name": "",
          "type": "uint256"
        }
      ],
      "payable": false,
      "stateMutability": "view",
      "type": "function"
    },
    {
      "constant": true,
      "inputs": [],
      "name": "owner",
      "outputs": [
        {
          "name": "",
          "type": "address"
        }
      ],
      "payable": false,
      "stateMutability": "view",
      "type": "function"
    },
    {
      "constant": true,
      "inputs": [],
      "name": "total_withdraw",
      "outputs": [
        {
          "name": "",
          "type": "uint256"
        }
      ],
      "payable": false,
      "stateMutability": "view",
      "type": "function"
    },
    {
      "constant": true,
      "inputs": [
        {
          "name": "",
          "type": "address"
        }
      ],
      "name": "users",
      "outputs": [
        {
          "name": "upline",
          "type": "address"
        },
        {
          "name": "referrals",
          "type": "uint256"
        },
        {
          "name": "payouts",
          "type": "uint256"
        },
        {
          "name": "direct_bonus",
          "type": "uint256"
        },
        {
          "name": "deposit_amount",
          "type": "uint256"
        },
        {
          "name": "deposit_time",
          "type": "uint256"
        },
        {
          "name": "temp_directs_count",
          "type": "uint256"
        },
        {
          "name": "isActive",
          "type": "uint256"
        },
        {
          "name": "max_payout",
          "type": "uint256"
        },
        {
          "name": "payout_time",
          "type": "uint256"
        },
        {
          "name": "my_num",
          "type": "uint256"
        },
        {
          "name": "isReentry",
          "type": "bool"
        }
      ],
      "payable": false,
      "stateMutability": "view",
      "type": "function"
    },
    {
      "constant": true,
      "inputs": [],
      "name": "sunny",
      "outputs": [
        {
          "name": "",
          "type": "uint256"
        }
      ],
      "payable": false,
      "stateMutability": "view",
      "type": "function"
    },
    {
      "constant": true,
      "inputs": [
        {
          "name": "",
          "type": "uint256"
        }
      ],
      "name": "tbt_offer",
      "outputs": [
        {
          "name": "",
          "type": "uint256"
        }
      ],
      "payable": false,
      "stateMutability": "view",
      "type": "function"
    },
    {
      "constant": true,
      "inputs": [
        {
          "name": "",
          "type": "uint256"
        }
      ],
      "name": "ref_bonuses",
      "outputs": [
        {
          "name": "",
          "type": "uint256"
        }
      ],
      "payable": false,
      "stateMutability": "view",
      "type": "function"
    },
    {
      "constant": true,
      "inputs": [],
      "name": "deposit_value",
      "outputs": [
        {
          "name": "",
          "type": "uint256"
        }
      ],
      "payable": false,
      "stateMutability": "view",
      "type": "function"
    },
    {
      "constant": true,
      "inputs": [],
      "name": "tenk_users",
      "outputs": [
        {
          "name": "",
          "type": "uint256"
        }
      ],
      "payable": false,
      "stateMutability": "view",
      "type": "function"
    },
    {
      "constant": true,
      "inputs": [
        {
          "name": "",
          "type": "address"
        }
      ],
      "name": "users2",
      "outputs": [
        {
          "name": "total_deposits",
          "type": "uint256"
        },
        {
          "name": "total_payouts",
          "type": "uint256"
        },
        {
          "name": "total_structure",
          "type": "uint256"
        },
        {
          "name": "deposit_count",
          "type": "uint256"
        },
        {
          "name": "locked_balance",
          "type": "uint256"
        },
        {
          "name": "next_min_deposit",
          "type": "uint256"
        },
        {
          "name": "tbt_from_withdrawal",
          "type": "uint256"
        },
        {
          "name": "tbt_from_deposit",
          "type": "uint256"
        },
        {
          "name": "total_tbt",
          "type": "uint256"
        }
      ],
      "payable": false,
      "stateMutability": "view",
      "type": "function"
    },
    {
      "constant": true,
      "inputs": [],
      "name": "total_deposited",
      "outputs": [
        {
          "name": "",
          "type": "uint256"
        }
      ],
      "payable": false,
      "stateMutability": "view",
      "type": "function"
    },
    {
      "constant": true,
      "inputs": [],
      "name": "two_day",
      "outputs": [
        {
          "name": "",
          "type": "uint256"
        }
      ],
      "payable": false,
      "stateMutability": "view",
      "type": "function"
    },
    {
      "constant": true,
      "inputs": [
        {
          "name": "",
          "type": "uint256"
        }
      ],
      "name": "next_deposit",
      "outputs": [
        {
          "name": "",
          "type": "uint256"
        }
      ],
      "payable": false,
      "stateMutability": "view",
      "type": "function"
    },
    {
      "constant": true,
      "inputs": [],
      "name": "total_users",
      "outputs": [
        {
          "name": "",
          "type": "uint256"
        }
      ],
      "payable": false,
      "stateMutability": "view",
      "type": "function"
    },
    {
      "constant": true,
      "inputs": [],
      "name": "admin",
      "outputs": [
        {
          "name": "",
          "type": "address"
        }
      ],
      "payable": false,
      "stateMutability": "view",
      "type": "function"
    },
    {
      "inputs": [
        {
          "name": "_owner",
          "type": "address"
        },
        {
          "name": "_admin1",
          "type": "address"
        },
        {
          "name": "_user",
          "type": "address"
        },
        {
          "name": "_tbt",
          "type": "address"
        }
      ],
      "payable": false,
      "stateMutability": "nonpayable",
      "type": "constructor"
    },
    {
      "anonymous": false,
      "inputs": [
        {
          "indexed": true,
          "name": "addr",
          "type": "address"
        },
        {
          "indexed": true,
          "name": "upline",
          "type": "address"
        }
      ],
      "name": "Upline",
      "type": "event"
    },
    {
      "anonymous": false,
      "inputs": [
        {
          "indexed": true,
          "name": "addr",
          "type": "address"
        },
        {
          "indexed": false,
          "name": "amount",
          "type": "uint256"
        }
      ],
      "name": "NewDeposit",
      "type": "event"
    },
    {
      "anonymous": false,
      "inputs": [
        {
          "indexed": true,
          "name": "addr",
          "type": "address"
        },
        {
          "indexed": true,
          "name": "from",
          "type": "address"
        },
        {
          "indexed": false,
          "name": "amount",
          "type": "uint256"
        }
      ],
      "name": "DirectPayout",
      "type": "event"
    },
    {
      "anonymous": false,
      "inputs": [
        {
          "indexed": true,
          "name": "addr",
          "type": "address"
        },
        {
          "indexed": false,
          "name": "amount",
          "type": "uint256"
        }
      ],
      "name": "Withdraw",
      "type": "event"
    },
    {
      "anonymous": false,
      "inputs": [
        {
          "indexed": true,
          "name": "addr",
          "type": "address"
        },
        {
          "indexed": false,
          "name": "amount",
          "type": "uint256"
        }
      ],
      "name": "LimitReached",
      "type": "event"
    },
    {
      "constant": false,
      "inputs": [
        {
          "name": "_upline",
          "type": "address"
        }
      ],
      "name": "deposit",
      "outputs": [],
      "payable": true,
      "stateMutability": "payable",
      "type": "function"
    },
    {
      "constant": false,
      "inputs": [
        {
          "name": "_addr",
          "type": "address"
        }
      ],
      "name": "withdraw",
      "outputs": [],
      "payable": false,
      "stateMutability": "nonpayable",
      "type": "function"
    },
    {
      "constant": true,
      "inputs": [],
      "name": "getContractBalance",
      "outputs": [
        {
          "name": "",
          "type": "uint256"
        }
      ],
      "payable": false,
      "stateMutability": "view",
      "type": "function"
    },
    {
      "constant": false,
      "inputs": [
        {
          "name": "_newAdmin",
          "type": "address"
        }
      ],
      "name": "changeAdmin",
      "outputs": [],
      "payable": false,
      "stateMutability": "nonpayable",
      "type": "function"
    },
    {
      "constant": true,
      "inputs": [],
      "name": "getAdmin",
      "outputs": [
        {
          "name": "",
          "type": "address"
        }
      ],
      "payable": false,
      "stateMutability": "view",
      "type": "function"
    },
    {
      "constant": true,
      "inputs": [],
      "name": "getUser",
      "outputs": [
        {
          "name": "",
          "type": "address"
        }
      ],
      "payable": false,
      "stateMutability": "view",
      "type": "function"
    },
    {
      "constant": true,
      "inputs": [],
      "name": "getNow",
      "outputs": [
        {
          "name": "",
          "type": "uint256"
        }
      ],
      "payable": false,
      "stateMutability": "view",
      "type": "function"
    },
    {
      "constant": true,
      "inputs": [
        {
          "name": "_addr",
          "type": "address"
        }
      ],
      "name": "userInfo",
      "outputs": [
        {
          "name": "upline",
          "type": "address"
        },
        {
          "name": "deposit_time",
          "type": "uint256"
        },
        {
          "name": "payout_time",
          "type": "uint256"
        },
        {
          "name": "deposit_amount",
          "type": "uint256"
        },
        {
          "name": "direct_bonus",
          "type": "uint256"
        },
        {
          "name": "user_status",
          "type": "uint256"
        },
        {
          "name": "my_num",
          "type": "uint256"
        }
      ],
      "payable": false,
      "stateMutability": "view",
      "type": "function"
    },
    {
      "constant": true,
      "inputs": [
        {
          "name": "_addr",
          "type": "address"
        }
      ],
      "name": "tbtInfo",
      "outputs": [
        {
          "name": "from_deposit",
          "type": "uint256"
        },
        {
          "name": "from_withdrawal",
          "type": "uint256"
        },
        {
          "name": "total_tbt1",
          "type": "uint256"
        }
      ],
      "payable": false,
      "stateMutability": "view",
      "type": "function"
    },
    {
      "constant": true,
      "inputs": [
        {
          "name": "_addr",
          "type": "address"
        }
      ],
      "name": "userInfo2",
      "outputs": [
        {
          "name": "temp_directs_count",
          "type": "uint256"
        },
        {
          "name": "next_deposit1",
          "type": "uint256"
        },
        {
          "name": "tbt_offer1",
          "type": "uint256"
        },
        {
          "name": "max_payout1",
          "type": "uint256"
        },
        {
          "name": "locked_balance1",
          "type": "uint256"
        },
        {
          "name": "isReentry",
          "type": "bool"
        }
      ],
      "payable": false,
      "stateMutability": "view",
      "type": "function"
    },
    {
      "constant": true,
      "inputs": [
        {
          "name": "_addr",
          "type": "address"
        }
      ],
      "name": "packInfo",
      "outputs": [
        {
          "name": "pack1",
          "type": "uint256"
        },
        {
          "name": "pack2",
          "type": "uint256"
        },
        {
          "name": "pack3",
          "type": "uint256"
        },
        {
          "name": "pack4",
          "type": "uint256"
        },
        {
          "name": "pack5",
          "type": "uint256"
        },
        {
          "name": "userpack",
          "type": "uint256"
        }
      ],
      "payable": false,
      "stateMutability": "view",
      "type": "function"
    },
    {
      "constant": true,
      "inputs": [
        {
          "name": "_addr",
          "type": "address"
        }
      ],
      "name": "levelInfo",
      "outputs": [
        {
          "name": "level1",
          "type": "uint256"
        },
        {
          "name": "level2",
          "type": "uint256"
        },
        {
          "name": "level3",
          "type": "uint256"
        }
      ],
      "payable": false,
      "stateMutability": "view",
      "type": "function"
    },
    {
      "constant": true,
      "inputs": [
        {
          "name": "_addr",
          "type": "address"
        }
      ],
      "name": "roiInfo",
      "outputs": [
        {
          "name": "roi1",
          "type": "uint256"
        },
        {
          "name": "roi2",
          "type": "uint256"
        },
        {
          "name": "roi3",
          "type": "uint256"
        },
        {
          "name": "roi4",
          "type": "uint256"
        },
        {
          "name": "roi5",
          "type": "uint256"
        },
        {
          "name": "userroi",
          "type": "uint256"
        }
      ],
      "payable": false,
      "stateMutability": "view",
      "type": "function"
    },
    {
      "constant": true,
      "inputs": [
        {
          "name": "_addr",
          "type": "address"
        }
      ],
      "name": "tbtOfferInfo",
      "outputs": [
        {
          "name": "tbtoffer1",
          "type": "uint256"
        },
        {
          "name": "tbtoffer2",
          "type": "uint256"
        },
        {
          "name": "tbtoffer3",
          "type": "uint256"
        },
        {
          "name": "tbtoffer4",
          "type": "uint256"
        },
        {
          "name": "tbtoffer5",
          "type": "uint256"
        },
        {
          "name": "usertbtoffer",
          "type": "uint256"
        }
      ],
      "payable": false,
      "stateMutability": "view",
      "type": "function"
    },
    {
      "constant": true,
      "inputs": [
        {
          "name": "_addr",
          "type": "address"
        }
      ],
      "name": "nextDepositInfo",
      "outputs": [
        {
          "name": "nextdeposit1",
          "type": "uint256"
        },
        {
          "name": "nextdeposit2",
          "type": "uint256"
        },
        {
          "name": "nextdeposit3",
          "type": "uint256"
        },
        {
          "name": "nextdeposit4",
          "type": "uint256"
        },
        {
          "name": "nextdeposit5",
          "type": "uint256"
        },
        {
          "name": "usernextdeposit",
          "type": "uint256"
        }
      ],
      "payable": false,
      "stateMutability": "view",
      "type": "function"
    },
    {
      "constant": true,
      "inputs": [
        {
          "name": "_addr",
          "type": "address"
        }
      ],
      "name": "userInfoTotals",
      "outputs": [
        {
          "name": "referrals",
          "type": "uint256"
        },
        {
          "name": "total_deposits",
          "type": "uint256"
        },
        {
          "name": "total_payouts",
          "type": "uint256"
        },
        {
          "name": "total_structure",
          "type": "uint256"
        }
      ],
      "payable": false,
      "stateMutability": "view",
      "type": "function"
    },
    {
      "constant": true,
      "inputs": [],
      "name": "contractInfo",
      "outputs": [
        {
          "name": "_total_users",
          "type": "uint256"
        },
        {
          "name": "_total_deposited",
          "type": "uint256"
        },
        {
          "name": "_total_withdraw",
          "type": "uint256"
        }
      ],
      "payable": false,
      "stateMutability": "view",
      "type": "function"
    }
  ],
  "bytecode": "0x60806040526301312d0060065560016009553480156200001e57600080fd5b50d380156200002c57600080fd5b50d280156200003a57600080fd5b5060405160808062004a76833981018060405260808110156200005c57600080fd5b810190808051906020019092919080519060200190929190805190602001909291908051906020019092919050505083600c60006101000a81548173ffffffffffffffffffffffffffffffffffffffff021916908373ffffffffffffffffffffffffffffffffffffffff160217905550806000806101000a81548173ffffffffffffffffffffffffffffffffffffffff021916908373ffffffffffffffffffffffffffffffffffffffff16021790555082600d60006101000a81548173ffffffffffffffffffffffffffffffffffffffff021916908373ffffffffffffffffffffffffffffffffffffffff16021790555081600e60006101000a81548173ffffffffffffffffffffffffffffffffffffffff021916908373ffffffffffffffffffffffffffffffffffffffff1602179055506003600590806001815401808255809150509060018203906000526020600020016000909192909190915055506003809080600181540180825580915050906001820390600052602060002001600090919290919091505550600360029080600181540180825580915050906001820390600052602060002001600090919290919091505550600162989680908060018154018082558091505090600182039060005260206000200160009091929091909150555060016302faf080908060018154018082558091505090600182039060005260206000200160009091929091909150555060016305f5e100908060018154018082558091505090600182039060005260206000200160009091929091909150555060016308f0d18090806001815401808255809150509060018203906000526020600020016000909192909190915055506001630bebc2009080600181540180825580915050906001820390600052602060002001600090919290919091505550600260c89080600181540180825580915050906001820390600052602060002001600090919290919091505550600260fa9080600181540180825580915050906001820390600052602060002001600090919290919091505550600261012c9080600181540180825580915050906001820390600052602060002001600090919290919091505550600261015e9080600181540180825580915050906001820390600052602060002001600090919290919091505550600261019090806001815401808255809150509060018203906000526020600020016000909192909190915055506004600090806001815401808255809150509060018203906000526020600020016000909192909190915055506004600e90806001815401808255809150509060018203906000526020600020016000909192909190915055506004601b90806001815401808255809150509060018203906000526020600020016000909192909190915055506004602690806001815401808255809150509060018203906000526020600020016000909192909190915055506004602e90806001815401808255809150509060018203906000526020600020016000909192909190915055506005601e90806001815401808255809150509060018203906000526020600020016000909192909190915055506005600f90806001815401808255809150509060018203906000526020600020016000909192909190915055506005601490806001815401808255809150509060018203906000526020600020016000909192909190915055506005601990806001815401808255809150509060018203906000526020600020016000909192909190915055506005601e90806001815401808255809150509060018203906000526020600020016000909192909190915055506298968060140260076000600c60009054906101000a900473ffffffffffffffffffffffffffffffffffffffff1673ffffffffffffffffffffffffffffffffffffffff1673ffffffffffffffffffffffffffffffffffffffff16815260200190815260200160002060040181905550600160086000600c60009054906101000a900473ffffffffffffffffffffffffffffffffffffffff1673ffffffffffffffffffffffffffffffffffffffff1673ffffffffffffffffffffffffffffffffffffffff168152602001908152602001600020600301819055506000600490505b600081101515620007d157600181815481101515620006a457fe5b90600052602060002001546298968080021115620007c2576064629896808002600283815481101515620006d457fe5b906000526020600020015402811515620006ea57fe5b0460076000600c60009054906101000a900473ffffffffffffffffffffffffffffffffffffffff1673ffffffffffffffffffffffffffffffffffffffff1673ffffffffffffffffffffffffffffffffffffffff168152602001908152602001600020600801819055508060076000600c60009054906101000a900473ffffffffffffffffffffffffffffffffffffffff1673ffffffffffffffffffffffffffffffffffffffff1673ffffffffffffffffffffffffffffffffffffffff168152602001908152602001600020600a0181905550620007d1565b80806001900391505062000689565b50600160076000600c60009054906101000a900473ffffffffffffffffffffffffffffffffffffffff1673ffffffffffffffffffffffffffffffffffffffff1673ffffffffffffffffffffffffffffffffffffffff168152602001908152602001600020600701819055504260076000600c60009054906101000a900473ffffffffffffffffffffffffffffffffffffffff1673ffffffffffffffffffffffffffffffffffffffff1673ffffffffffffffffffffffffffffffffffffffff1681526020019081526020016000206005018190555062989680800260086000600c60009054906101000a900473ffffffffffffffffffffffffffffffffffffffff1673ffffffffffffffffffffffffffffffffffffffff1673ffffffffffffffffffffffffffffffffffffffff168152602001908152602001600020600001600082825401925050819055505050505061414680620009306000396000f3fe60806040526004361061024d576000357c0100000000000000000000000000000000000000000000000000000000900480638f2839701161014b578063bd1c918f116100c8578063e17ceb191161008c578063e17ceb19146111af578063e696b6cf146111f4578063e7cc62bd1461125d578063f340fa01146112a2578063f851a440146112e65761024d565b8063bd1c918f14610f3b578063bf39a89c14610f80578063c3bfeb5314611037578063ca7c4003146110dd578063de560cca1461116a5761024d565b8063ab02dd7b1161010f578063ab02dd7b14610d9a578063b3a7727014610ddf578063b7d9f0d214610e48578063bbe4fd5014610eb1578063bcce847514610ef65761024d565b80638f28397014610abf57806390d9f58a14610b2a5780639a8318f414610bb75780639e2ff5e514610bfc578063a87430ba14610c9e5761024d565b80634f8632ba116101d957806374b95b2d1161019d57806374b95b2d1461086257806375e895ff146108f6578063832880e7146109985780638d38d01f14610a095780638da5cb5b14610a4e5761024d565b80634f8632ba1461062e57806351cff8d91461069f57806367b603741461070a5780636e9960c3146107ac5780636f9fb98a1461081d5761024d565b80631e4a21bb116102205780631e4a21bb1461043057806324033fc2146104d257806327211fde1461053b5780632bc8a541146105a457806340fc9f6d146105e95761024d565b806308a2626c146102525780631484a26d146102c357806315c43aaf146103085780631959a0021461035b575b600080fd5b34801561025e57600080fd5b50d3801561026b57600080fd5b50d2801561027857600080fd5b50610281611357565b604051808273ffffffffffffffffffffffffffffffffffffffff1673ffffffffffffffffffffffffffffffffffffffff16815260200191505060405180910390f35b3480156102cf57600080fd5b50d380156102dc57600080fd5b50d280156102e957600080fd5b506102f261137c565b6040518082815260200191505060405180910390f35b34801561031457600080fd5b50d3801561032157600080fd5b50d2801561032e57600080fd5b50610337611382565b60405180848152602001838152602001828152602001935050505060405180910390f35b34801561036757600080fd5b50d3801561037457600080fd5b50d2801561038157600080fd5b506103c46004803603602081101561039857600080fd5b81019080803573ffffffffffffffffffffffffffffffffffffffff16906020019092919050505061139b565b604051808873ffffffffffffffffffffffffffffffffffffffff1673ffffffffffffffffffffffffffffffffffffffff16815260200187815260200186815260200185815260200184815260200183815260200182815260200197505050505050505060405180910390f35b34801561043c57600080fd5b50d3801561044957600080fd5b50d2801561045657600080fd5b506104996004803603602081101561046d57600080fd5b81019080803573ffffffffffffffffffffffffffffffffffffffff1690602001909291905050506115b7565b60405180878152602001868152602001858152602001848152602001838152602001828152602001965050505050505060405180910390f35b3480156104de57600080fd5b50d380156104eb57600080fd5b50d280156104f857600080fd5b506105256004803603602081101561050f57600080fd5b81019080803590602001909291905050506116b7565b6040518082815260200191505060405180910390f35b34801561054757600080fd5b50d3801561055457600080fd5b50d2801561056157600080fd5b5061058e6004803603602081101561057857600080fd5b81019080803590602001909291905050506116da565b6040518082815260200191505060405180910390f35b3480156105b057600080fd5b50d380156105bd57600080fd5b50d280156105ca57600080fd5b506105d36116fd565b6040518082815260200191505060405180910390f35b3480156105f557600080fd5b50d3801561060257600080fd5b50d2801561060f57600080fd5b50610618611706565b6040518082815260200191505060405180910390f35b34801561063a57600080fd5b50d3801561064757600080fd5b50d2801561065457600080fd5b5061065d61170c565b604051808273ffffffffffffffffffffffffffffffffffffffff1673ffffffffffffffffffffffffffffffffffffffff16815260200191505060405180910390f35b3480156106ab57600080fd5b50d380156106b857600080fd5b50d280156106c557600080fd5b50610708600480360360208110156106dc57600080fd5b81019080803573ffffffffffffffffffffffffffffffffffffffff169060200190929190505050611732565b005b34801561071657600080fd5b50d3801561072357600080fd5b50d2801561073057600080fd5b506107736004803603602081101561074757600080fd5b81019080803573ffffffffffffffffffffffffffffffffffffffff1690602001909291905050506120a1565b60405180878152602001868152602001858152602001848152602001838152602001828152602001965050505050505060405180910390f35b3480156107b857600080fd5b50d380156107c557600080fd5b50d280156107d257600080fd5b506107db612189565b604051808273ffffffffffffffffffffffffffffffffffffffff1673ffffffffffffffffffffffffffffffffffffffff16815260200191505060405180910390f35b34801561082957600080fd5b50d3801561083657600080fd5b50d2801561084357600080fd5b5061084c6121b3565b6040518082815260200191505060405180910390f35b34801561086e57600080fd5b50d3801561087b57600080fd5b50d2801561088857600080fd5b506108cb6004803603602081101561089f57600080fd5b81019080803573ffffffffffffffffffffffffffffffffffffffff1690602001909291905050506121d2565b6040518085815260200184815260200183815260200182815260200194505050505060405180910390f35b34801561090257600080fd5b50d3801561090f57600080fd5b50d2801561091c57600080fd5b5061095f6004803603602081101561093357600080fd5b81019080803573ffffffffffffffffffffffffffffffffffffffff1690602001909291905050506122f3565b60405180878152602001868152602001858152602001848152602001838152602001828152602001965050505050505060405180910390f35b3480156109a457600080fd5b50d380156109b157600080fd5b50d280156109be57600080fd5b506109c76123f3565b604051808273ffffffffffffffffffffffffffffffffffffffff1673ffffffffffffffffffffffffffffffffffffffff16815260200191505060405180910390f35b348015610a1557600080fd5b50d38015610a2257600080fd5b50d28015610a2f57600080fd5b50610a3861241d565b6040518082815260200191505060405180910390f35b348015610a5a57600080fd5b50d38015610a6757600080fd5b50d28015610a7457600080fd5b50610a7d612425565b604051808273ffffffffffffffffffffffffffffffffffffffff1673ffffffffffffffffffffffffffffffffffffffff16815260200191505060405180910390f35b348015610acb57600080fd5b50d38015610ad857600080fd5b50d28015610ae557600080fd5b50610b2860048036036020811015610afc57600080fd5b81019080803573ffffffffffffffffffffffffffffffffffffffff16906020019092919050505061244b565b005b348015610b3657600080fd5b50d38015610b4357600080fd5b50d28015610b5057600080fd5b50610b9360048036036020811015610b6757600080fd5b81019080803573ffffffffffffffffffffffffffffffffffffffff1690602001909291905050506125ac565b60405180848152602001838152602001828152602001935050505060405180910390f35b348015610bc357600080fd5b50d38015610bd057600080fd5b50d28015610bdd57600080fd5b50610be66126b4565b6040518082815260200191505060405180910390f35b348015610c0857600080fd5b50d38015610c1557600080fd5b50d28015610c2257600080fd5b50610c6560048036036020811015610c3957600080fd5b81019080803573ffffffffffffffffffffffffffffffffffffffff1690602001909291905050506126ba565b60405180878152602001868152602001858152602001848152602001838152602001828152602001965050505050505060405180910390f35b348015610caa57600080fd5b50d38015610cb757600080fd5b50d28015610cc457600080fd5b50610d0760048036036020811015610cdb57600080fd5b81019080803573ffffffffffffffffffffffffffffffffffffffff1690602001909291905050506127ba565b604051808d73ffffffffffffffffffffffffffffffffffffffff1673ffffffffffffffffffffffffffffffffffffffff1681526020018c81526020018b81526020018a8152602001898152602001888152602001878152602001868152602001858152602001848152602001838152602001821515151581526020019c5050505050505050505050505060405180910390f35b348015610da657600080fd5b50d38015610db357600080fd5b50d28015610dc057600080fd5b50610dc9612847565b6040518082815260200191505060405180910390f35b348015610deb57600080fd5b50d38015610df857600080fd5b50d28015610e0557600080fd5b50610e3260048036036020811015610e1c57600080fd5b810190808035906020019092919050505061284e565b6040518082815260200191505060405180910390f35b348015610e5457600080fd5b50d38015610e6157600080fd5b50d28015610e6e57600080fd5b50610e9b60048036036020811015610e8557600080fd5b8101908080359060200190929190505050612871565b6040518082815260200191505060405180910390f35b348015610ebd57600080fd5b50d38015610eca57600080fd5b50d28015610ed757600080fd5b50610ee0612894565b6040518082815260200191505060405180910390f35b348015610f0257600080fd5b50d38015610f0f57600080fd5b50d28015610f1c57600080fd5b50610f2561289c565b6040518082815260200191505060405180910390f35b348015610f4757600080fd5b50d38015610f5457600080fd5b50d28015610f6157600080fd5b50610f6a6128a5565b6040518082815260200191505060405180910390f35b348015610f8c57600080fd5b50d38015610f9957600080fd5b50d28015610fa657600080fd5b50610fe960048036036020811015610fbd57600080fd5b81019080803573ffffffffffffffffffffffffffffffffffffffff1690602001909291905050506128aa565b604051808a8152602001898152602001888152602001878152602001868152602001858152602001848152602001838152602001828152602001995050505050505050505060405180910390f35b34801561104357600080fd5b50d3801561105057600080fd5b50d2801561105d57600080fd5b506110a06004803603602081101561107457600080fd5b81019080803573ffffffffffffffffffffffffffffffffffffffff1690602001909291905050506128f8565b6040518087815260200186815260200185815260200184815260200183815260200182151515158152602001965050505050505060405180910390f35b3480156110e957600080fd5b50d380156110f657600080fd5b50d2801561110357600080fd5b506111466004803603602081101561111a57600080fd5b81019080803573ffffffffffffffffffffffffffffffffffffffff169060200190929190505050612b22565b60405180848152602001838152602001828152602001935050505060405180910390f35b34801561117657600080fd5b50d3801561118357600080fd5b50d2801561119057600080fd5b50611199612bfd565b6040518082815260200191505060405180910390f35b3480156111bb57600080fd5b50d380156111c857600080fd5b50d280156111d557600080fd5b506111de612c03565b6040518082815260200191505060405180910390f35b34801561120057600080fd5b50d3801561120d57600080fd5b50d2801561121a57600080fd5b506112476004803603602081101561123157600080fd5b8101908080359060200190929190505050612c0c565b6040518082815260200191505060405180910390f35b34801561126957600080fd5b50d3801561127657600080fd5b50d2801561128357600080fd5b5061128c612c2f565b6040518082815260200191505060405180910390f35b6112e4600480360360208110156112b857600080fd5b81019080803573ffffffffffffffffffffffffffffffffffffffff169060200190929190505050612c35565b005b3480156112f257600080fd5b50d380156112ff57600080fd5b50d2801561130c57600080fd5b50611315612c98565b604051808273ffffffffffffffffffffffffffffffffffffffff1673ffffffffffffffffffffffffffffffffffffffff16815260200191505060405180910390f35b6000809054906101000a900473ffffffffffffffffffffffffffffffffffffffff1681565b61012c81565b6000806000600954600a54600b54925092509250909192565b6000806000806000806000600760008973ffffffffffffffffffffffffffffffffffffffff1673ffffffffffffffffffffffffffffffffffffffff16815260200190815260200160002060000160009054906101000a900473ffffffffffffffffffffffffffffffffffffffff16600760008a73ffffffffffffffffffffffffffffffffffffffff1673ffffffffffffffffffffffffffffffffffffffff16815260200190815260200160002060050154600760008b73ffffffffffffffffffffffffffffffffffffffff1673ffffffffffffffffffffffffffffffffffffffff16815260200190815260200160002060090154600760008c73ffffffffffffffffffffffffffffffffffffffff1673ffffffffffffffffffffffffffffffffffffffff16815260200190815260200160002060040154600760008d73ffffffffffffffffffffffffffffffffffffffff1673ffffffffffffffffffffffffffffffffffffffff16815260200190815260200160002060030154600760008e73ffffffffffffffffffffffffffffffffffffffff1673ffffffffffffffffffffffffffffffffffffffff16815260200190815260200160002060070154600760008f73ffffffffffffffffffffffffffffffffffffffff1673ffffffffffffffffffffffffffffffffffffffff168152602001908152602001600020600a01548696509650965096509650965096509650919395979092949650565b600080600080600080600260008154811015156115d057fe5b9060005260206000200154600260018154811015156115eb57fe5b906000526020600020015460028081548110151561160557fe5b90600052602060002001546002600381548110151561162057fe5b90600052602060002001546002600481548110151561163b57fe5b90600052602060002001546002600760008e73ffffffffffffffffffffffffffffffffffffffff1673ffffffffffffffffffffffffffffffffffffffff168152602001908152602001600020600a015481548110151561169757fe5b906000526020600020015495509550955095509550955091939550919395565b6002818154811015156116c657fe5b906000526020600020016000915090505481565b6001818154811015156116e957fe5b906000526020600020016000915090505481565b61012c60030281565b60065481565b600e60009054906101000a900473ffffffffffffffffffffffffffffffffffffffff1681565b3373ffffffffffffffffffffffffffffffffffffffff168173ffffffffffffffffffffffffffffffffffffffff1614806117b95750600e60009054906101000a900473ffffffffffffffffffffffffffffffffffffffff1673ffffffffffffffffffffffffffffffffffffffff168173ffffffffffffffffffffffffffffffffffffffff16145b151561182d576040517f08c379a000000000000000000000000000000000000000000000000000000000815260040180806020018281038252601e8152602001807f796f7520617265206e6f7420616c6c6f77656420746f20646f2074686973000081525060200191505060405180910390fd5b600760008273ffffffffffffffffffffffffffffffffffffffff1673ffffffffffffffffffffffffffffffffffffffff16815260200190815260200160002060090154600760008373ffffffffffffffffffffffffffffffffffffffff1673ffffffffffffffffffffffffffffffffffffffff16815260200190815260200160002060050154014211151561192a576040517f08c379a00000000000000000000000000000000000000000000000000000000081526004018080602001828103825260138152602001807f43616e6e6f74207769746864726177206e6f770000000000000000000000000081525060200191505060405180910390fd5b6001600760008373ffffffffffffffffffffffffffffffffffffffff1673ffffffffffffffffffffffffffffffffffffffff168152602001908152602001600020600701541415156119e4576040517f08c379a00000000000000000000000000000000000000000000000000000000081526004018080602001828103825260128152602001807f55736572206973206e6f7420616374697665000000000000000000000000000081525060200191505060405180910390fd5b6000600a600760008473ffffffffffffffffffffffffffffffffffffffff1673ffffffffffffffffffffffffffffffffffffffff16815260200190815260200160002060080154600702811515611a3757fe5b049050600080600a600760008673ffffffffffffffffffffffffffffffffffffffff1673ffffffffffffffffffffffffffffffffffffffff16815260200190815260200160002060080154600302811515611a8e57fe5b04600860008673ffffffffffffffffffffffffffffffffffffffff1673ffffffffffffffffffffffffffffffffffffffff1681526020019081526020016000206004018190555060646004600760008773ffffffffffffffffffffffffffffffffffffffff1673ffffffffffffffffffffffffffffffffffffffff168152602001908152602001600020600a0154815481101515611b2857fe5b90600052602060002001548402811515611b3e57fe5b0491506000821115611d8d573073ffffffffffffffffffffffffffffffffffffffff16318211611b715781915081611b8d565b3073ffffffffffffffffffffffffffffffffffffffff16319150815b506003600954111515611bbb57600a600654811515611ba857fe5b0482811515611bb357fe5b049050611bd8565b6005600654811515611bc957fe5b0482811515611bd457fe5b0490505b6000809054906101000a900473ffffffffffffffffffffffffffffffffffffffff1673ffffffffffffffffffffffffffffffffffffffff1663a9059cbb85620186a084026040518363ffffffff167c0100000000000000000000000000000000000000000000000000000000028152600401808373ffffffffffffffffffffffffffffffffffffffff1673ffffffffffffffffffffffffffffffffffffffff16815260200182815260200192505050602060405180830381600087803b158015611ca157600080fd5b505af1158015611cb5573d6000803e3d6000fd5b505050506040513d6020811015611ccb57600080fd5b810190808051906020019092919050505050620186a08102600860008673ffffffffffffffffffffffffffffffffffffffff1673ffffffffffffffffffffffffffffffffffffffff16815260200190815260200160002060060160008282540192505081905550620186a08102600860008673ffffffffffffffffffffffffffffffffffffffff1673ffffffffffffffffffffffffffffffffffffffff1681526020019081526020016000206008016000828254019250508190555081830392505b60646005600760008773ffffffffffffffffffffffffffffffffffffffff1673ffffffffffffffffffffffffffffffffffffffff168152602001908152602001600020600a0154815481101515611de057fe5b90600052602060002001548402811515611df657fe5b04600860008673ffffffffffffffffffffffffffffffffffffffff1673ffffffffffffffffffffffffffffffffffffffff168152602001908152602001600020600501819055503073ffffffffffffffffffffffffffffffffffffffff16318311611e645782925082611e80565b3073ffffffffffffffffffffffffffffffffffffffff16319250825b50600083111515611ef9576040517f08c379a000000000000000000000000000000000000000000000000000000000815260040180806020018281038252600b8152602001807f5a65726f207061796f757400000000000000000000000000000000000000000081525060200191505060405180910390fd5b82600860008673ffffffffffffffffffffffffffffffffffffffff1673ffffffffffffffffffffffffffffffffffffffff1681526020019081526020016000206001016000828254019250508190555082600b600082825401925050819055506000831115611faa578373ffffffffffffffffffffffffffffffffffffffff166108fc849081150290604051600060405180830381858888f19350505050158015611fa8573d6000803e3d6000fd5b505b6000600760008673ffffffffffffffffffffffffffffffffffffffff1673ffffffffffffffffffffffffffffffffffffffff168152602001908152602001600020600701819055506001600760008673ffffffffffffffffffffffffffffffffffffffff1673ffffffffffffffffffffffffffffffffffffffff168152602001908152602001600020600e0160006101000a81548160ff0219169083151502179055508373ffffffffffffffffffffffffffffffffffffffff167f884edad9ce6fa2440d8a54cc123490eb96d2768479d49ff9c7366125a9424364846040518082815260200191505060405180910390a250505050565b600080600080600080600560008154811015156120ba57fe5b9060005260206000200154600560018154811015156120d557fe5b9060005260206000200154600560028154811015156120f057fe5b90600052602060002001546005600381548110151561210b57fe5b90600052602060002001546005600481548110151561212657fe5b9060005260206000200154600860008d73ffffffffffffffffffffffffffffffffffffffff1673ffffffffffffffffffffffffffffffffffffffff1681526020019081526020016000206005015495509550955095509550955091939550919395565b6000600c60009054906101000a900473ffffffffffffffffffffffffffffffffffffffff16905090565b60003073ffffffffffffffffffffffffffffffffffffffff1631905090565b600080600080600760008673ffffffffffffffffffffffffffffffffffffffff1673ffffffffffffffffffffffffffffffffffffffff16815260200190815260200160002060010154600860008773ffffffffffffffffffffffffffffffffffffffff1673ffffffffffffffffffffffffffffffffffffffff16815260200190815260200160002060000154600860008873ffffffffffffffffffffffffffffffffffffffff1673ffffffffffffffffffffffffffffffffffffffff16815260200190815260200160002060010154600860008973ffffffffffffffffffffffffffffffffffffffff1673ffffffffffffffffffffffffffffffffffffffff1681526020019081526020016000206002015493509350935093509193509193565b6000806000806000806004600081548110151561230c57fe5b90600052602060002001546004600181548110151561232757fe5b90600052602060002001546004600281548110151561234257fe5b90600052602060002001546004600381548110151561235d57fe5b906000526020600020015460048081548110151561237757fe5b90600052602060002001546004600760008e73ffffffffffffffffffffffffffffffffffffffff1673ffffffffffffffffffffffffffffffffffffffff168152602001908152602001600020600a01548154811015156123d357fe5b906000526020600020015495509550955095509550955091939550919395565b6000600e60009054906101000a900473ffffffffffffffffffffffffffffffffffffffff16905090565b6302faf08081565b600c60009054906101000a900473ffffffffffffffffffffffffffffffffffffffff1681565b600c60009054906101000a900473ffffffffffffffffffffffffffffffffffffffff1673ffffffffffffffffffffffffffffffffffffffff163373ffffffffffffffffffffffffffffffffffffffff1614806124f45750600e60009054906101000a900473ffffffffffffffffffffffffffffffffffffffff1673ffffffffffffffffffffffffffffffffffffffff163373ffffffffffffffffffffffffffffffffffffffff16145b1515612568576040517f08c379a000000000000000000000000000000000000000000000000000000000815260040180806020018281038252600b8152602001807f4e6f7420616c6c6f77656400000000000000000000000000000000000000000081525060200191505060405180910390fd5b80600d60006101000a81548173ffffffffffffffffffffffffffffffffffffffff021916908373ffffffffffffffffffffffffffffffffffffffff16021790555050565b6000806000600760008573ffffffffffffffffffffffffffffffffffffffff1673ffffffffffffffffffffffffffffffffffffffff168152602001908152602001600020600b01600060038110151561260157fe5b0154600760008673ffffffffffffffffffffffffffffffffffffffff1673ffffffffffffffffffffffffffffffffffffffff168152602001908152602001600020600b01600160038110151561265357fe5b0154600760008773ffffffffffffffffffffffffffffffffffffffff1673ffffffffffffffffffffffffffffffffffffffff168152602001908152602001600020600b0160026003811015156126a557fe5b01549250925092509193909250565b600b5481565b600080600080600080600160008154811015156126d357fe5b90600052602060002001546001808154811015156126ed57fe5b90600052602060002001546001600281548110151561270857fe5b90600052602060002001546001600381548110151561272357fe5b90600052602060002001546001600481548110151561273e57fe5b90600052602060002001546001600760008e73ffffffffffffffffffffffffffffffffffffffff1673ffffffffffffffffffffffffffffffffffffffff168152602001908152602001600020600a015481548110151561279a57fe5b906000526020600020015495509550955095509550955091939550919395565b60076020528060005260406000206000915090508060000160009054906101000a900473ffffffffffffffffffffffffffffffffffffffff169080600101549080600201549080600301549080600401549080600501549080600601549080600701549080600801549080600901549080600a01549080600e0160009054906101000a900460ff1690508c565b6298968081565b60048181548110151561285d57fe5b906000526020600020016000915090505481565b60038181548110151561288057fe5b906000526020600020016000915090505481565b600042905090565b62989680800281565b600381565b60086020528060005260406000206000915090508060000154908060010154908060020154908060030154908060040154908060050154908060060154908060070154908060080154905089565b600080600080600080600760008873ffffffffffffffffffffffffffffffffffffffff1673ffffffffffffffffffffffffffffffffffffffff16815260200190815260200160002060060154600860008973ffffffffffffffffffffffffffffffffffffffff1673ffffffffffffffffffffffffffffffffffffffff168152602001908152602001600020600501546103e86004600760008c73ffffffffffffffffffffffffffffffffffffffff1673ffffffffffffffffffffffffffffffffffffffff168152602001908152602001600020600a01548154811015156129db57fe5b9060005260206000200154600760008c73ffffffffffffffffffffffffffffffffffffffff1673ffffffffffffffffffffffffffffffffffffffff1681526020019081526020016000206008015460070202811515612a3657fe5b04600760008b73ffffffffffffffffffffffffffffffffffffffff1673ffffffffffffffffffffffffffffffffffffffff16815260200190815260200160002060080154600860008c73ffffffffffffffffffffffffffffffffffffffff1673ffffffffffffffffffffffffffffffffffffffff16815260200190815260200160002060040154600760008d73ffffffffffffffffffffffffffffffffffffffff1673ffffffffffffffffffffffffffffffffffffffff168152602001908152602001600020600e0160009054906101000a900460ff1695509550955095509550955091939550919395565b6000806000600860008573ffffffffffffffffffffffffffffffffffffffff1673ffffffffffffffffffffffffffffffffffffffff16815260200190815260200160002060070154600860008673ffffffffffffffffffffffffffffffffffffffff1673ffffffffffffffffffffffffffffffffffffffff16815260200190815260200160002060060154600860008773ffffffffffffffffffffffffffffffffffffffff1673ffffffffffffffffffffffffffffffffffffffff168152602001908152602001600020600801549250925092509193909250565b600a5481565b61012c60020281565b600581815481101515612c1b57fe5b906000526020600020016000915090505481565b60095481565b6000600860003373ffffffffffffffffffffffffffffffffffffffff1673ffffffffffffffffffffffffffffffffffffffff168152602001908152602001600020600301541415612c8b57612c8a3382612cbe565b5b612c9533346130e3565b50565b600d60009054906101000a900473ffffffffffffffffffffffffffffffffffffffff1681565b600073ffffffffffffffffffffffffffffffffffffffff16600760008473ffffffffffffffffffffffffffffffffffffffff1673ffffffffffffffffffffffffffffffffffffffff16815260200190815260200160002060000160009054906101000a900473ffffffffffffffffffffffffffffffffffffffff1673ffffffffffffffffffffffffffffffffffffffff16148015612d8857508173ffffffffffffffffffffffffffffffffffffffff168173ffffffffffffffffffffffffffffffffffffffff1614155b8015612de25750600c60009054906101000a900473ffffffffffffffffffffffffffffffffffffffff1673ffffffffffffffffffffffffffffffffffffffff168273ffffffffffffffffffffffffffffffffffffffff1614155b8015612e8857506000600760008373ffffffffffffffffffffffffffffffffffffffff1673ffffffffffffffffffffffffffffffffffffffff168152602001908152602001600020600501541180612e875750600c60009054906101000a900473ffffffffffffffffffffffffffffffffffffffff1673ffffffffffffffffffffffffffffffffffffffff168173ffffffffffffffffffffffffffffffffffffffff16145b5b156130df5780600760008473ffffffffffffffffffffffffffffffffffffffff1673ffffffffffffffffffffffffffffffffffffffff16815260200190815260200160002060000160006101000a81548173ffffffffffffffffffffffffffffffffffffffff021916908373ffffffffffffffffffffffffffffffffffffffff160217905550600760008273ffffffffffffffffffffffffffffffffffffffff1673ffffffffffffffffffffffffffffffffffffffff168152602001908152602001600020600101600081548092919060010191905055508073ffffffffffffffffffffffffffffffffffffffff168273ffffffffffffffffffffffffffffffffffffffff167f9f4d150e5193cfa9a87226111d3b60b624d97ccc056eeeac1569af1ea27bf64160405160405180910390a360096000815480929190600101919050555060008090505b6003805490508110156130dd57600073ffffffffffffffffffffffffffffffffffffffff168273ffffffffffffffffffffffffffffffffffffffff161415613019576130dd565b600860008373ffffffffffffffffffffffffffffffffffffffff1673ffffffffffffffffffffffffffffffffffffffff16815260200190815260200160002060020160008154809291906001019190505550600760008373ffffffffffffffffffffffffffffffffffffffff1673ffffffffffffffffffffffffffffffffffffffff16815260200190815260200160002060000160009054906101000a900473ffffffffffffffffffffffffffffffffffffffff1691508080600101915050612fd2565b505b5050565b600073ffffffffffffffffffffffffffffffffffffffff16600760008473ffffffffffffffffffffffffffffffffffffffff1673ffffffffffffffffffffffffffffffffffffffff16815260200190815260200160002060000160009054906101000a900473ffffffffffffffffffffffffffffffffffffffff1673ffffffffffffffffffffffffffffffffffffffff161415806131ce5750600c60009054906101000a900473ffffffffffffffffffffffffffffffffffffffff1673ffffffffffffffffffffffffffffffffffffffff168273ffffffffffffffffffffffffffffffffffffffff16145b1515613242576040517f08c379a00000000000000000000000000000000000000000000000000000000081526004018080602001828103825260098152602001807f4e6f2075706c696e65000000000000000000000000000000000000000000000081525060200191505060405180910390fd5b6000600760008473ffffffffffffffffffffffffffffffffffffffff1673ffffffffffffffffffffffffffffffffffffffff168152602001908152602001600020600701541415156132fc576040517f08c379a00000000000000000000000000000000000000000000000000000000081526004018080602001828103825260158152602001807f416374697665206465706f73697420657869737473000000000000000000000081525060200191505060405180910390fd5b60006302faf0808210151561367657600360095411151561333857600a60065481151561332557fe5b048281151561333057fe5b049050613355565b600560065481151561334657fe5b048281151561335157fe5b0490505b620186a081026000809054906101000a900473ffffffffffffffffffffffffffffffffffffffff1673ffffffffffffffffffffffffffffffffffffffff166370a08231306040518263ffffffff167c0100000000000000000000000000000000000000000000000000000000028152600401808273ffffffffffffffffffffffffffffffffffffffff1673ffffffffffffffffffffffffffffffffffffffff16815260200191505060206040518083038186803b15801561341557600080fd5b505afa158015613429573d6000803e3d6000fd5b505050506040513d602081101561343f57600080fd5b8101908080519060200190929190505050101515156134c6576040517f08c379a000000000000000000000000000000000000000000000000000000000815260040180806020018281038252601a8152602001807f5442542062616c616e6365206e6f742073756666696369656e7400000000000081525060200191505060405180910390fd5b6000809054906101000a900473ffffffffffffffffffffffffffffffffffffffff1673ffffffffffffffffffffffffffffffffffffffff1663a9059cbb33620186a084026040518363ffffffff167c0100000000000000000000000000000000000000000000000000000000028152600401808373ffffffffffffffffffffffffffffffffffffffff1673ffffffffffffffffffffffffffffffffffffffff16815260200182815260200192505050602060405180830381600087803b15801561358f57600080fd5b505af11580156135a3573d6000803e3d6000fd5b505050506040513d60208110156135b957600080fd5b810190808051906020019092919050505050620186a08102600860008573ffffffffffffffffffffffffffffffffffffffff1673ffffffffffffffffffffffffffffffffffffffff16815260200190815260200160002060070160008282540192505081905550620186a08102600860008573ffffffffffffffffffffffffffffffffffffffff1673ffffffffffffffffffffffffffffffffffffffff168152602001908152602001600020600801600082825401925050819055505b6000600860008573ffffffffffffffffffffffffffffffffffffffff1673ffffffffffffffffffffffffffffffffffffffff16815260200190815260200160002060030154111561385257600860008473ffffffffffffffffffffffffffffffffffffffff1673ffffffffffffffffffffffffffffffffffffffff168152602001908152602001600020600501548211151561377a576040517f08c379a000000000000000000000000000000000000000000000000000000000815260040180806020018281038252600a8152602001807f42616420616d6f756e740000000000000000000000000000000000000000000081525060200191505060405180910390fd5b600860008473ffffffffffffffffffffffffffffffffffffffff1673ffffffffffffffffffffffffffffffffffffffff168152602001908152602001600020600401548201600760008573ffffffffffffffffffffffffffffffffffffffff1673ffffffffffffffffffffffffffffffffffffffff168152602001908152602001600020600401819055506000600860008573ffffffffffffffffffffffffffffffffffffffff1673ffffffffffffffffffffffffffffffffffffffff1681526020019081526020016000206004018190555061389a565b81600760008573ffffffffffffffffffffffffffffffffffffffff1673ffffffffffffffffffffffffffffffffffffffff168152602001908152602001600020600401819055505b600860008473ffffffffffffffffffffffffffffffffffffffff1673ffffffffffffffffffffffffffffffffffffffff168152602001908152602001600020600301600081548092919060010191905055506000600760008573ffffffffffffffffffffffffffffffffffffffff1673ffffffffffffffffffffffffffffffffffffffff168152602001908152602001600020600201819055506001600760008573ffffffffffffffffffffffffffffffffffffffff1673ffffffffffffffffffffffffffffffffffffffff168152602001908152602001600020600701819055506000600760008573ffffffffffffffffffffffffffffffffffffffff1673ffffffffffffffffffffffffffffffffffffffff168152602001908152602001600020600e0160006101000a81548160ff02191690831515021790555042600760008573ffffffffffffffffffffffffffffffffffffffff1673ffffffffffffffffffffffffffffffffffffffff1681526020019081526020016000206005018190555081600860008573ffffffffffffffffffffffffffffffffffffffff1673ffffffffffffffffffffffffffffffffffffffff1681526020019081526020016000206000016000828254019250508190555061012c600302600760008573ffffffffffffffffffffffffffffffffffffffff1673ffffffffffffffffffffffffffffffffffffffff168152602001908152602001600020600901819055506000600490505b600081101515613bb457600181815481101515613ada57fe5b9060005260206000200154831115613ba657606483600283815481101515613afe57fe5b906000526020600020015402811515613b1357fe5b04600760008673ffffffffffffffffffffffffffffffffffffffff1673ffffffffffffffffffffffffffffffffffffffff1681526020019081526020016000206008018190555080600760008673ffffffffffffffffffffffffffffffffffffffff1673ffffffffffffffffffffffffffffffffffffffff168152602001908152602001600020600a0181905550613bb4565b808060019003915050613ac1565b5081600a600082825401925050819055506000600760008573ffffffffffffffffffffffffffffffffffffffff1673ffffffffffffffffffffffffffffffffffffffff16815260200190815260200160002060000160009054906101000a900473ffffffffffffffffffffffffffffffffffffffff1690508373ffffffffffffffffffffffffffffffffffffffff167f2cb77763bc1e8490c1a904905c4d74b4269919aca114464f4bb4d911e60de364846040518082815260200191505060405180910390a261012c600760008373ffffffffffffffffffffffffffffffffffffffff1673ffffffffffffffffffffffffffffffffffffffff168152602001908152602001600020600501540142108015613d11575082600760008373ffffffffffffffffffffffffffffffffffffffff1673ffffffffffffffffffffffffffffffffffffffff1681526020019081526020016000206004015411155b15613e5457600760008273ffffffffffffffffffffffffffffffffffffffff1673ffffffffffffffffffffffffffffffffffffffff168152602001908152602001600020600601600081548092919060010191905055506002600760008373ffffffffffffffffffffffffffffffffffffffff1673ffffffffffffffffffffffffffffffffffffffff1681526020019081526020016000206006015410158015613e01575061012c600302600760008373ffffffffffffffffffffffffffffffffffffffff1673ffffffffffffffffffffffffffffffffffffffff16815260200190815260200160002060090154145b15613e535761012c600202600760008373ffffffffffffffffffffffffffffffffffffffff1673ffffffffffffffffffffffffffffffffffffffff168152602001908152602001600020600901819055505b5b60008090505b60038054905081101561409a57600073ffffffffffffffffffffffffffffffffffffffff168273ffffffffffffffffffffffffffffffffffffffff161415613ea15761409a565b60006064600383815481101515613eb457fe5b90600052602060002001548602811515613eca57fe5b0490508273ffffffffffffffffffffffffffffffffffffffff166108fc829081150290604051600060405180830381858888f19350505050158015613f13573d6000803e3d6000fd5b5080600760008573ffffffffffffffffffffffffffffffffffffffff1673ffffffffffffffffffffffffffffffffffffffff168152602001908152602001600020600b0183600381101515613f6457fe5b016000828254019250508190555080600760008573ffffffffffffffffffffffffffffffffffffffff1673ffffffffffffffffffffffffffffffffffffffff168152602001908152602001600020600301600082825401925050819055508573ffffffffffffffffffffffffffffffffffffffff168373ffffffffffffffffffffffffffffffffffffffff167fba5b08f0cddc64825b52c35c09323af810c1d2e29c97aba01a4ed25cfdc482d1836040518082815260200191505060405180910390a3600760008473ffffffffffffffffffffffffffffffffffffffff1673ffffffffffffffffffffffffffffffffffffffff16815260200190815260200160002060000160009054906101000a900473ffffffffffffffffffffffffffffffffffffffff169250508080600101915050613e5a565b50600d60009054906101000a900473ffffffffffffffffffffffffffffffffffffffff1673ffffffffffffffffffffffffffffffffffffffff166108fc6103e8600a86028115156140e757fe5b049081150290604051600060405180830381858888f19350505050158015614113573d6000803e3d6000fd5b505050505056fea165627a7a723058203d9288d0717dff09c5016daf12fb964d075b1f53e4586b87f59ebbceed1bce660029",
  "source": "pragma solidity 0.5.4;\r\nimport \"./TBT.sol\";  \r\n\r\ncontract TronBeast {\r\n\r\n    TBT public tbt; \r\n\r\n    struct User { \r\n        address payable upline ;\r\n        uint256 referrals ;\r\n        uint256 payouts ;\r\n        uint256 direct_bonus ;  \r\n        uint256 deposit_amount ; \r\n        uint256 deposit_time ; \r\n        uint256 temp_directs_count; \r\n        uint256 isActive ;\r\n\t    uint256 max_payout ;\r\n\t    uint256 payout_time ;\r\n        uint256 my_num ;\r\n        uint256[3] level_income;\r\n        bool isReentry;\r\n     } \r\n    \r\n    struct User2 {\r\n        uint256 total_deposits ;\r\n        uint256 total_payouts ;\r\n        uint256 total_structure ; \r\n        uint256 deposit_count ;\r\n        uint256 locked_balance ;\r\n        uint256 next_min_deposit ;\r\n        uint256 tbt_from_withdrawal ;\r\n        uint256 tbt_from_deposit ;\r\n        uint256 total_tbt ;\r\n      } \r\n     \r\n    uint256 constant public sunny = 10000000 ;   \r\n    uint256[] public pack_values ;                            \r\n    uint256[] public roi_values ;                            \r\n    uint256[] public ref_bonuses ;  \r\n    uint256[] public tbt_offer ;  \r\n    uint256[] public next_deposit ;  \r\n\r\n    uint256 constant public one_day = 300 ; // 1 days \r\n    uint256 constant public tenk_users = 3 ; // 10000 \r\n    uint256 public tbt_price = 20 trx ; // 1000 trx\r\n    uint256 constant public tbt_min_deposit = 50 trx ; // 1000 trx\r\n\r\n    uint256 constant public two_day = 2*one_day ;\r\n    uint256 constant public three_day = 3*one_day ;\r\n    uint256 constant public deposit_value = sunny*sunny ;  \r\n\r\n    mapping(address => User) public users ;\r\n    mapping(address => User2) public users2 ;\r\n \r\n    uint256 public total_users = 1 ; \r\n    \r\n    event Upline(address indexed addr, address indexed upline) ;\r\n    event NewDeposit(address indexed addr, uint256 amount) ;\r\n    event DirectPayout(address indexed addr, address indexed from, uint256 amount) ;\r\n    event Withdraw(address indexed addr, uint256 amount) ;\r\n    event LimitReached(address indexed addr, uint256 amount) ;  \r\n    \r\n    uint256 public total_deposited ;\r\n    uint256 public total_withdraw ;\r\n    address payable public owner ; \r\n    address payable public admin ; \r\n    address payable public user ;\r\n\r\n    constructor(address payable _owner, \r\n                address payable _admin1,  \r\n                address payable _user,\r\n                TBT _tbt) public {\r\n\r\n        owner = _owner;\r\n        tbt = _tbt;\r\n        admin = _admin1;\r\n        user = _user;\r\n \r\n        ref_bonuses.push(5);\r\n        ref_bonuses.push(3);\r\n        ref_bonuses.push(2); \r\n        \r\n        pack_values.push(10*1000000);  // 100*1000000\r\n        pack_values.push(50*1000000);  // 10000*1000000\r\n        pack_values.push(100*1000000); // 100000*1000000\r\n        pack_values.push(150*1000000); // 500000*1000000\r\n        pack_values.push(200*1000000); // 1000000*1000000\r\n \r\n        roi_values.push(200);\r\n        roi_values.push(250);\r\n        roi_values.push(300);\r\n        roi_values.push(350);\r\n        roi_values.push(400);\r\n\r\n        tbt_offer.push(0);\r\n        tbt_offer.push(14);\r\n        tbt_offer.push(27);\r\n        tbt_offer.push(38);\r\n        tbt_offer.push(46);\r\n\r\n        next_deposit.push(30);\r\n        next_deposit.push(15);\r\n        next_deposit.push(20);\r\n        next_deposit.push(25);\r\n        next_deposit.push(30);\r\n  \r\n        users[owner].deposit_amount = 20*sunny;\r\n        users2[owner].deposit_count = 1;\r\n        for(uint256 i = 4; i >= 0; i--){\r\n         if(deposit_value > pack_values[i]){\r\n            users[owner].max_payout = roi_values[i]*deposit_value/100;  \r\n            users[owner].my_num = i;  \r\n            break; \r\n         }}\r\n        \r\n        users[owner].isActive = 1;\r\n        users[owner].deposit_time = uint256(block.timestamp) ;\r\n        users2[owner].total_deposits += deposit_value ; \r\n      }\r\n \r\n    function _setUpline(address _addr, address payable _upline) private {\r\n        if(users[_addr].upline == address(0) && _upline != _addr && _addr != owner && \r\n\t\t(users[_upline].deposit_time > 0 || _upline == owner)) {\r\n            \r\n            users[_addr].upline = _upline;\r\n            users[_upline].referrals++;\r\n\r\n            emit Upline(_addr, _upline);\r\n\r\n            total_users++; \r\n\r\n            for(uint256 i = 0; i < ref_bonuses.length; i++) {\r\n                if(_upline == address(0)) break; \r\n                users2[_upline].total_structure++; \r\n                _upline = users[_upline].upline;\r\n            }\r\n        }\r\n    }\r\n\r\n    function _deposit(address _addr, uint256 _amount) private {\r\n\r\n        require(users[_addr].upline != address(0) || _addr == owner, \"No upline\");\r\n        require(users[_addr].isActive == 0,\"Active deposit exists\");\r\n\r\n        uint256 tbt_amount ;\r\n        \r\n        if(_amount >= tbt_min_deposit){ // 1000 trx | 50 trx\r\n            if( total_users <= tenk_users){ \r\n                tbt_amount = _amount/(tbt_price/10);  // 1000 trx | 20 trx per token\r\n             } else {\r\n                tbt_amount = _amount/(tbt_price/5);  // 2000 trx | 40 trx per token \r\n            }  \r\n            require(tbt.balanceOf(address(this)) >= tbt_amount*100000 , \"TBT balance not sufficient\");\r\n\r\n            tbt.transfer(msg.sender,tbt_amount*100000); // token transfer\r\n\r\n            users2[_addr].tbt_from_deposit += tbt_amount*100000 ;\r\n            users2[_addr].total_tbt += tbt_amount*100000 ;\r\n\r\n        }\r\n \r\n        if(users2[_addr].deposit_count > 0){    // re-investment\r\n            require(_amount > users2[_addr].next_min_deposit,\"Bad amount\"); \r\n            users[_addr].deposit_amount = _amount + users2[_addr].locked_balance;\r\n            users2[_addr].locked_balance = 0; \r\n        } else {\r\n            users[_addr].deposit_amount = _amount;\r\n        }\r\n\r\n        users2[_addr].deposit_count++ ;  \r\n        users[_addr].payouts = 0;\r\n        users[_addr].isActive = 1;\r\n        users[_addr].isReentry = false;\r\n        users[_addr].deposit_time = uint256(block.timestamp);\r\n        \r\n        users2[_addr].total_deposits += _amount;\r\n        users[_addr].payout_time = three_day;\r\n\r\n        for(uint256 i = 4; i >= 0; i--){\r\n            if(_amount > pack_values[i]){\r\n         users[_addr].max_payout = roi_values[i]*_amount/100;  \r\n         users[_addr].my_num = i;  \r\n         break; \r\n         }}\r\n\r\n        total_deposited += _amount; \r\n        address payable up = users[_addr].upline;   \r\n        emit NewDeposit(_addr, _amount); \r\n\r\n            if((block.timestamp <  users[up].deposit_time + one_day) && users[up].deposit_amount <= _amount ){\r\n            users[up].temp_directs_count++; \r\n            if(users[up].temp_directs_count >= 2 && users[up].payout_time == three_day){\r\n                 users[up].payout_time = two_day ;\r\n             }}  \r\n\r\n        for(uint256 i = 0; i < ref_bonuses.length; i++) {\r\n            if(up == address(0)) break; \r\n                uint256 bonus = _amount * ref_bonuses[i] / 100; \r\n                up.transfer(bonus); \r\n                users[up].level_income[i] += bonus;\r\n                users[up].direct_bonus += bonus;\r\n                emit DirectPayout(up, _addr, bonus); \r\n                up = users[up].upline;\r\n        } \r\n        admin.transfer(_amount * 10 / 1000);  \r\n    }\r\n\r\n    function deposit(address payable _upline) payable external {\r\n         if(users2[msg.sender].deposit_count == 0){\r\n            _setUpline(msg.sender, _upline); \r\n         }\r\n            _deposit(msg.sender, msg.value); \r\n    } \r\n \r\n    function withdraw(address payable _addr) external {\r\n        \r\n        require(_addr == msg.sender || _addr == user, \"you are not allowed to do this\"); \r\n        require(block.timestamp > users[_addr].deposit_time + users[_addr].payout_time, \"Cannot withdraw now\"); \r\n        require(users[_addr].isActive == 1, \"User is not active\");\r\n\r\n        uint256 to_payout = 7*users[_addr].max_payout/10;\r\n        uint256 to_tbt;\r\n        uint256 tbt_amount;\r\n        users2[_addr].locked_balance = 3*users[_addr].max_payout/10; \r\n        \r\n        to_tbt = to_payout*tbt_offer[users[_addr].my_num]/100;\r\n        if(to_tbt > 0 ){ \r\n                to_tbt > address(this).balance ?\r\n                to_tbt = address(this).balance :\r\n                to_tbt = to_tbt; \r\n\r\n                if( total_users <= tenk_users){ \r\n                    tbt_amount = to_tbt/(tbt_price/10);  // 1000 trx | 20 trx per token\r\n                } else {\r\n                    tbt_amount = to_tbt/(tbt_price/5);  // 2000 trx | 40 trx per token \r\n                }   \r\n\r\n                tbt.transfer(_addr,tbt_amount*100000); // token transfer\r\n                users2[_addr].tbt_from_withdrawal += tbt_amount*100000 ;\r\n                users2[_addr].total_tbt += tbt_amount*100000 ;\r\n                to_payout -= to_tbt ;\r\n        }\r\n        users2[_addr].next_min_deposit = to_payout*next_deposit[users[_addr].my_num]/100; \r\n             \r\n        to_payout > address(this).balance ?\r\n        to_payout = address(this).balance :\r\n        to_payout = to_payout; \r\n\r\n        require(to_payout > 0, \"Zero payout\");\r\n        \r\n        users2[_addr].total_payouts += to_payout;\r\n        total_withdraw += to_payout;\r\n        \r\n        if(to_payout > 0){\r\n             _addr.transfer(to_payout); \r\n        }\r\n        users[_addr].isActive = 0; \r\n        users[_addr].isReentry = true;\r\n        emit Withdraw(_addr, to_payout); \r\n    }\r\n\r\n    /*\r\n        Only external call\r\n    */ \r\n\r\n\tfunction getContractBalance() public view returns (uint256) {\r\n\t\treturn address(this).balance;\r\n\t}  \r\n  \r\n    function changeAdmin(address payable _newAdmin) public {\r\n\t\trequire(msg.sender == owner || msg.sender == user, \"Not allowed\");\r\n\t\tadmin  = _newAdmin;\r\n\t} \r\n \r\n    function getAdmin() external view returns (address){ \r\n        return owner;\r\n    }  \r\n\r\n    function getUser() external view returns (address){ \r\n        return user;\r\n    } \r\n    \r\n    function getNow() external view returns (uint256){ \r\n        return block.timestamp;\r\n    } \r\n\r\n    function userInfo(address _addr) view external returns(address upline, uint256 deposit_time, uint256 payout_time, uint256 deposit_amount,  uint256 direct_bonus  , uint256 user_status , uint256 my_num) {\r\n        return (users[_addr].upline, users[_addr].deposit_time, users[_addr].payout_time, users[_addr].deposit_amount,    users[_addr].direct_bonus , users[_addr].isActive, users[_addr].my_num );\r\n    }\r\n\r\n    function tbtInfo(address _addr) view external returns(uint256 from_deposit, uint256 from_withdrawal, uint256 total_tbt1) {\r\n        return (users2[_addr].tbt_from_deposit, users2[_addr].tbt_from_withdrawal, users2[_addr].total_tbt);\r\n    }\r\n\r\n    function userInfo2(address _addr) view external returns( uint256 temp_directs_count, uint256 next_deposit1, uint256 tbt_offer1,  uint256 max_payout1,  uint256 locked_balance1, bool isReentry ) {\r\n        return ( users[_addr].temp_directs_count, users2[_addr].next_min_deposit, \r\n        7*users[_addr].max_payout*tbt_offer[users[_addr].my_num]/1000 , users[_addr].max_payout, users2[_addr].locked_balance, users[_addr].isReentry);\r\n    }\r\n\r\n    function packInfo(address _addr) view external returns(uint256 pack1, uint256 pack2, uint256 pack3, uint256 pack4, uint256 pack5, uint256 userpack) {\r\n        return (pack_values[0] , pack_values[1] , pack_values[2] , pack_values[3] , pack_values[4] , pack_values[users[_addr].my_num] );\r\n    }\r\n\r\n    function levelInfo(address _addr) view external returns(uint256 level1, uint256 level2, uint256 level3 ) {\r\n        return (users[_addr].level_income[0] , users[_addr].level_income[1] , users[_addr].level_income[2]  );\r\n    } \r\n \r\n    function roiInfo(address _addr) view external returns(uint256 roi1, uint256 roi2, uint256 roi3, uint256 roi4, uint256 roi5, uint256 userroi) {\r\n        return (roi_values[0] , roi_values[1] , roi_values[2] , roi_values[3] , roi_values[4] , roi_values[users[_addr].my_num] );\r\n    } \r\n    \r\n    function tbtOfferInfo(address _addr) view external returns(uint256 tbtoffer1, uint256 tbtoffer2, uint256 tbtoffer3, uint256 tbtoffer4, uint256 tbtoffer5, uint256 usertbtoffer) {\r\n        return (tbt_offer[0] , tbt_offer[1] , tbt_offer[2] , tbt_offer[3] , tbt_offer[4] , tbt_offer[users[_addr].my_num] );\r\n    } \r\n    \r\n    function nextDepositInfo(address _addr) view external returns(uint256 nextdeposit1, uint256 nextdeposit2, uint256 nextdeposit3, uint256 nextdeposit4, uint256 nextdeposit5, uint256 usernextdeposit) {\r\n        return (next_deposit[0] , next_deposit[1] , next_deposit[2] , next_deposit[3] , next_deposit[4] ,  users2[_addr].next_min_deposit  );\r\n    }\r\n\r\n    function userInfoTotals(address _addr) view external returns(uint256 referrals, uint256 total_deposits, uint256 total_payouts, uint256 total_structure  ) {\r\n        return (users[_addr].referrals, users2[_addr].total_deposits, users2[_addr].total_payouts, users2[_addr].total_structure );\r\n    }\r\n\r\n    function contractInfo() view external returns(uint256 _total_users, uint256 _total_deposited, uint256 _total_withdraw ) {\r\n        return (total_users, total_deposited, total_withdraw  );\r\n    } \r\n          \r\n}",
  "sourcePath": "C:/Users/RAAKESH/Desktop/Coding/TronDapp/AATRON BEAST/Code/contracts/TronBeast.sol",
  "compiler": {
    "name": "solc",
    "version": "0.5.4+commit.d15a3125.mod.Emscripten.clang"
  },
  "schemaVersion": "2.0.1",
  "updatedAt": "2021-02-05T06:23:51.412Z"
}