{
  "contractName": "TronBeast",
  "abi": [
    {
      "constant": true,
      "inputs": [],
      "name": "tbt",
      "outputs": [
        {
          "name": "",
          "type": "address"
        }
      ],
      "payable": false,
      "stateMutability": "view",
      "type": "function"
    },
    {
      "constant": true,
      "inputs": [],
      "name": "one_day",
      "outputs": [
        {
          "name": "",
          "type": "uint256"
        }
      ],
      "payable": false,
      "stateMutability": "view",
      "type": "function"
    },
    {
      "constant": true,
      "inputs": [
        {
          "name": "",
          "type": "uint256"
        }
      ],
      "name": "roi_values",
      "outputs": [
        {
          "name": "",
          "type": "uint256"
        }
      ],
      "payable": false,
      "stateMutability": "view",
      "type": "function"
    },
    {
      "constant": true,
      "inputs": [
        {
          "name": "",
          "type": "uint256"
        }
      ],
      "name": "pack_values",
      "outputs": [
        {
          "name": "",
          "type": "uint256"
        }
      ],
      "payable": false,
      "stateMutability": "view",
      "type": "function"
    },
    {
      "constant": true,
      "inputs": [],
      "name": "three_day",
      "outputs": [
        {
          "name": "",
          "type": "uint256"
        }
      ],
      "payable": false,
      "stateMutability": "view",
      "type": "function"
    },
    {
      "constant": true,
      "inputs": [],
      "name": "tbt_price",
      "outputs": [
        {
          "name": "",
          "type": "uint256"
        }
      ],
      "payable": false,
      "stateMutability": "view",
      "type": "function"
    },
    {
      "constant": true,
      "inputs": [],
      "name": "user",
      "outputs": [
        {
          "name": "",
          "type": "address"
        }
      ],
      "payable": false,
      "stateMutability": "view",
      "type": "function"
    },
    {
      "constant": true,
      "inputs": [],
      "name": "tbt_min_deposit",
      "outputs": [
        {
          "name": "",
          "type": "uint256"
        }
      ],
      "payable": false,
      "stateMutability": "view",
      "type": "function"
    },
    {
      "constant": true,
      "inputs": [],
      "name": "owner",
      "outputs": [
        {
          "name": "",
          "type": "address"
        }
      ],
      "payable": false,
      "stateMutability": "view",
      "type": "function"
    },
    {
      "constant": true,
      "inputs": [],
      "name": "total_withdraw",
      "outputs": [
        {
          "name": "",
          "type": "uint256"
        }
      ],
      "payable": false,
      "stateMutability": "view",
      "type": "function"
    },
    {
      "constant": true,
      "inputs": [
        {
          "name": "",
          "type": "address"
        }
      ],
      "name": "users",
      "outputs": [
        {
          "name": "upline",
          "type": "address"
        },
        {
          "name": "referrals",
          "type": "uint256"
        },
        {
          "name": "payouts",
          "type": "uint256"
        },
        {
          "name": "direct_bonus",
          "type": "uint256"
        },
        {
          "name": "deposit_amount",
          "type": "uint256"
        },
        {
          "name": "deposit_time",
          "type": "uint256"
        },
        {
          "name": "temp_directs_count",
          "type": "uint256"
        },
        {
          "name": "isActive",
          "type": "uint256"
        },
        {
          "name": "max_payout",
          "type": "uint256"
        },
        {
          "name": "payout_time",
          "type": "uint256"
        },
        {
          "name": "my_num",
          "type": "uint256"
        }
      ],
      "payable": false,
      "stateMutability": "view",
      "type": "function"
    },
    {
      "constant": true,
      "inputs": [],
      "name": "sunny",
      "outputs": [
        {
          "name": "",
          "type": "uint256"
        }
      ],
      "payable": false,
      "stateMutability": "view",
      "type": "function"
    },
    {
      "constant": true,
      "inputs": [
        {
          "name": "",
          "type": "uint256"
        }
      ],
      "name": "tbt_offer",
      "outputs": [
        {
          "name": "",
          "type": "uint256"
        }
      ],
      "payable": false,
      "stateMutability": "view",
      "type": "function"
    },
    {
      "constant": true,
      "inputs": [
        {
          "name": "",
          "type": "uint256"
        }
      ],
      "name": "ref_bonuses",
      "outputs": [
        {
          "name": "",
          "type": "uint256"
        }
      ],
      "payable": false,
      "stateMutability": "view",
      "type": "function"
    },
    {
      "constant": true,
      "inputs": [],
      "name": "deposit_value",
      "outputs": [
        {
          "name": "",
          "type": "uint256"
        }
      ],
      "payable": false,
      "stateMutability": "view",
      "type": "function"
    },
    {
      "constant": true,
      "inputs": [],
      "name": "tenk_users",
      "outputs": [
        {
          "name": "",
          "type": "uint256"
        }
      ],
      "payable": false,
      "stateMutability": "view",
      "type": "function"
    },
    {
      "constant": true,
      "inputs": [
        {
          "name": "",
          "type": "address"
        }
      ],
      "name": "users2",
      "outputs": [
        {
          "name": "total_deposits",
          "type": "uint256"
        },
        {
          "name": "total_payouts",
          "type": "uint256"
        },
        {
          "name": "total_structure",
          "type": "uint256"
        },
        {
          "name": "deposit_count",
          "type": "uint256"
        },
        {
          "name": "locked_balance",
          "type": "uint256"
        },
        {
          "name": "next_min_deposit",
          "type": "uint256"
        },
        {
          "name": "tbt_from_withdrawal",
          "type": "uint256"
        },
        {
          "name": "tbt_from_deposit",
          "type": "uint256"
        },
        {
          "name": "total_tbt",
          "type": "uint256"
        }
      ],
      "payable": false,
      "stateMutability": "view",
      "type": "function"
    },
    {
      "constant": true,
      "inputs": [],
      "name": "total_deposited",
      "outputs": [
        {
          "name": "",
          "type": "uint256"
        }
      ],
      "payable": false,
      "stateMutability": "view",
      "type": "function"
    },
    {
      "constant": true,
      "inputs": [],
      "name": "two_day",
      "outputs": [
        {
          "name": "",
          "type": "uint256"
        }
      ],
      "payable": false,
      "stateMutability": "view",
      "type": "function"
    },
    {
      "constant": true,
      "inputs": [
        {
          "name": "",
          "type": "uint256"
        }
      ],
      "name": "next_deposit",
      "outputs": [
        {
          "name": "",
          "type": "uint256"
        }
      ],
      "payable": false,
      "stateMutability": "view",
      "type": "function"
    },
    {
      "constant": true,
      "inputs": [],
      "name": "total_users",
      "outputs": [
        {
          "name": "",
          "type": "uint256"
        }
      ],
      "payable": false,
      "stateMutability": "view",
      "type": "function"
    },
    {
      "constant": true,
      "inputs": [],
      "name": "admin",
      "outputs": [
        {
          "name": "",
          "type": "address"
        }
      ],
      "payable": false,
      "stateMutability": "view",
      "type": "function"
    },
    {
      "inputs": [
        {
          "name": "_owner",
          "type": "address"
        },
        {
          "name": "_admin1",
          "type": "address"
        },
        {
          "name": "_user",
          "type": "address"
        },
        {
          "name": "_tbt",
          "type": "address"
        }
      ],
      "payable": false,
      "stateMutability": "nonpayable",
      "type": "constructor"
    },
    {
      "anonymous": false,
      "inputs": [
        {
          "indexed": true,
          "name": "addr",
          "type": "address"
        },
        {
          "indexed": true,
          "name": "upline",
          "type": "address"
        }
      ],
      "name": "Upline",
      "type": "event"
    },
    {
      "anonymous": false,
      "inputs": [
        {
          "indexed": true,
          "name": "addr",
          "type": "address"
        },
        {
          "indexed": false,
          "name": "amount",
          "type": "uint256"
        }
      ],
      "name": "NewDeposit",
      "type": "event"
    },
    {
      "anonymous": false,
      "inputs": [
        {
          "indexed": true,
          "name": "addr",
          "type": "address"
        },
        {
          "indexed": true,
          "name": "from",
          "type": "address"
        },
        {
          "indexed": false,
          "name": "amount",
          "type": "uint256"
        }
      ],
      "name": "DirectPayout",
      "type": "event"
    },
    {
      "anonymous": false,
      "inputs": [
        {
          "indexed": true,
          "name": "addr",
          "type": "address"
        },
        {
          "indexed": false,
          "name": "amount",
          "type": "uint256"
        }
      ],
      "name": "Withdraw",
      "type": "event"
    },
    {
      "anonymous": false,
      "inputs": [
        {
          "indexed": true,
          "name": "addr",
          "type": "address"
        },
        {
          "indexed": false,
          "name": "amount",
          "type": "uint256"
        }
      ],
      "name": "LimitReached",
      "type": "event"
    },
    {
      "constant": false,
      "inputs": [
        {
          "name": "_upline",
          "type": "address"
        }
      ],
      "name": "deposit",
      "outputs": [],
      "payable": true,
      "stateMutability": "payable",
      "type": "function"
    },
    {
      "constant": false,
      "inputs": [
        {
          "name": "_addr",
          "type": "address"
        }
      ],
      "name": "withdraw",
      "outputs": [],
      "payable": false,
      "stateMutability": "nonpayable",
      "type": "function"
    },
    {
      "constant": true,
      "inputs": [],
      "name": "getContractBalance",
      "outputs": [
        {
          "name": "",
          "type": "uint256"
        }
      ],
      "payable": false,
      "stateMutability": "view",
      "type": "function"
    },
    {
      "constant": false,
      "inputs": [
        {
          "name": "_newAdmin",
          "type": "address"
        }
      ],
      "name": "changeAdmin",
      "outputs": [],
      "payable": false,
      "stateMutability": "nonpayable",
      "type": "function"
    },
    {
      "constant": true,
      "inputs": [],
      "name": "getAdmin",
      "outputs": [
        {
          "name": "",
          "type": "address"
        }
      ],
      "payable": false,
      "stateMutability": "view",
      "type": "function"
    },
    {
      "constant": true,
      "inputs": [],
      "name": "getUser",
      "outputs": [
        {
          "name": "",
          "type": "address"
        }
      ],
      "payable": false,
      "stateMutability": "view",
      "type": "function"
    },
    {
      "constant": true,
      "inputs": [],
      "name": "getNow",
      "outputs": [
        {
          "name": "",
          "type": "uint256"
        }
      ],
      "payable": false,
      "stateMutability": "view",
      "type": "function"
    },
    {
      "constant": true,
      "inputs": [
        {
          "name": "_addr",
          "type": "address"
        }
      ],
      "name": "userInfo",
      "outputs": [
        {
          "name": "upline",
          "type": "address"
        },
        {
          "name": "deposit_time",
          "type": "uint256"
        },
        {
          "name": "payout_time",
          "type": "uint256"
        },
        {
          "name": "deposit_amount",
          "type": "uint256"
        },
        {
          "name": "direct_bonus",
          "type": "uint256"
        },
        {
          "name": "user_status",
          "type": "uint256"
        },
        {
          "name": "my_num",
          "type": "uint256"
        }
      ],
      "payable": false,
      "stateMutability": "view",
      "type": "function"
    },
    {
      "constant": true,
      "inputs": [
        {
          "name": "_addr",
          "type": "address"
        }
      ],
      "name": "tbtInfo",
      "outputs": [
        {
          "name": "from_deposit",
          "type": "uint256"
        },
        {
          "name": "from_withdrawal",
          "type": "uint256"
        },
        {
          "name": "total_tbt1",
          "type": "uint256"
        }
      ],
      "payable": false,
      "stateMutability": "view",
      "type": "function"
    },
    {
      "constant": true,
      "inputs": [
        {
          "name": "_addr",
          "type": "address"
        }
      ],
      "name": "userInfo2",
      "outputs": [
        {
          "name": "temp_directs_count",
          "type": "uint256"
        },
        {
          "name": "next_deposit1",
          "type": "uint256"
        },
        {
          "name": "tbt_offer1",
          "type": "uint256"
        },
        {
          "name": "max_payout1",
          "type": "uint256"
        }
      ],
      "payable": false,
      "stateMutability": "view",
      "type": "function"
    },
    {
      "constant": true,
      "inputs": [
        {
          "name": "_addr",
          "type": "address"
        }
      ],
      "name": "packInfo",
      "outputs": [
        {
          "name": "pack1",
          "type": "uint256"
        },
        {
          "name": "pack2",
          "type": "uint256"
        },
        {
          "name": "pack3",
          "type": "uint256"
        },
        {
          "name": "pack4",
          "type": "uint256"
        },
        {
          "name": "pack5",
          "type": "uint256"
        },
        {
          "name": "userpack",
          "type": "uint256"
        }
      ],
      "payable": false,
      "stateMutability": "view",
      "type": "function"
    },
    {
      "constant": true,
      "inputs": [
        {
          "name": "_addr",
          "type": "address"
        }
      ],
      "name": "roiInfo",
      "outputs": [
        {
          "name": "roi1",
          "type": "uint256"
        },
        {
          "name": "roi2",
          "type": "uint256"
        },
        {
          "name": "roi3",
          "type": "uint256"
        },
        {
          "name": "roi4",
          "type": "uint256"
        },
        {
          "name": "roi5",
          "type": "uint256"
        },
        {
          "name": "userroi",
          "type": "uint256"
        }
      ],
      "payable": false,
      "stateMutability": "view",
      "type": "function"
    },
    {
      "constant": true,
      "inputs": [
        {
          "name": "_addr",
          "type": "address"
        }
      ],
      "name": "tbtOfferInfo",
      "outputs": [
        {
          "name": "tbtoffer1",
          "type": "uint256"
        },
        {
          "name": "tbtoffer2",
          "type": "uint256"
        },
        {
          "name": "tbtoffer3",
          "type": "uint256"
        },
        {
          "name": "tbtoffer4",
          "type": "uint256"
        },
        {
          "name": "tbtoffer5",
          "type": "uint256"
        },
        {
          "name": "usertbtoffer",
          "type": "uint256"
        }
      ],
      "payable": false,
      "stateMutability": "view",
      "type": "function"
    },
    {
      "constant": true,
      "inputs": [
        {
          "name": "_addr",
          "type": "address"
        }
      ],
      "name": "nextDepositInfo",
      "outputs": [
        {
          "name": "nextdeposit1",
          "type": "uint256"
        },
        {
          "name": "nextdeposit2",
          "type": "uint256"
        },
        {
          "name": "nextdeposit3",
          "type": "uint256"
        },
        {
          "name": "nextdeposit4",
          "type": "uint256"
        },
        {
          "name": "nextdeposit5",
          "type": "uint256"
        },
        {
          "name": "usernextdeposit",
          "type": "uint256"
        }
      ],
      "payable": false,
      "stateMutability": "view",
      "type": "function"
    },
    {
      "constant": true,
      "inputs": [
        {
          "name": "_addr",
          "type": "address"
        }
      ],
      "name": "userInfoTotals",
      "outputs": [
        {
          "name": "referrals",
          "type": "uint256"
        },
        {
          "name": "total_deposits",
          "type": "uint256"
        },
        {
          "name": "total_payouts",
          "type": "uint256"
        },
        {
          "name": "total_structure",
          "type": "uint256"
        }
      ],
      "payable": false,
      "stateMutability": "view",
      "type": "function"
    },
    {
      "constant": true,
      "inputs": [],
      "name": "contractInfo",
      "outputs": [
        {
          "name": "_total_users",
          "type": "uint256"
        },
        {
          "name": "_total_deposited",
          "type": "uint256"
        },
        {
          "name": "_total_withdraw",
          "type": "uint256"
        }
      ],
      "payable": false,
      "stateMutability": "view",
      "type": "function"
    }
  ],
  "bytecode": "0x60806040526301312d0060065560016009553480156200001e57600080fd5b50d380156200002c57600080fd5b50d280156200003a57600080fd5b5060405160808062004728833981018060405260808110156200005c57600080fd5b810190808051906020019092919080519060200190929190805190602001909291908051906020019092919050505083600c60006101000a81548173ffffffffffffffffffffffffffffffffffffffff021916908373ffffffffffffffffffffffffffffffffffffffff160217905550806000806101000a81548173ffffffffffffffffffffffffffffffffffffffff021916908373ffffffffffffffffffffffffffffffffffffffff16021790555082600d60006101000a81548173ffffffffffffffffffffffffffffffffffffffff021916908373ffffffffffffffffffffffffffffffffffffffff16021790555081600e60006101000a81548173ffffffffffffffffffffffffffffffffffffffff021916908373ffffffffffffffffffffffffffffffffffffffff1602179055506003600590806001815401808255809150509060018203906000526020600020016000909192909190915055506003809080600181540180825580915050906001820390600052602060002001600090919290919091505550600360029080600181540180825580915050906001820390600052602060002001600090919290919091505550600162989680908060018154018082558091505090600182039060005260206000200160009091929091909150555060016302faf080908060018154018082558091505090600182039060005260206000200160009091929091909150555060016305f5e100908060018154018082558091505090600182039060005260206000200160009091929091909150555060016308f0d18090806001815401808255809150509060018203906000526020600020016000909192909190915055506001630bebc2009080600181540180825580915050906001820390600052602060002001600090919290919091505550600260c89080600181540180825580915050906001820390600052602060002001600090919290919091505550600260fa9080600181540180825580915050906001820390600052602060002001600090919290919091505550600261012c9080600181540180825580915050906001820390600052602060002001600090919290919091505550600261015e9080600181540180825580915050906001820390600052602060002001600090919290919091505550600261019090806001815401808255809150509060018203906000526020600020016000909192909190915055506004600090806001815401808255809150509060018203906000526020600020016000909192909190915055506004600e90806001815401808255809150509060018203906000526020600020016000909192909190915055506004601b90806001815401808255809150509060018203906000526020600020016000909192909190915055506004602690806001815401808255809150509060018203906000526020600020016000909192909190915055506004602e90806001815401808255809150509060018203906000526020600020016000909192909190915055506005600090806001815401808255809150509060018203906000526020600020016000909192909190915055506005600f90806001815401808255809150509060018203906000526020600020016000909192909190915055506005601490806001815401808255809150509060018203906000526020600020016000909192909190915055506005601990806001815401808255809150509060018203906000526020600020016000909192909190915055506005601e908060018154018082558091505090600182039060005260206000200160009091929091909150555062989680800260076000600c60009054906101000a900473ffffffffffffffffffffffffffffffffffffffff1673ffffffffffffffffffffffffffffffffffffffff1673ffffffffffffffffffffffffffffffffffffffff16815260200190815260200160002060040181905550600160086000600c60009054906101000a900473ffffffffffffffffffffffffffffffffffffffff1673ffffffffffffffffffffffffffffffffffffffff1673ffffffffffffffffffffffffffffffffffffffff168152602001908152602001600020600301819055506000600490505b600081101515620007d057600181815481101515620006a357fe5b90600052602060002001546298968080021115620007c1576064629896808002600283815481101515620006d357fe5b906000526020600020015402811515620006e957fe5b0460076000600c60009054906101000a900473ffffffffffffffffffffffffffffffffffffffff1673ffffffffffffffffffffffffffffffffffffffff1673ffffffffffffffffffffffffffffffffffffffff168152602001908152602001600020600801819055508060076000600c60009054906101000a900473ffffffffffffffffffffffffffffffffffffffff1673ffffffffffffffffffffffffffffffffffffffff1673ffffffffffffffffffffffffffffffffffffffff168152602001908152602001600020600a0181905550620007d0565b80806001900391505062000688565b50600160076000600c60009054906101000a900473ffffffffffffffffffffffffffffffffffffffff1673ffffffffffffffffffffffffffffffffffffffff1673ffffffffffffffffffffffffffffffffffffffff168152602001908152602001600020600701819055504260076000600c60009054906101000a900473ffffffffffffffffffffffffffffffffffffffff1673ffffffffffffffffffffffffffffffffffffffff1673ffffffffffffffffffffffffffffffffffffffff1681526020019081526020016000206005018190555062989680800260086000600c60009054906101000a900473ffffffffffffffffffffffffffffffffffffffff1673ffffffffffffffffffffffffffffffffffffffff1673ffffffffffffffffffffffffffffffffffffffff1681526020019081526020016000206000016000828254019250508190555050505050613df9806200092f6000396000f3fe608060405260043610610242576000357c0100000000000000000000000000000000000000000000000000000000900480638f28397011610140578063bd1c918f116100c8578063e17ceb191161008c578063e17ceb19146110fa578063e696b6cf1461113f578063e7cc62bd146111a8578063f340fa01146111ed578063f851a4401461123157610242565b8063bd1c918f14610e98578063bf39a89c14610edd578063c3bfeb5314610f94578063ca7c400314611028578063de560cca146110b557610242565b8063ab02dd7b1161010f578063ab02dd7b14610cf7578063b3a7727014610d3c578063b7d9f0d214610da5578063bbe4fd5014610e0e578063bcce847514610e5357610242565b80638f28397014610ab45780639a8318f414610b1f5780639e2ff5e514610b64578063a87430ba14610c0657610242565b80634f8632ba116101ce57806374b95b2d1161019257806374b95b2d1461085757806375e895ff146108eb578063832880e71461098d5780638d38d01f146109fe5780638da5cb5b14610a4357610242565b80634f8632ba1461062357806351cff8d91461069457806367b60374146106ff5780636e9960c3146107a15780636f9fb98a1461081257610242565b80631e4a21bb116102155780631e4a21bb1461042557806324033fc2146104c757806327211fde146105305780632bc8a5411461059957806340fc9f6d146105de57610242565b806308a2626c146102475780631484a26d146102b857806315c43aaf146102fd5780631959a00214610350575b600080fd5b34801561025357600080fd5b50d3801561026057600080fd5b50d2801561026d57600080fd5b506102766112a2565b604051808273ffffffffffffffffffffffffffffffffffffffff1673ffffffffffffffffffffffffffffffffffffffff16815260200191505060405180910390f35b3480156102c457600080fd5b50d380156102d157600080fd5b50d280156102de57600080fd5b506102e76112c7565b6040518082815260200191505060405180910390f35b34801561030957600080fd5b50d3801561031657600080fd5b50d2801561032357600080fd5b5061032c6112cc565b60405180848152602001838152602001828152602001935050505060405180910390f35b34801561035c57600080fd5b50d3801561036957600080fd5b50d2801561037657600080fd5b506103b96004803603602081101561038d57600080fd5b81019080803573ffffffffffffffffffffffffffffffffffffffff1690602001909291905050506112e5565b604051808873ffffffffffffffffffffffffffffffffffffffff1673ffffffffffffffffffffffffffffffffffffffff16815260200187815260200186815260200185815260200184815260200183815260200182815260200197505050505050505060405180910390f35b34801561043157600080fd5b50d3801561043e57600080fd5b50d2801561044b57600080fd5b5061048e6004803603602081101561046257600080fd5b81019080803573ffffffffffffffffffffffffffffffffffffffff169060200190929190505050611501565b60405180878152602001868152602001858152602001848152602001838152602001828152602001965050505050505060405180910390f35b3480156104d357600080fd5b50d380156104e057600080fd5b50d280156104ed57600080fd5b5061051a6004803603602081101561050457600080fd5b8101908080359060200190929190505050611601565b6040518082815260200191505060405180910390f35b34801561053c57600080fd5b50d3801561054957600080fd5b50d2801561055657600080fd5b506105836004803603602081101561056d57600080fd5b8101908080359060200190929190505050611624565b6040518082815260200191505060405180910390f35b3480156105a557600080fd5b50d380156105b257600080fd5b50d280156105bf57600080fd5b506105c8611647565b6040518082815260200191505060405180910390f35b3480156105ea57600080fd5b50d380156105f757600080fd5b50d2801561060457600080fd5b5061060d61164f565b6040518082815260200191505060405180910390f35b34801561062f57600080fd5b50d3801561063c57600080fd5b50d2801561064957600080fd5b50610652611655565b604051808273ffffffffffffffffffffffffffffffffffffffff1673ffffffffffffffffffffffffffffffffffffffff16815260200191505060405180910390f35b3480156106a057600080fd5b50d380156106ad57600080fd5b50d280156106ba57600080fd5b506106fd600480360360208110156106d157600080fd5b81019080803573ffffffffffffffffffffffffffffffffffffffff16906020019092919050505061167b565b005b34801561070b57600080fd5b50d3801561071857600080fd5b50d2801561072557600080fd5b506107686004803603602081101561073c57600080fd5b81019080803573ffffffffffffffffffffffffffffffffffffffff169060200190929190505050611f85565b60405180878152602001868152602001858152602001848152602001838152602001828152602001965050505050505060405180910390f35b3480156107ad57600080fd5b50d380156107ba57600080fd5b50d280156107c757600080fd5b506107d061206d565b604051808273ffffffffffffffffffffffffffffffffffffffff1673ffffffffffffffffffffffffffffffffffffffff16815260200191505060405180910390f35b34801561081e57600080fd5b50d3801561082b57600080fd5b50d2801561083857600080fd5b50610841612097565b6040518082815260200191505060405180910390f35b34801561086357600080fd5b50d3801561087057600080fd5b50d2801561087d57600080fd5b506108c06004803603602081101561089457600080fd5b81019080803573ffffffffffffffffffffffffffffffffffffffff1690602001909291905050506120b6565b6040518085815260200184815260200183815260200182815260200194505050505060405180910390f35b3480156108f757600080fd5b50d3801561090457600080fd5b50d2801561091157600080fd5b506109546004803603602081101561092857600080fd5b81019080803573ffffffffffffffffffffffffffffffffffffffff1690602001909291905050506121d7565b60405180878152602001868152602001858152602001848152602001838152602001828152602001965050505050505060405180910390f35b34801561099957600080fd5b50d380156109a657600080fd5b50d280156109b357600080fd5b506109bc6122d7565b604051808273ffffffffffffffffffffffffffffffffffffffff1673ffffffffffffffffffffffffffffffffffffffff16815260200191505060405180910390f35b348015610a0a57600080fd5b50d38015610a1757600080fd5b50d28015610a2457600080fd5b50610a2d612301565b6040518082815260200191505060405180910390f35b348015610a4f57600080fd5b50d38015610a5c57600080fd5b50d28015610a6957600080fd5b50610a72612309565b604051808273ffffffffffffffffffffffffffffffffffffffff1673ffffffffffffffffffffffffffffffffffffffff16815260200191505060405180910390f35b348015610ac057600080fd5b50d38015610acd57600080fd5b50d28015610ada57600080fd5b50610b1d60048036036020811015610af157600080fd5b81019080803573ffffffffffffffffffffffffffffffffffffffff16906020019092919050505061232f565b005b348015610b2b57600080fd5b50d38015610b3857600080fd5b50d28015610b4557600080fd5b50610b4e612490565b6040518082815260200191505060405180910390f35b348015610b7057600080fd5b50d38015610b7d57600080fd5b50d28015610b8a57600080fd5b50610bcd60048036036020811015610ba157600080fd5b81019080803573ffffffffffffffffffffffffffffffffffffffff169060200190929190505050612496565b60405180878152602001868152602001858152602001848152602001838152602001828152602001965050505050505060405180910390f35b348015610c1257600080fd5b50d38015610c1f57600080fd5b50d28015610c2c57600080fd5b50610c6f60048036036020811015610c4357600080fd5b81019080803573ffffffffffffffffffffffffffffffffffffffff169060200190929190505050612596565b604051808c73ffffffffffffffffffffffffffffffffffffffff1673ffffffffffffffffffffffffffffffffffffffff1681526020018b81526020018a81526020018981526020018881526020018781526020018681526020018581526020018481526020018381526020018281526020019b50505050505050505050505060405180910390f35b348015610d0357600080fd5b50d38015610d1057600080fd5b50d28015610d1d57600080fd5b50610d26612610565b6040518082815260200191505060405180910390f35b348015610d4857600080fd5b50d38015610d5557600080fd5b50d28015610d6257600080fd5b50610d8f60048036036020811015610d7957600080fd5b8101908080359060200190929190505050612617565b6040518082815260200191505060405180910390f35b348015610db157600080fd5b50d38015610dbe57600080fd5b50d28015610dcb57600080fd5b50610df860048036036020811015610de257600080fd5b810190808035906020019092919050505061263a565b6040518082815260200191505060405180910390f35b348015610e1a57600080fd5b50d38015610e2757600080fd5b50d28015610e3457600080fd5b50610e3d61265d565b6040518082815260200191505060405180910390f35b348015610e5f57600080fd5b50d38015610e6c57600080fd5b50d28015610e7957600080fd5b50610e82612665565b6040518082815260200191505060405180910390f35b348015610ea457600080fd5b50d38015610eb157600080fd5b50d28015610ebe57600080fd5b50610ec761266e565b6040518082815260200191505060405180910390f35b348015610ee957600080fd5b50d38015610ef657600080fd5b50d28015610f0357600080fd5b50610f4660048036036020811015610f1a57600080fd5b81019080803573ffffffffffffffffffffffffffffffffffffffff169060200190929190505050612673565b604051808a8152602001898152602001888152602001878152602001868152602001858152602001848152602001838152602001828152602001995050505050505050505060405180910390f35b348015610fa057600080fd5b50d38015610fad57600080fd5b50d28015610fba57600080fd5b50610ffd60048036036020811015610fd157600080fd5b81019080803573ffffffffffffffffffffffffffffffffffffffff1690602001909291905050506126c1565b6040518085815260200184815260200183815260200182815260200194505050505060405180910390f35b34801561103457600080fd5b50d3801561104157600080fd5b50d2801561104e57600080fd5b506110916004803603602081101561106557600080fd5b81019080803573ffffffffffffffffffffffffffffffffffffffff16906020019092919050505061284f565b60405180848152602001838152602001828152602001935050505060405180910390f35b3480156110c157600080fd5b50d380156110ce57600080fd5b50d280156110db57600080fd5b506110e461292a565b6040518082815260200191505060405180910390f35b34801561110657600080fd5b50d3801561111357600080fd5b50d2801561112057600080fd5b50611129612930565b6040518082815260200191505060405180910390f35b34801561114b57600080fd5b50d3801561115857600080fd5b50d2801561116557600080fd5b506111926004803603602081101561117c57600080fd5b8101908080359060200190929190505050612938565b6040518082815260200191505060405180910390f35b3480156111b457600080fd5b50d380156111c157600080fd5b50d280156111ce57600080fd5b506111d761295b565b6040518082815260200191505060405180910390f35b61122f6004803603602081101561120357600080fd5b81019080803573ffffffffffffffffffffffffffffffffffffffff169060200190929190505050612961565b005b34801561123d57600080fd5b50d3801561124a57600080fd5b50d2801561125757600080fd5b506112606129c4565b604051808273ffffffffffffffffffffffffffffffffffffffff1673ffffffffffffffffffffffffffffffffffffffff16815260200191505060405180910390f35b6000809054906101000a900473ffffffffffffffffffffffffffffffffffffffff1681565b601e81565b6000806000600954600a54600b54925092509250909192565b6000806000806000806000600760008973ffffffffffffffffffffffffffffffffffffffff1673ffffffffffffffffffffffffffffffffffffffff16815260200190815260200160002060000160009054906101000a900473ffffffffffffffffffffffffffffffffffffffff16600760008a73ffffffffffffffffffffffffffffffffffffffff1673ffffffffffffffffffffffffffffffffffffffff16815260200190815260200160002060050154600760008b73ffffffffffffffffffffffffffffffffffffffff1673ffffffffffffffffffffffffffffffffffffffff16815260200190815260200160002060090154600760008c73ffffffffffffffffffffffffffffffffffffffff1673ffffffffffffffffffffffffffffffffffffffff16815260200190815260200160002060040154600760008d73ffffffffffffffffffffffffffffffffffffffff1673ffffffffffffffffffffffffffffffffffffffff16815260200190815260200160002060030154600760008e73ffffffffffffffffffffffffffffffffffffffff1673ffffffffffffffffffffffffffffffffffffffff16815260200190815260200160002060070154600760008f73ffffffffffffffffffffffffffffffffffffffff1673ffffffffffffffffffffffffffffffffffffffff168152602001908152602001600020600a01548696509650965096509650965096509650919395979092949650565b6000806000806000806002600081548110151561151a57fe5b90600052602060002001546002600181548110151561153557fe5b906000526020600020015460028081548110151561154f57fe5b90600052602060002001546002600381548110151561156a57fe5b90600052602060002001546002600481548110151561158557fe5b90600052602060002001546002600760008e73ffffffffffffffffffffffffffffffffffffffff1673ffffffffffffffffffffffffffffffffffffffff168152602001908152602001600020600a01548154811015156115e157fe5b906000526020600020015495509550955095509550955091939550919395565b60028181548110151561161057fe5b906000526020600020016000915090505481565b60018181548110151561163357fe5b906000526020600020016000915090505481565b601e60030281565b60065481565b600e60009054906101000a900473ffffffffffffffffffffffffffffffffffffffff1681565b3373ffffffffffffffffffffffffffffffffffffffff168173ffffffffffffffffffffffffffffffffffffffff1614806117025750600e60009054906101000a900473ffffffffffffffffffffffffffffffffffffffff1673ffffffffffffffffffffffffffffffffffffffff168173ffffffffffffffffffffffffffffffffffffffff16145b1515611776576040517f08c379a000000000000000000000000000000000000000000000000000000000815260040180806020018281038252601e8152602001807f796f7520617265206e6f7420616c6c6f77656420746f20646f2074686973000081525060200191505060405180910390fd5b600760008273ffffffffffffffffffffffffffffffffffffffff1673ffffffffffffffffffffffffffffffffffffffff16815260200190815260200160002060090154600760008373ffffffffffffffffffffffffffffffffffffffff1673ffffffffffffffffffffffffffffffffffffffff168152602001908152602001600020600501540142111515611873576040517f08c379a00000000000000000000000000000000000000000000000000000000081526004018080602001828103825260138152602001807f43616e6e6f74207769746864726177206e6f770000000000000000000000000081525060200191505060405180910390fd5b6001600760008373ffffffffffffffffffffffffffffffffffffffff1673ffffffffffffffffffffffffffffffffffffffff1681526020019081526020016000206007015414151561192d576040517f08c379a00000000000000000000000000000000000000000000000000000000081526004018080602001828103825260128152602001807f55736572206973206e6f7420616374697665000000000000000000000000000081525060200191505060405180910390fd5b6000600a600760008473ffffffffffffffffffffffffffffffffffffffff1673ffffffffffffffffffffffffffffffffffffffff1681526020019081526020016000206008015460070281151561198057fe5b049050600080600a600760008673ffffffffffffffffffffffffffffffffffffffff1673ffffffffffffffffffffffffffffffffffffffff168152602001908152602001600020600801546003028115156119d757fe5b04600860008673ffffffffffffffffffffffffffffffffffffffff1673ffffffffffffffffffffffffffffffffffffffff1681526020019081526020016000206004018190555060646004600760008773ffffffffffffffffffffffffffffffffffffffff1673ffffffffffffffffffffffffffffffffffffffff168152602001908152602001600020600a0154815481101515611a7157fe5b90600052602060002001548402811515611a8757fe5b0491503073ffffffffffffffffffffffffffffffffffffffff16318211611ab15781915081611acd565b3073ffffffffffffffffffffffffffffffffffffffff16319150815b506003600954111515611afb57600a600654811515611ae857fe5b0482811515611af357fe5b049050611b18565b6005600654811515611b0957fe5b0482811515611b1457fe5b0490505b6000809054906101000a900473ffffffffffffffffffffffffffffffffffffffff1673ffffffffffffffffffffffffffffffffffffffff1663a9059cbb85620186a084026040518363ffffffff167c0100000000000000000000000000000000000000000000000000000000028152600401808373ffffffffffffffffffffffffffffffffffffffff1673ffffffffffffffffffffffffffffffffffffffff16815260200182815260200192505050602060405180830381600087803b158015611be157600080fd5b505af1158015611bf5573d6000803e3d6000fd5b505050506040513d6020811015611c0b57600080fd5b810190808051906020019092919050505050620186a08102600860008673ffffffffffffffffffffffffffffffffffffffff1673ffffffffffffffffffffffffffffffffffffffff16815260200190815260200160002060060160008282540192505081905550620186a08102600860008673ffffffffffffffffffffffffffffffffffffffff1673ffffffffffffffffffffffffffffffffffffffff16815260200190815260200160002060080160008282540192505081905550818303925060646005600760008773ffffffffffffffffffffffffffffffffffffffff1673ffffffffffffffffffffffffffffffffffffffff168152602001908152602001600020600a0154815481101515611d1f57fe5b90600052602060002001548402811515611d3557fe5b04600860008673ffffffffffffffffffffffffffffffffffffffff1673ffffffffffffffffffffffffffffffffffffffff168152602001908152602001600020600501819055503073ffffffffffffffffffffffffffffffffffffffff16318311611da35782925082611dbf565b3073ffffffffffffffffffffffffffffffffffffffff16319250825b50600083111515611e38576040517f08c379a000000000000000000000000000000000000000000000000000000000815260040180806020018281038252600b8152602001807f5a65726f207061796f757400000000000000000000000000000000000000000081525060200191505060405180910390fd5b82600860008673ffffffffffffffffffffffffffffffffffffffff1673ffffffffffffffffffffffffffffffffffffffff1681526020019081526020016000206001016000828254019250508190555082600b600082825401925050819055506000831115611ee9578373ffffffffffffffffffffffffffffffffffffffff166108fc849081150290604051600060405180830381858888f19350505050158015611ee7573d6000803e3d6000fd5b505b6000600760008673ffffffffffffffffffffffffffffffffffffffff1673ffffffffffffffffffffffffffffffffffffffff168152602001908152602001600020600701819055508373ffffffffffffffffffffffffffffffffffffffff167f884edad9ce6fa2440d8a54cc123490eb96d2768479d49ff9c7366125a9424364846040518082815260200191505060405180910390a250505050565b60008060008060008060056000815481101515611f9e57fe5b906000526020600020015460056001815481101515611fb957fe5b906000526020600020015460056002815481101515611fd457fe5b906000526020600020015460056003815481101515611fef57fe5b90600052602060002001546005600481548110151561200a57fe5b9060005260206000200154600860008d73ffffffffffffffffffffffffffffffffffffffff1673ffffffffffffffffffffffffffffffffffffffff1681526020019081526020016000206005015495509550955095509550955091939550919395565b6000600c60009054906101000a900473ffffffffffffffffffffffffffffffffffffffff16905090565b60003073ffffffffffffffffffffffffffffffffffffffff1631905090565b600080600080600760008673ffffffffffffffffffffffffffffffffffffffff1673ffffffffffffffffffffffffffffffffffffffff16815260200190815260200160002060010154600860008773ffffffffffffffffffffffffffffffffffffffff1673ffffffffffffffffffffffffffffffffffffffff16815260200190815260200160002060000154600860008873ffffffffffffffffffffffffffffffffffffffff1673ffffffffffffffffffffffffffffffffffffffff16815260200190815260200160002060010154600860008973ffffffffffffffffffffffffffffffffffffffff1673ffffffffffffffffffffffffffffffffffffffff1681526020019081526020016000206002015493509350935093509193509193565b600080600080600080600460008154811015156121f057fe5b90600052602060002001546004600181548110151561220b57fe5b90600052602060002001546004600281548110151561222657fe5b90600052602060002001546004600381548110151561224157fe5b906000526020600020015460048081548110151561225b57fe5b90600052602060002001546004600760008e73ffffffffffffffffffffffffffffffffffffffff1673ffffffffffffffffffffffffffffffffffffffff168152602001908152602001600020600a01548154811015156122b757fe5b906000526020600020015495509550955095509550955091939550919395565b6000600e60009054906101000a900473ffffffffffffffffffffffffffffffffffffffff16905090565b6302faf08081565b600c60009054906101000a900473ffffffffffffffffffffffffffffffffffffffff1681565b600c60009054906101000a900473ffffffffffffffffffffffffffffffffffffffff1673ffffffffffffffffffffffffffffffffffffffff163373ffffffffffffffffffffffffffffffffffffffff1614806123d85750600e60009054906101000a900473ffffffffffffffffffffffffffffffffffffffff1673ffffffffffffffffffffffffffffffffffffffff163373ffffffffffffffffffffffffffffffffffffffff16145b151561244c576040517f08c379a000000000000000000000000000000000000000000000000000000000815260040180806020018281038252600b8152602001807f4e6f7420616c6c6f77656400000000000000000000000000000000000000000081525060200191505060405180910390fd5b80600d60006101000a81548173ffffffffffffffffffffffffffffffffffffffff021916908373ffffffffffffffffffffffffffffffffffffffff16021790555050565b600b5481565b600080600080600080600160008154811015156124af57fe5b90600052602060002001546001808154811015156124c957fe5b9060005260206000200154600160028154811015156124e457fe5b9060005260206000200154600160038154811015156124ff57fe5b90600052602060002001546001600481548110151561251a57fe5b90600052602060002001546001600760008e73ffffffffffffffffffffffffffffffffffffffff1673ffffffffffffffffffffffffffffffffffffffff168152602001908152602001600020600a015481548110151561257657fe5b906000526020600020015495509550955095509550955091939550919395565b60076020528060005260406000206000915090508060000160009054906101000a900473ffffffffffffffffffffffffffffffffffffffff169080600101549080600201549080600301549080600401549080600501549080600601549080600701549080600801549080600901549080600a015490508b565b6298968081565b60048181548110151561262657fe5b906000526020600020016000915090505481565b60038181548110151561264957fe5b906000526020600020016000915090505481565b600042905090565b62989680800281565b600381565b60086020528060005260406000206000915090508060000154908060010154908060020154908060030154908060040154908060050154908060060154908060070154908060080154905089565b600080600080600760008673ffffffffffffffffffffffffffffffffffffffff1673ffffffffffffffffffffffffffffffffffffffff16815260200190815260200160002060060154600860008773ffffffffffffffffffffffffffffffffffffffff1673ffffffffffffffffffffffffffffffffffffffff168152602001908152602001600020600501546103e86004600760008a73ffffffffffffffffffffffffffffffffffffffff1673ffffffffffffffffffffffffffffffffffffffff168152602001908152602001600020600a01548154811015156127a157fe5b9060005260206000200154600760008a73ffffffffffffffffffffffffffffffffffffffff1673ffffffffffffffffffffffffffffffffffffffff16815260200190815260200160002060080154600702028115156127fc57fe5b04600760008973ffffffffffffffffffffffffffffffffffffffff1673ffffffffffffffffffffffffffffffffffffffff1681526020019081526020016000206008015493509350935093509193509193565b6000806000600860008573ffffffffffffffffffffffffffffffffffffffff1673ffffffffffffffffffffffffffffffffffffffff16815260200190815260200160002060070154600860008673ffffffffffffffffffffffffffffffffffffffff1673ffffffffffffffffffffffffffffffffffffffff16815260200190815260200160002060060154600860008773ffffffffffffffffffffffffffffffffffffffff1673ffffffffffffffffffffffffffffffffffffffff168152602001908152602001600020600801549250925092509193909250565b600a5481565b601e60020281565b60058181548110151561294757fe5b906000526020600020016000915090505481565b60095481565b6000600860003373ffffffffffffffffffffffffffffffffffffffff1673ffffffffffffffffffffffffffffffffffffffff1681526020019081526020016000206003015414156129b7576129b633826129ea565b5b6129c13334612e0f565b50565b600d60009054906101000a900473ffffffffffffffffffffffffffffffffffffffff1681565b600073ffffffffffffffffffffffffffffffffffffffff16600760008473ffffffffffffffffffffffffffffffffffffffff1673ffffffffffffffffffffffffffffffffffffffff16815260200190815260200160002060000160009054906101000a900473ffffffffffffffffffffffffffffffffffffffff1673ffffffffffffffffffffffffffffffffffffffff16148015612ab457508173ffffffffffffffffffffffffffffffffffffffff168173ffffffffffffffffffffffffffffffffffffffff1614155b8015612b0e5750600c60009054906101000a900473ffffffffffffffffffffffffffffffffffffffff1673ffffffffffffffffffffffffffffffffffffffff168273ffffffffffffffffffffffffffffffffffffffff1614155b8015612bb457506000600760008373ffffffffffffffffffffffffffffffffffffffff1673ffffffffffffffffffffffffffffffffffffffff168152602001908152602001600020600501541180612bb35750600c60009054906101000a900473ffffffffffffffffffffffffffffffffffffffff1673ffffffffffffffffffffffffffffffffffffffff168173ffffffffffffffffffffffffffffffffffffffff16145b5b15612e0b5780600760008473ffffffffffffffffffffffffffffffffffffffff1673ffffffffffffffffffffffffffffffffffffffff16815260200190815260200160002060000160006101000a81548173ffffffffffffffffffffffffffffffffffffffff021916908373ffffffffffffffffffffffffffffffffffffffff160217905550600760008273ffffffffffffffffffffffffffffffffffffffff1673ffffffffffffffffffffffffffffffffffffffff168152602001908152602001600020600101600081548092919060010191905055508073ffffffffffffffffffffffffffffffffffffffff168273ffffffffffffffffffffffffffffffffffffffff167f9f4d150e5193cfa9a87226111d3b60b624d97ccc056eeeac1569af1ea27bf64160405160405180910390a360096000815480929190600101919050555060008090505b600380549050811015612e0957600073ffffffffffffffffffffffffffffffffffffffff168273ffffffffffffffffffffffffffffffffffffffff161415612d4557612e09565b600860008373ffffffffffffffffffffffffffffffffffffffff1673ffffffffffffffffffffffffffffffffffffffff16815260200190815260200160002060020160008154809291906001019190505550600760008373ffffffffffffffffffffffffffffffffffffffff1673ffffffffffffffffffffffffffffffffffffffff16815260200190815260200160002060000160009054906101000a900473ffffffffffffffffffffffffffffffffffffffff1691508080600101915050612cfe565b505b5050565b600073ffffffffffffffffffffffffffffffffffffffff16600760008473ffffffffffffffffffffffffffffffffffffffff1673ffffffffffffffffffffffffffffffffffffffff16815260200190815260200160002060000160009054906101000a900473ffffffffffffffffffffffffffffffffffffffff1673ffffffffffffffffffffffffffffffffffffffff16141580612efa5750600c60009054906101000a900473ffffffffffffffffffffffffffffffffffffffff1673ffffffffffffffffffffffffffffffffffffffff168273ffffffffffffffffffffffffffffffffffffffff16145b1515612f6e576040517f08c379a00000000000000000000000000000000000000000000000000000000081526004018080602001828103825260098152602001807f4e6f2075706c696e65000000000000000000000000000000000000000000000081525060200191505060405180910390fd5b6000600760008473ffffffffffffffffffffffffffffffffffffffff1673ffffffffffffffffffffffffffffffffffffffff16815260200190815260200160002060070154141515613028576040517f08c379a00000000000000000000000000000000000000000000000000000000081526004018080602001828103825260158152602001807f416374697665206465706f73697420657869737473000000000000000000000081525060200191505060405180910390fd5b60006302faf080821015156133a257600360095411151561306457600a60065481151561305157fe5b048281151561305c57fe5b049050613081565b600560065481151561307257fe5b048281151561307d57fe5b0490505b620186a081026000809054906101000a900473ffffffffffffffffffffffffffffffffffffffff1673ffffffffffffffffffffffffffffffffffffffff166370a08231306040518263ffffffff167c0100000000000000000000000000000000000000000000000000000000028152600401808273ffffffffffffffffffffffffffffffffffffffff1673ffffffffffffffffffffffffffffffffffffffff16815260200191505060206040518083038186803b15801561314157600080fd5b505afa158015613155573d6000803e3d6000fd5b505050506040513d602081101561316b57600080fd5b8101908080519060200190929190505050101515156131f2576040517f08c379a000000000000000000000000000000000000000000000000000000000815260040180806020018281038252601a8152602001807f5442542062616c616e6365206e6f742073756666696369656e7400000000000081525060200191505060405180910390fd5b6000809054906101000a900473ffffffffffffffffffffffffffffffffffffffff1673ffffffffffffffffffffffffffffffffffffffff1663a9059cbb33620186a084026040518363ffffffff167c0100000000000000000000000000000000000000000000000000000000028152600401808373ffffffffffffffffffffffffffffffffffffffff1673ffffffffffffffffffffffffffffffffffffffff16815260200182815260200192505050602060405180830381600087803b1580156132bb57600080fd5b505af11580156132cf573d6000803e3d6000fd5b505050506040513d60208110156132e557600080fd5b810190808051906020019092919050505050620186a08102600860008573ffffffffffffffffffffffffffffffffffffffff1673ffffffffffffffffffffffffffffffffffffffff16815260200190815260200160002060070160008282540192505081905550620186a08102600860008573ffffffffffffffffffffffffffffffffffffffff1673ffffffffffffffffffffffffffffffffffffffff168152602001908152602001600020600801600082825401925050819055505b6000600860008573ffffffffffffffffffffffffffffffffffffffff1673ffffffffffffffffffffffffffffffffffffffff16815260200190815260200160002060030154111561357e57600860008473ffffffffffffffffffffffffffffffffffffffff1673ffffffffffffffffffffffffffffffffffffffff16815260200190815260200160002060050154821115156134a6576040517f08c379a000000000000000000000000000000000000000000000000000000000815260040180806020018281038252600a8152602001807f42616420616d6f756e740000000000000000000000000000000000000000000081525060200191505060405180910390fd5b600860008473ffffffffffffffffffffffffffffffffffffffff1673ffffffffffffffffffffffffffffffffffffffff168152602001908152602001600020600401548201600760008573ffffffffffffffffffffffffffffffffffffffff1673ffffffffffffffffffffffffffffffffffffffff168152602001908152602001600020600401819055506000600860008573ffffffffffffffffffffffffffffffffffffffff1673ffffffffffffffffffffffffffffffffffffffff168152602001908152602001600020600401819055506135c6565b81600760008573ffffffffffffffffffffffffffffffffffffffff1673ffffffffffffffffffffffffffffffffffffffff168152602001908152602001600020600401819055505b600860008473ffffffffffffffffffffffffffffffffffffffff1673ffffffffffffffffffffffffffffffffffffffff168152602001908152602001600020600301600081548092919060010191905055506000600760008573ffffffffffffffffffffffffffffffffffffffff1673ffffffffffffffffffffffffffffffffffffffff168152602001908152602001600020600201819055506001600760008573ffffffffffffffffffffffffffffffffffffffff1673ffffffffffffffffffffffffffffffffffffffff1681526020019081526020016000206007018190555042600760008573ffffffffffffffffffffffffffffffffffffffff1673ffffffffffffffffffffffffffffffffffffffff1681526020019081526020016000206005018190555081600860008573ffffffffffffffffffffffffffffffffffffffff1673ffffffffffffffffffffffffffffffffffffffff16815260200190815260200160002060000160008282540192505081905550601e600302600760008573ffffffffffffffffffffffffffffffffffffffff1673ffffffffffffffffffffffffffffffffffffffff168152602001908152602001600020600901819055506000600490505b6000811015156138c8576001818154811015156137aa57fe5b90600052602060002001548311156138ba576064836002838154811015156137ce57fe5b9060005260206000200154028115156137e357fe5b0460076000600c60009054906101000a900473ffffffffffffffffffffffffffffffffffffffff1673ffffffffffffffffffffffffffffffffffffffff1673ffffffffffffffffffffffffffffffffffffffff168152602001908152602001600020600801819055508060076000600c60009054906101000a900473ffffffffffffffffffffffffffffffffffffffff1673ffffffffffffffffffffffffffffffffffffffff1673ffffffffffffffffffffffffffffffffffffffff168152602001908152602001600020600a01819055506138c8565b808060019003915050613791565b5081600a600082825401925050819055506000600760008573ffffffffffffffffffffffffffffffffffffffff1673ffffffffffffffffffffffffffffffffffffffff16815260200190815260200160002060000160009054906101000a900473ffffffffffffffffffffffffffffffffffffffff1690508373ffffffffffffffffffffffffffffffffffffffff167f2cb77763bc1e8490c1a904905c4d74b4269919aca114464f4bb4d911e60de364846040518082815260200191505060405180910390a2601e600760008373ffffffffffffffffffffffffffffffffffffffff1673ffffffffffffffffffffffffffffffffffffffff168152602001908152602001600020600501540142108015613a24575082600760008373ffffffffffffffffffffffffffffffffffffffff1673ffffffffffffffffffffffffffffffffffffffff1681526020019081526020016000206004015411155b15613b6557600760008273ffffffffffffffffffffffffffffffffffffffff1673ffffffffffffffffffffffffffffffffffffffff168152602001908152602001600020600601600081548092919060010191905055506002600760008373ffffffffffffffffffffffffffffffffffffffff1673ffffffffffffffffffffffffffffffffffffffff1681526020019081526020016000206006015410158015613b135750601e600302600760008373ffffffffffffffffffffffffffffffffffffffff1673ffffffffffffffffffffffffffffffffffffffff16815260200190815260200160002060090154145b15613b6457601e600202600760008373ffffffffffffffffffffffffffffffffffffffff1673ffffffffffffffffffffffffffffffffffffffff168152602001908152602001600020600901819055505b5b60008090505b600380549050811015613d4d57600073ffffffffffffffffffffffffffffffffffffffff168273ffffffffffffffffffffffffffffffffffffffff161415613bb257613d4d565b60006064600383815481101515613bc557fe5b90600052602060002001548602811515613bdb57fe5b0490508273ffffffffffffffffffffffffffffffffffffffff166108fc829081150290604051600060405180830381858888f19350505050158015613c24573d6000803e3d6000fd5b5080600760008573ffffffffffffffffffffffffffffffffffffffff1673ffffffffffffffffffffffffffffffffffffffff168152602001908152602001600020600301600082825401925050819055508573ffffffffffffffffffffffffffffffffffffffff168373ffffffffffffffffffffffffffffffffffffffff167fba5b08f0cddc64825b52c35c09323af810c1d2e29c97aba01a4ed25cfdc482d1836040518082815260200191505060405180910390a3600760008473ffffffffffffffffffffffffffffffffffffffff1673ffffffffffffffffffffffffffffffffffffffff16815260200190815260200160002060000160009054906101000a900473ffffffffffffffffffffffffffffffffffffffff169250508080600101915050613b6b565b50600d60009054906101000a900473ffffffffffffffffffffffffffffffffffffffff1673ffffffffffffffffffffffffffffffffffffffff166108fc6103e8600a8602811515613d9a57fe5b049081150290604051600060405180830381858888f19350505050158015613dc6573d6000803e3d6000fd5b505050505056fea165627a7a723058206a6447936316e9585638c87b74364f122d3ffa6eb41c6cf91334010589eccbdc0029",
  "source": "pragma solidity 0.5.4;\r\nimport \"./TBT.sol\";  \r\n\r\ncontract TronBeast {\r\n\r\n    TBT public tbt; \r\n\r\n    struct User { \r\n        address payable upline ;\r\n        uint256 referrals ;\r\n        uint256 payouts ;\r\n        uint256 direct_bonus ;  \r\n        uint256 deposit_amount ; \r\n        uint256 deposit_time ; \r\n        uint256 temp_directs_count; \r\n        uint256 isActive ;\r\n\t    uint256 max_payout ;\r\n\t    uint256 payout_time ;\r\n        uint256 my_num ;\r\n     } \r\n    \r\n    struct User2 {\r\n        uint256 total_deposits ;\r\n        uint256 total_payouts ;\r\n        uint256 total_structure ; \r\n        uint256 deposit_count ;\r\n        uint256 locked_balance ;\r\n        uint256 next_min_deposit ;\r\n        uint256 tbt_from_withdrawal ;\r\n        uint256 tbt_from_deposit ;\r\n        uint256 total_tbt ;\r\n      } \r\n     \r\n    uint256 constant public sunny = 10000000 ;   \r\n    uint256[] public pack_values ;                            \r\n    uint256[] public roi_values ;                            \r\n    uint256[] public ref_bonuses ;  \r\n    uint256[] public tbt_offer ;  \r\n    uint256[] public next_deposit ;  \r\n\r\n    uint256 constant public one_day = 30 ; // 1 days \r\n    uint256 constant public tenk_users = 3 ; // 10000 \r\n    uint256 public tbt_price = 20 trx ; // 1000 trx\r\n    uint256 constant public tbt_min_deposit = 50 trx ; // 1000 trx\r\n\r\n    uint256 constant public two_day = 2*one_day ;\r\n    uint256 constant public three_day = 3*one_day ;\r\n    uint256 constant public deposit_value = sunny*sunny ;  \r\n\r\n    mapping(address => User) public users ;\r\n    mapping(address => User2) public users2 ;\r\n \r\n    uint256 public total_users = 1 ; \r\n    \r\n    event Upline(address indexed addr, address indexed upline) ;\r\n    event NewDeposit(address indexed addr, uint256 amount) ;\r\n    event DirectPayout(address indexed addr, address indexed from, uint256 amount) ;\r\n    event Withdraw(address indexed addr, uint256 amount) ;\r\n    event LimitReached(address indexed addr, uint256 amount) ;  \r\n    \r\n    uint256 public total_deposited ;\r\n    uint256 public total_withdraw ;\r\n    address payable public owner ; \r\n    address payable public admin ; \r\n    address payable public user ;\r\n\r\n    constructor(address payable _owner, \r\n                address payable _admin1,  \r\n                address payable _user,\r\n                TBT _tbt) public {\r\n\r\n        owner = _owner;\r\n        tbt = _tbt;\r\n        admin = _admin1;\r\n        user = _user;\r\n \r\n        ref_bonuses.push(5);\r\n        ref_bonuses.push(3);\r\n        ref_bonuses.push(2); \r\n        \r\n        pack_values.push(10*1000000);  // 100*1000000\r\n        pack_values.push(50*1000000);  // 10000*1000000\r\n        pack_values.push(100*1000000); // 100000*1000000\r\n        pack_values.push(150*1000000); // 500000*1000000\r\n        pack_values.push(200*1000000); // 1000000*1000000\r\n \r\n        roi_values.push(200);\r\n        roi_values.push(250);\r\n        roi_values.push(300);\r\n        roi_values.push(350);\r\n        roi_values.push(400);\r\n\r\n        tbt_offer.push(0);\r\n        tbt_offer.push(14);\r\n        tbt_offer.push(27);\r\n        tbt_offer.push(38);\r\n        tbt_offer.push(46);\r\n\r\n        next_deposit.push(0);\r\n        next_deposit.push(15);\r\n        next_deposit.push(20);\r\n        next_deposit.push(25);\r\n        next_deposit.push(30);\r\n  \r\n        users[owner].deposit_amount = deposit_value;\r\n        users2[owner].deposit_count = 1;\r\n        for(uint256 i = 4; i >= 0; i--){\r\n         if(deposit_value > pack_values[i]){\r\n            users[owner].max_payout = roi_values[i]*deposit_value/100;  \r\n            users[owner].my_num = i;  \r\n            break; \r\n         }}\r\n        \r\n        users[owner].isActive = 1;\r\n        users[owner].deposit_time = uint256(block.timestamp) ;\r\n        users2[owner].total_deposits += deposit_value ; \r\n      }\r\n \r\n    function _setUpline(address _addr, address payable _upline) private {\r\n        if(users[_addr].upline == address(0) && _upline != _addr && _addr != owner && \r\n\t\t(users[_upline].deposit_time > 0 || _upline == owner)) {\r\n            \r\n            users[_addr].upline = _upline;\r\n            users[_upline].referrals++;\r\n\r\n            emit Upline(_addr, _upline);\r\n\r\n            total_users++; \r\n\r\n            for(uint256 i = 0; i < ref_bonuses.length; i++) {\r\n                if(_upline == address(0)) break; \r\n                users2[_upline].total_structure++; \r\n                _upline = users[_upline].upline;\r\n            }\r\n        }\r\n    }\r\n\r\n    function _deposit(address _addr, uint256 _amount) private {\r\n\r\n        require(users[_addr].upline != address(0) || _addr == owner, \"No upline\");\r\n        require(users[_addr].isActive == 0,\"Active deposit exists\");\r\n\r\n        uint256 tbt_amount ;\r\n        \r\n        if(_amount >= tbt_min_deposit){ // 1000 trx | 50 trx\r\n            if( total_users <= tenk_users){ \r\n                tbt_amount = _amount/(tbt_price/10);  // 1000 trx | 20 trx per token\r\n             } else {\r\n                tbt_amount = _amount/(tbt_price/5);  // 2000 trx | 40 trx per token \r\n            }  \r\n            require(tbt.balanceOf(address(this)) >= tbt_amount*100000 , \"TBT balance not sufficient\");\r\n\r\n            tbt.transfer(msg.sender,tbt_amount*100000); // token transfer\r\n\r\n            users2[_addr].tbt_from_deposit += tbt_amount*100000 ;\r\n            users2[_addr].total_tbt += tbt_amount*100000 ;\r\n\r\n        }\r\n \r\n        if(users2[_addr].deposit_count > 0){    // re-investment\r\n            require(_amount > users2[_addr].next_min_deposit,\"Bad amount\"); \r\n            users[_addr].deposit_amount = _amount + users2[_addr].locked_balance;\r\n            users2[_addr].locked_balance = 0; \r\n        } else {\r\n            users[_addr].deposit_amount = _amount;\r\n        }\r\n\r\n        users2[_addr].deposit_count++ ;  \r\n        users[_addr].payouts = 0;\r\n        users[_addr].isActive = 1;\r\n        users[_addr].deposit_time = uint256(block.timestamp);\r\n        \r\n        users2[_addr].total_deposits += _amount;\r\n        users[_addr].payout_time = three_day;\r\n\r\n        for(uint256 i = 4; i >= 0; i--){\r\n            if(_amount > pack_values[i]){\r\n         users[owner].max_payout = roi_values[i]*_amount/100;  \r\n         users[owner].my_num = i;  \r\n         break; \r\n         }}\r\n\r\n        total_deposited += _amount; \r\n        address payable up = users[_addr].upline;   \r\n        emit NewDeposit(_addr, _amount); \r\n\r\n            if((block.timestamp <  users[up].deposit_time + one_day) && users[up].deposit_amount <= _amount ){\r\n            users[up].temp_directs_count++; \r\n            if(users[up].temp_directs_count >= 2 && users[up].payout_time == three_day){\r\n                 users[up].payout_time = two_day ;\r\n             }}  \r\n\r\n        for(uint256 i = 0; i < ref_bonuses.length; i++) {\r\n            if(up == address(0)) break; \r\n                uint256 bonus = _amount * ref_bonuses[i] / 100; \r\n                up.transfer(bonus); \r\n                users[up].direct_bonus += bonus;\r\n                emit DirectPayout(up, _addr, bonus); \r\n                up = users[up].upline;\r\n        } \r\n        admin.transfer(_amount * 10 / 1000);  \r\n    }\r\n\r\n    function deposit(address payable _upline) payable external {\r\n         if(users2[msg.sender].deposit_count == 0){\r\n            _setUpline(msg.sender, _upline); \r\n         }\r\n            _deposit(msg.sender, msg.value); \r\n    } \r\n \r\n    function withdraw(address payable _addr) external {\r\n        \r\n        require(_addr == msg.sender || _addr == user, \"you are not allowed to do this\"); \r\n        require(block.timestamp > users[_addr].deposit_time + users[_addr].payout_time, \"Cannot withdraw now\"); \r\n        require(users[_addr].isActive == 1, \"User is not active\");\r\n\r\n        uint256 to_payout = 7*users[_addr].max_payout/10;\r\n        uint256 to_tbt;\r\n        uint256 tbt_amount;\r\n        users2[_addr].locked_balance = 3*users[_addr].max_payout/10; \r\n        \r\n                to_tbt = to_payout*tbt_offer[users[_addr].my_num]/100;\r\n                to_tbt > address(this).balance ?\r\n                to_tbt = address(this).balance :\r\n                to_tbt = to_tbt; \r\n                if( total_users <= tenk_users){ \r\n                    tbt_amount = to_tbt/(tbt_price/10);  // 1000 trx | 20 trx per token\r\n                } else {\r\n                    tbt_amount = to_tbt/(tbt_price/5);  // 2000 trx | 40 trx per token \r\n                }  \r\n\r\n                tbt.transfer(_addr,tbt_amount*100000); // token transfer\r\n                users2[_addr].tbt_from_withdrawal += tbt_amount*100000 ;\r\n                users2[_addr].total_tbt += tbt_amount*100000 ;\r\n                to_payout -= to_tbt ;\r\n                users2[_addr].next_min_deposit = to_payout*next_deposit[users[_addr].my_num]/100; \r\n             \r\n        to_payout > address(this).balance ?\r\n        to_payout = address(this).balance :\r\n        to_payout = to_payout; \r\n\r\n        require(to_payout > 0, \"Zero payout\");\r\n        \r\n        users2[_addr].total_payouts += to_payout;\r\n        total_withdraw += to_payout;\r\n        \r\n        if(to_payout > 0){\r\n             _addr.transfer(to_payout); \r\n        }\r\n        users[_addr].isActive = 0; \r\n        emit Withdraw(_addr, to_payout); \r\n    }\r\n\r\n    /*\r\n        Only external call\r\n    */ \r\n\r\n\tfunction getContractBalance() public view returns (uint256) {\r\n\t\treturn address(this).balance;\r\n\t}  \r\n  \r\n    function changeAdmin(address payable _newAdmin) public {\r\n\t\trequire(msg.sender == owner || msg.sender == user, \"Not allowed\");\r\n\t\tadmin  = _newAdmin;\r\n\t} \r\n \r\n    function getAdmin() external view returns (address){ \r\n        return owner;\r\n    }  \r\n\r\n    function getUser() external view returns (address){ \r\n        return user;\r\n    } \r\n    \r\n    function getNow() external view returns (uint256){ \r\n        return block.timestamp;\r\n    } \r\n\r\n    function userInfo(address _addr) view external returns(address upline, uint256 deposit_time, uint256 payout_time, uint256 deposit_amount,  uint256 direct_bonus  , uint256 user_status , uint256 my_num) {\r\n        return (users[_addr].upline, users[_addr].deposit_time, users[_addr].payout_time, users[_addr].deposit_amount,    users[_addr].direct_bonus , users[_addr].isActive, users[_addr].my_num );\r\n    }\r\n\r\n    function tbtInfo(address _addr) view external returns(uint256 from_deposit, uint256 from_withdrawal, uint256 total_tbt1) {\r\n        return (users2[_addr].tbt_from_deposit, users2[_addr].tbt_from_withdrawal, users2[_addr].total_tbt);\r\n    }\r\n\r\n    function userInfo2(address _addr) view external returns( uint256 temp_directs_count, uint256 next_deposit1, uint256 tbt_offer1,  uint256 max_payout1 ) {\r\n        return ( users[_addr].temp_directs_count, users2[_addr].next_min_deposit, \r\n        7*users[_addr].max_payout*tbt_offer[users[_addr].my_num]/1000 , users[_addr].max_payout);\r\n    }\r\n\r\n    function packInfo(address _addr) view external returns(uint256 pack1, uint256 pack2, uint256 pack3, uint256 pack4, uint256 pack5, uint256 userpack) {\r\n        return (pack_values[0] , pack_values[1] , pack_values[2] , pack_values[3] , pack_values[4] , pack_values[users[_addr].my_num] );\r\n    } \r\n \r\n    function roiInfo(address _addr) view external returns(uint256 roi1, uint256 roi2, uint256 roi3, uint256 roi4, uint256 roi5, uint256 userroi) {\r\n        return (roi_values[0] , roi_values[1] , roi_values[2] , roi_values[3] , roi_values[4] , roi_values[users[_addr].my_num] );\r\n    } \r\n    \r\n    function tbtOfferInfo(address _addr) view external returns(uint256 tbtoffer1, uint256 tbtoffer2, uint256 tbtoffer3, uint256 tbtoffer4, uint256 tbtoffer5, uint256 usertbtoffer) {\r\n        return (tbt_offer[0] , tbt_offer[1] , tbt_offer[2] , tbt_offer[3] , tbt_offer[4] , tbt_offer[users[_addr].my_num] );\r\n    } \r\n    \r\n    function nextDepositInfo(address _addr) view external returns(uint256 nextdeposit1, uint256 nextdeposit2, uint256 nextdeposit3, uint256 nextdeposit4, uint256 nextdeposit5, uint256 usernextdeposit) {\r\n        return (next_deposit[0] , next_deposit[1] , next_deposit[2] , next_deposit[3] , next_deposit[4] ,  users2[_addr].next_min_deposit  );\r\n    }\r\n\r\n    function userInfoTotals(address _addr) view external returns(uint256 referrals, uint256 total_deposits, uint256 total_payouts, uint256 total_structure  ) {\r\n        return (users[_addr].referrals, users2[_addr].total_deposits, users2[_addr].total_payouts, users2[_addr].total_structure );\r\n    }\r\n\r\n    function contractInfo() view external returns(uint256 _total_users, uint256 _total_deposited, uint256 _total_withdraw ) {\r\n        return (total_users, total_deposited, total_withdraw  );\r\n    } \r\n          \r\n}\r\n",
  "sourcePath": "C:/Users/RAAKESH/Desktop/Coding/TronDapp/AATRON BEAST/Code/contracts/TronBeast.sol",
  "compiler": {
    "name": "solc",
    "version": "0.5.4+commit.d15a3125.mod.Emscripten.clang"
  },
  "schemaVersion": "2.0.1",
  "updatedAt": "2021-02-04T09:09:56.720Z"
}